{
	"DEXLogic.sol": {
		"PathFinding": {
			"abi": [
				{
					"inputs": [],
					"stateMutability": "nonpayable",
					"type": "constructor"
				},
				{
					"inputs": [],
					"name": "DAI",
					"outputs": [
						{
							"internalType": "address",
							"name": "",
							"type": "address"
						}
					],
					"stateMutability": "view",
					"type": "function"
				},
				{
					"inputs": [],
					"name": "OHM",
					"outputs": [
						{
							"internalType": "address",
							"name": "",
							"type": "address"
						}
					],
					"stateMutability": "view",
					"type": "function"
				},
				{
					"inputs": [],
					"name": "USDC",
					"outputs": [
						{
							"internalType": "address",
							"name": "",
							"type": "address"
						}
					],
					"stateMutability": "view",
					"type": "function"
				},
				{
					"inputs": [],
					"name": "USDT",
					"outputs": [
						{
							"internalType": "address",
							"name": "",
							"type": "address"
						}
					],
					"stateMutability": "view",
					"type": "function"
				},
				{
					"inputs": [],
					"name": "WETH",
					"outputs": [
						{
							"internalType": "address",
							"name": "",
							"type": "address"
						}
					],
					"stateMutability": "view",
					"type": "function"
				},
				{
					"inputs": [
						{
							"internalType": "uint256",
							"name": "",
							"type": "uint256"
						},
						{
							"internalType": "uint256",
							"name": "",
							"type": "uint256"
						}
					],
					"name": "allPath",
					"outputs": [
						{
							"internalType": "address",
							"name": "",
							"type": "address"
						}
					],
					"stateMutability": "view",
					"type": "function"
				},
				{
					"inputs": [
						{
							"internalType": "uint256",
							"name": "",
							"type": "uint256"
						}
					],
					"name": "dex",
					"outputs": [
						{
							"internalType": "address",
							"name": "",
							"type": "address"
						}
					],
					"stateMutability": "view",
					"type": "function"
				},
				{
					"inputs": [],
					"name": "getBestPriceWithPaths",
					"outputs": [
						{
							"internalType": "uint256",
							"name": "",
							"type": "uint256"
						},
						{
							"internalType": "uint256",
							"name": "",
							"type": "uint256"
						},
						{
							"internalType": "uint256",
							"name": "",
							"type": "uint256"
						}
					],
					"stateMutability": "view",
					"type": "function"
				},
				{
					"inputs": [],
					"name": "getPrice",
					"outputs": [
						{
							"internalType": "uint256",
							"name": "",
							"type": "uint256"
						}
					],
					"stateMutability": "view",
					"type": "function"
				},
				{
					"inputs": [
						{
							"internalType": "uint256",
							"name": "",
							"type": "uint256"
						}
					],
					"name": "path",
					"outputs": [
						{
							"internalType": "address",
							"name": "",
							"type": "address"
						}
					],
					"stateMutability": "view",
					"type": "function"
				},
				{
					"inputs": [],
					"name": "sushiswapV2Router",
					"outputs": [
						{
							"internalType": "address",
							"name": "",
							"type": "address"
						}
					],
					"stateMutability": "view",
					"type": "function"
				},
				{
					"inputs": [],
					"name": "uniswapV2Router",
					"outputs": [
						{
							"internalType": "address",
							"name": "",
							"type": "address"
						}
					],
					"stateMutability": "view",
					"type": "function"
				}
			],
			"devdoc": {
				"kind": "dev",
				"methods": {},
				"version": 1
			},
			"evm": {
				"assembly": "    /* \"DEXLogic.sol\":373:437  address public WETH = 0xC02aaA39b223FE8D0A0e5C4F27eAD9083C756Cc2 */\n  0x00\n  dup1\n  sload\n  not(sub(shl(0xa0, 0x01), 0x01))\n  swap1\n  dup2\n  and\n    /* \"DEXLogic.sol\":395:437  0xC02aaA39b223FE8D0A0e5C4F27eAD9083C756Cc2 */\n  0xc02aaa39b223fe8d0a0e5c4f27ead9083c756cc2\n    /* \"DEXLogic.sol\":373:437  address public WETH = 0xC02aaA39b223FE8D0A0e5C4F27eAD9083C756Cc2 */\n  or\n  swap1\n  swap2\n  sstore\n  0x01\n    /* \"DEXLogic.sol\":443:507  address public USDC = 0xA0b86991c6218b36c1d19D4a2e9Eb0cE3606eB48 */\n  dup1\n  sload\n  dup3\n  and\n    /* \"DEXLogic.sol\":465:507  0xA0b86991c6218b36c1d19D4a2e9Eb0cE3606eB48 */\n  0xa0b86991c6218b36c1d19d4a2e9eb0ce3606eb48\n    /* \"DEXLogic.sol\":443:507  address public USDC = 0xA0b86991c6218b36c1d19D4a2e9Eb0cE3606eB48 */\n  or\n  swap1\n  sstore\n    /* \"DEXLogic.sol\":513:577  address public USDT = 0xdAC17F958D2ee523a2206206994597C13D831ec7 */\n  0x02\n  dup1\n  sload\n  dup3\n  and\n    /* \"DEXLogic.sol\":535:577  0xdAC17F958D2ee523a2206206994597C13D831ec7 */\n  0xdac17f958d2ee523a2206206994597c13d831ec7\n    /* \"DEXLogic.sol\":513:577  address public USDT = 0xdAC17F958D2ee523a2206206994597C13D831ec7 */\n  or\n  dup2\n  sstore\n    /* \"DEXLogic.sol\":583:646  address public DAI = 0x6B175474E89094C44Da98b954EedeAC495271d0F */\n  0x03\n  dup1\n  sload\n  dup4\n  and\n    /* \"DEXLogic.sol\":604:646  0x6B175474E89094C44Da98b954EedeAC495271d0F */\n  0x6b175474e89094c44da98b954eedeac495271d0f\n    /* \"DEXLogic.sol\":583:646  address public DAI = 0x6B175474E89094C44Da98b954EedeAC495271d0F */\n  or\n  swap1\n  sstore\n    /* \"DEXLogic.sol\":652:715  address public OHM = 0x64aa3364F17a4D01c6f1751Fd97C2BD3D7e7f1D5 */\n  0x04\n  dup1\n  sload\n  swap1\n  swap3\n  and\n    /* \"DEXLogic.sol\":673:715  0x64aa3364F17a4D01c6f1751Fd97C2BD3D7e7f1D5 */\n  0x64aa3364f17a4d01c6f1751fd97c2bd3d7e7f1d5\n    /* \"DEXLogic.sol\":652:715  address public OHM = 0x64aa3364F17a4D01c6f1751Fd97C2BD3D7e7f1D5 */\n  or\n  swap1\n  swap2\n  sstore\n    /* \"DEXLogic.sol\":722:780  address[] public dex = [uniswapV2Router,sushiswapV2Router] */\n  0xc0\n    /* \"DEXLogic.sol\":164:2850  contract PathFinding{... */\n  0x40\n    /* \"DEXLogic.sol\":722:780  address[] public dex = [uniswapV2Router,sushiswapV2Router] */\n  mstore\n    /* \"DEXLogic.sol\":232:274  0x7a250d5630B4cF539739dF2C5dAcb4c659F2488D */\n  0x7a250d5630b4cf539739df2c5dacb4c659f2488d\n    /* \"DEXLogic.sol\":164:2850  contract PathFinding{... */\n  0x80\n    /* \"DEXLogic.sol\":722:780  address[] public dex = [uniswapV2Router,sushiswapV2Router] */\n  swap1\n  dup2\n  mstore\n    /* \"DEXLogic.sol\":324:366  0xd9e1cE17f2641f24aE83637ab66a2cca9C378B9F */\n  0xd9e1ce17f2641f24ae83637ab66a2cca9c378b9f\n    /* \"DEXLogic.sol\":722:780  address[] public dex = [uniswapV2Router,sushiswapV2Router] */\n  0xa0\n  mstore\n  tag_1\n  swap2\n  0x05\n  swap2\n    /* \"DEXLogic.sol\":164:2850  contract PathFinding{... */\n  swap1\n    /* \"DEXLogic.sol\":722:780  address[] public dex = [uniswapV2Router,sushiswapV2Router] */\n  tag_2\n  jump\t// in\ntag_1:\n  pop\n    /* \"DEXLogic.sol\":787:821  address[] public path = [WETH,OHM] */\n  0x40\n  dup1\n  mload\n  dup1\n  dup3\n  add\n  swap1\n  swap2\n  mstore\n  0x00\n    /* \"DEXLogic.sol\":812:816  WETH */\n  sload\n  sub(shl(0xa0, 0x01), 0x01)\n  swap1\n  dup2\n  and\n    /* \"DEXLogic.sol\":787:821  address[] public path = [WETH,OHM] */\n  dup3\n  mstore\n    /* \"DEXLogic.sol\":817:820  OHM */\n  sload(0x04)\n  and\n    /* \"DEXLogic.sol\":787:821  address[] public path = [WETH,OHM] */\n  0x20\n  dup3\n  add\n  mstore\n  tag_3\n  swap1\n  0x06\n  swap1\n  0x02\n  tag_2\n  jump\t// in\ntag_3:\n  pop\n    /* \"DEXLogic.sol\":861:1018  constructor(){... */\n  callvalue\n  dup1\n  iszero\n  tag_4\n  jumpi\n  0x00\n  dup1\n  revert\ntag_4:\n  pop\n    /* \"DEXLogic.sol\":884:909  allPath.push([WETH,USDC]) */\n  0x40\n  dup1\n  mload\n  dup1\n  dup3\n  add\n  swap1\n  swap2\n  mstore\n  0x00\n    /* \"DEXLogic.sol\":898:902  WETH */\n  dup1\n  sload\n  sub(shl(0xa0, 0x01), 0x01)\n  swap1\n  dup2\n  and\n    /* \"DEXLogic.sol\":884:909  allPath.push([WETH,USDC]) */\n  dup4\n  mstore\n    /* \"DEXLogic.sol\":898:902  WETH */\n  0x01\n    /* \"DEXLogic.sol\":903:907  USDC */\n  dup1\n  sload\n  swap1\n  swap2\n  and\n    /* \"DEXLogic.sol\":884:909  allPath.push([WETH,USDC]) */\n  0x20\n  dup5\n  add\n  mstore\n    /* \"DEXLogic.sol\":884:891  allPath */\n  0x07\n    /* \"DEXLogic.sol\":884:909  allPath.push([WETH,USDC]) */\n  dup1\n  sload\n  swap2\n  dup3\n  add\n  dup2\n  sstore\n  swap1\n  swap2\n  mstore\n  tag_8\n  swap2\n  0x00\n  dup1\n  mload\n  0x20\n  data_607bca8f7c1c56da874da29cd62c3769b9880d38a258a91fc6dd1cfb6b4d1a8e\n  dup4\n  codecopy\n  dup2\n  mload\n  swap2\n  mstore\n  swap1\n  swap2\n  add\n  swap1\n  0x02\n  tag_2\n  jump\t// in\ntag_8:\n  pop\n    /* \"DEXLogic.sol\":919:944  allPath.push([USDC,USDT]) */\n  0x40\n  dup1\n  mload\n  dup1\n  dup3\n  add\n  swap1\n  swap2\n  mstore\n    /* \"DEXLogic.sol\":933:937  USDC */\n  0x01\n  dup1\n  sload\n  sub(shl(0xa0, 0x01), 0x01)\n  swap1\n  dup2\n  and\n    /* \"DEXLogic.sol\":919:944  allPath.push([USDC,USDT]) */\n  dup4\n  mstore\n    /* \"DEXLogic.sol\":938:942  USDT */\n  0x02\n  dup1\n  sload\n  swap1\n  swap2\n  and\n    /* \"DEXLogic.sol\":919:944  allPath.push([USDC,USDT]) */\n  0x20\n  dup5\n  add\n  mstore\n    /* \"DEXLogic.sol\":919:926  allPath */\n  0x07\n    /* \"DEXLogic.sol\":919:944  allPath.push([USDC,USDT]) */\n  dup1\n  sload\n  swap3\n  dup4\n  add\n  dup2\n  sstore\n  0x00\n  mstore\n  tag_10\n  swap3\n  0x00\n  dup1\n  mload\n  0x20\n  data_607bca8f7c1c56da874da29cd62c3769b9880d38a258a91fc6dd1cfb6b4d1a8e\n  dup4\n  codecopy\n  dup2\n  mload\n  swap2\n  mstore\n  swap1\n  swap3\n  add\n  swap2\n  swap1\n  tag_2\n  jump\t// in\ntag_10:\n  pop\n    /* \"DEXLogic.sol\":954:978  allPath.push([USDT,DAI]) */\n  0x40\n  dup1\n  mload\n  dup1\n  dup3\n  add\n  swap1\n  swap2\n  mstore\n    /* \"DEXLogic.sol\":968:972  USDT */\n  0x02\n  dup1\n  sload\n  sub(shl(0xa0, 0x01), 0x01)\n  swap1\n  dup2\n  and\n    /* \"DEXLogic.sol\":954:978  allPath.push([USDT,DAI]) */\n  dup4\n  mstore\n    /* \"DEXLogic.sol\":973:976  DAI */\n  sload(0x03)\n  and\n    /* \"DEXLogic.sol\":954:978  allPath.push([USDT,DAI]) */\n  0x20\n  dup4\n  add\n  mstore\n    /* \"DEXLogic.sol\":954:961  allPath */\n  0x07\n    /* \"DEXLogic.sol\":954:978  allPath.push([USDT,DAI]) */\n  dup1\n  sload\n    /* \"DEXLogic.sol\":968:972  USDT */\n  0x01\n    /* \"DEXLogic.sol\":954:978  allPath.push([USDT,DAI]) */\n  dup2\n  add\n  dup3\n  sstore\n  0x00\n  swap2\n  swap1\n  swap2\n  mstore\n  tag_12\n  swap3\n  0x00\n  dup1\n  mload\n  0x20\n  data_607bca8f7c1c56da874da29cd62c3769b9880d38a258a91fc6dd1cfb6b4d1a8e\n  dup4\n  codecopy\n  dup2\n  mload\n  swap2\n  mstore\n  swap1\n  swap2\n  add\n  swap2\n  tag_2\n  jump\t// in\ntag_12:\n  pop\n    /* \"DEXLogic.sol\":988:1011  allPath.push([DAI,OHM]) */\n  0x40\n  dup1\n  mload\n  dup1\n  dup3\n  add\n  swap1\n  swap2\n  mstore\n    /* \"DEXLogic.sol\":1002:1005  DAI */\n  sload(0x03)\n  sub(shl(0xa0, 0x01), 0x01)\n  swap1\n  dup2\n  and\n    /* \"DEXLogic.sol\":988:1011  allPath.push([DAI,OHM]) */\n  dup3\n  mstore\n    /* \"DEXLogic.sol\":1006:1009  OHM */\n  sload(0x04)\n  and\n    /* \"DEXLogic.sol\":988:1011  allPath.push([DAI,OHM]) */\n  0x20\n  dup3\n  add\n  mstore\n    /* \"DEXLogic.sol\":988:995  allPath */\n  0x07\n    /* \"DEXLogic.sol\":988:1011  allPath.push([DAI,OHM]) */\n  dup1\n  sload\n    /* \"DEXLogic.sol\":1002:1005  DAI */\n  0x01\n    /* \"DEXLogic.sol\":988:1011  allPath.push([DAI,OHM]) */\n  dup2\n  add\n  dup3\n  sstore\n  0x00\n  swap2\n  swap1\n  swap2\n  mstore\n  tag_14\n  swap2\n  0x00\n  dup1\n  mload\n  0x20\n  data_607bca8f7c1c56da874da29cd62c3769b9880d38a258a91fc6dd1cfb6b4d1a8e\n  dup4\n  codecopy\n  dup2\n  mload\n  swap2\n  mstore\n  swap1\n  swap2\n  add\n  swap1\n  0x02\n  tag_2\n  jump\t// in\ntag_14:\n  pop\n    /* \"DEXLogic.sol\":164:2850  contract PathFinding{... */\n  jump(tag_15)\ntag_2:\n  dup3\n  dup1\n  sload\n  dup3\n  dup3\n  sstore\n  swap1\n  0x00\n  mstore\n  keccak256(0x00, 0x20)\n  swap1\n  dup2\n  add\n  swap3\n  dup3\n  iszero\n  tag_18\n  jumpi\n  swap2\n  0x20\n  mul\n  dup3\n  add\ntag_17:\n  dup3\n  dup2\n  gt\n  iszero\n  tag_18\n  jumpi\n  dup3\n  mload\n  dup3\n  sload\n  not(sub(shl(0xa0, 0x01), 0x01))\n  and\n  sub(shl(0xa0, 0x01), 0x01)\n  swap1\n  swap2\n  and\n  or\n  dup3\n  sstore\n  0x20\n  swap1\n  swap3\n  add\n  swap2\n  0x01\n  swap1\n  swap2\n  add\n  swap1\n  jump(tag_17)\ntag_18:\n  pop\n  tag_19\n  swap3\n  swap2\n  pop\n  tag_20\n  jump\t// in\ntag_19:\n  pop\n  swap1\n  jump\t// out\ntag_20:\ntag_21:\n  dup1\n  dup3\n  gt\n  iszero\n  tag_19\n  jumpi\n  0x00\n  dup2\n  sstore\n  0x01\n  add\n  jump(tag_21)\ntag_15:\n  dataSize(sub_0)\n  dup1\n  dataOffset(sub_0)\n  0x00\n  codecopy\n  0x00\n  return\nstop\ndata_607bca8f7c1c56da874da29cd62c3769b9880d38a258a91fc6dd1cfb6b4d1a8e a66cc928b5edb82af9bd49922954155ab7b0942694bea4ce44661d9a8736c688\n\nsub_0: assembly {\n        /* \"DEXLogic.sol\":164:2850  contract PathFinding{... */\n      mstore(0x40, 0x80)\n      callvalue\n      dup1\n      iszero\n      tag_1\n      jumpi\n      0x00\n      dup1\n      revert\n    tag_1:\n      pop\n      jumpi(tag_2, lt(calldatasize, 0x04))\n      shr(0xe0, calldataload(0x00))\n      dup1\n      0x98d5fdca\n      gt\n      tag_15\n      jumpi\n      dup1\n      0x98d5fdca\n      eq\n      tag_9\n      jumpi\n      dup1\n      0xa6c41fec\n      eq\n      tag_10\n      jumpi\n      dup1\n      0xad5c4648\n      eq\n      tag_11\n      jumpi\n      dup1\n      0xaf6d1fe4\n      eq\n      tag_12\n      jumpi\n      dup1\n      0xc54e44eb\n      eq\n      tag_13\n      jumpi\n      dup1\n      0xe0bab4c4\n      eq\n      tag_14\n      jumpi\n      0x00\n      dup1\n      revert\n    tag_15:\n      dup1\n      0x1694505e\n      eq\n      tag_3\n      jumpi\n      dup1\n      0x24d16c1a\n      eq\n      tag_4\n      jumpi\n      dup1\n      0x38c6cdd5\n      eq\n      tag_5\n      jumpi\n      dup1\n      0x46fab9e9\n      eq\n      tag_6\n      jumpi\n      dup1\n      0x70b5180d\n      eq\n      tag_7\n      jumpi\n      dup1\n      0x89a30271\n      eq\n      tag_8\n      jumpi\n    tag_2:\n      0x00\n      dup1\n      revert\n        /* \"DEXLogic.sol\":190:274  address constant public uniswapV2Router = 0x7a250d5630B4cF539739dF2C5dAcb4c659F2488D */\n    tag_3:\n      tag_16\n        /* \"DEXLogic.sol\":232:274  0x7a250d5630B4cF539739dF2C5dAcb4c659F2488D */\n      0x7a250d5630b4cf539739df2c5dacb4c659f2488d\n        /* \"DEXLogic.sol\":190:274  address constant public uniswapV2Router = 0x7a250d5630B4cF539739dF2C5dAcb4c659F2488D */\n      dup2\n      jump\n    tag_16:\n      mload(0x40)\n      sub(shl(0xa0, 0x01), 0x01)\n        /* \"#utility.yul\":178:210   */\n      swap1\n      swap2\n      and\n        /* \"#utility.yul\":160:211   */\n      dup2\n      mstore\n        /* \"#utility.yul\":148:150   */\n      0x20\n        /* \"#utility.yul\":133:151   */\n      add\n        /* \"DEXLogic.sol\":190:274  address constant public uniswapV2Router = 0x7a250d5630B4cF539739dF2C5dAcb4c659F2488D */\n    tag_18:\n      mload(0x40)\n      dup1\n      swap2\n      sub\n      swap1\n      return\n        /* \"DEXLogic.sol\":722:780  address[] public dex = [uniswapV2Router,sushiswapV2Router] */\n    tag_4:\n      tag_16\n      tag_21\n      calldatasize\n      0x04\n      tag_22\n      jump\t// in\n    tag_21:\n      tag_23\n      jump\t// in\n        /* \"DEXLogic.sol\":280:366  address constant public sushiswapV2Router = 0xd9e1cE17f2641f24aE83637ab66a2cca9C378B9F */\n    tag_5:\n      tag_16\n        /* \"DEXLogic.sol\":324:366  0xd9e1cE17f2641f24aE83637ab66a2cca9C378B9F */\n      0xd9e1ce17f2641f24ae83637ab66a2cca9c378b9f\n        /* \"DEXLogic.sol\":280:366  address constant public sushiswapV2Router = 0xd9e1cE17f2641f24aE83637ab66a2cca9C378B9F */\n      dup2\n      jump\n        /* \"DEXLogic.sol\":827:854  address [][] public allPath */\n    tag_6:\n      tag_16\n      tag_29\n      calldatasize\n      0x04\n      tag_30\n      jump\t// in\n    tag_29:\n      tag_31\n      jump\t// in\n        /* \"DEXLogic.sol\":1399:2848  function getBestPriceWithPaths()public view returns(uint256,uint256,uint256){... */\n    tag_7:\n      tag_33\n      tag_34\n      jump\t// in\n    tag_33:\n      0x40\n      dup1\n      mload\n        /* \"#utility.yul\":862:887   */\n      swap4\n      dup5\n      mstore\n        /* \"#utility.yul\":918:920   */\n      0x20\n        /* \"#utility.yul\":903:921   */\n      dup5\n      add\n        /* \"#utility.yul\":896:930   */\n      swap3\n      swap1\n      swap3\n      mstore\n        /* \"#utility.yul\":946:964   */\n      swap1\n      dup3\n      add\n        /* \"#utility.yul\":939:973   */\n      mstore\n        /* \"#utility.yul\":850:852   */\n      0x60\n        /* \"#utility.yul\":835:853   */\n      add\n        /* \"DEXLogic.sol\":1399:2848  function getBestPriceWithPaths()public view returns(uint256,uint256,uint256){... */\n      tag_18\n        /* \"#utility.yul\":660:979   */\n      jump\n        /* \"DEXLogic.sol\":443:507  address public USDC = 0xA0b86991c6218b36c1d19D4a2e9Eb0cE3606eB48 */\n    tag_8:\n      sload(0x01)\n      tag_16\n      swap1\n      sub(shl(0xa0, 0x01), 0x01)\n      and\n      dup2\n      jump\n        /* \"DEXLogic.sol\":1025:1393  function getPrice()public view returns(uint256){... */\n    tag_9:\n      tag_40\n      tag_41\n      jump\t// in\n    tag_40:\n      mload(0x40)\n        /* \"#utility.yul\":1130:1155   */\n      swap1\n      dup2\n      mstore\n        /* \"#utility.yul\":1118:1120   */\n      0x20\n        /* \"#utility.yul\":1103:1121   */\n      add\n        /* \"DEXLogic.sol\":1025:1393  function getPrice()public view returns(uint256){... */\n      tag_18\n        /* \"#utility.yul\":984:1161   */\n      jump\n        /* \"DEXLogic.sol\":652:715  address public OHM = 0x64aa3364F17a4D01c6f1751Fd97C2BD3D7e7f1D5 */\n    tag_10:\n      sload(0x04)\n      tag_16\n      swap1\n      sub(shl(0xa0, 0x01), 0x01)\n      and\n      dup2\n      jump\n        /* \"DEXLogic.sol\":373:437  address public WETH = 0xC02aaA39b223FE8D0A0e5C4F27eAD9083C756Cc2 */\n    tag_11:\n      sload(0x00)\n      tag_16\n      swap1\n      sub(shl(0xa0, 0x01), 0x01)\n      and\n      dup2\n      jump\n        /* \"DEXLogic.sol\":787:821  address[] public path = [WETH,OHM] */\n    tag_12:\n      tag_16\n      tag_51\n      calldatasize\n      0x04\n      tag_22\n      jump\t// in\n    tag_51:\n      tag_52\n      jump\t// in\n        /* \"DEXLogic.sol\":513:577  address public USDT = 0xdAC17F958D2ee523a2206206994597C13D831ec7 */\n    tag_13:\n      sload(0x02)\n      tag_16\n      swap1\n      sub(shl(0xa0, 0x01), 0x01)\n      and\n      dup2\n      jump\n        /* \"DEXLogic.sol\":583:646  address public DAI = 0x6B175474E89094C44Da98b954EedeAC495271d0F */\n    tag_14:\n      sload(0x03)\n      tag_16\n      swap1\n      sub(shl(0xa0, 0x01), 0x01)\n      and\n      dup2\n      jump\n        /* \"DEXLogic.sol\":722:780  address[] public dex = [uniswapV2Router,sushiswapV2Router] */\n    tag_23:\n      0x05\n      dup2\n      dup2\n      sload\n      dup2\n      lt\n      tag_60\n      jumpi\n      0x00\n      dup1\n      revert\n    tag_60:\n      0x00\n      swap2\n      dup3\n      mstore\n      0x20\n      swap1\n      swap2\n      keccak256\n      add\n      sload\n      sub(shl(0xa0, 0x01), 0x01)\n      and\n      swap1\n      pop\n      dup2\n      jump\t// out\n        /* \"DEXLogic.sol\":827:854  address [][] public allPath */\n    tag_31:\n      0x07\n      dup3\n      dup2\n      sload\n      dup2\n      lt\n      tag_62\n      jumpi\n      0x00\n      dup1\n      revert\n    tag_62:\n      swap1\n      0x00\n      mstore\n      keccak256(0x00, 0x20)\n      add\n      dup2\n      dup2\n      sload\n      dup2\n      lt\n      tag_64\n      jumpi\n      0x00\n      dup1\n      revert\n    tag_64:\n      0x00\n      swap2\n      dup3\n      mstore\n      0x20\n      swap1\n      swap2\n      keccak256\n      add\n      sload\n      sub(shl(0xa0, 0x01), 0x01)\n      and\n      swap2\n      pop\n      dup3\n      swap1\n      pop\n      jump\t// out\n        /* \"DEXLogic.sol\":1399:2848  function getBestPriceWithPaths()public view returns(uint256,uint256,uint256){... */\n    tag_34:\n        /* \"DEXLogic.sol\":1451:1458  uint256 */\n      0x00\n        /* \"DEXLogic.sol\":1459:1466  uint256 */\n      dup1\n        /* \"DEXLogic.sol\":1467:1474  uint256 */\n      0x00\n        /* \"DEXLogic.sol\":1495:1512  uint256 bestValue */\n      dup1\n        /* \"DEXLogic.sol\":1522:1537  uint256 tempVal */\n      0x00\n        /* \"DEXLogic.sol\":1551:1560  uint256 i */\n      dup1\n        /* \"DEXLogic.sol\":1547:2393  for(uint256 i; i<allPath.length; i++){... */\n    tag_67:\n        /* \"DEXLogic.sol\":1564:1571  allPath */\n      0x07\n        /* \"DEXLogic.sol\":1564:1578  allPath.length */\n      sload\n        /* \"DEXLogic.sol\":1562:1578  i<allPath.length */\n      dup2\n      lt\n        /* \"DEXLogic.sol\":1547:2393  for(uint256 i; i<allPath.length; i++){... */\n      iszero\n      tag_68\n      jumpi\n        /* \"DEXLogic.sol\":1602:1611  uint256 j */\n      0x00\n        /* \"DEXLogic.sol\":1598:2383  for(uint256 j=0; j<dex.length; j++){... */\n    tag_70:\n        /* \"DEXLogic.sol\":1617:1620  dex */\n      0x05\n        /* \"DEXLogic.sol\":1617:1627  dex.length */\n      sload\n        /* \"DEXLogic.sol\":1615:1627  j<dex.length */\n      dup2\n      lt\n        /* \"DEXLogic.sol\":1598:2383  for(uint256 j=0; j<dex.length; j++){... */\n      iszero\n      tag_71\n      jumpi\n        /* \"DEXLogic.sol\":1655:1656  i */\n      dup2\n        /* \"DEXLogic.sol\":1658:1659  0 */\n      0x00\n        /* \"DEXLogic.sol\":1655:1659  i==0 */\n      sub\n        /* \"DEXLogic.sol\":1652:2316  if(i==0){... */\n      tag_73\n      jumpi\n        /* \"DEXLogic.sol\":1682:1698  uint256 tempVal2 */\n      0x00\n        /* \"DEXLogic.sol\":1710:1713  dex */\n      0x05\n        /* \"DEXLogic.sol\":1714:1715  j */\n      dup3\n        /* \"DEXLogic.sol\":1710:1716  dex[j] */\n      dup2\n      sload\n      dup2\n      lt\n      tag_75\n      jumpi\n      tag_75\n      tag_76\n      jump\t// in\n    tag_75:\n      0x00\n      swap2\n      dup3\n      mstore\n      0x20\n      swap1\n      swap2\n      keccak256\n      add\n      sload\n        /* \"DEXLogic.sol\":1737:1744  allPath */\n      0x07\n        /* \"DEXLogic.sol\":1737:1747  allPath[i] */\n      dup1\n      sload\n      sub(shl(0xa0, 0x01), 0x01)\n        /* \"DEXLogic.sol\":1710:1716  dex[j] */\n      swap1\n      swap3\n      and\n      swap2\n        /* \"DEXLogic.sol\":1701:1731  IUNIFORK(dex[j]).getAmountsOut */\n      0xd06ca61f\n      swap2\n        /* \"DEXLogic.sol\":1732:1736  1e18 */\n      0x0de0b6b3a7640000\n      swap2\n        /* \"DEXLogic.sol\":1745:1746  i */\n      dup8\n      swap1\n        /* \"DEXLogic.sol\":1737:1747  allPath[i] */\n      dup2\n      lt\n      tag_79\n      jumpi\n      tag_79\n      tag_76\n      jump\t// in\n    tag_79:\n      swap1\n      0x00\n      mstore\n      keccak256(0x00, 0x20)\n      add\n        /* \"DEXLogic.sol\":1701:1748  IUNIFORK(dex[j]).getAmountsOut(1e18,allPath[i]) */\n      mload(0x40)\n      dup4\n      0xffffffff\n      and\n      0xe0\n      shl\n      dup2\n      mstore\n      0x04\n      add\n      tag_81\n      swap3\n      swap2\n      swap1\n      tag_82\n      jump\t// in\n    tag_81:\n      0x00\n      mload(0x40)\n      dup1\n      dup4\n      sub\n      dup2\n      dup7\n      gas\n      staticcall\n      iszero\n      dup1\n      iszero\n      tag_84\n      jumpi\n      returndatasize\n      0x00\n      dup1\n      returndatacopy\n      revert(0x00, returndatasize)\n    tag_84:\n      pop\n      pop\n      pop\n      pop\n      mload(0x40)\n      returndatasize\n      0x00\n      dup3\n      returndatacopy\n      0x1f\n      returndatasize\n      swap1\n      dup2\n      add\n      not(0x1f)\n      and\n      dup3\n      add\n      0x40\n      mstore\n      tag_85\n      swap2\n      swap1\n      dup2\n      add\n      swap1\n      tag_86\n      jump\t// in\n    tag_85:\n        /* \"DEXLogic.sol\":1749:1750  1 */\n      0x01\n        /* \"DEXLogic.sol\":1701:1751  IUNIFORK(dex[j]).getAmountsOut(1e18,allPath[i])[1] */\n      dup2\n      mload\n      dup2\n      lt\n      tag_88\n      jumpi\n      tag_88\n      tag_76\n      jump\t// in\n    tag_88:\n      0x20\n      mul\n      0x20\n      add\n      add\n      mload\n        /* \"DEXLogic.sol\":1682:1751  uint256 tempVal2 = IUNIFORK(dex[j]).getAmountsOut(1e18,allPath[i])[1] */\n      swap1\n      pop\n        /* \"DEXLogic.sol\":1785:1792  tempVal */\n      dup4\n        /* \"DEXLogic.sol\":1776:1784  tempVal2 */\n      dup2\n        /* \"DEXLogic.sol\":1776:1792  tempVal2>tempVal */\n      gt\n        /* \"DEXLogic.sol\":1773:1858  if(tempVal2>tempVal){... */\n      iszero\n      tag_89\n      jumpi\n        /* \"DEXLogic.sol\":1827:1835  tempVal2 */\n      dup1\n        /* \"DEXLogic.sol\":1819:1835  tempVal=tempVal2 */\n      swap4\n      pop\n        /* \"DEXLogic.sol\":1773:1858  if(tempVal2>tempVal){... */\n    tag_89:\n        /* \"DEXLogic.sol\":1660:1876  {... */\n      pop\n        /* \"DEXLogic.sol\":1652:2316  if(i==0){... */\n      jump(tag_90)\n    tag_73:\n        /* \"DEXLogic.sol\":1919:1935  uint256 tempVal2 */\n      0x00\n        /* \"DEXLogic.sol\":1947:1950  dex */\n      0x05\n        /* \"DEXLogic.sol\":1951:1952  j */\n      dup3\n        /* \"DEXLogic.sol\":1947:1953  dex[j] */\n      dup2\n      sload\n      dup2\n      lt\n      tag_92\n      jumpi\n      tag_92\n      tag_76\n      jump\t// in\n    tag_92:\n      0x00\n      swap2\n      dup3\n      mstore\n      0x20\n      swap1\n      swap2\n      keccak256\n      add\n      sload\n        /* \"DEXLogic.sol\":1977:1984  allPath */\n      0x07\n        /* \"DEXLogic.sol\":1977:1987  allPath[i] */\n      dup1\n      sload\n      sub(shl(0xa0, 0x01), 0x01)\n        /* \"DEXLogic.sol\":1947:1953  dex[j] */\n      swap1\n      swap3\n      and\n      swap2\n        /* \"DEXLogic.sol\":1938:1968  IUNIFORK(dex[j]).getAmountsOut */\n      0xd06ca61f\n      swap2\n        /* \"DEXLogic.sol\":1969:1976  tempVal */\n      dup8\n      swap2\n        /* \"DEXLogic.sol\":1985:1986  i */\n      dup8\n      swap1\n        /* \"DEXLogic.sol\":1977:1987  allPath[i] */\n      dup2\n      lt\n      tag_95\n      jumpi\n      tag_95\n      tag_76\n      jump\t// in\n    tag_95:\n      swap1\n      0x00\n      mstore\n      keccak256(0x00, 0x20)\n      add\n        /* \"DEXLogic.sol\":1938:1988  IUNIFORK(dex[j]).getAmountsOut(tempVal,allPath[i]) */\n      mload(0x40)\n      dup4\n      0xffffffff\n      and\n      0xe0\n      shl\n      dup2\n      mstore\n      0x04\n      add\n      tag_97\n      swap3\n      swap2\n      swap1\n      tag_82\n      jump\t// in\n    tag_97:\n      0x00\n      mload(0x40)\n      dup1\n      dup4\n      sub\n      dup2\n      dup7\n      gas\n      staticcall\n      iszero\n      dup1\n      iszero\n      tag_100\n      jumpi\n      returndatasize\n      0x00\n      dup1\n      returndatacopy\n      revert(0x00, returndatasize)\n    tag_100:\n      pop\n      pop\n      pop\n      pop\n      mload(0x40)\n      returndatasize\n      0x00\n      dup3\n      returndatacopy\n      0x1f\n      returndatasize\n      swap1\n      dup2\n      add\n      not(0x1f)\n      and\n      dup3\n      add\n      0x40\n      mstore\n      tag_101\n      swap2\n      swap1\n      dup2\n      add\n      swap1\n      tag_86\n      jump\t// in\n    tag_101:\n        /* \"DEXLogic.sol\":1989:1990  1 */\n      0x01\n        /* \"DEXLogic.sol\":1938:1991  IUNIFORK(dex[j]).getAmountsOut(tempVal,allPath[i])[1] */\n      dup2\n      mload\n      dup2\n      lt\n      tag_103\n      jumpi\n      tag_103\n      tag_76\n      jump\t// in\n    tag_103:\n      0x20\n      mul\n      0x20\n      add\n      add\n      mload\n        /* \"DEXLogic.sol\":1919:1991  uint256 tempVal2 = IUNIFORK(dex[j]).getAmountsOut(tempVal,allPath[i])[1] */\n      swap1\n      pop\n        /* \"DEXLogic.sol\":2025:2032  tempVal */\n      dup4\n        /* \"DEXLogic.sol\":2016:2024  tempVal2 */\n      dup2\n        /* \"DEXLogic.sol\":2016:2032  tempVal2>tempVal */\n      gt\n        /* \"DEXLogic.sol\":2013:2298  if(tempVal2>tempVal){... */\n      iszero\n      tag_104\n      jumpi\n        /* \"DEXLogic.sol\":2071:2078  tempVal */\n      swap3\n      swap4\n      pop\n        /* \"DEXLogic.sol\":2112:2120  tempVal2 */\n      dup3\n        /* \"DEXLogic.sol\":2013:2298  if(tempVal2>tempVal){... */\n      jump(tag_106)\n    tag_104:\n        /* \"DEXLogic.sol\":2181:2188  tempVal */\n      dup4\n        /* \"DEXLogic.sol\":2172:2180  tempVal2 */\n      dup2\n        /* \"DEXLogic.sol\":2172:2188  tempVal2>tempVal */\n      gt\n        /* \"DEXLogic.sol\":2169:2298  if(tempVal2>tempVal){... */\n      iszero\n      tag_106\n      jumpi\n        /* \"DEXLogic.sol\":2227:2234  tempVal */\n      dup4\n        /* \"DEXLogic.sol\":2215:2234  bestValue = tempVal */\n      swap5\n      pop\n        /* \"DEXLogic.sol\":2169:2298  if(tempVal2>tempVal){... */\n    tag_106:\n        /* \"DEXLogic.sol\":1897:2316  {... */\n      pop\n        /* \"DEXLogic.sol\":1652:2316  if(i==0){... */\n    tag_90:\n        /* \"DEXLogic.sol\":1629:1632  j++ */\n      dup1\n      tag_107\n      dup2\n      tag_108\n      jump\t// in\n    tag_107:\n      swap2\n      pop\n      pop\n        /* \"DEXLogic.sol\":1598:2383  for(uint256 j=0; j<dex.length; j++){... */\n      jump(tag_70)\n    tag_71:\n      pop\n        /* \"DEXLogic.sol\":1580:1583  i++ */\n      dup1\n      tag_109\n      dup2\n      tag_108\n      jump\t// in\n    tag_109:\n      swap2\n      pop\n      pop\n        /* \"DEXLogic.sol\":1547:2393  for(uint256 i; i<allPath.length; i++){... */\n      jump(tag_67)\n    tag_68:\n      pop\n        /* \"DEXLogic.sol\":2402:2413  uint256 one */\n      0x00\n        /* \"DEXLogic.sol\":2425:2428  dex */\n      0x05\n        /* \"DEXLogic.sol\":2429:2430  1 */\n      0x01\n        /* \"DEXLogic.sol\":2425:2431  dex[1] */\n      dup2\n      sload\n      dup2\n      lt\n      tag_111\n      jumpi\n      tag_111\n      tag_76\n      jump\t// in\n    tag_111:\n      0x00\n      swap2\n      dup3\n      mstore\n      0x20\n      dup3\n      keccak256\n      add\n      sload\n        /* \"DEXLogic.sol\":2452:2459  allPath */\n      0x07\n        /* \"DEXLogic.sol\":2452:2462  allPath[0] */\n      dup1\n      sload\n      sub(shl(0xa0, 0x01), 0x01)\n        /* \"DEXLogic.sol\":2425:2431  dex[1] */\n      swap1\n      swap3\n      and\n      swap3\n        /* \"DEXLogic.sol\":2416:2446  IUNIFORK(dex[1]).getAmountsOut */\n      0xd06ca61f\n      swap3\n        /* \"DEXLogic.sol\":2447:2451  1e18 */\n      0x0de0b6b3a7640000\n      swap3\n        /* \"DEXLogic.sol\":2452:2459  allPath */\n      swap2\n        /* \"DEXLogic.sol\":2425:2431  dex[1] */\n      swap1\n        /* \"DEXLogic.sol\":2452:2462  allPath[0] */\n      tag_114\n      jumpi\n      tag_114\n      tag_76\n      jump\t// in\n    tag_114:\n      swap1\n      0x00\n      mstore\n      keccak256(0x00, 0x20)\n      add\n        /* \"DEXLogic.sol\":2416:2463  IUNIFORK(dex[1]).getAmountsOut(1e18,allPath[0]) */\n      mload(0x40)\n      dup4\n      0xffffffff\n      and\n      0xe0\n      shl\n      dup2\n      mstore\n      0x04\n      add\n      tag_116\n      swap3\n      swap2\n      swap1\n      tag_82\n      jump\t// in\n    tag_116:\n      0x00\n      mload(0x40)\n      dup1\n      dup4\n      sub\n      dup2\n      dup7\n      gas\n      staticcall\n      iszero\n      dup1\n      iszero\n      tag_118\n      jumpi\n      returndatasize\n      0x00\n      dup1\n      returndatacopy\n      revert(0x00, returndatasize)\n    tag_118:\n      pop\n      pop\n      pop\n      pop\n      mload(0x40)\n      returndatasize\n      0x00\n      dup3\n      returndatacopy\n      0x1f\n      returndatasize\n      swap1\n      dup2\n      add\n      not(0x1f)\n      and\n      dup3\n      add\n      0x40\n      mstore\n      tag_119\n      swap2\n      swap1\n      dup2\n      add\n      swap1\n      tag_86\n      jump\t// in\n    tag_119:\n        /* \"DEXLogic.sol\":2464:2465  1 */\n      0x01\n        /* \"DEXLogic.sol\":2416:2466  IUNIFORK(dex[1]).getAmountsOut(1e18,allPath[0])[1] */\n      dup2\n      mload\n      dup2\n      lt\n      tag_121\n      jumpi\n      tag_121\n      tag_76\n      jump\t// in\n    tag_121:\n      0x20\n      mul\n      0x20\n      add\n      add\n      mload\n        /* \"DEXLogic.sol\":2402:2466  uint256 one = IUNIFORK(dex[1]).getAmountsOut(1e18,allPath[0])[1] */\n      swap1\n      pop\n        /* \"DEXLogic.sol\":2476:2487  uint256 two */\n      0x00\n        /* \"DEXLogic.sol\":2499:2502  dex */\n      0x05\n        /* \"DEXLogic.sol\":2503:2504  1 */\n      0x01\n        /* \"DEXLogic.sol\":2499:2505  dex[1] */\n      dup2\n      sload\n      dup2\n      lt\n      tag_123\n      jumpi\n      tag_123\n      tag_76\n      jump\t// in\n    tag_123:\n      0x00\n      swap2\n      dup3\n      mstore\n      0x20\n      swap1\n      swap2\n      keccak256\n      add\n      sload\n        /* \"DEXLogic.sol\":2525:2532  allPath */\n      0x07\n        /* \"DEXLogic.sol\":2525:2535  allPath[1] */\n      dup1\n      sload\n      sub(shl(0xa0, 0x01), 0x01)\n        /* \"DEXLogic.sol\":2499:2505  dex[1] */\n      swap1\n      swap3\n      and\n      swap2\n        /* \"DEXLogic.sol\":2490:2520  IUNIFORK(dex[1]).getAmountsOut */\n      0xd06ca61f\n      swap2\n        /* \"DEXLogic.sol\":2521:2524  one */\n      dup6\n      swap2\n        /* \"DEXLogic.sol\":2499:2505  dex[1] */\n      0x01\n      swap1\n        /* \"DEXLogic.sol\":2525:2535  allPath[1] */\n      dup2\n      lt\n      tag_126\n      jumpi\n      tag_126\n      tag_76\n      jump\t// in\n    tag_126:\n      swap1\n      0x00\n      mstore\n      keccak256(0x00, 0x20)\n      add\n        /* \"DEXLogic.sol\":2490:2536  IUNIFORK(dex[1]).getAmountsOut(one,allPath[1]) */\n      mload(0x40)\n      dup4\n      0xffffffff\n      and\n      0xe0\n      shl\n      dup2\n      mstore\n      0x04\n      add\n      tag_128\n      swap3\n      swap2\n      swap1\n      tag_82\n      jump\t// in\n    tag_128:\n      0x00\n      mload(0x40)\n      dup1\n      dup4\n      sub\n      dup2\n      dup7\n      gas\n      staticcall\n      iszero\n      dup1\n      iszero\n      tag_130\n      jumpi\n      returndatasize\n      0x00\n      dup1\n      returndatacopy\n      revert(0x00, returndatasize)\n    tag_130:\n      pop\n      pop\n      pop\n      pop\n      mload(0x40)\n      returndatasize\n      0x00\n      dup3\n      returndatacopy\n      0x1f\n      returndatasize\n      swap1\n      dup2\n      add\n      not(0x1f)\n      and\n      dup3\n      add\n      0x40\n      mstore\n      tag_131\n      swap2\n      swap1\n      dup2\n      add\n      swap1\n      tag_86\n      jump\t// in\n    tag_131:\n        /* \"DEXLogic.sol\":2537:2538  1 */\n      0x01\n        /* \"DEXLogic.sol\":2490:2539  IUNIFORK(dex[1]).getAmountsOut(one,allPath[1])[1] */\n      dup2\n      mload\n      dup2\n      lt\n      tag_133\n      jumpi\n      tag_133\n      tag_76\n      jump\t// in\n    tag_133:\n      0x20\n      mul\n      0x20\n      add\n      add\n      mload\n        /* \"DEXLogic.sol\":2476:2539  uint256 two = IUNIFORK(dex[1]).getAmountsOut(one,allPath[1])[1] */\n      swap1\n      pop\n        /* \"DEXLogic.sol\":2549:2562  uint256 three */\n      0x00\n        /* \"DEXLogic.sol\":2574:2577  dex */\n      0x05\n        /* \"DEXLogic.sol\":2578:2579  1 */\n      0x01\n        /* \"DEXLogic.sol\":2574:2580  dex[1] */\n      dup2\n      sload\n      dup2\n      lt\n      tag_135\n      jumpi\n      tag_135\n      tag_76\n      jump\t// in\n    tag_135:\n      0x00\n      swap2\n      dup3\n      mstore\n      0x20\n      swap1\n      swap2\n      keccak256\n      add\n      sload\n        /* \"DEXLogic.sol\":2600:2607  allPath */\n      0x07\n        /* \"DEXLogic.sol\":2600:2610  allPath[2] */\n      dup1\n      sload\n      sub(shl(0xa0, 0x01), 0x01)\n        /* \"DEXLogic.sol\":2574:2580  dex[1] */\n      swap1\n      swap3\n      and\n      swap2\n        /* \"DEXLogic.sol\":2565:2595  IUNIFORK(dex[1]).getAmountsOut */\n      0xd06ca61f\n      swap2\n        /* \"DEXLogic.sol\":2596:2599  two */\n      dup6\n      swap2\n        /* \"DEXLogic.sol\":2608:2609  2 */\n      0x02\n      swap1\n        /* \"DEXLogic.sol\":2600:2610  allPath[2] */\n      dup2\n      lt\n      tag_138\n      jumpi\n      tag_138\n      tag_76\n      jump\t// in\n    tag_138:\n      swap1\n      0x00\n      mstore\n      keccak256(0x00, 0x20)\n      add\n        /* \"DEXLogic.sol\":2565:2611  IUNIFORK(dex[1]).getAmountsOut(two,allPath[2]) */\n      mload(0x40)\n      dup4\n      0xffffffff\n      and\n      0xe0\n      shl\n      dup2\n      mstore\n      0x04\n      add\n      tag_140\n      swap3\n      swap2\n      swap1\n      tag_82\n      jump\t// in\n    tag_140:\n      0x00\n      mload(0x40)\n      dup1\n      dup4\n      sub\n      dup2\n      dup7\n      gas\n      staticcall\n      iszero\n      dup1\n      iszero\n      tag_142\n      jumpi\n      returndatasize\n      0x00\n      dup1\n      returndatacopy\n      revert(0x00, returndatasize)\n    tag_142:\n      pop\n      pop\n      pop\n      pop\n      mload(0x40)\n      returndatasize\n      0x00\n      dup3\n      returndatacopy\n      0x1f\n      returndatasize\n      swap1\n      dup2\n      add\n      not(0x1f)\n      and\n      dup3\n      add\n      0x40\n      mstore\n      tag_143\n      swap2\n      swap1\n      dup2\n      add\n      swap1\n      tag_86\n      jump\t// in\n    tag_143:\n        /* \"DEXLogic.sol\":2612:2613  1 */\n      0x01\n        /* \"DEXLogic.sol\":2565:2614  IUNIFORK(dex[1]).getAmountsOut(two,allPath[2])[1] */\n      dup2\n      mload\n      dup2\n      lt\n      tag_145\n      jumpi\n      tag_145\n      tag_76\n      jump\t// in\n    tag_145:\n      0x20\n      mul\n      0x20\n      add\n      add\n      mload\n        /* \"DEXLogic.sol\":2549:2614  uint256 three = IUNIFORK(dex[1]).getAmountsOut(two,allPath[2])[1] */\n      swap1\n      pop\n        /* \"DEXLogic.sol\":2624:2636  uint256 four */\n      0x00\n        /* \"DEXLogic.sol\":2648:2651  dex */\n      0x05\n        /* \"DEXLogic.sol\":2652:2653  1 */\n      0x01\n        /* \"DEXLogic.sol\":2648:2654  dex[1] */\n      dup2\n      sload\n      dup2\n      lt\n      tag_147\n      jumpi\n      tag_147\n      tag_76\n      jump\t// in\n    tag_147:\n      0x00\n      swap2\n      dup3\n      mstore\n      0x20\n      swap1\n      swap2\n      keccak256\n      add\n      sload\n        /* \"DEXLogic.sol\":2676:2683  allPath */\n      0x07\n        /* \"DEXLogic.sol\":2676:2686  allPath[3] */\n      dup1\n      sload\n      sub(shl(0xa0, 0x01), 0x01)\n        /* \"DEXLogic.sol\":2648:2654  dex[1] */\n      swap1\n      swap3\n      and\n      swap2\n        /* \"DEXLogic.sol\":2639:2669  IUNIFORK(dex[1]).getAmountsOut */\n      0xd06ca61f\n      swap2\n        /* \"DEXLogic.sol\":2670:2675  three */\n      dup6\n      swap2\n        /* \"DEXLogic.sol\":2684:2685  3 */\n      0x03\n      swap1\n        /* \"DEXLogic.sol\":2676:2686  allPath[3] */\n      dup2\n      lt\n      tag_150\n      jumpi\n      tag_150\n      tag_76\n      jump\t// in\n    tag_150:\n      swap1\n      0x00\n      mstore\n      keccak256(0x00, 0x20)\n      add\n        /* \"DEXLogic.sol\":2639:2687  IUNIFORK(dex[1]).getAmountsOut(three,allPath[3]) */\n      mload(0x40)\n      dup4\n      0xffffffff\n      and\n      0xe0\n      shl\n      dup2\n      mstore\n      0x04\n      add\n      tag_152\n      swap3\n      swap2\n      swap1\n      tag_82\n      jump\t// in\n    tag_152:\n      0x00\n      mload(0x40)\n      dup1\n      dup4\n      sub\n      dup2\n      dup7\n      gas\n      staticcall\n      iszero\n      dup1\n      iszero\n      tag_154\n      jumpi\n      returndatasize\n      0x00\n      dup1\n      returndatacopy\n      revert(0x00, returndatasize)\n    tag_154:\n      pop\n      pop\n      pop\n      pop\n      mload(0x40)\n      returndatasize\n      0x00\n      dup3\n      returndatacopy\n      0x1f\n      returndatasize\n      swap1\n      dup2\n      add\n      not(0x1f)\n      and\n      dup3\n      add\n      0x40\n      mstore\n      tag_155\n      swap2\n      swap1\n      dup2\n      add\n      swap1\n      tag_86\n      jump\t// in\n    tag_155:\n        /* \"DEXLogic.sol\":2688:2689  1 */\n      0x01\n        /* \"DEXLogic.sol\":2639:2690  IUNIFORK(dex[1]).getAmountsOut(three,allPath[3])[1] */\n      dup2\n      mload\n      dup2\n      lt\n      tag_157\n      jumpi\n      tag_157\n      tag_76\n      jump\t// in\n    tag_157:\n      0x20\n      mul\n      0x20\n      add\n      add\n      mload\n        /* \"DEXLogic.sol\":2624:2690  uint256 four = IUNIFORK(dex[1]).getAmountsOut(three,allPath[3])[1] */\n      swap1\n      pop\n        /* \"DEXLogic.sol\":2781:2790  bestValue */\n      dup6\n        /* \"DEXLogic.sol\":2791:2795  four */\n      dup2\n        /* \"DEXLogic.sol\":2805:2808  dex */\n      0x05\n        /* \"DEXLogic.sol\":2809:2810  1 */\n      0x01\n        /* \"DEXLogic.sol\":2805:2811  dex[1] */\n      dup2\n      sload\n      dup2\n      lt\n      tag_159\n      jumpi\n      tag_159\n      tag_76\n      jump\t// in\n    tag_159:\n      0x00\n      swap2\n      dup3\n      mstore\n      0x20\n      swap1\n      swap2\n      keccak256\n      add\n      sload\n        /* \"DEXLogic.sol\":2796:2837  IUNIFORK(dex[1]).getAmountsOut(1e18,path) */\n      mload(0x40)\n      shl(0xe0, 0xd06ca61f)\n      dup2\n      mstore\n      sub(shl(0xa0, 0x01), 0x01)\n        /* \"DEXLogic.sol\":2805:2811  dex[1] */\n      swap1\n      swap2\n      and\n      swap1\n        /* \"DEXLogic.sol\":2796:2826  IUNIFORK(dex[1]).getAmountsOut */\n      0xd06ca61f\n      swap1\n        /* \"DEXLogic.sol\":2796:2837  IUNIFORK(dex[1]).getAmountsOut(1e18,path) */\n      tag_161\n      swap1\n        /* \"DEXLogic.sol\":2827:2831  1e18 */\n      0x0de0b6b3a7640000\n      swap1\n        /* \"DEXLogic.sol\":2832:2836  path */\n      0x06\n      swap1\n        /* \"DEXLogic.sol\":2796:2837  IUNIFORK(dex[1]).getAmountsOut(1e18,path) */\n      0x04\n      add\n      tag_82\n      jump\t// in\n    tag_161:\n      0x00\n      mload(0x40)\n      dup1\n      dup4\n      sub\n      dup2\n      dup7\n      gas\n      staticcall\n      iszero\n      dup1\n      iszero\n      tag_163\n      jumpi\n      returndatasize\n      0x00\n      dup1\n      returndatacopy\n      revert(0x00, returndatasize)\n    tag_163:\n      pop\n      pop\n      pop\n      pop\n      mload(0x40)\n      returndatasize\n      0x00\n      dup3\n      returndatacopy\n      0x1f\n      returndatasize\n      swap1\n      dup2\n      add\n      not(0x1f)\n      and\n      dup3\n      add\n      0x40\n      mstore\n      tag_164\n      swap2\n      swap1\n      dup2\n      add\n      swap1\n      tag_86\n      jump\t// in\n    tag_164:\n        /* \"DEXLogic.sol\":2838:2839  1 */\n      0x01\n        /* \"DEXLogic.sol\":2796:2840  IUNIFORK(dex[1]).getAmountsOut(1e18,path)[1] */\n      dup2\n      mload\n      dup2\n      lt\n      tag_166\n      jumpi\n      tag_166\n      tag_76\n      jump\t// in\n    tag_166:\n      0x20\n      mul\n      0x20\n      add\n      add\n      mload\n        /* \"DEXLogic.sol\":2774:2841  return(bestValue,four,IUNIFORK(dex[1]).getAmountsOut(1e18,path)[1]) */\n      swap9\n      pop\n      swap9\n      pop\n      swap9\n      pop\n      pop\n      pop\n      pop\n      pop\n      pop\n      pop\n        /* \"DEXLogic.sol\":1399:2848  function getBestPriceWithPaths()public view returns(uint256,uint256,uint256){... */\n      swap1\n      swap2\n      swap3\n      jump\t// out\n        /* \"DEXLogic.sol\":1025:1393  function getPrice()public view returns(uint256){... */\n    tag_41:\n        /* \"DEXLogic.sol\":1064:1071  uint256 */\n      0x00\n        /* \"DEXLogic.sol\":1082:1099  uint256 bestValue */\n      dup1\n        /* \"DEXLogic.sol\":1113:1122  uint256 i */\n      0x00\n        /* \"DEXLogic.sol\":1109:1355  for(uint256 i=0; i<path.length; i++){... */\n    tag_168:\n        /* \"DEXLogic.sol\":1128:1132  path */\n      0x06\n        /* \"DEXLogic.sol\":1128:1139  path.length */\n      sload\n        /* \"DEXLogic.sol\":1126:1139  i<path.length */\n      dup2\n      lt\n        /* \"DEXLogic.sol\":1109:1355  for(uint256 i=0; i<path.length; i++){... */\n      iszero\n      tag_169\n      jumpi\n        /* \"DEXLogic.sol\":1207:1216  bestValue */\n      dup2\n        /* \"DEXLogic.sol\":1171:1174  dex */\n      0x05\n        /* \"DEXLogic.sol\":1175:1176  i */\n      dup3\n        /* \"DEXLogic.sol\":1171:1177  dex[i] */\n      dup2\n      sload\n      dup2\n      lt\n      tag_172\n      jumpi\n      tag_172\n      tag_76\n      jump\t// in\n    tag_172:\n      0x00\n      swap2\n      dup3\n      mstore\n      0x20\n      swap1\n      swap2\n      keccak256\n      add\n      sload\n        /* \"DEXLogic.sol\":1162:1203  IUNIFORK(dex[i]).getAmountsOut(1e18,path) */\n      mload(0x40)\n      shl(0xe0, 0xd06ca61f)\n      dup2\n      mstore\n      sub(shl(0xa0, 0x01), 0x01)\n        /* \"DEXLogic.sol\":1171:1177  dex[i] */\n      swap1\n      swap2\n      and\n      swap1\n        /* \"DEXLogic.sol\":1162:1192  IUNIFORK(dex[i]).getAmountsOut */\n      0xd06ca61f\n      swap1\n        /* \"DEXLogic.sol\":1162:1203  IUNIFORK(dex[i]).getAmountsOut(1e18,path) */\n      tag_174\n      swap1\n        /* \"DEXLogic.sol\":1193:1197  1e18 */\n      0x0de0b6b3a7640000\n      swap1\n        /* \"DEXLogic.sol\":1198:1202  path */\n      0x06\n      swap1\n        /* \"DEXLogic.sol\":1162:1203  IUNIFORK(dex[i]).getAmountsOut(1e18,path) */\n      0x04\n      add\n      tag_82\n      jump\t// in\n    tag_174:\n      0x00\n      mload(0x40)\n      dup1\n      dup4\n      sub\n      dup2\n      dup7\n      gas\n      staticcall\n      iszero\n      dup1\n      iszero\n      tag_176\n      jumpi\n      returndatasize\n      0x00\n      dup1\n      returndatacopy\n      revert(0x00, returndatasize)\n    tag_176:\n      pop\n      pop\n      pop\n      pop\n      mload(0x40)\n      returndatasize\n      0x00\n      dup3\n      returndatacopy\n      0x1f\n      returndatasize\n      swap1\n      dup2\n      add\n      not(0x1f)\n      and\n      dup3\n      add\n      0x40\n      mstore\n      tag_177\n      swap2\n      swap1\n      dup2\n      add\n      swap1\n      tag_86\n      jump\t// in\n    tag_177:\n        /* \"DEXLogic.sol\":1204:1205  1 */\n      0x01\n        /* \"DEXLogic.sol\":1162:1206  IUNIFORK(dex[i]).getAmountsOut(1e18,path)[1] */\n      dup2\n      mload\n      dup2\n      lt\n      tag_179\n      jumpi\n      tag_179\n      tag_76\n      jump\t// in\n    tag_179:\n      0x20\n      mul\n      0x20\n      add\n      add\n      mload\n        /* \"DEXLogic.sol\":1162:1216  IUNIFORK(dex[i]).getAmountsOut(1e18,path)[1]>bestValue */\n      gt\n        /* \"DEXLogic.sol\":1159:1345  if(IUNIFORK(dex[i]).getAmountsOut(1e18,path)[1]>bestValue){... */\n      iszero\n      tag_180\n      jumpi\n        /* \"DEXLogic.sol\":1256:1259  dex */\n      0x05\n        /* \"DEXLogic.sol\":1260:1261  i */\n      dup2\n        /* \"DEXLogic.sol\":1256:1262  dex[i] */\n      dup2\n      sload\n      dup2\n      lt\n      tag_182\n      jumpi\n      tag_182\n      tag_76\n      jump\t// in\n    tag_182:\n      0x00\n      swap2\n      dup3\n      mstore\n      0x20\n      swap1\n      swap2\n      keccak256\n      add\n      sload\n        /* \"DEXLogic.sol\":1247:1288  IUNIFORK(dex[i]).getAmountsOut(1e18,path) */\n      mload(0x40)\n      shl(0xe0, 0xd06ca61f)\n      dup2\n      mstore\n      sub(shl(0xa0, 0x01), 0x01)\n        /* \"DEXLogic.sol\":1256:1262  dex[i] */\n      swap1\n      swap2\n      and\n      swap1\n        /* \"DEXLogic.sol\":1247:1277  IUNIFORK(dex[i]).getAmountsOut */\n      0xd06ca61f\n      swap1\n        /* \"DEXLogic.sol\":1247:1288  IUNIFORK(dex[i]).getAmountsOut(1e18,path) */\n      tag_184\n      swap1\n        /* \"DEXLogic.sol\":1278:1282  1e18 */\n      0x0de0b6b3a7640000\n      swap1\n        /* \"DEXLogic.sol\":1283:1287  path */\n      0x06\n      swap1\n        /* \"DEXLogic.sol\":1247:1288  IUNIFORK(dex[i]).getAmountsOut(1e18,path) */\n      0x04\n      add\n      tag_82\n      jump\t// in\n    tag_184:\n      0x00\n      mload(0x40)\n      dup1\n      dup4\n      sub\n      dup2\n      dup7\n      gas\n      staticcall\n      iszero\n      dup1\n      iszero\n      tag_186\n      jumpi\n      returndatasize\n      0x00\n      dup1\n      returndatacopy\n      revert(0x00, returndatasize)\n    tag_186:\n      pop\n      pop\n      pop\n      pop\n      mload(0x40)\n      returndatasize\n      0x00\n      dup3\n      returndatacopy\n      0x1f\n      returndatasize\n      swap1\n      dup2\n      add\n      not(0x1f)\n      and\n      dup3\n      add\n      0x40\n      mstore\n      tag_187\n      swap2\n      swap1\n      dup2\n      add\n      swap1\n      tag_86\n      jump\t// in\n    tag_187:\n        /* \"DEXLogic.sol\":1289:1290  1 */\n      0x01\n        /* \"DEXLogic.sol\":1247:1291  IUNIFORK(dex[i]).getAmountsOut(1e18,path)[1] */\n      dup2\n      mload\n      dup2\n      lt\n      tag_189\n      jumpi\n      tag_189\n      tag_76\n      jump\t// in\n    tag_189:\n      0x20\n      mul\n      0x20\n      add\n      add\n      mload\n        /* \"DEXLogic.sol\":1235:1291  bestValue = IUNIFORK(dex[i]).getAmountsOut(1e18,path)[1] */\n      swap2\n      pop\n        /* \"DEXLogic.sol\":1159:1345  if(IUNIFORK(dex[i]).getAmountsOut(1e18,path)[1]>bestValue){... */\n    tag_180:\n        /* \"DEXLogic.sol\":1141:1144  i++ */\n      dup1\n      tag_191\n      dup2\n      tag_108\n      jump\t// in\n    tag_191:\n      swap2\n      pop\n      pop\n        /* \"DEXLogic.sol\":1109:1355  for(uint256 i=0; i<path.length; i++){... */\n      jump(tag_168)\n    tag_169:\n      pop\n        /* \"DEXLogic.sol\":1376:1385  bestValue */\n      swap2\n        /* \"DEXLogic.sol\":1025:1393  function getPrice()public view returns(uint256){... */\n      swap1\n      pop\n      jump\t// out\n        /* \"DEXLogic.sol\":787:821  address[] public path = [WETH,OHM] */\n    tag_52:\n      0x06\n      dup2\n      dup2\n      sload\n      dup2\n      lt\n      tag_60\n      jumpi\n      0x00\n      dup1\n      revert\n        /* \"#utility.yul\":222:402   */\n    tag_22:\n        /* \"#utility.yul\":281:287   */\n      0x00\n        /* \"#utility.yul\":334:336   */\n      0x20\n        /* \"#utility.yul\":322:331   */\n      dup3\n        /* \"#utility.yul\":313:320   */\n      dup5\n        /* \"#utility.yul\":309:332   */\n      sub\n        /* \"#utility.yul\":305:337   */\n      slt\n        /* \"#utility.yul\":302:354   */\n      iszero\n      tag_199\n      jumpi\n        /* \"#utility.yul\":350:351   */\n      0x00\n        /* \"#utility.yul\":347:348   */\n      dup1\n        /* \"#utility.yul\":340:352   */\n      revert\n        /* \"#utility.yul\":302:354   */\n    tag_199:\n      pop\n        /* \"#utility.yul\":373:396   */\n      calldataload\n      swap2\n        /* \"#utility.yul\":222:402   */\n      swap1\n      pop\n      jump\t// out\n        /* \"#utility.yul\":407:655   */\n    tag_30:\n        /* \"#utility.yul\":475:481   */\n      0x00\n        /* \"#utility.yul\":483:489   */\n      dup1\n        /* \"#utility.yul\":536:538   */\n      0x40\n        /* \"#utility.yul\":524:533   */\n      dup4\n        /* \"#utility.yul\":515:522   */\n      dup6\n        /* \"#utility.yul\":511:534   */\n      sub\n        /* \"#utility.yul\":507:539   */\n      slt\n        /* \"#utility.yul\":504:556   */\n      iszero\n      tag_201\n      jumpi\n        /* \"#utility.yul\":552:553   */\n      0x00\n        /* \"#utility.yul\":549:550   */\n      dup1\n        /* \"#utility.yul\":542:554   */\n      revert\n        /* \"#utility.yul\":504:556   */\n    tag_201:\n      pop\n      pop\n        /* \"#utility.yul\":575:598   */\n      dup1\n      calldataload\n      swap3\n        /* \"#utility.yul\":645:647   */\n      0x20\n        /* \"#utility.yul\":630:648   */\n      swap1\n      swap2\n      add\n        /* \"#utility.yul\":617:649   */\n      calldataload\n      swap2\n      pop\n        /* \"#utility.yul\":407:655   */\n      jump\t// out\n        /* \"#utility.yul\":1166:1293   */\n    tag_76:\n        /* \"#utility.yul\":1227:1237   */\n      0x4e487b71\n        /* \"#utility.yul\":1222:1225   */\n      0xe0\n        /* \"#utility.yul\":1218:1238   */\n      shl\n        /* \"#utility.yul\":1215:1216   */\n      0x00\n        /* \"#utility.yul\":1208:1239   */\n      mstore\n        /* \"#utility.yul\":1258:1262   */\n      0x32\n        /* \"#utility.yul\":1255:1256   */\n      0x04\n        /* \"#utility.yul\":1248:1263   */\n      mstore\n        /* \"#utility.yul\":1282:1286   */\n      0x24\n        /* \"#utility.yul\":1279:1280   */\n      0x00\n        /* \"#utility.yul\":1272:1287   */\n      revert\n        /* \"#utility.yul\":1298:1793   */\n    tag_194:\n        /* \"#utility.yul\":1359:1362   */\n      0x00\n        /* \"#utility.yul\":1397:1402   */\n      dup2\n        /* \"#utility.yul\":1391:1403   */\n      sload\n        /* \"#utility.yul\":1424:1430   */\n      dup1\n        /* \"#utility.yul\":1419:1422   */\n      dup5\n        /* \"#utility.yul\":1412:1431   */\n      mstore\n        /* \"#utility.yul\":1450:1454   */\n      0x20\n        /* \"#utility.yul\":1479:1481   */\n      dup1\n        /* \"#utility.yul\":1474:1477   */\n      dup6\n        /* \"#utility.yul\":1470:1482   */\n      add\n        /* \"#utility.yul\":1463:1482   */\n      swap5\n      pop\n        /* \"#utility.yul\":1501:1506   */\n      dup4\n        /* \"#utility.yul\":1498:1499   */\n      0x00\n        /* \"#utility.yul\":1491:1507   */\n      mstore\n        /* \"#utility.yul\":1543:1545   */\n      dup1\n        /* \"#utility.yul\":1540:1541   */\n      0x00\n        /* \"#utility.yul\":1530:1546   */\n      keccak256\n        /* \"#utility.yul\":1564:1565   */\n      0x00\n        /* \"#utility.yul\":1574:1768   */\n    tag_206:\n        /* \"#utility.yul\":1588:1594   */\n      dup4\n        /* \"#utility.yul\":1585:1586   */\n      dup2\n        /* \"#utility.yul\":1582:1595   */\n      lt\n        /* \"#utility.yul\":1574:1768   */\n      iszero\n      tag_208\n      jumpi\n        /* \"#utility.yul\":1653:1666   */\n      dup2\n      sload\n      sub(shl(0xa0, 0x01), 0x01)\n        /* \"#utility.yul\":1649:1688   */\n      and\n        /* \"#utility.yul\":1637:1689   */\n      dup8\n      mstore\n        /* \"#utility.yul\":1709:1721   */\n      swap6\n      dup3\n      add\n      swap6\n        /* \"#utility.yul\":1685:1686   */\n      0x01\n        /* \"#utility.yul\":1744:1758   */\n      swap2\n      dup3\n      add\n      swap2\n        /* \"#utility.yul\":1603:1612   */\n      add\n        /* \"#utility.yul\":1574:1768   */\n      jump(tag_206)\n    tag_208:\n      pop\n        /* \"#utility.yul\":1784:1787   */\n      swap5\n      swap6\n        /* \"#utility.yul\":1298:1793   */\n      swap5\n      pop\n      pop\n      pop\n      pop\n      pop\n      jump\t// out\n        /* \"#utility.yul\":1798:2161   */\n    tag_82:\n        /* \"#utility.yul\":2028:2034   */\n      dup3\n        /* \"#utility.yul\":2017:2026   */\n      dup2\n        /* \"#utility.yul\":2010:2035   */\n      mstore\n        /* \"#utility.yul\":2071:2073   */\n      0x40\n        /* \"#utility.yul\":2066:2068   */\n      0x20\n        /* \"#utility.yul\":2055:2064   */\n      dup3\n        /* \"#utility.yul\":2051:2069   */\n      add\n        /* \"#utility.yul\":2044:2074   */\n      mstore\n        /* \"#utility.yul\":1991:1995   */\n      0x00\n        /* \"#utility.yul\":2091:2155   */\n      tag_210\n        /* \"#utility.yul\":2151:2153   */\n      0x40\n        /* \"#utility.yul\":2140:2149   */\n      dup4\n        /* \"#utility.yul\":2136:2154   */\n      add\n        /* \"#utility.yul\":2128:2134   */\n      dup5\n        /* \"#utility.yul\":2091:2155   */\n      tag_194\n      jump\t// in\n    tag_210:\n        /* \"#utility.yul\":2083:2155   */\n      swap5\n        /* \"#utility.yul\":1798:2161   */\n      swap4\n      pop\n      pop\n      pop\n      pop\n      jump\t// out\n        /* \"#utility.yul\":2166:2293   */\n    tag_195:\n        /* \"#utility.yul\":2227:2237   */\n      0x4e487b71\n        /* \"#utility.yul\":2222:2225   */\n      0xe0\n        /* \"#utility.yul\":2218:2238   */\n      shl\n        /* \"#utility.yul\":2215:2216   */\n      0x00\n        /* \"#utility.yul\":2208:2239   */\n      mstore\n        /* \"#utility.yul\":2258:2262   */\n      0x41\n        /* \"#utility.yul\":2255:2256   */\n      0x04\n        /* \"#utility.yul\":2248:2263   */\n      mstore\n        /* \"#utility.yul\":2282:2286   */\n      0x24\n        /* \"#utility.yul\":2279:2280   */\n      0x00\n        /* \"#utility.yul\":2272:2287   */\n      revert\n        /* \"#utility.yul\":2298:3403   */\n    tag_86:\n        /* \"#utility.yul\":2393:2399   */\n      0x00\n        /* \"#utility.yul\":2424:2426   */\n      0x20\n        /* \"#utility.yul\":2467:2469   */\n      dup1\n        /* \"#utility.yul\":2455:2464   */\n      dup4\n        /* \"#utility.yul\":2446:2453   */\n      dup6\n        /* \"#utility.yul\":2442:2465   */\n      sub\n        /* \"#utility.yul\":2438:2470   */\n      slt\n        /* \"#utility.yul\":2435:2487   */\n      iszero\n      tag_213\n      jumpi\n        /* \"#utility.yul\":2483:2484   */\n      0x00\n        /* \"#utility.yul\":2480:2481   */\n      dup1\n        /* \"#utility.yul\":2473:2485   */\n      revert\n        /* \"#utility.yul\":2435:2487   */\n    tag_213:\n        /* \"#utility.yul\":2516:2525   */\n      dup3\n        /* \"#utility.yul\":2510:2526   */\n      mload\n        /* \"#utility.yul\":2545:2563   */\n      0xffffffffffffffff\n        /* \"#utility.yul\":2586:2588   */\n      dup1\n        /* \"#utility.yul\":2578:2584   */\n      dup3\n        /* \"#utility.yul\":2575:2589   */\n      gt\n        /* \"#utility.yul\":2572:2606   */\n      iszero\n      tag_214\n      jumpi\n        /* \"#utility.yul\":2602:2603   */\n      0x00\n        /* \"#utility.yul\":2599:2600   */\n      dup1\n        /* \"#utility.yul\":2592:2604   */\n      revert\n        /* \"#utility.yul\":2572:2606   */\n    tag_214:\n        /* \"#utility.yul\":2640:2646   */\n      dup2\n        /* \"#utility.yul\":2629:2638   */\n      dup6\n        /* \"#utility.yul\":2625:2647   */\n      add\n        /* \"#utility.yul\":2615:2647   */\n      swap2\n      pop\n        /* \"#utility.yul\":2685:2692   */\n      dup6\n        /* \"#utility.yul\":2678:2682   */\n      0x1f\n        /* \"#utility.yul\":2674:2676   */\n      dup4\n        /* \"#utility.yul\":2670:2683   */\n      add\n        /* \"#utility.yul\":2666:2693   */\n      slt\n        /* \"#utility.yul\":2656:2711   */\n      tag_215\n      jumpi\n        /* \"#utility.yul\":2707:2708   */\n      0x00\n        /* \"#utility.yul\":2704:2705   */\n      dup1\n        /* \"#utility.yul\":2697:2709   */\n      revert\n        /* \"#utility.yul\":2656:2711   */\n    tag_215:\n        /* \"#utility.yul\":2736:2738   */\n      dup2\n        /* \"#utility.yul\":2730:2739   */\n      mload\n        /* \"#utility.yul\":2758:2760   */\n      dup2\n        /* \"#utility.yul\":2754:2756   */\n      dup2\n        /* \"#utility.yul\":2751:2761   */\n      gt\n        /* \"#utility.yul\":2748:2784   */\n      iszero\n      tag_217\n      jumpi\n        /* \"#utility.yul\":2764:2782   */\n      tag_217\n      tag_195\n      jump\t// in\n    tag_217:\n        /* \"#utility.yul\":2810:2812   */\n      dup1\n        /* \"#utility.yul\":2807:2808   */\n      0x05\n        /* \"#utility.yul\":2803:2813   */\n      shl\n        /* \"#utility.yul\":2842:2844   */\n      0x40\n        /* \"#utility.yul\":2836:2845   */\n      mload\n        /* \"#utility.yul\":2905:2907   */\n      0x1f\n        /* \"#utility.yul\":2901:2908   */\n      not\n        /* \"#utility.yul\":2896:2898   */\n      0x3f\n        /* \"#utility.yul\":2892:2894   */\n      dup4\n        /* \"#utility.yul\":2888:2899   */\n      add\n        /* \"#utility.yul\":2884:2909   */\n      and\n        /* \"#utility.yul\":2876:2882   */\n      dup2\n        /* \"#utility.yul\":2872:2910   */\n      add\n        /* \"#utility.yul\":2960:2966   */\n      dup2\n        /* \"#utility.yul\":2948:2958   */\n      dup2\n        /* \"#utility.yul\":2945:2967   */\n      lt\n        /* \"#utility.yul\":2940:2942   */\n      dup6\n        /* \"#utility.yul\":2928:2938   */\n      dup3\n        /* \"#utility.yul\":2925:2943   */\n      gt\n        /* \"#utility.yul\":2922:2968   */\n      or\n        /* \"#utility.yul\":2919:2991   */\n      iszero\n      tag_219\n      jumpi\n        /* \"#utility.yul\":2971:2989   */\n      tag_219\n      tag_195\n      jump\t// in\n    tag_219:\n        /* \"#utility.yul\":3007:3009   */\n      0x40\n        /* \"#utility.yul\":3000:3022   */\n      mstore\n        /* \"#utility.yul\":3057:3075   */\n      swap2\n      dup3\n      mstore\n        /* \"#utility.yul\":3091:3106   */\n      dup5\n      dup3\n      add\n      swap3\n      pop\n        /* \"#utility.yul\":3133:3144   */\n      dup4\n      dup2\n      add\n        /* \"#utility.yul\":3129:3149   */\n      dup6\n      add\n      swap2\n        /* \"#utility.yul\":3161:3180   */\n      dup9\n      dup4\n      gt\n        /* \"#utility.yul\":3158:3197   */\n      iszero\n      tag_220\n      jumpi\n        /* \"#utility.yul\":3193:3194   */\n      0x00\n        /* \"#utility.yul\":3190:3191   */\n      dup1\n        /* \"#utility.yul\":3183:3195   */\n      revert\n        /* \"#utility.yul\":3158:3197   */\n    tag_220:\n        /* \"#utility.yul\":3217:3228   */\n      swap4\n      dup6\n      add\n      swap4\n        /* \"#utility.yul\":3237:3372   */\n    tag_221:\n        /* \"#utility.yul\":3253:3259   */\n      dup3\n        /* \"#utility.yul\":3248:3251   */\n      dup6\n        /* \"#utility.yul\":3245:3260   */\n      lt\n        /* \"#utility.yul\":3237:3372   */\n      iszero\n      tag_223\n      jumpi\n        /* \"#utility.yul\":3319:3329   */\n      dup5\n      mload\n        /* \"#utility.yul\":3307:3330   */\n      dup5\n      mstore\n        /* \"#utility.yul\":3270:3282   */\n      swap4\n      dup6\n      add\n      swap4\n        /* \"#utility.yul\":3350:3362   */\n      swap3\n      dup6\n      add\n      swap3\n        /* \"#utility.yul\":3237:3372   */\n      jump(tag_221)\n    tag_223:\n        /* \"#utility.yul\":3391:3397   */\n      swap9\n        /* \"#utility.yul\":2298:3403   */\n      swap8\n      pop\n      pop\n      pop\n      pop\n      pop\n      pop\n      pop\n      pop\n      jump\t// out\n        /* \"#utility.yul\":3750:3982   */\n    tag_108:\n        /* \"#utility.yul\":3789:3792   */\n      0x00\n        /* \"#utility.yul\":3810:3827   */\n      0x01\n      dup3\n      add\n        /* \"#utility.yul\":3807:3947   */\n      tag_227\n      jumpi\n        /* \"#utility.yul\":3869:3879   */\n      0x4e487b71\n        /* \"#utility.yul\":3864:3867   */\n      0xe0\n        /* \"#utility.yul\":3860:3880   */\n      shl\n        /* \"#utility.yul\":3857:3858   */\n      0x00\n        /* \"#utility.yul\":3850:3881   */\n      mstore\n        /* \"#utility.yul\":3904:3908   */\n      0x11\n        /* \"#utility.yul\":3901:3902   */\n      0x04\n        /* \"#utility.yul\":3894:3909   */\n      mstore\n        /* \"#utility.yul\":3932:3936   */\n      0x24\n        /* \"#utility.yul\":3929:3930   */\n      0x00\n        /* \"#utility.yul\":3922:3937   */\n      revert\n        /* \"#utility.yul\":3807:3947   */\n    tag_227:\n      pop\n        /* \"#utility.yul\":3974:3975   */\n      0x01\n        /* \"#utility.yul\":3963:3976   */\n      add\n      swap1\n        /* \"#utility.yul\":3750:3982   */\n      jump\t// out\n\n    auxdata: 0xa26469706673582212208883fcaf07b16621278169abe5605d0e9cb76778ae1dbd0a048106bddcd26e0164736f6c63430008120033\n}\n",
				"bytecode": {
					"linkReferences": {},
					"object": "600080546001600160a01b031990811673c02aaa39b223fe8d0a0e5c4f27ead9083c756cc21790915560018054821673a0b86991c6218b36c1d19d4a2e9eb0ce3606eb4817905560028054821673dac17f958d2ee523a2206206994597c13d831ec7178155600380548316736b175474e89094c44da98b954eedeac495271d0f179055600480549092167364aa3364f17a4d01c6f1751fd97c2bd3d7e7f1d51790915560c0604052737a250d5630b4cf539739df2c5dacb4c659f2488d608090815273d9e1ce17f2641f24ae83637ab66a2cca9c378b9f60a052620000e8916005919062000283565b50604080518082019091526000546001600160a01b0390811682526004541660208201526200011c90600690600262000283565b503480156200012a57600080fd5b5060408051808201909152600080546001600160a01b0390811683526001805490911660208401526007805491820181559091526200017f9160008051602062000f3d83398151915290910190600262000283565b5060408051808201909152600180546001600160a01b039081168352600280549091166020840152600780549283018155600052620001d39260008051602062000f3d833981519152909201919062000283565b5060408051808201909152600280546001600160a01b03908116835260035416602083015260078054600181018255600091909152620002279260008051602062000f3d8339815191529091019162000283565b50604080518082019091526003546001600160a01b039081168252600454166020820152600780546001810182556000919091526200027c9160008051602062000f3d83398151915290910190600262000283565b5062000304565b828054828255906000526020600020908101928215620002db579160200282015b82811115620002db57825182546001600160a01b0319166001600160a01b03909116178255602090920191600190910190620002a4565b50620002e9929150620002ed565b5090565b5b80821115620002e95760008155600101620002ee565b610c2980620003146000396000f3fe608060405234801561001057600080fd5b50600436106100b45760003560e01c806398d5fdca1161007157806398d5fdca14610168578063a6c41fec1461017e578063ad5c464814610191578063af6d1fe4146101a4578063c54e44eb146101b7578063e0bab4c4146101ca57600080fd5b80631694505e146100b957806324d16c1a146100f157806338c6cdd51461010457806346fab9e91461011f57806370b5180d1461013257806389a3027114610155575b600080fd5b6100d4737a250d5630b4cf539739df2c5dacb4c659f2488d81565b6040516001600160a01b0390911681526020015b60405180910390f35b6100d46100ff366004610a3d565b6101dd565b6100d473d9e1ce17f2641f24ae83637ab66a2cca9c378b9f81565b6100d461012d366004610a56565b610207565b61013a61024b565b604080519384526020840192909252908201526060016100e8565b6001546100d4906001600160a01b031681565b61017061088f565b6040519081526020016100e8565b6004546100d4906001600160a01b031681565b6000546100d4906001600160a01b031681565b6100d46101b2366004610a3d565b610a2d565b6002546100d4906001600160a01b031681565b6003546100d4906001600160a01b031681565b600581815481106101ed57600080fd5b6000918252602090912001546001600160a01b0316905081565b6007828154811061021757600080fd5b90600052602060002001818154811061022f57600080fd5b6000918252602090912001546001600160a01b03169150829050565b6000806000806000805b6007548110156104745760005b600554811015610461578160000361035f5760006005828154811061028957610289610a78565b600091825260209091200154600780546001600160a01b039092169163d06ca61f91670de0b6b3a764000091879081106102c5576102c5610a78565b906000526020600020016040518363ffffffff1660e01b81526004016102ec929190610ad7565b600060405180830381865afa158015610309573d6000803e3d6000fd5b505050506040513d6000823e601f3d908101601f191682016040526103319190810190610b0e565b60018151811061034357610343610a78565b6020026020010151905083811115610359578093505b5061044f565b60006005828154811061037457610374610a78565b600091825260209091200154600780546001600160a01b039092169163d06ca61f918791879081106103a8576103a8610a78565b906000526020600020016040518363ffffffff1660e01b81526004016103cf929190610ad7565b600060405180830381865afa1580156103ec573d6000803e3d6000fd5b505050506040513d6000823e601f3d908101601f191682016040526104149190810190610b0e565b60018151811061042657610426610a78565b6020026020010151905083811115610441579293508261044d565b8381111561044d578394505b505b8061045981610bcc565b915050610262565b508061046c81610bcc565b915050610255565b506000600560018154811061048b5761048b610a78565b6000918252602082200154600780546001600160a01b039092169263d06ca61f92670de0b6b3a76400009291906104c4576104c4610a78565b906000526020600020016040518363ffffffff1660e01b81526004016104eb929190610ad7565b600060405180830381865afa158015610508573d6000803e3d6000fd5b505050506040513d6000823e601f3d908101601f191682016040526105309190810190610b0e565b60018151811061054257610542610a78565b602002602001015190506000600560018154811061056257610562610a78565b600091825260209091200154600780546001600160a01b039092169163d06ca61f918591600190811061059757610597610a78565b906000526020600020016040518363ffffffff1660e01b81526004016105be929190610ad7565b600060405180830381865afa1580156105db573d6000803e3d6000fd5b505050506040513d6000823e601f3d908101601f191682016040526106039190810190610b0e565b60018151811061061557610615610a78565b602002602001015190506000600560018154811061063557610635610a78565b600091825260209091200154600780546001600160a01b039092169163d06ca61f918591600290811061066a5761066a610a78565b906000526020600020016040518363ffffffff1660e01b8152600401610691929190610ad7565b600060405180830381865afa1580156106ae573d6000803e3d6000fd5b505050506040513d6000823e601f3d908101601f191682016040526106d69190810190610b0e565b6001815181106106e8576106e8610a78565b602002602001015190506000600560018154811061070857610708610a78565b600091825260209091200154600780546001600160a01b039092169163d06ca61f918591600390811061073d5761073d610a78565b906000526020600020016040518363ffffffff1660e01b8152600401610764929190610ad7565b600060405180830381865afa158015610781573d6000803e3d6000fd5b505050506040513d6000823e601f3d908101601f191682016040526107a99190810190610b0e565b6001815181106107bb576107bb610a78565b60200260200101519050858160056001815481106107db576107db610a78565b60009182526020909120015460405163d06ca61f60e01b81526001600160a01b039091169063d06ca61f9061081f90670de0b6b3a764000090600690600401610ad7565b600060405180830381865afa15801561083c573d6000803e3d6000fd5b505050506040513d6000823e601f3d908101601f191682016040526108649190810190610b0e565b60018151811061087657610876610a78565b6020026020010151985098509850505050505050909192565b60008060005b600654811015610a275781600582815481106108b3576108b3610a78565b60009182526020909120015460405163d06ca61f60e01b81526001600160a01b039091169063d06ca61f906108f790670de0b6b3a764000090600690600401610ad7565b600060405180830381865afa158015610914573d6000803e3d6000fd5b505050506040513d6000823e601f3d908101601f1916820160405261093c9190810190610b0e565b60018151811061094e5761094e610a78565b60200260200101511115610a15576005818154811061096f5761096f610a78565b60009182526020909120015460405163d06ca61f60e01b81526001600160a01b039091169063d06ca61f906109b390670de0b6b3a764000090600690600401610ad7565b600060405180830381865afa1580156109d0573d6000803e3d6000fd5b505050506040513d6000823e601f3d908101601f191682016040526109f89190810190610b0e565b600181518110610a0a57610a0a610a78565b602002602001015191505b80610a1f81610bcc565b915050610895565b50919050565b600681815481106101ed57600080fd5b600060208284031215610a4f57600080fd5b5035919050565b60008060408385031215610a6957600080fd5b50508035926020909101359150565b634e487b7160e01b600052603260045260246000fd5b6000815480845260208085019450836000528060002060005b83811015610acc5781546001600160a01b031687529582019560019182019101610aa7565b509495945050505050565b828152604060208201526000610af06040830184610a8e565b949350505050565b634e487b7160e01b600052604160045260246000fd5b60006020808385031215610b2157600080fd5b825167ffffffffffffffff80821115610b3957600080fd5b818501915085601f830112610b4d57600080fd5b815181811115610b5f57610b5f610af8565b8060051b604051601f19603f83011681018181108582111715610b8457610b84610af8565b604052918252848201925083810185019188831115610ba257600080fd5b938501935b82851015610bc057845184529385019392850192610ba7565b98975050505050505050565b600060018201610bec57634e487b7160e01b600052601160045260246000fd5b506001019056fea26469706673582212208883fcaf07b16621278169abe5605d0e9cb76778ae1dbd0a048106bddcd26e0164736f6c63430008120033a66cc928b5edb82af9bd49922954155ab7b0942694bea4ce44661d9a8736c688",
					"opcodes": "PUSH1 0x0 DUP1 SLOAD PUSH1 0x1 PUSH1 0x1 PUSH1 0xA0 SHL SUB NOT SWAP1 DUP2 AND PUSH20 0xC02AAA39B223FE8D0A0E5C4F27EAD9083C756CC2 OR SWAP1 SWAP2 SSTORE PUSH1 0x1 DUP1 SLOAD DUP3 AND PUSH20 0xA0B86991C6218B36C1D19D4A2E9EB0CE3606EB48 OR SWAP1 SSTORE PUSH1 0x2 DUP1 SLOAD DUP3 AND PUSH20 0xDAC17F958D2EE523A2206206994597C13D831EC7 OR DUP2 SSTORE PUSH1 0x3 DUP1 SLOAD DUP4 AND PUSH20 0x6B175474E89094C44DA98B954EEDEAC495271D0F OR SWAP1 SSTORE PUSH1 0x4 DUP1 SLOAD SWAP1 SWAP3 AND PUSH20 0x64AA3364F17A4D01C6F1751FD97C2BD3D7E7F1D5 OR SWAP1 SWAP2 SSTORE PUSH1 0xC0 PUSH1 0x40 MSTORE PUSH20 0x7A250D5630B4CF539739DF2C5DACB4C659F2488D PUSH1 0x80 SWAP1 DUP2 MSTORE PUSH20 0xD9E1CE17F2641F24AE83637AB66A2CCA9C378B9F PUSH1 0xA0 MSTORE PUSH3 0xE8 SWAP2 PUSH1 0x5 SWAP2 SWAP1 PUSH3 0x283 JUMP JUMPDEST POP PUSH1 0x40 DUP1 MLOAD DUP1 DUP3 ADD SWAP1 SWAP2 MSTORE PUSH1 0x0 SLOAD PUSH1 0x1 PUSH1 0x1 PUSH1 0xA0 SHL SUB SWAP1 DUP2 AND DUP3 MSTORE PUSH1 0x4 SLOAD AND PUSH1 0x20 DUP3 ADD MSTORE PUSH3 0x11C SWAP1 PUSH1 0x6 SWAP1 PUSH1 0x2 PUSH3 0x283 JUMP JUMPDEST POP CALLVALUE DUP1 ISZERO PUSH3 0x12A JUMPI PUSH1 0x0 DUP1 REVERT JUMPDEST POP PUSH1 0x40 DUP1 MLOAD DUP1 DUP3 ADD SWAP1 SWAP2 MSTORE PUSH1 0x0 DUP1 SLOAD PUSH1 0x1 PUSH1 0x1 PUSH1 0xA0 SHL SUB SWAP1 DUP2 AND DUP4 MSTORE PUSH1 0x1 DUP1 SLOAD SWAP1 SWAP2 AND PUSH1 0x20 DUP5 ADD MSTORE PUSH1 0x7 DUP1 SLOAD SWAP2 DUP3 ADD DUP2 SSTORE SWAP1 SWAP2 MSTORE PUSH3 0x17F SWAP2 PUSH1 0x0 DUP1 MLOAD PUSH1 0x20 PUSH3 0xF3D DUP4 CODECOPY DUP2 MLOAD SWAP2 MSTORE SWAP1 SWAP2 ADD SWAP1 PUSH1 0x2 PUSH3 0x283 JUMP JUMPDEST POP PUSH1 0x40 DUP1 MLOAD DUP1 DUP3 ADD SWAP1 SWAP2 MSTORE PUSH1 0x1 DUP1 SLOAD PUSH1 0x1 PUSH1 0x1 PUSH1 0xA0 SHL SUB SWAP1 DUP2 AND DUP4 MSTORE PUSH1 0x2 DUP1 SLOAD SWAP1 SWAP2 AND PUSH1 0x20 DUP5 ADD MSTORE PUSH1 0x7 DUP1 SLOAD SWAP3 DUP4 ADD DUP2 SSTORE PUSH1 0x0 MSTORE PUSH3 0x1D3 SWAP3 PUSH1 0x0 DUP1 MLOAD PUSH1 0x20 PUSH3 0xF3D DUP4 CODECOPY DUP2 MLOAD SWAP2 MSTORE SWAP1 SWAP3 ADD SWAP2 SWAP1 PUSH3 0x283 JUMP JUMPDEST POP PUSH1 0x40 DUP1 MLOAD DUP1 DUP3 ADD SWAP1 SWAP2 MSTORE PUSH1 0x2 DUP1 SLOAD PUSH1 0x1 PUSH1 0x1 PUSH1 0xA0 SHL SUB SWAP1 DUP2 AND DUP4 MSTORE PUSH1 0x3 SLOAD AND PUSH1 0x20 DUP4 ADD MSTORE PUSH1 0x7 DUP1 SLOAD PUSH1 0x1 DUP2 ADD DUP3 SSTORE PUSH1 0x0 SWAP2 SWAP1 SWAP2 MSTORE PUSH3 0x227 SWAP3 PUSH1 0x0 DUP1 MLOAD PUSH1 0x20 PUSH3 0xF3D DUP4 CODECOPY DUP2 MLOAD SWAP2 MSTORE SWAP1 SWAP2 ADD SWAP2 PUSH3 0x283 JUMP JUMPDEST POP PUSH1 0x40 DUP1 MLOAD DUP1 DUP3 ADD SWAP1 SWAP2 MSTORE PUSH1 0x3 SLOAD PUSH1 0x1 PUSH1 0x1 PUSH1 0xA0 SHL SUB SWAP1 DUP2 AND DUP3 MSTORE PUSH1 0x4 SLOAD AND PUSH1 0x20 DUP3 ADD MSTORE PUSH1 0x7 DUP1 SLOAD PUSH1 0x1 DUP2 ADD DUP3 SSTORE PUSH1 0x0 SWAP2 SWAP1 SWAP2 MSTORE PUSH3 0x27C SWAP2 PUSH1 0x0 DUP1 MLOAD PUSH1 0x20 PUSH3 0xF3D DUP4 CODECOPY DUP2 MLOAD SWAP2 MSTORE SWAP1 SWAP2 ADD SWAP1 PUSH1 0x2 PUSH3 0x283 JUMP JUMPDEST POP PUSH3 0x304 JUMP JUMPDEST DUP3 DUP1 SLOAD DUP3 DUP3 SSTORE SWAP1 PUSH1 0x0 MSTORE PUSH1 0x20 PUSH1 0x0 KECCAK256 SWAP1 DUP2 ADD SWAP3 DUP3 ISZERO PUSH3 0x2DB JUMPI SWAP2 PUSH1 0x20 MUL DUP3 ADD JUMPDEST DUP3 DUP2 GT ISZERO PUSH3 0x2DB JUMPI DUP3 MLOAD DUP3 SLOAD PUSH1 0x1 PUSH1 0x1 PUSH1 0xA0 SHL SUB NOT AND PUSH1 0x1 PUSH1 0x1 PUSH1 0xA0 SHL SUB SWAP1 SWAP2 AND OR DUP3 SSTORE PUSH1 0x20 SWAP1 SWAP3 ADD SWAP2 PUSH1 0x1 SWAP1 SWAP2 ADD SWAP1 PUSH3 0x2A4 JUMP JUMPDEST POP PUSH3 0x2E9 SWAP3 SWAP2 POP PUSH3 0x2ED JUMP JUMPDEST POP SWAP1 JUMP JUMPDEST JUMPDEST DUP1 DUP3 GT ISZERO PUSH3 0x2E9 JUMPI PUSH1 0x0 DUP2 SSTORE PUSH1 0x1 ADD PUSH3 0x2EE JUMP JUMPDEST PUSH2 0xC29 DUP1 PUSH3 0x314 PUSH1 0x0 CODECOPY PUSH1 0x0 RETURN INVALID PUSH1 0x80 PUSH1 0x40 MSTORE CALLVALUE DUP1 ISZERO PUSH2 0x10 JUMPI PUSH1 0x0 DUP1 REVERT JUMPDEST POP PUSH1 0x4 CALLDATASIZE LT PUSH2 0xB4 JUMPI PUSH1 0x0 CALLDATALOAD PUSH1 0xE0 SHR DUP1 PUSH4 0x98D5FDCA GT PUSH2 0x71 JUMPI DUP1 PUSH4 0x98D5FDCA EQ PUSH2 0x168 JUMPI DUP1 PUSH4 0xA6C41FEC EQ PUSH2 0x17E JUMPI DUP1 PUSH4 0xAD5C4648 EQ PUSH2 0x191 JUMPI DUP1 PUSH4 0xAF6D1FE4 EQ PUSH2 0x1A4 JUMPI DUP1 PUSH4 0xC54E44EB EQ PUSH2 0x1B7 JUMPI DUP1 PUSH4 0xE0BAB4C4 EQ PUSH2 0x1CA JUMPI PUSH1 0x0 DUP1 REVERT JUMPDEST DUP1 PUSH4 0x1694505E EQ PUSH2 0xB9 JUMPI DUP1 PUSH4 0x24D16C1A EQ PUSH2 0xF1 JUMPI DUP1 PUSH4 0x38C6CDD5 EQ PUSH2 0x104 JUMPI DUP1 PUSH4 0x46FAB9E9 EQ PUSH2 0x11F JUMPI DUP1 PUSH4 0x70B5180D EQ PUSH2 0x132 JUMPI DUP1 PUSH4 0x89A30271 EQ PUSH2 0x155 JUMPI JUMPDEST PUSH1 0x0 DUP1 REVERT JUMPDEST PUSH2 0xD4 PUSH20 0x7A250D5630B4CF539739DF2C5DACB4C659F2488D DUP2 JUMP JUMPDEST PUSH1 0x40 MLOAD PUSH1 0x1 PUSH1 0x1 PUSH1 0xA0 SHL SUB SWAP1 SWAP2 AND DUP2 MSTORE PUSH1 0x20 ADD JUMPDEST PUSH1 0x40 MLOAD DUP1 SWAP2 SUB SWAP1 RETURN JUMPDEST PUSH2 0xD4 PUSH2 0xFF CALLDATASIZE PUSH1 0x4 PUSH2 0xA3D JUMP JUMPDEST PUSH2 0x1DD JUMP JUMPDEST PUSH2 0xD4 PUSH20 0xD9E1CE17F2641F24AE83637AB66A2CCA9C378B9F DUP2 JUMP JUMPDEST PUSH2 0xD4 PUSH2 0x12D CALLDATASIZE PUSH1 0x4 PUSH2 0xA56 JUMP JUMPDEST PUSH2 0x207 JUMP JUMPDEST PUSH2 0x13A PUSH2 0x24B JUMP JUMPDEST PUSH1 0x40 DUP1 MLOAD SWAP4 DUP5 MSTORE PUSH1 0x20 DUP5 ADD SWAP3 SWAP1 SWAP3 MSTORE SWAP1 DUP3 ADD MSTORE PUSH1 0x60 ADD PUSH2 0xE8 JUMP JUMPDEST PUSH1 0x1 SLOAD PUSH2 0xD4 SWAP1 PUSH1 0x1 PUSH1 0x1 PUSH1 0xA0 SHL SUB AND DUP2 JUMP JUMPDEST PUSH2 0x170 PUSH2 0x88F JUMP JUMPDEST PUSH1 0x40 MLOAD SWAP1 DUP2 MSTORE PUSH1 0x20 ADD PUSH2 0xE8 JUMP JUMPDEST PUSH1 0x4 SLOAD PUSH2 0xD4 SWAP1 PUSH1 0x1 PUSH1 0x1 PUSH1 0xA0 SHL SUB AND DUP2 JUMP JUMPDEST PUSH1 0x0 SLOAD PUSH2 0xD4 SWAP1 PUSH1 0x1 PUSH1 0x1 PUSH1 0xA0 SHL SUB AND DUP2 JUMP JUMPDEST PUSH2 0xD4 PUSH2 0x1B2 CALLDATASIZE PUSH1 0x4 PUSH2 0xA3D JUMP JUMPDEST PUSH2 0xA2D JUMP JUMPDEST PUSH1 0x2 SLOAD PUSH2 0xD4 SWAP1 PUSH1 0x1 PUSH1 0x1 PUSH1 0xA0 SHL SUB AND DUP2 JUMP JUMPDEST PUSH1 0x3 SLOAD PUSH2 0xD4 SWAP1 PUSH1 0x1 PUSH1 0x1 PUSH1 0xA0 SHL SUB AND DUP2 JUMP JUMPDEST PUSH1 0x5 DUP2 DUP2 SLOAD DUP2 LT PUSH2 0x1ED JUMPI PUSH1 0x0 DUP1 REVERT JUMPDEST PUSH1 0x0 SWAP2 DUP3 MSTORE PUSH1 0x20 SWAP1 SWAP2 KECCAK256 ADD SLOAD PUSH1 0x1 PUSH1 0x1 PUSH1 0xA0 SHL SUB AND SWAP1 POP DUP2 JUMP JUMPDEST PUSH1 0x7 DUP3 DUP2 SLOAD DUP2 LT PUSH2 0x217 JUMPI PUSH1 0x0 DUP1 REVERT JUMPDEST SWAP1 PUSH1 0x0 MSTORE PUSH1 0x20 PUSH1 0x0 KECCAK256 ADD DUP2 DUP2 SLOAD DUP2 LT PUSH2 0x22F JUMPI PUSH1 0x0 DUP1 REVERT JUMPDEST PUSH1 0x0 SWAP2 DUP3 MSTORE PUSH1 0x20 SWAP1 SWAP2 KECCAK256 ADD SLOAD PUSH1 0x1 PUSH1 0x1 PUSH1 0xA0 SHL SUB AND SWAP2 POP DUP3 SWAP1 POP JUMP JUMPDEST PUSH1 0x0 DUP1 PUSH1 0x0 DUP1 PUSH1 0x0 DUP1 JUMPDEST PUSH1 0x7 SLOAD DUP2 LT ISZERO PUSH2 0x474 JUMPI PUSH1 0x0 JUMPDEST PUSH1 0x5 SLOAD DUP2 LT ISZERO PUSH2 0x461 JUMPI DUP2 PUSH1 0x0 SUB PUSH2 0x35F JUMPI PUSH1 0x0 PUSH1 0x5 DUP3 DUP2 SLOAD DUP2 LT PUSH2 0x289 JUMPI PUSH2 0x289 PUSH2 0xA78 JUMP JUMPDEST PUSH1 0x0 SWAP2 DUP3 MSTORE PUSH1 0x20 SWAP1 SWAP2 KECCAK256 ADD SLOAD PUSH1 0x7 DUP1 SLOAD PUSH1 0x1 PUSH1 0x1 PUSH1 0xA0 SHL SUB SWAP1 SWAP3 AND SWAP2 PUSH4 0xD06CA61F SWAP2 PUSH8 0xDE0B6B3A7640000 SWAP2 DUP8 SWAP1 DUP2 LT PUSH2 0x2C5 JUMPI PUSH2 0x2C5 PUSH2 0xA78 JUMP JUMPDEST SWAP1 PUSH1 0x0 MSTORE PUSH1 0x20 PUSH1 0x0 KECCAK256 ADD PUSH1 0x40 MLOAD DUP4 PUSH4 0xFFFFFFFF AND PUSH1 0xE0 SHL DUP2 MSTORE PUSH1 0x4 ADD PUSH2 0x2EC SWAP3 SWAP2 SWAP1 PUSH2 0xAD7 JUMP JUMPDEST PUSH1 0x0 PUSH1 0x40 MLOAD DUP1 DUP4 SUB DUP2 DUP7 GAS STATICCALL ISZERO DUP1 ISZERO PUSH2 0x309 JUMPI RETURNDATASIZE PUSH1 0x0 DUP1 RETURNDATACOPY RETURNDATASIZE PUSH1 0x0 REVERT JUMPDEST POP POP POP POP PUSH1 0x40 MLOAD RETURNDATASIZE PUSH1 0x0 DUP3 RETURNDATACOPY PUSH1 0x1F RETURNDATASIZE SWAP1 DUP2 ADD PUSH1 0x1F NOT AND DUP3 ADD PUSH1 0x40 MSTORE PUSH2 0x331 SWAP2 SWAP1 DUP2 ADD SWAP1 PUSH2 0xB0E JUMP JUMPDEST PUSH1 0x1 DUP2 MLOAD DUP2 LT PUSH2 0x343 JUMPI PUSH2 0x343 PUSH2 0xA78 JUMP JUMPDEST PUSH1 0x20 MUL PUSH1 0x20 ADD ADD MLOAD SWAP1 POP DUP4 DUP2 GT ISZERO PUSH2 0x359 JUMPI DUP1 SWAP4 POP JUMPDEST POP PUSH2 0x44F JUMP JUMPDEST PUSH1 0x0 PUSH1 0x5 DUP3 DUP2 SLOAD DUP2 LT PUSH2 0x374 JUMPI PUSH2 0x374 PUSH2 0xA78 JUMP JUMPDEST PUSH1 0x0 SWAP2 DUP3 MSTORE PUSH1 0x20 SWAP1 SWAP2 KECCAK256 ADD SLOAD PUSH1 0x7 DUP1 SLOAD PUSH1 0x1 PUSH1 0x1 PUSH1 0xA0 SHL SUB SWAP1 SWAP3 AND SWAP2 PUSH4 0xD06CA61F SWAP2 DUP8 SWAP2 DUP8 SWAP1 DUP2 LT PUSH2 0x3A8 JUMPI PUSH2 0x3A8 PUSH2 0xA78 JUMP JUMPDEST SWAP1 PUSH1 0x0 MSTORE PUSH1 0x20 PUSH1 0x0 KECCAK256 ADD PUSH1 0x40 MLOAD DUP4 PUSH4 0xFFFFFFFF AND PUSH1 0xE0 SHL DUP2 MSTORE PUSH1 0x4 ADD PUSH2 0x3CF SWAP3 SWAP2 SWAP1 PUSH2 0xAD7 JUMP JUMPDEST PUSH1 0x0 PUSH1 0x40 MLOAD DUP1 DUP4 SUB DUP2 DUP7 GAS STATICCALL ISZERO DUP1 ISZERO PUSH2 0x3EC JUMPI RETURNDATASIZE PUSH1 0x0 DUP1 RETURNDATACOPY RETURNDATASIZE PUSH1 0x0 REVERT JUMPDEST POP POP POP POP PUSH1 0x40 MLOAD RETURNDATASIZE PUSH1 0x0 DUP3 RETURNDATACOPY PUSH1 0x1F RETURNDATASIZE SWAP1 DUP2 ADD PUSH1 0x1F NOT AND DUP3 ADD PUSH1 0x40 MSTORE PUSH2 0x414 SWAP2 SWAP1 DUP2 ADD SWAP1 PUSH2 0xB0E JUMP JUMPDEST PUSH1 0x1 DUP2 MLOAD DUP2 LT PUSH2 0x426 JUMPI PUSH2 0x426 PUSH2 0xA78 JUMP JUMPDEST PUSH1 0x20 MUL PUSH1 0x20 ADD ADD MLOAD SWAP1 POP DUP4 DUP2 GT ISZERO PUSH2 0x441 JUMPI SWAP3 SWAP4 POP DUP3 PUSH2 0x44D JUMP JUMPDEST DUP4 DUP2 GT ISZERO PUSH2 0x44D JUMPI DUP4 SWAP5 POP JUMPDEST POP JUMPDEST DUP1 PUSH2 0x459 DUP2 PUSH2 0xBCC JUMP JUMPDEST SWAP2 POP POP PUSH2 0x262 JUMP JUMPDEST POP DUP1 PUSH2 0x46C DUP2 PUSH2 0xBCC JUMP JUMPDEST SWAP2 POP POP PUSH2 0x255 JUMP JUMPDEST POP PUSH1 0x0 PUSH1 0x5 PUSH1 0x1 DUP2 SLOAD DUP2 LT PUSH2 0x48B JUMPI PUSH2 0x48B PUSH2 0xA78 JUMP JUMPDEST PUSH1 0x0 SWAP2 DUP3 MSTORE PUSH1 0x20 DUP3 KECCAK256 ADD SLOAD PUSH1 0x7 DUP1 SLOAD PUSH1 0x1 PUSH1 0x1 PUSH1 0xA0 SHL SUB SWAP1 SWAP3 AND SWAP3 PUSH4 0xD06CA61F SWAP3 PUSH8 0xDE0B6B3A7640000 SWAP3 SWAP2 SWAP1 PUSH2 0x4C4 JUMPI PUSH2 0x4C4 PUSH2 0xA78 JUMP JUMPDEST SWAP1 PUSH1 0x0 MSTORE PUSH1 0x20 PUSH1 0x0 KECCAK256 ADD PUSH1 0x40 MLOAD DUP4 PUSH4 0xFFFFFFFF AND PUSH1 0xE0 SHL DUP2 MSTORE PUSH1 0x4 ADD PUSH2 0x4EB SWAP3 SWAP2 SWAP1 PUSH2 0xAD7 JUMP JUMPDEST PUSH1 0x0 PUSH1 0x40 MLOAD DUP1 DUP4 SUB DUP2 DUP7 GAS STATICCALL ISZERO DUP1 ISZERO PUSH2 0x508 JUMPI RETURNDATASIZE PUSH1 0x0 DUP1 RETURNDATACOPY RETURNDATASIZE PUSH1 0x0 REVERT JUMPDEST POP POP POP POP PUSH1 0x40 MLOAD RETURNDATASIZE PUSH1 0x0 DUP3 RETURNDATACOPY PUSH1 0x1F RETURNDATASIZE SWAP1 DUP2 ADD PUSH1 0x1F NOT AND DUP3 ADD PUSH1 0x40 MSTORE PUSH2 0x530 SWAP2 SWAP1 DUP2 ADD SWAP1 PUSH2 0xB0E JUMP JUMPDEST PUSH1 0x1 DUP2 MLOAD DUP2 LT PUSH2 0x542 JUMPI PUSH2 0x542 PUSH2 0xA78 JUMP JUMPDEST PUSH1 0x20 MUL PUSH1 0x20 ADD ADD MLOAD SWAP1 POP PUSH1 0x0 PUSH1 0x5 PUSH1 0x1 DUP2 SLOAD DUP2 LT PUSH2 0x562 JUMPI PUSH2 0x562 PUSH2 0xA78 JUMP JUMPDEST PUSH1 0x0 SWAP2 DUP3 MSTORE PUSH1 0x20 SWAP1 SWAP2 KECCAK256 ADD SLOAD PUSH1 0x7 DUP1 SLOAD PUSH1 0x1 PUSH1 0x1 PUSH1 0xA0 SHL SUB SWAP1 SWAP3 AND SWAP2 PUSH4 0xD06CA61F SWAP2 DUP6 SWAP2 PUSH1 0x1 SWAP1 DUP2 LT PUSH2 0x597 JUMPI PUSH2 0x597 PUSH2 0xA78 JUMP JUMPDEST SWAP1 PUSH1 0x0 MSTORE PUSH1 0x20 PUSH1 0x0 KECCAK256 ADD PUSH1 0x40 MLOAD DUP4 PUSH4 0xFFFFFFFF AND PUSH1 0xE0 SHL DUP2 MSTORE PUSH1 0x4 ADD PUSH2 0x5BE SWAP3 SWAP2 SWAP1 PUSH2 0xAD7 JUMP JUMPDEST PUSH1 0x0 PUSH1 0x40 MLOAD DUP1 DUP4 SUB DUP2 DUP7 GAS STATICCALL ISZERO DUP1 ISZERO PUSH2 0x5DB JUMPI RETURNDATASIZE PUSH1 0x0 DUP1 RETURNDATACOPY RETURNDATASIZE PUSH1 0x0 REVERT JUMPDEST POP POP POP POP PUSH1 0x40 MLOAD RETURNDATASIZE PUSH1 0x0 DUP3 RETURNDATACOPY PUSH1 0x1F RETURNDATASIZE SWAP1 DUP2 ADD PUSH1 0x1F NOT AND DUP3 ADD PUSH1 0x40 MSTORE PUSH2 0x603 SWAP2 SWAP1 DUP2 ADD SWAP1 PUSH2 0xB0E JUMP JUMPDEST PUSH1 0x1 DUP2 MLOAD DUP2 LT PUSH2 0x615 JUMPI PUSH2 0x615 PUSH2 0xA78 JUMP JUMPDEST PUSH1 0x20 MUL PUSH1 0x20 ADD ADD MLOAD SWAP1 POP PUSH1 0x0 PUSH1 0x5 PUSH1 0x1 DUP2 SLOAD DUP2 LT PUSH2 0x635 JUMPI PUSH2 0x635 PUSH2 0xA78 JUMP JUMPDEST PUSH1 0x0 SWAP2 DUP3 MSTORE PUSH1 0x20 SWAP1 SWAP2 KECCAK256 ADD SLOAD PUSH1 0x7 DUP1 SLOAD PUSH1 0x1 PUSH1 0x1 PUSH1 0xA0 SHL SUB SWAP1 SWAP3 AND SWAP2 PUSH4 0xD06CA61F SWAP2 DUP6 SWAP2 PUSH1 0x2 SWAP1 DUP2 LT PUSH2 0x66A JUMPI PUSH2 0x66A PUSH2 0xA78 JUMP JUMPDEST SWAP1 PUSH1 0x0 MSTORE PUSH1 0x20 PUSH1 0x0 KECCAK256 ADD PUSH1 0x40 MLOAD DUP4 PUSH4 0xFFFFFFFF AND PUSH1 0xE0 SHL DUP2 MSTORE PUSH1 0x4 ADD PUSH2 0x691 SWAP3 SWAP2 SWAP1 PUSH2 0xAD7 JUMP JUMPDEST PUSH1 0x0 PUSH1 0x40 MLOAD DUP1 DUP4 SUB DUP2 DUP7 GAS STATICCALL ISZERO DUP1 ISZERO PUSH2 0x6AE JUMPI RETURNDATASIZE PUSH1 0x0 DUP1 RETURNDATACOPY RETURNDATASIZE PUSH1 0x0 REVERT JUMPDEST POP POP POP POP PUSH1 0x40 MLOAD RETURNDATASIZE PUSH1 0x0 DUP3 RETURNDATACOPY PUSH1 0x1F RETURNDATASIZE SWAP1 DUP2 ADD PUSH1 0x1F NOT AND DUP3 ADD PUSH1 0x40 MSTORE PUSH2 0x6D6 SWAP2 SWAP1 DUP2 ADD SWAP1 PUSH2 0xB0E JUMP JUMPDEST PUSH1 0x1 DUP2 MLOAD DUP2 LT PUSH2 0x6E8 JUMPI PUSH2 0x6E8 PUSH2 0xA78 JUMP JUMPDEST PUSH1 0x20 MUL PUSH1 0x20 ADD ADD MLOAD SWAP1 POP PUSH1 0x0 PUSH1 0x5 PUSH1 0x1 DUP2 SLOAD DUP2 LT PUSH2 0x708 JUMPI PUSH2 0x708 PUSH2 0xA78 JUMP JUMPDEST PUSH1 0x0 SWAP2 DUP3 MSTORE PUSH1 0x20 SWAP1 SWAP2 KECCAK256 ADD SLOAD PUSH1 0x7 DUP1 SLOAD PUSH1 0x1 PUSH1 0x1 PUSH1 0xA0 SHL SUB SWAP1 SWAP3 AND SWAP2 PUSH4 0xD06CA61F SWAP2 DUP6 SWAP2 PUSH1 0x3 SWAP1 DUP2 LT PUSH2 0x73D JUMPI PUSH2 0x73D PUSH2 0xA78 JUMP JUMPDEST SWAP1 PUSH1 0x0 MSTORE PUSH1 0x20 PUSH1 0x0 KECCAK256 ADD PUSH1 0x40 MLOAD DUP4 PUSH4 0xFFFFFFFF AND PUSH1 0xE0 SHL DUP2 MSTORE PUSH1 0x4 ADD PUSH2 0x764 SWAP3 SWAP2 SWAP1 PUSH2 0xAD7 JUMP JUMPDEST PUSH1 0x0 PUSH1 0x40 MLOAD DUP1 DUP4 SUB DUP2 DUP7 GAS STATICCALL ISZERO DUP1 ISZERO PUSH2 0x781 JUMPI RETURNDATASIZE PUSH1 0x0 DUP1 RETURNDATACOPY RETURNDATASIZE PUSH1 0x0 REVERT JUMPDEST POP POP POP POP PUSH1 0x40 MLOAD RETURNDATASIZE PUSH1 0x0 DUP3 RETURNDATACOPY PUSH1 0x1F RETURNDATASIZE SWAP1 DUP2 ADD PUSH1 0x1F NOT AND DUP3 ADD PUSH1 0x40 MSTORE PUSH2 0x7A9 SWAP2 SWAP1 DUP2 ADD SWAP1 PUSH2 0xB0E JUMP JUMPDEST PUSH1 0x1 DUP2 MLOAD DUP2 LT PUSH2 0x7BB JUMPI PUSH2 0x7BB PUSH2 0xA78 JUMP JUMPDEST PUSH1 0x20 MUL PUSH1 0x20 ADD ADD MLOAD SWAP1 POP DUP6 DUP2 PUSH1 0x5 PUSH1 0x1 DUP2 SLOAD DUP2 LT PUSH2 0x7DB JUMPI PUSH2 0x7DB PUSH2 0xA78 JUMP JUMPDEST PUSH1 0x0 SWAP2 DUP3 MSTORE PUSH1 0x20 SWAP1 SWAP2 KECCAK256 ADD SLOAD PUSH1 0x40 MLOAD PUSH4 0xD06CA61F PUSH1 0xE0 SHL DUP2 MSTORE PUSH1 0x1 PUSH1 0x1 PUSH1 0xA0 SHL SUB SWAP1 SWAP2 AND SWAP1 PUSH4 0xD06CA61F SWAP1 PUSH2 0x81F SWAP1 PUSH8 0xDE0B6B3A7640000 SWAP1 PUSH1 0x6 SWAP1 PUSH1 0x4 ADD PUSH2 0xAD7 JUMP JUMPDEST PUSH1 0x0 PUSH1 0x40 MLOAD DUP1 DUP4 SUB DUP2 DUP7 GAS STATICCALL ISZERO DUP1 ISZERO PUSH2 0x83C JUMPI RETURNDATASIZE PUSH1 0x0 DUP1 RETURNDATACOPY RETURNDATASIZE PUSH1 0x0 REVERT JUMPDEST POP POP POP POP PUSH1 0x40 MLOAD RETURNDATASIZE PUSH1 0x0 DUP3 RETURNDATACOPY PUSH1 0x1F RETURNDATASIZE SWAP1 DUP2 ADD PUSH1 0x1F NOT AND DUP3 ADD PUSH1 0x40 MSTORE PUSH2 0x864 SWAP2 SWAP1 DUP2 ADD SWAP1 PUSH2 0xB0E JUMP JUMPDEST PUSH1 0x1 DUP2 MLOAD DUP2 LT PUSH2 0x876 JUMPI PUSH2 0x876 PUSH2 0xA78 JUMP JUMPDEST PUSH1 0x20 MUL PUSH1 0x20 ADD ADD MLOAD SWAP9 POP SWAP9 POP SWAP9 POP POP POP POP POP POP POP SWAP1 SWAP2 SWAP3 JUMP JUMPDEST PUSH1 0x0 DUP1 PUSH1 0x0 JUMPDEST PUSH1 0x6 SLOAD DUP2 LT ISZERO PUSH2 0xA27 JUMPI DUP2 PUSH1 0x5 DUP3 DUP2 SLOAD DUP2 LT PUSH2 0x8B3 JUMPI PUSH2 0x8B3 PUSH2 0xA78 JUMP JUMPDEST PUSH1 0x0 SWAP2 DUP3 MSTORE PUSH1 0x20 SWAP1 SWAP2 KECCAK256 ADD SLOAD PUSH1 0x40 MLOAD PUSH4 0xD06CA61F PUSH1 0xE0 SHL DUP2 MSTORE PUSH1 0x1 PUSH1 0x1 PUSH1 0xA0 SHL SUB SWAP1 SWAP2 AND SWAP1 PUSH4 0xD06CA61F SWAP1 PUSH2 0x8F7 SWAP1 PUSH8 0xDE0B6B3A7640000 SWAP1 PUSH1 0x6 SWAP1 PUSH1 0x4 ADD PUSH2 0xAD7 JUMP JUMPDEST PUSH1 0x0 PUSH1 0x40 MLOAD DUP1 DUP4 SUB DUP2 DUP7 GAS STATICCALL ISZERO DUP1 ISZERO PUSH2 0x914 JUMPI RETURNDATASIZE PUSH1 0x0 DUP1 RETURNDATACOPY RETURNDATASIZE PUSH1 0x0 REVERT JUMPDEST POP POP POP POP PUSH1 0x40 MLOAD RETURNDATASIZE PUSH1 0x0 DUP3 RETURNDATACOPY PUSH1 0x1F RETURNDATASIZE SWAP1 DUP2 ADD PUSH1 0x1F NOT AND DUP3 ADD PUSH1 0x40 MSTORE PUSH2 0x93C SWAP2 SWAP1 DUP2 ADD SWAP1 PUSH2 0xB0E JUMP JUMPDEST PUSH1 0x1 DUP2 MLOAD DUP2 LT PUSH2 0x94E JUMPI PUSH2 0x94E PUSH2 0xA78 JUMP JUMPDEST PUSH1 0x20 MUL PUSH1 0x20 ADD ADD MLOAD GT ISZERO PUSH2 0xA15 JUMPI PUSH1 0x5 DUP2 DUP2 SLOAD DUP2 LT PUSH2 0x96F JUMPI PUSH2 0x96F PUSH2 0xA78 JUMP JUMPDEST PUSH1 0x0 SWAP2 DUP3 MSTORE PUSH1 0x20 SWAP1 SWAP2 KECCAK256 ADD SLOAD PUSH1 0x40 MLOAD PUSH4 0xD06CA61F PUSH1 0xE0 SHL DUP2 MSTORE PUSH1 0x1 PUSH1 0x1 PUSH1 0xA0 SHL SUB SWAP1 SWAP2 AND SWAP1 PUSH4 0xD06CA61F SWAP1 PUSH2 0x9B3 SWAP1 PUSH8 0xDE0B6B3A7640000 SWAP1 PUSH1 0x6 SWAP1 PUSH1 0x4 ADD PUSH2 0xAD7 JUMP JUMPDEST PUSH1 0x0 PUSH1 0x40 MLOAD DUP1 DUP4 SUB DUP2 DUP7 GAS STATICCALL ISZERO DUP1 ISZERO PUSH2 0x9D0 JUMPI RETURNDATASIZE PUSH1 0x0 DUP1 RETURNDATACOPY RETURNDATASIZE PUSH1 0x0 REVERT JUMPDEST POP POP POP POP PUSH1 0x40 MLOAD RETURNDATASIZE PUSH1 0x0 DUP3 RETURNDATACOPY PUSH1 0x1F RETURNDATASIZE SWAP1 DUP2 ADD PUSH1 0x1F NOT AND DUP3 ADD PUSH1 0x40 MSTORE PUSH2 0x9F8 SWAP2 SWAP1 DUP2 ADD SWAP1 PUSH2 0xB0E JUMP JUMPDEST PUSH1 0x1 DUP2 MLOAD DUP2 LT PUSH2 0xA0A JUMPI PUSH2 0xA0A PUSH2 0xA78 JUMP JUMPDEST PUSH1 0x20 MUL PUSH1 0x20 ADD ADD MLOAD SWAP2 POP JUMPDEST DUP1 PUSH2 0xA1F DUP2 PUSH2 0xBCC JUMP JUMPDEST SWAP2 POP POP PUSH2 0x895 JUMP JUMPDEST POP SWAP2 SWAP1 POP JUMP JUMPDEST PUSH1 0x6 DUP2 DUP2 SLOAD DUP2 LT PUSH2 0x1ED JUMPI PUSH1 0x0 DUP1 REVERT JUMPDEST PUSH1 0x0 PUSH1 0x20 DUP3 DUP5 SUB SLT ISZERO PUSH2 0xA4F JUMPI PUSH1 0x0 DUP1 REVERT JUMPDEST POP CALLDATALOAD SWAP2 SWAP1 POP JUMP JUMPDEST PUSH1 0x0 DUP1 PUSH1 0x40 DUP4 DUP6 SUB SLT ISZERO PUSH2 0xA69 JUMPI PUSH1 0x0 DUP1 REVERT JUMPDEST POP POP DUP1 CALLDATALOAD SWAP3 PUSH1 0x20 SWAP1 SWAP2 ADD CALLDATALOAD SWAP2 POP JUMP JUMPDEST PUSH4 0x4E487B71 PUSH1 0xE0 SHL PUSH1 0x0 MSTORE PUSH1 0x32 PUSH1 0x4 MSTORE PUSH1 0x24 PUSH1 0x0 REVERT JUMPDEST PUSH1 0x0 DUP2 SLOAD DUP1 DUP5 MSTORE PUSH1 0x20 DUP1 DUP6 ADD SWAP5 POP DUP4 PUSH1 0x0 MSTORE DUP1 PUSH1 0x0 KECCAK256 PUSH1 0x0 JUMPDEST DUP4 DUP2 LT ISZERO PUSH2 0xACC JUMPI DUP2 SLOAD PUSH1 0x1 PUSH1 0x1 PUSH1 0xA0 SHL SUB AND DUP8 MSTORE SWAP6 DUP3 ADD SWAP6 PUSH1 0x1 SWAP2 DUP3 ADD SWAP2 ADD PUSH2 0xAA7 JUMP JUMPDEST POP SWAP5 SWAP6 SWAP5 POP POP POP POP POP JUMP JUMPDEST DUP3 DUP2 MSTORE PUSH1 0x40 PUSH1 0x20 DUP3 ADD MSTORE PUSH1 0x0 PUSH2 0xAF0 PUSH1 0x40 DUP4 ADD DUP5 PUSH2 0xA8E JUMP JUMPDEST SWAP5 SWAP4 POP POP POP POP JUMP JUMPDEST PUSH4 0x4E487B71 PUSH1 0xE0 SHL PUSH1 0x0 MSTORE PUSH1 0x41 PUSH1 0x4 MSTORE PUSH1 0x24 PUSH1 0x0 REVERT JUMPDEST PUSH1 0x0 PUSH1 0x20 DUP1 DUP4 DUP6 SUB SLT ISZERO PUSH2 0xB21 JUMPI PUSH1 0x0 DUP1 REVERT JUMPDEST DUP3 MLOAD PUSH8 0xFFFFFFFFFFFFFFFF DUP1 DUP3 GT ISZERO PUSH2 0xB39 JUMPI PUSH1 0x0 DUP1 REVERT JUMPDEST DUP2 DUP6 ADD SWAP2 POP DUP6 PUSH1 0x1F DUP4 ADD SLT PUSH2 0xB4D JUMPI PUSH1 0x0 DUP1 REVERT JUMPDEST DUP2 MLOAD DUP2 DUP2 GT ISZERO PUSH2 0xB5F JUMPI PUSH2 0xB5F PUSH2 0xAF8 JUMP JUMPDEST DUP1 PUSH1 0x5 SHL PUSH1 0x40 MLOAD PUSH1 0x1F NOT PUSH1 0x3F DUP4 ADD AND DUP2 ADD DUP2 DUP2 LT DUP6 DUP3 GT OR ISZERO PUSH2 0xB84 JUMPI PUSH2 0xB84 PUSH2 0xAF8 JUMP JUMPDEST PUSH1 0x40 MSTORE SWAP2 DUP3 MSTORE DUP5 DUP3 ADD SWAP3 POP DUP4 DUP2 ADD DUP6 ADD SWAP2 DUP9 DUP4 GT ISZERO PUSH2 0xBA2 JUMPI PUSH1 0x0 DUP1 REVERT JUMPDEST SWAP4 DUP6 ADD SWAP4 JUMPDEST DUP3 DUP6 LT ISZERO PUSH2 0xBC0 JUMPI DUP5 MLOAD DUP5 MSTORE SWAP4 DUP6 ADD SWAP4 SWAP3 DUP6 ADD SWAP3 PUSH2 0xBA7 JUMP JUMPDEST SWAP9 SWAP8 POP POP POP POP POP POP POP POP JUMP JUMPDEST PUSH1 0x0 PUSH1 0x1 DUP3 ADD PUSH2 0xBEC JUMPI PUSH4 0x4E487B71 PUSH1 0xE0 SHL PUSH1 0x0 MSTORE PUSH1 0x11 PUSH1 0x4 MSTORE PUSH1 0x24 PUSH1 0x0 REVERT JUMPDEST POP PUSH1 0x1 ADD SWAP1 JUMP INVALID LOG2 PUSH5 0x6970667358 0x22 SLT KECCAK256 DUP9 DUP4 0xFC 0xAF SMOD 0xB1 PUSH7 0x21278169ABE560 0x5D 0xE SWAP13 0xB7 PUSH8 0x78AE1DBD0A048106 0xBD 0xDC 0xD2 PUSH15 0x164736F6C63430008120033A66CC9 0x28 0xB5 0xED 0xB8 0x2A 0xF9 0xBD 0x49 SWAP3 0x29 SLOAD ISZERO GAS 0xB7 0xB0 SWAP5 0x26 SWAP5 0xBE LOG4 0xCE PREVRANDAO PUSH7 0x1D9A8736C68800 "
				},
				"gasEstimates": {
					"creation": {
						"codeDepositCost": "622600",
						"executionCost": "infinite",
						"totalCost": "infinite"
					},
					"external": {
						"DAI()": "2436",
						"OHM()": "2348",
						"USDC()": "2437",
						"USDT()": "2414",
						"WETH()": "2370",
						"allPath(uint256,uint256)": "6878",
						"dex(uint256)": "4626",
						"getBestPriceWithPaths()": "infinite",
						"getPrice()": "infinite",
						"path(uint256)": "4669",
						"sushiswapV2Router()": "250",
						"uniswapV2Router()": "206"
					}
				},
				"methodIdentifiers": {
					"DAI()": "e0bab4c4",
					"OHM()": "a6c41fec",
					"USDC()": "89a30271",
					"USDT()": "c54e44eb",
					"WETH()": "ad5c4648",
					"allPath(uint256,uint256)": "46fab9e9",
					"dex(uint256)": "24d16c1a",
					"getBestPriceWithPaths()": "70b5180d",
					"getPrice()": "98d5fdca",
					"path(uint256)": "af6d1fe4",
					"sushiswapV2Router()": "38c6cdd5",
					"uniswapV2Router()": "1694505e"
				}
			},
			"storageLayout": {
				"storage": [
					{
						"astId": 725,
						"contract": "DEXLogic.sol:PathFinding",
						"label": "WETH",
						"offset": 0,
						"slot": "0",
						"type": "t_address"
					},
					{
						"astId": 728,
						"contract": "DEXLogic.sol:PathFinding",
						"label": "USDC",
						"offset": 0,
						"slot": "1",
						"type": "t_address"
					},
					{
						"astId": 731,
						"contract": "DEXLogic.sol:PathFinding",
						"label": "USDT",
						"offset": 0,
						"slot": "2",
						"type": "t_address"
					},
					{
						"astId": 734,
						"contract": "DEXLogic.sol:PathFinding",
						"label": "DAI",
						"offset": 0,
						"slot": "3",
						"type": "t_address"
					},
					{
						"astId": 737,
						"contract": "DEXLogic.sol:PathFinding",
						"label": "OHM",
						"offset": 0,
						"slot": "4",
						"type": "t_address"
					},
					{
						"astId": 743,
						"contract": "DEXLogic.sol:PathFinding",
						"label": "dex",
						"offset": 0,
						"slot": "5",
						"type": "t_array(t_address)dyn_storage"
					},
					{
						"astId": 749,
						"contract": "DEXLogic.sol:PathFinding",
						"label": "path",
						"offset": 0,
						"slot": "6",
						"type": "t_array(t_address)dyn_storage"
					},
					{
						"astId": 753,
						"contract": "DEXLogic.sol:PathFinding",
						"label": "allPath",
						"offset": 0,
						"slot": "7",
						"type": "t_array(t_array(t_address)dyn_storage)dyn_storage"
					}
				],
				"types": {
					"t_address": {
						"encoding": "inplace",
						"label": "address",
						"numberOfBytes": "20"
					},
					"t_array(t_address)dyn_storage": {
						"base": "t_address",
						"encoding": "dynamic_array",
						"label": "address[]",
						"numberOfBytes": "32"
					},
					"t_array(t_array(t_address)dyn_storage)dyn_storage": {
						"base": "t_array(t_address)dyn_storage",
						"encoding": "dynamic_array",
						"label": "address[][]",
						"numberOfBytes": "32"
					}
				}
			},
			"userdoc": {
				"kind": "user",
				"methods": {},
				"version": 1
			}
		}
	}
}