{
	"DEXLogic.sol": {
		"PathFinding": {
			"abi": [
				{
					"inputs": [
						{
							"internalType": "uint256",
							"name": "",
							"type": "uint256"
						}
					],
					"name": "dex",
					"outputs": [
						{
							"internalType": "address",
							"name": "",
							"type": "address"
						}
					],
					"stateMutability": "view",
					"type": "function"
				},
				{
					"inputs": [
						{
							"internalType": "address[]",
							"name": "path",
							"type": "address[]"
						}
					],
					"name": "getPrice",
					"outputs": [
						{
							"internalType": "uint256",
							"name": "",
							"type": "uint256"
						}
					],
					"stateMutability": "view",
					"type": "function"
				},
				{
					"inputs": [
						{
							"internalType": "uint256",
							"name": "",
							"type": "uint256"
						}
					],
					"name": "selectors",
					"outputs": [
						{
							"internalType": "address",
							"name": "",
							"type": "address"
						}
					],
					"stateMutability": "view",
					"type": "function"
				},
				{
					"inputs": [],
					"name": "sushiswapV2Router",
					"outputs": [
						{
							"internalType": "address",
							"name": "",
							"type": "address"
						}
					],
					"stateMutability": "view",
					"type": "function"
				},
				{
					"inputs": [],
					"name": "uniswapV2Router",
					"outputs": [
						{
							"internalType": "address",
							"name": "",
							"type": "address"
						}
					],
					"stateMutability": "view",
					"type": "function"
				}
			],
			"devdoc": {
				"kind": "dev",
				"methods": {},
				"version": 1
			},
			"evm": {
				"assembly": "    /* \"DEXLogic.sol\":373:483  address[] public dex = [0x7a250d5630B4cF539739dF2C5dAcb4c659F2488D,0xd9e1cE17f2641f24aE83637ab66a2cca9C378B9F] */\n  0xc0\n    /* \"DEXLogic.sol\":164:1749  contract PathFinding{... */\n  0x40\n    /* \"DEXLogic.sol\":373:483  address[] public dex = [0x7a250d5630B4cF539739dF2C5dAcb4c659F2488D,0xd9e1cE17f2641f24aE83637ab66a2cca9C378B9F] */\n  mstore\n    /* \"DEXLogic.sol\":397:439  0x7a250d5630B4cF539739dF2C5dAcb4c659F2488D */\n  0x7a250d5630b4cf539739df2c5dacb4c659f2488d\n    /* \"DEXLogic.sol\":164:1749  contract PathFinding{... */\n  0x80\n    /* \"DEXLogic.sol\":373:483  address[] public dex = [0x7a250d5630B4cF539739dF2C5dAcb4c659F2488D,0xd9e1cE17f2641f24aE83637ab66a2cca9C378B9F] */\n  swap1\n  dup2\n  mstore\n    /* \"DEXLogic.sol\":440:482  0xd9e1cE17f2641f24aE83637ab66a2cca9C378B9F */\n  0xd9e1ce17f2641f24ae83637ab66a2cca9c378b9f\n    /* \"DEXLogic.sol\":373:483  address[] public dex = [0x7a250d5630B4cF539739dF2C5dAcb4c659F2488D,0xd9e1cE17f2641f24aE83637ab66a2cca9C378B9F] */\n  0xa0\n  mstore\n  tag_1\n  swap1\n  0x00\n  swap1\n  0x02\n  tag_2\n  jump\t// in\ntag_1:\n  pop\n    /* \"DEXLogic.sol\":490:606  address[] public selectors = [0x6B175474E89094C44Da98b954EedeAC495271d0F,0xA0b86991c6218b36c1d19D4a2e9Eb0cE3606eB48] */\n  0x40\n  dup1\n  mload\n  dup1\n  dup3\n  add\n  swap1\n  swap2\n  mstore\n    /* \"DEXLogic.sol\":520:562  0x6B175474E89094C44Da98b954EedeAC495271d0F */\n  0x6b175474e89094c44da98b954eedeac495271d0f\n    /* \"DEXLogic.sol\":490:606  address[] public selectors = [0x6B175474E89094C44Da98b954EedeAC495271d0F,0xA0b86991c6218b36c1d19D4a2e9Eb0cE3606eB48] */\n  dup2\n  mstore\n    /* \"DEXLogic.sol\":563:605  0xA0b86991c6218b36c1d19D4a2e9Eb0cE3606eB48 */\n  0xa0b86991c6218b36c1d19d4a2e9eb0ce3606eb48\n    /* \"DEXLogic.sol\":490:606  address[] public selectors = [0x6B175474E89094C44Da98b954EedeAC495271d0F,0xA0b86991c6218b36c1d19D4a2e9Eb0cE3606eB48] */\n  0x20\n  dup3\n  add\n  mstore\n  tag_3\n  swap1\n  0x01\n  swap1\n  0x02\n  tag_2\n  jump\t// in\ntag_3:\n  pop\n    /* \"DEXLogic.sol\":164:1749  contract PathFinding{... */\n  callvalue\n  dup1\n  iszero\n  tag_4\n  jumpi\n  0x00\n  dup1\n  revert\ntag_4:\n  pop\n  jump(tag_5)\ntag_2:\n  dup3\n  dup1\n  sload\n  dup3\n  dup3\n  sstore\n  swap1\n  0x00\n  mstore\n  keccak256(0x00, 0x20)\n  swap1\n  dup2\n  add\n  swap3\n  dup3\n  iszero\n  tag_8\n  jumpi\n  swap2\n  0x20\n  mul\n  dup3\n  add\ntag_7:\n  dup3\n  dup2\n  gt\n  iszero\n  tag_8\n  jumpi\n  dup3\n  mload\n  dup3\n  sload\n  not(sub(shl(0xa0, 0x01), 0x01))\n  and\n  sub(shl(0xa0, 0x01), 0x01)\n  swap1\n  swap2\n  and\n  or\n  dup3\n  sstore\n  0x20\n  swap1\n  swap3\n  add\n  swap2\n  0x01\n  swap1\n  swap2\n  add\n  swap1\n  jump(tag_7)\ntag_8:\n  pop\n  tag_9\n  swap3\n  swap2\n  pop\n  tag_10\n  jump\t// in\ntag_9:\n  pop\n  swap1\n  jump\t// out\ntag_10:\ntag_11:\n  dup1\n  dup3\n  gt\n  iszero\n  tag_9\n  jumpi\n  0x00\n  dup2\n  sstore\n  0x01\n  add\n  jump(tag_11)\ntag_5:\n  dataSize(sub_0)\n  dup1\n  dataOffset(sub_0)\n  0x00\n  codecopy\n  0x00\n  return\nstop\n\nsub_0: assembly {\n        /* \"DEXLogic.sol\":164:1749  contract PathFinding{... */\n      mstore(0x40, 0x80)\n      callvalue\n      dup1\n      iszero\n      tag_1\n      jumpi\n      0x00\n      dup1\n      revert\n    tag_1:\n      pop\n      jumpi(tag_2, lt(calldatasize, 0x04))\n      shr(0xe0, calldataload(0x00))\n      dup1\n      0x1694505e\n      eq\n      tag_3\n      jumpi\n      dup1\n      0x24d16c1a\n      eq\n      tag_4\n      jumpi\n      dup1\n      0x38c6cdd5\n      eq\n      tag_5\n      jumpi\n      dup1\n      0x9b005507\n      eq\n      tag_6\n      jumpi\n      dup1\n      0xf58b911d\n      eq\n      tag_7\n      jumpi\n    tag_2:\n      0x00\n      dup1\n      revert\n        /* \"DEXLogic.sol\":190:274  address constant public uniswapV2Router = 0x7a250d5630B4cF539739dF2C5dAcb4c659F2488D */\n    tag_3:\n      tag_8\n        /* \"DEXLogic.sol\":232:274  0x7a250d5630B4cF539739dF2C5dAcb4c659F2488D */\n      0x7a250d5630b4cf539739df2c5dacb4c659f2488d\n        /* \"DEXLogic.sol\":190:274  address constant public uniswapV2Router = 0x7a250d5630B4cF539739dF2C5dAcb4c659F2488D */\n      dup2\n      jump\n    tag_8:\n      mload(0x40)\n      sub(shl(0xa0, 0x01), 0x01)\n        /* \"#utility.yul\":178:210   */\n      swap1\n      swap2\n      and\n        /* \"#utility.yul\":160:211   */\n      dup2\n      mstore\n        /* \"#utility.yul\":148:150   */\n      0x20\n        /* \"#utility.yul\":133:151   */\n      add\n        /* \"DEXLogic.sol\":190:274  address constant public uniswapV2Router = 0x7a250d5630B4cF539739dF2C5dAcb4c659F2488D */\n    tag_10:\n      mload(0x40)\n      dup1\n      swap2\n      sub\n      swap1\n      return\n        /* \"DEXLogic.sol\":373:483  address[] public dex = [0x7a250d5630B4cF539739dF2C5dAcb4c659F2488D,0xd9e1cE17f2641f24aE83637ab66a2cca9C378B9F] */\n    tag_4:\n      tag_8\n      tag_13\n      calldatasize\n      0x04\n      tag_14\n      jump\t// in\n    tag_13:\n      tag_15\n      jump\t// in\n        /* \"DEXLogic.sol\":280:366  address constant public sushiswapV2Router = 0xd9e1cE17f2641f24aE83637ab66a2cca9C378B9F */\n    tag_5:\n      tag_8\n        /* \"DEXLogic.sol\":324:366  0xd9e1cE17f2641f24aE83637ab66a2cca9C378B9F */\n      0xd9e1ce17f2641f24ae83637ab66a2cca9c378b9f\n        /* \"DEXLogic.sol\":280:366  address constant public sushiswapV2Router = 0xd9e1cE17f2641f24aE83637ab66a2cca9C378B9F */\n      dup2\n      jump\n        /* \"DEXLogic.sol\":1189:1747  function getPrice(address[] memory path)public view returns(uint256){... */\n    tag_6:\n      tag_20\n      tag_21\n      calldatasize\n      0x04\n      tag_22\n      jump\t// in\n    tag_21:\n      tag_23\n      jump\t// in\n    tag_20:\n      mload(0x40)\n        /* \"#utility.yul\":2233:2258   */\n      swap1\n      dup2\n      mstore\n        /* \"#utility.yul\":2221:2223   */\n      0x20\n        /* \"#utility.yul\":2206:2224   */\n      add\n        /* \"DEXLogic.sol\":1189:1747  function getPrice(address[] memory path)public view returns(uint256){... */\n      tag_10\n        /* \"#utility.yul\":2087:2264   */\n      jump\n        /* \"DEXLogic.sol\":490:606  address[] public selectors = [0x6B175474E89094C44Da98b954EedeAC495271d0F,0xA0b86991c6218b36c1d19D4a2e9Eb0cE3606eB48] */\n    tag_7:\n      tag_8\n      tag_27\n      calldatasize\n      0x04\n      tag_14\n      jump\t// in\n    tag_27:\n      tag_28\n      jump\t// in\n        /* \"DEXLogic.sol\":373:483  address[] public dex = [0x7a250d5630B4cF539739dF2C5dAcb4c659F2488D,0xd9e1cE17f2641f24aE83637ab66a2cca9C378B9F] */\n    tag_15:\n      0x00\n      dup2\n      dup2\n      sload\n      dup2\n      lt\n      tag_30\n      jumpi\n      0x00\n      dup1\n      revert\n    tag_30:\n      0x00\n      swap2\n      dup3\n      mstore\n      0x20\n      swap1\n      swap2\n      keccak256\n      add\n      sload\n      sub(shl(0xa0, 0x01), 0x01)\n      and\n      swap1\n      pop\n      dup2\n      jump\t// out\n        /* \"DEXLogic.sol\":1189:1747  function getPrice(address[] memory path)public view returns(uint256){... */\n    tag_23:\n        /* \"DEXLogic.sol\":1249:1256  uint256 */\n      0x00\n        /* \"DEXLogic.sol\":1267:1284  uint256 bestValue */\n      dup1\n        /* \"DEXLogic.sol\":1311:1320  uint256 j */\n      0x00\n        /* \"DEXLogic.sol\":1307:1561  for(uint256 j=0;j<2;j++){... */\n    tag_33:\n        /* \"DEXLogic.sol\":1325:1326  2 */\n      0x02\n        /* \"DEXLogic.sol\":1323:1324  j */\n      dup2\n        /* \"DEXLogic.sol\":1323:1326  j<2 */\n      lt\n        /* \"DEXLogic.sol\":1307:1561  for(uint256 j=0;j<2;j++){... */\n      iszero\n      tag_34\n      jumpi\n        /* \"DEXLogic.sol\":1397:1406  bestValue */\n      dup2\n        /* \"DEXLogic.sol\":1361:1364  dex */\n      0x00\n        /* \"DEXLogic.sol\":1365:1366  j */\n      dup3\n        /* \"DEXLogic.sol\":1361:1367  dex[j] */\n      dup2\n      sload\n      dup2\n      lt\n      tag_37\n      jumpi\n      tag_37\n      tag_38\n      jump\t// in\n    tag_37:\n      0x00\n      swap2\n      dup3\n      mstore\n      0x20\n      swap1\n      swap2\n      keccak256\n      add\n      sload\n        /* \"DEXLogic.sol\":1352:1393  IUNIFORK(dex[j]).getAmountsOut(1e18,path) */\n      mload(0x40)\n      shl(0xe0, 0xd06ca61f)\n      dup2\n      mstore\n      sub(shl(0xa0, 0x01), 0x01)\n        /* \"DEXLogic.sol\":1361:1367  dex[j] */\n      swap1\n      swap2\n      and\n      swap1\n        /* \"DEXLogic.sol\":1352:1382  IUNIFORK(dex[j]).getAmountsOut */\n      0xd06ca61f\n      swap1\n        /* \"DEXLogic.sol\":1352:1393  IUNIFORK(dex[j]).getAmountsOut(1e18,path) */\n      tag_40\n      swap1\n        /* \"DEXLogic.sol\":1383:1387  1e18 */\n      0x0de0b6b3a7640000\n      swap1\n        /* \"DEXLogic.sol\":1388:1392  path */\n      dup10\n      swap1\n        /* \"DEXLogic.sol\":1352:1393  IUNIFORK(dex[j]).getAmountsOut(1e18,path) */\n      0x04\n      add\n      tag_41\n      jump\t// in\n    tag_40:\n      0x00\n      mload(0x40)\n      dup1\n      dup4\n      sub\n      dup2\n      dup7\n      gas\n      staticcall\n      iszero\n      dup1\n      iszero\n      tag_43\n      jumpi\n      returndatasize\n      0x00\n      dup1\n      returndatacopy\n      revert(0x00, returndatasize)\n    tag_43:\n      pop\n      pop\n      pop\n      pop\n      mload(0x40)\n      returndatasize\n      0x00\n      dup3\n      returndatacopy\n      0x1f\n      returndatasize\n      swap1\n      dup2\n      add\n      not(0x1f)\n      and\n      dup3\n      add\n      0x40\n      mstore\n      tag_44\n      swap2\n      swap1\n      dup2\n      add\n      swap1\n      tag_45\n      jump\t// in\n    tag_44:\n        /* \"DEXLogic.sol\":1394:1395  1 */\n      0x01\n        /* \"DEXLogic.sol\":1352:1396  IUNIFORK(dex[j]).getAmountsOut(1e18,path)[1] */\n      dup2\n      mload\n      dup2\n      lt\n      tag_47\n      jumpi\n      tag_47\n      tag_38\n      jump\t// in\n    tag_47:\n      0x20\n      mul\n      0x20\n      add\n      add\n      mload\n        /* \"DEXLogic.sol\":1352:1406  IUNIFORK(dex[j]).getAmountsOut(1e18,path)[1]>bestValue */\n      gt\n        /* \"DEXLogic.sol\":1349:1547  if(IUNIFORK(dex[j]).getAmountsOut(1e18,path)[1]>bestValue){... */\n      iszero\n      tag_48\n      jumpi\n        /* \"DEXLogic.sol\":1450:1453  dex */\n      0x00\n        /* \"DEXLogic.sol\":1454:1455  j */\n      dup2\n        /* \"DEXLogic.sol\":1450:1456  dex[j] */\n      dup2\n      sload\n      dup2\n      lt\n      tag_50\n      jumpi\n      tag_50\n      tag_38\n      jump\t// in\n    tag_50:\n      0x00\n      swap2\n      dup3\n      mstore\n      0x20\n      swap1\n      swap2\n      keccak256\n      add\n      sload\n        /* \"DEXLogic.sol\":1441:1482  IUNIFORK(dex[j]).getAmountsOut(1e18,path) */\n      mload(0x40)\n      shl(0xe0, 0xd06ca61f)\n      dup2\n      mstore\n      sub(shl(0xa0, 0x01), 0x01)\n        /* \"DEXLogic.sol\":1450:1456  dex[j] */\n      swap1\n      swap2\n      and\n      swap1\n        /* \"DEXLogic.sol\":1441:1471  IUNIFORK(dex[j]).getAmountsOut */\n      0xd06ca61f\n      swap1\n        /* \"DEXLogic.sol\":1441:1482  IUNIFORK(dex[j]).getAmountsOut(1e18,path) */\n      tag_52\n      swap1\n        /* \"DEXLogic.sol\":1472:1476  1e18 */\n      0x0de0b6b3a7640000\n      swap1\n        /* \"DEXLogic.sol\":1477:1481  path */\n      dup9\n      swap1\n        /* \"DEXLogic.sol\":1441:1482  IUNIFORK(dex[j]).getAmountsOut(1e18,path) */\n      0x04\n      add\n      tag_41\n      jump\t// in\n    tag_52:\n      0x00\n      mload(0x40)\n      dup1\n      dup4\n      sub\n      dup2\n      dup7\n      gas\n      staticcall\n      iszero\n      dup1\n      iszero\n      tag_54\n      jumpi\n      returndatasize\n      0x00\n      dup1\n      returndatacopy\n      revert(0x00, returndatasize)\n    tag_54:\n      pop\n      pop\n      pop\n      pop\n      mload(0x40)\n      returndatasize\n      0x00\n      dup3\n      returndatacopy\n      0x1f\n      returndatasize\n      swap1\n      dup2\n      add\n      not(0x1f)\n      and\n      dup3\n      add\n      0x40\n      mstore\n      tag_55\n      swap2\n      swap1\n      dup2\n      add\n      swap1\n      tag_45\n      jump\t// in\n    tag_55:\n        /* \"DEXLogic.sol\":1483:1484  1 */\n      0x01\n        /* \"DEXLogic.sol\":1441:1485  IUNIFORK(dex[j]).getAmountsOut(1e18,path)[1] */\n      dup2\n      mload\n      dup2\n      lt\n      tag_57\n      jumpi\n      tag_57\n      tag_38\n      jump\t// in\n    tag_57:\n      0x20\n      mul\n      0x20\n      add\n      add\n      mload\n        /* \"DEXLogic.sol\":1429:1485  bestValue = IUNIFORK(dex[j]).getAmountsOut(1e18,path)[1] */\n      swap2\n      pop\n        /* \"DEXLogic.sol\":1349:1547  if(IUNIFORK(dex[j]).getAmountsOut(1e18,path)[1]>bestValue){... */\n    tag_48:\n        /* \"DEXLogic.sol\":1327:1330  j++ */\n      dup1\n      tag_59\n      dup2\n      tag_60\n      jump\t// in\n    tag_59:\n      swap2\n      pop\n      pop\n        /* \"DEXLogic.sol\":1307:1561  for(uint256 j=0;j<2;j++){... */\n      jump(tag_33)\n    tag_34:\n      pop\n        /* \"DEXLogic.sol\":1574:1586  uint256 uniP */\n      0x00\n        /* \"DEXLogic.sol\":1598:1601  dex */\n      dup1\n        /* \"DEXLogic.sol\":1602:1603  0 */\n      0x00\n        /* \"DEXLogic.sol\":1598:1604  dex[0] */\n      dup2\n      sload\n      dup2\n      lt\n      tag_62\n      jumpi\n      tag_62\n      tag_38\n      jump\t// in\n    tag_62:\n      0x00\n      swap2\n      dup3\n      mstore\n      0x20\n      swap1\n      swap2\n      keccak256\n      add\n      sload\n        /* \"DEXLogic.sol\":1589:1630  IUNIFORK(dex[0]).getAmountsOut(1e18,path) */\n      mload(0x40)\n      shl(0xe0, 0xd06ca61f)\n      dup2\n      mstore\n      sub(shl(0xa0, 0x01), 0x01)\n        /* \"DEXLogic.sol\":1598:1604  dex[0] */\n      swap1\n      swap2\n      and\n      swap1\n        /* \"DEXLogic.sol\":1589:1619  IUNIFORK(dex[0]).getAmountsOut */\n      0xd06ca61f\n      swap1\n        /* \"DEXLogic.sol\":1589:1630  IUNIFORK(dex[0]).getAmountsOut(1e18,path) */\n      tag_64\n      swap1\n        /* \"DEXLogic.sol\":1620:1624  1e18 */\n      0x0de0b6b3a7640000\n      swap1\n        /* \"DEXLogic.sol\":1625:1629  path */\n      dup9\n      swap1\n        /* \"DEXLogic.sol\":1589:1630  IUNIFORK(dex[0]).getAmountsOut(1e18,path) */\n      0x04\n      add\n      tag_41\n      jump\t// in\n    tag_64:\n      0x00\n      mload(0x40)\n      dup1\n      dup4\n      sub\n      dup2\n      dup7\n      gas\n      staticcall\n      iszero\n      dup1\n      iszero\n      tag_66\n      jumpi\n      returndatasize\n      0x00\n      dup1\n      returndatacopy\n      revert(0x00, returndatasize)\n    tag_66:\n      pop\n      pop\n      pop\n      pop\n      mload(0x40)\n      returndatasize\n      0x00\n      dup3\n      returndatacopy\n      0x1f\n      returndatasize\n      swap1\n      dup2\n      add\n      not(0x1f)\n      and\n      dup3\n      add\n      0x40\n      mstore\n      tag_67\n      swap2\n      swap1\n      dup2\n      add\n      swap1\n      tag_45\n      jump\t// in\n    tag_67:\n        /* \"DEXLogic.sol\":1631:1632  1 */\n      0x01\n        /* \"DEXLogic.sol\":1589:1633  IUNIFORK(dex[0]).getAmountsOut(1e18,path)[1] */\n      dup2\n      mload\n      dup2\n      lt\n      tag_69\n      jumpi\n      tag_69\n      tag_38\n      jump\t// in\n    tag_69:\n      0x20\n      mul\n      0x20\n      add\n      add\n      mload\n        /* \"DEXLogic.sol\":1574:1633  uint256 uniP = IUNIFORK(dex[0]).getAmountsOut(1e18,path)[1] */\n      swap1\n      pop\n        /* \"DEXLogic.sol\":1647:1661  uint256 sushiP */\n      0x00\n        /* \"DEXLogic.sol\":1673:1676  dex */\n      dup1\n        /* \"DEXLogic.sol\":1677:1678  1 */\n      0x01\n        /* \"DEXLogic.sol\":1673:1679  dex[1] */\n      dup2\n      sload\n      dup2\n      lt\n      tag_71\n      jumpi\n      tag_71\n      tag_38\n      jump\t// in\n    tag_71:\n      0x00\n      swap2\n      dup3\n      mstore\n      0x20\n      swap1\n      swap2\n      keccak256\n      add\n      sload\n        /* \"DEXLogic.sol\":1664:1705  IUNIFORK(dex[1]).getAmountsOut(1e18,path) */\n      mload(0x40)\n      shl(0xe0, 0xd06ca61f)\n      dup2\n      mstore\n      sub(shl(0xa0, 0x01), 0x01)\n        /* \"DEXLogic.sol\":1673:1679  dex[1] */\n      swap1\n      swap2\n      and\n      swap1\n        /* \"DEXLogic.sol\":1664:1694  IUNIFORK(dex[1]).getAmountsOut */\n      0xd06ca61f\n      swap1\n        /* \"DEXLogic.sol\":1664:1705  IUNIFORK(dex[1]).getAmountsOut(1e18,path) */\n      tag_73\n      swap1\n        /* \"DEXLogic.sol\":1695:1699  1e18 */\n      0x0de0b6b3a7640000\n      swap1\n        /* \"DEXLogic.sol\":1700:1704  path */\n      dup10\n      swap1\n        /* \"DEXLogic.sol\":1664:1705  IUNIFORK(dex[1]).getAmountsOut(1e18,path) */\n      0x04\n      add\n      tag_41\n      jump\t// in\n    tag_73:\n      0x00\n      mload(0x40)\n      dup1\n      dup4\n      sub\n      dup2\n      dup7\n      gas\n      staticcall\n      iszero\n      dup1\n      iszero\n      tag_75\n      jumpi\n      returndatasize\n      0x00\n      dup1\n      returndatacopy\n      revert(0x00, returndatasize)\n    tag_75:\n      pop\n      pop\n      pop\n      pop\n      mload(0x40)\n      returndatasize\n      0x00\n      dup3\n      returndatacopy\n      0x1f\n      returndatasize\n      swap1\n      dup2\n      add\n      not(0x1f)\n      and\n      dup3\n      add\n      0x40\n      mstore\n      tag_76\n      swap2\n      swap1\n      dup2\n      add\n      swap1\n      tag_45\n      jump\t// in\n    tag_76:\n        /* \"DEXLogic.sol\":1706:1707  1 */\n      0x01\n        /* \"DEXLogic.sol\":1664:1708  IUNIFORK(dex[1]).getAmountsOut(1e18,path)[1] */\n      dup2\n      mload\n      dup2\n      lt\n      tag_78\n      jumpi\n      tag_78\n      tag_38\n      jump\t// in\n    tag_78:\n      pop\n        /* \"DEXLogic.sol\":1730:1739  bestValue */\n      swap3\n      swap6\n        /* \"DEXLogic.sol\":1189:1747  function getPrice(address[] memory path)public view returns(uint256){... */\n      swap5\n      pop\n      pop\n      pop\n      pop\n      pop\n      jump\t// out\n        /* \"DEXLogic.sol\":490:606  address[] public selectors = [0x6B175474E89094C44Da98b954EedeAC495271d0F,0xA0b86991c6218b36c1d19D4a2e9Eb0cE3606eB48] */\n    tag_28:\n      0x01\n      dup2\n      dup2\n      sload\n      dup2\n      lt\n      tag_30\n      jumpi\n      0x00\n      dup1\n      revert\n        /* \"#utility.yul\":222:402   */\n    tag_14:\n        /* \"#utility.yul\":281:287   */\n      0x00\n        /* \"#utility.yul\":334:336   */\n      0x20\n        /* \"#utility.yul\":322:331   */\n      dup3\n        /* \"#utility.yul\":313:320   */\n      dup5\n        /* \"#utility.yul\":309:332   */\n      sub\n        /* \"#utility.yul\":305:337   */\n      slt\n        /* \"#utility.yul\":302:354   */\n      iszero\n      tag_87\n      jumpi\n        /* \"#utility.yul\":350:351   */\n      0x00\n        /* \"#utility.yul\":347:348   */\n      dup1\n        /* \"#utility.yul\":340:352   */\n      revert\n        /* \"#utility.yul\":302:354   */\n    tag_87:\n      pop\n        /* \"#utility.yul\":373:396   */\n      calldataload\n      swap2\n        /* \"#utility.yul\":222:402   */\n      swap1\n      pop\n      jump\t// out\n        /* \"#utility.yul\":407:534   */\n    tag_81:\n        /* \"#utility.yul\":468:478   */\n      0x4e487b71\n        /* \"#utility.yul\":463:466   */\n      0xe0\n        /* \"#utility.yul\":459:479   */\n      shl\n        /* \"#utility.yul\":456:457   */\n      0x00\n        /* \"#utility.yul\":449:480   */\n      mstore\n        /* \"#utility.yul\":499:503   */\n      0x41\n        /* \"#utility.yul\":496:497   */\n      0x04\n        /* \"#utility.yul\":489:504   */\n      mstore\n        /* \"#utility.yul\":523:527   */\n      0x24\n        /* \"#utility.yul\":520:521   */\n      0x00\n        /* \"#utility.yul\":513:528   */\n      revert\n        /* \"#utility.yul\":539:814   */\n    tag_82:\n        /* \"#utility.yul\":610:612   */\n      0x40\n        /* \"#utility.yul\":604:613   */\n      mload\n        /* \"#utility.yul\":675:677   */\n      0x1f\n        /* \"#utility.yul\":656:669   */\n      dup3\n      add\n      not(0x1f)\n        /* \"#utility.yul\":652:679   */\n      and\n        /* \"#utility.yul\":640:680   */\n      dup2\n      add\n        /* \"#utility.yul\":710:728   */\n      0xffffffffffffffff\n        /* \"#utility.yul\":695:729   */\n      dup2\n      gt\n        /* \"#utility.yul\":731:753   */\n      dup3\n      dup3\n      lt\n        /* \"#utility.yul\":692:754   */\n      or\n        /* \"#utility.yul\":689:777   */\n      iszero\n      tag_91\n      jumpi\n        /* \"#utility.yul\":757:775   */\n      tag_91\n      tag_81\n      jump\t// in\n    tag_91:\n        /* \"#utility.yul\":793:795   */\n      0x40\n        /* \"#utility.yul\":786:808   */\n      mstore\n        /* \"#utility.yul\":539:814   */\n      swap2\n      swap1\n      pop\n      jump\t// out\n        /* \"#utility.yul\":819:1002   */\n    tag_83:\n        /* \"#utility.yul\":879:883   */\n      0x00\n        /* \"#utility.yul\":912:930   */\n      0xffffffffffffffff\n        /* \"#utility.yul\":904:910   */\n      dup3\n        /* \"#utility.yul\":901:931   */\n      gt\n        /* \"#utility.yul\":898:954   */\n      iszero\n      tag_94\n      jumpi\n        /* \"#utility.yul\":934:952   */\n      tag_94\n      tag_81\n      jump\t// in\n    tag_94:\n      pop\n        /* \"#utility.yul\":979:980   */\n      0x05\n        /* \"#utility.yul\":975:989   */\n      shl\n        /* \"#utility.yul\":991:995   */\n      0x20\n        /* \"#utility.yul\":971:996   */\n      add\n      swap1\n        /* \"#utility.yul\":819:1002   */\n      jump\t// out\n        /* \"#utility.yul\":1007:2082   */\n    tag_22:\n        /* \"#utility.yul\":1091:1097   */\n      0x00\n        /* \"#utility.yul\":1122:1124   */\n      0x20\n        /* \"#utility.yul\":1165:1167   */\n      dup1\n        /* \"#utility.yul\":1153:1162   */\n      dup4\n        /* \"#utility.yul\":1144:1151   */\n      dup6\n        /* \"#utility.yul\":1140:1163   */\n      sub\n        /* \"#utility.yul\":1136:1168   */\n      slt\n        /* \"#utility.yul\":1133:1185   */\n      iszero\n      tag_96\n      jumpi\n        /* \"#utility.yul\":1181:1182   */\n      0x00\n        /* \"#utility.yul\":1178:1179   */\n      dup1\n        /* \"#utility.yul\":1171:1183   */\n      revert\n        /* \"#utility.yul\":1133:1185   */\n    tag_96:\n        /* \"#utility.yul\":1221:1230   */\n      dup3\n        /* \"#utility.yul\":1208:1231   */\n      calldataload\n        /* \"#utility.yul\":1254:1272   */\n      0xffffffffffffffff\n        /* \"#utility.yul\":1246:1252   */\n      dup2\n        /* \"#utility.yul\":1243:1273   */\n      gt\n        /* \"#utility.yul\":1240:1290   */\n      iszero\n      tag_97\n      jumpi\n        /* \"#utility.yul\":1286:1287   */\n      0x00\n        /* \"#utility.yul\":1283:1284   */\n      dup1\n        /* \"#utility.yul\":1276:1288   */\n      revert\n        /* \"#utility.yul\":1240:1290   */\n    tag_97:\n        /* \"#utility.yul\":1309:1331   */\n      dup4\n      add\n        /* \"#utility.yul\":1362:1366   */\n      0x1f\n        /* \"#utility.yul\":1354:1367   */\n      dup2\n      add\n        /* \"#utility.yul\":1350:1377   */\n      dup6\n      sgt\n        /* \"#utility.yul\":1340:1395   */\n      tag_98\n      jumpi\n        /* \"#utility.yul\":1391:1392   */\n      0x00\n        /* \"#utility.yul\":1388:1389   */\n      dup1\n        /* \"#utility.yul\":1381:1393   */\n      revert\n        /* \"#utility.yul\":1340:1395   */\n    tag_98:\n        /* \"#utility.yul\":1427:1429   */\n      dup1\n        /* \"#utility.yul\":1414:1430   */\n      calldataload\n        /* \"#utility.yul\":1450:1510   */\n      tag_99\n        /* \"#utility.yul\":1466:1509   */\n      tag_100\n        /* \"#utility.yul\":1506:1508   */\n      dup3\n        /* \"#utility.yul\":1466:1509   */\n      tag_83\n      jump\t// in\n    tag_100:\n        /* \"#utility.yul\":1450:1510   */\n      tag_82\n      jump\t// in\n    tag_99:\n        /* \"#utility.yul\":1544:1559   */\n      dup2\n      dup2\n      mstore\n        /* \"#utility.yul\":1626:1627   */\n      0x05\n        /* \"#utility.yul\":1622:1632   */\n      swap2\n      swap1\n      swap2\n      shl\n        /* \"#utility.yul\":1614:1633   */\n      dup3\n      add\n        /* \"#utility.yul\":1610:1638   */\n      dup4\n      add\n      swap1\n        /* \"#utility.yul\":1575:1587   */\n      dup4\n      dup2\n      add\n      swap1\n        /* \"#utility.yul\":1650:1669   */\n      dup8\n      dup4\n      gt\n        /* \"#utility.yul\":1647:1686   */\n      iszero\n      tag_101\n      jumpi\n        /* \"#utility.yul\":1682:1683   */\n      0x00\n        /* \"#utility.yul\":1679:1680   */\n      dup1\n        /* \"#utility.yul\":1672:1684   */\n      revert\n        /* \"#utility.yul\":1647:1686   */\n    tag_101:\n        /* \"#utility.yul\":1706:1717   */\n      swap3\n      dup5\n      add\n      swap3\n        /* \"#utility.yul\":1726:2052   */\n    tag_102:\n        /* \"#utility.yul\":1742:1748   */\n      dup3\n        /* \"#utility.yul\":1737:1740   */\n      dup5\n        /* \"#utility.yul\":1734:1749   */\n      lt\n        /* \"#utility.yul\":1726:2052   */\n      iszero\n      tag_104\n      jumpi\n        /* \"#utility.yul\":1809:1826   */\n      dup4\n      calldataload\n      sub(shl(0xa0, 0x01), 0x01)\n        /* \"#utility.yul\":1859:1890   */\n      dup2\n      and\n        /* \"#utility.yul\":1849:1891   */\n      dup2\n      eq\n        /* \"#utility.yul\":1839:1979   */\n      tag_105\n      jumpi\n        /* \"#utility.yul\":1933:1934   */\n      0x00\n        /* \"#utility.yul\":1962:1964   */\n      dup1\n        /* \"#utility.yul\":1958:1960   */\n      dup2\n        /* \"#utility.yul\":1951:1965   */\n      revert\n        /* \"#utility.yul\":1839:1979   */\n    tag_105:\n        /* \"#utility.yul\":1992:2010   */\n      dup3\n      mstore\n        /* \"#utility.yul\":1759:1771   */\n      swap3\n      dup5\n      add\n      swap3\n        /* \"#utility.yul\":2030:2042   */\n      swap1\n      dup5\n      add\n      swap1\n        /* \"#utility.yul\":1726:2052   */\n      jump(tag_102)\n    tag_104:\n        /* \"#utility.yul\":2071:2076   */\n      swap8\n        /* \"#utility.yul\":1007:2082   */\n      swap7\n      pop\n      pop\n      pop\n      pop\n      pop\n      pop\n      pop\n      jump\t// out\n        /* \"#utility.yul\":2269:2396   */\n    tag_38:\n        /* \"#utility.yul\":2330:2340   */\n      0x4e487b71\n        /* \"#utility.yul\":2325:2328   */\n      0xe0\n        /* \"#utility.yul\":2321:2341   */\n      shl\n        /* \"#utility.yul\":2318:2319   */\n      0x00\n        /* \"#utility.yul\":2311:2342   */\n      mstore\n        /* \"#utility.yul\":2361:2365   */\n      0x32\n        /* \"#utility.yul\":2358:2359   */\n      0x04\n        /* \"#utility.yul\":2351:2366   */\n      mstore\n        /* \"#utility.yul\":2385:2389   */\n      0x24\n        /* \"#utility.yul\":2382:2383   */\n      0x00\n        /* \"#utility.yul\":2375:2390   */\n      revert\n        /* \"#utility.yul\":2401:3156   */\n    tag_41:\n        /* \"#utility.yul\":2597:2601   */\n      0x00\n        /* \"#utility.yul\":2645:2647   */\n      0x40\n        /* \"#utility.yul\":2634:2643   */\n      dup3\n        /* \"#utility.yul\":2630:2648   */\n      add\n        /* \"#utility.yul\":2675:2681   */\n      dup5\n        /* \"#utility.yul\":2664:2673   */\n      dup4\n        /* \"#utility.yul\":2657:2682   */\n      mstore\n        /* \"#utility.yul\":2701:2703   */\n      0x20\n        /* \"#utility.yul\":2739:2741   */\n      0x40\n        /* \"#utility.yul\":2734:2736   */\n      dup2\n        /* \"#utility.yul\":2723:2732   */\n      dup6\n        /* \"#utility.yul\":2719:2737   */\n      add\n        /* \"#utility.yul\":2712:2742   */\n      mstore\n        /* \"#utility.yul\":2762:2768   */\n      dup2\n        /* \"#utility.yul\":2797:2803   */\n      dup6\n        /* \"#utility.yul\":2791:2804   */\n      mload\n        /* \"#utility.yul\":2828:2834   */\n      dup1\n        /* \"#utility.yul\":2820:2826   */\n      dup5\n        /* \"#utility.yul\":2813:2835   */\n      mstore\n        /* \"#utility.yul\":2866:2868   */\n      0x60\n        /* \"#utility.yul\":2855:2864   */\n      dup7\n        /* \"#utility.yul\":2851:2869   */\n      add\n        /* \"#utility.yul\":2844:2869   */\n      swap2\n      pop\n        /* \"#utility.yul\":2904:2906   */\n      dup3\n        /* \"#utility.yul\":2896:2902   */\n      dup8\n        /* \"#utility.yul\":2892:2907   */\n      add\n        /* \"#utility.yul\":2878:2907   */\n      swap4\n      pop\n        /* \"#utility.yul\":2925:2926   */\n      0x00\n        /* \"#utility.yul\":2935:3130   */\n    tag_109:\n        /* \"#utility.yul\":2949:2955   */\n      dup2\n        /* \"#utility.yul\":2946:2947   */\n      dup2\n        /* \"#utility.yul\":2943:2956   */\n      lt\n        /* \"#utility.yul\":2935:3130   */\n      iszero\n      tag_111\n      jumpi\n        /* \"#utility.yul\":3014:3027   */\n      dup5\n      mload\n      sub(shl(0xa0, 0x01), 0x01)\n        /* \"#utility.yul\":3010:3049   */\n      and\n        /* \"#utility.yul\":2998:3050   */\n      dup4\n      mstore\n        /* \"#utility.yul\":3105:3120   */\n      swap4\n      dup4\n      add\n      swap4\n        /* \"#utility.yul\":3070:3082   */\n      swap2\n      dup4\n      add\n      swap2\n        /* \"#utility.yul\":3046:3047   */\n      0x01\n        /* \"#utility.yul\":2964:2973   */\n      add\n        /* \"#utility.yul\":2935:3130   */\n      jump(tag_109)\n    tag_111:\n      pop\n        /* \"#utility.yul\":3147:3150   */\n      swap1\n      swap8\n        /* \"#utility.yul\":2401:3156   */\n      swap7\n      pop\n      pop\n      pop\n      pop\n      pop\n      pop\n      pop\n      jump\t// out\n        /* \"#utility.yul\":3161:4042   */\n    tag_45:\n        /* \"#utility.yul\":3256:3262   */\n      0x00\n        /* \"#utility.yul\":3287:3289   */\n      0x20\n        /* \"#utility.yul\":3330:3332   */\n      dup1\n        /* \"#utility.yul\":3318:3327   */\n      dup4\n        /* \"#utility.yul\":3309:3316   */\n      dup6\n        /* \"#utility.yul\":3305:3328   */\n      sub\n        /* \"#utility.yul\":3301:3333   */\n      slt\n        /* \"#utility.yul\":3298:3350   */\n      iszero\n      tag_113\n      jumpi\n        /* \"#utility.yul\":3346:3347   */\n      0x00\n        /* \"#utility.yul\":3343:3344   */\n      dup1\n        /* \"#utility.yul\":3336:3348   */\n      revert\n        /* \"#utility.yul\":3298:3350   */\n    tag_113:\n        /* \"#utility.yul\":3379:3388   */\n      dup3\n        /* \"#utility.yul\":3373:3389   */\n      mload\n        /* \"#utility.yul\":3412:3430   */\n      0xffffffffffffffff\n        /* \"#utility.yul\":3404:3410   */\n      dup2\n        /* \"#utility.yul\":3401:3431   */\n      gt\n        /* \"#utility.yul\":3398:3448   */\n      iszero\n      tag_114\n      jumpi\n        /* \"#utility.yul\":3444:3445   */\n      0x00\n        /* \"#utility.yul\":3441:3442   */\n      dup1\n        /* \"#utility.yul\":3434:3446   */\n      revert\n        /* \"#utility.yul\":3398:3448   */\n    tag_114:\n        /* \"#utility.yul\":3467:3489   */\n      dup4\n      add\n        /* \"#utility.yul\":3520:3524   */\n      0x1f\n        /* \"#utility.yul\":3512:3525   */\n      dup2\n      add\n        /* \"#utility.yul\":3508:3535   */\n      dup6\n      sgt\n        /* \"#utility.yul\":3498:3553   */\n      tag_115\n      jumpi\n        /* \"#utility.yul\":3549:3550   */\n      0x00\n        /* \"#utility.yul\":3546:3547   */\n      dup1\n        /* \"#utility.yul\":3539:3551   */\n      revert\n        /* \"#utility.yul\":3498:3553   */\n    tag_115:\n        /* \"#utility.yul\":3578:3580   */\n      dup1\n        /* \"#utility.yul\":3572:3581   */\n      mload\n        /* \"#utility.yul\":3601:3661   */\n      tag_116\n        /* \"#utility.yul\":3617:3660   */\n      tag_100\n        /* \"#utility.yul\":3657:3659   */\n      dup3\n        /* \"#utility.yul\":3617:3660   */\n      tag_83\n      jump\t// in\n        /* \"#utility.yul\":3601:3661   */\n    tag_116:\n        /* \"#utility.yul\":3695:3710   */\n      dup2\n      dup2\n      mstore\n        /* \"#utility.yul\":3777:3778   */\n      0x05\n        /* \"#utility.yul\":3773:3783   */\n      swap2\n      swap1\n      swap2\n      shl\n        /* \"#utility.yul\":3765:3784   */\n      dup3\n      add\n        /* \"#utility.yul\":3761:3789   */\n      dup4\n      add\n      swap1\n        /* \"#utility.yul\":3726:3738   */\n      dup4\n      dup2\n      add\n      swap1\n        /* \"#utility.yul\":3801:3820   */\n      dup8\n      dup4\n      gt\n        /* \"#utility.yul\":3798:3837   */\n      iszero\n      tag_118\n      jumpi\n        /* \"#utility.yul\":3833:3834   */\n      0x00\n        /* \"#utility.yul\":3830:3831   */\n      dup1\n        /* \"#utility.yul\":3823:3835   */\n      revert\n        /* \"#utility.yul\":3798:3837   */\n    tag_118:\n        /* \"#utility.yul\":3857:3868   */\n      swap3\n      dup5\n      add\n      swap3\n        /* \"#utility.yul\":3877:4012   */\n    tag_119:\n        /* \"#utility.yul\":3893:3899   */\n      dup3\n        /* \"#utility.yul\":3888:3891   */\n      dup5\n        /* \"#utility.yul\":3885:3900   */\n      lt\n        /* \"#utility.yul\":3877:4012   */\n      iszero\n      tag_104\n      jumpi\n        /* \"#utility.yul\":3959:3969   */\n      dup4\n      mload\n        /* \"#utility.yul\":3947:3970   */\n      dup3\n      mstore\n        /* \"#utility.yul\":3910:3922   */\n      swap3\n      dup5\n      add\n      swap3\n        /* \"#utility.yul\":3990:4002   */\n      swap1\n      dup5\n      add\n      swap1\n        /* \"#utility.yul\":3877:4012   */\n      jump(tag_119)\n        /* \"#utility.yul\":4047:4279   */\n    tag_60:\n        /* \"#utility.yul\":4086:4089   */\n      0x00\n        /* \"#utility.yul\":4107:4124   */\n      0x01\n      dup3\n      add\n        /* \"#utility.yul\":4104:4244   */\n      tag_123\n      jumpi\n        /* \"#utility.yul\":4166:4176   */\n      0x4e487b71\n        /* \"#utility.yul\":4161:4164   */\n      0xe0\n        /* \"#utility.yul\":4157:4177   */\n      shl\n        /* \"#utility.yul\":4154:4155   */\n      0x00\n        /* \"#utility.yul\":4147:4178   */\n      mstore\n        /* \"#utility.yul\":4201:4205   */\n      0x11\n        /* \"#utility.yul\":4198:4199   */\n      0x04\n        /* \"#utility.yul\":4191:4206   */\n      mstore\n        /* \"#utility.yul\":4229:4233   */\n      0x24\n        /* \"#utility.yul\":4226:4227   */\n      0x00\n        /* \"#utility.yul\":4219:4234   */\n      revert\n        /* \"#utility.yul\":4104:4244   */\n    tag_123:\n      pop\n        /* \"#utility.yul\":4271:4272   */\n      0x01\n        /* \"#utility.yul\":4260:4273   */\n      add\n      swap1\n        /* \"#utility.yul\":4047:4279   */\n      jump\t// out\n\n    auxdata: 0xa2646970667358221220e2a123ed5b4aec3d08289907d2d9589236572a523cad97bed54e1a012073100164736f6c63430008120033\n}\n",
				"bytecode": {
					"linkReferences": {},
					"object": "60c0604052737a250d5630b4cf539739df2c5dacb4c659f2488d608090815273d9e1ce17f2641f24ae83637ab66a2cca9c378b9f60a0526100449060009060026100a1565b5060408051808201909152736b175474e89094c44da98b954eedeac495271d0f815273a0b86991c6218b36c1d19d4a2e9eb0ce3606eb48602082015261008e9060019060026100a1565b5034801561009b57600080fd5b5061011b565b8280548282559060005260206000209081019282156100f6579160200282015b828111156100f657825182546001600160a01b0319166001600160a01b039091161782556020909201916001909101906100c1565b50610102929150610106565b5090565b5b808211156101025760008155600101610107565b6106b98061012a6000396000f3fe608060405234801561001057600080fd5b50600436106100575760003560e01c80631694505e1461005c57806324d16c1a1461009457806338c6cdd5146100a75780639b005507146100c2578063f58b911d146100e3575b600080fd5b610077737a250d5630b4cf539739df2c5dacb4c659f2488d81565b6040516001600160a01b0390911681526020015b60405180910390f35b6100776100a2366004610439565b6100f6565b61007773d9e1ce17f2641f24ae83637ab66a2cca9c378b9f81565b6100d56100d03660046104bd565b610120565b60405190815260200161008b565b6100776100f1366004610439565b610429565b6000818154811061010657600080fd5b6000918252602090912001546001600160a01b0316905081565b60008060005b60028110156102b557816000828154811061014357610143610569565b60009182526020909120015460405163d06ca61f60e01b81526001600160a01b039091169063d06ca61f9061018690670de0b6b3a764000090899060040161057f565b600060405180830381865afa1580156101a3573d6000803e3d6000fd5b505050506040513d6000823e601f3d908101601f191682016040526101cb91908101906105d6565b6001815181106101dd576101dd610569565b602002602001015111156102a357600081815481106101fe576101fe610569565b60009182526020909120015460405163d06ca61f60e01b81526001600160a01b039091169063d06ca61f9061024190670de0b6b3a764000090889060040161057f565b600060405180830381865afa15801561025e573d6000803e3d6000fd5b505050506040513d6000823e601f3d908101601f1916820160405261028691908101906105d6565b60018151811061029857610298610569565b602002602001015191505b806102ad8161065c565b915050610126565b506000806000815481106102cb576102cb610569565b60009182526020909120015460405163d06ca61f60e01b81526001600160a01b039091169063d06ca61f9061030e90670de0b6b3a764000090889060040161057f565b600060405180830381865afa15801561032b573d6000803e3d6000fd5b505050506040513d6000823e601f3d908101601f1916820160405261035391908101906105d6565b60018151811061036557610365610569565b6020026020010151905060008060018154811061038457610384610569565b60009182526020909120015460405163d06ca61f60e01b81526001600160a01b039091169063d06ca61f906103c790670de0b6b3a764000090899060040161057f565b600060405180830381865afa1580156103e4573d6000803e3d6000fd5b505050506040513d6000823e601f3d908101601f1916820160405261040c91908101906105d6565b60018151811061041e5761041e610569565b509295945050505050565b6001818154811061010657600080fd5b60006020828403121561044b57600080fd5b5035919050565b634e487b7160e01b600052604160045260246000fd5b604051601f8201601f1916810167ffffffffffffffff8111828210171561049157610491610452565b604052919050565b600067ffffffffffffffff8211156104b3576104b3610452565b5060051b60200190565b600060208083850312156104d057600080fd5b823567ffffffffffffffff8111156104e757600080fd5b8301601f810185136104f857600080fd5b803561050b61050682610499565b610468565b81815260059190911b8201830190838101908783111561052a57600080fd5b928401925b8284101561055e5783356001600160a01b038116811461054f5760008081fd5b8252928401929084019061052f565b979650505050505050565b634e487b7160e01b600052603260045260246000fd5b6000604082018483526020604081850152818551808452606086019150828701935060005b818110156105c95784516001600160a01b0316835293830193918301916001016105a4565b5090979650505050505050565b600060208083850312156105e957600080fd5b825167ffffffffffffffff81111561060057600080fd5b8301601f8101851361061157600080fd5b805161061f61050682610499565b81815260059190911b8201830190838101908783111561063e57600080fd5b928401925b8284101561055e57835182529284019290840190610643565b60006001820161067c57634e487b7160e01b600052601160045260246000fd5b506001019056fea2646970667358221220e2a123ed5b4aec3d08289907d2d9589236572a523cad97bed54e1a012073100164736f6c63430008120033",
					"opcodes": "PUSH1 0xC0 PUSH1 0x40 MSTORE PUSH20 0x7A250D5630B4CF539739DF2C5DACB4C659F2488D PUSH1 0x80 SWAP1 DUP2 MSTORE PUSH20 0xD9E1CE17F2641F24AE83637AB66A2CCA9C378B9F PUSH1 0xA0 MSTORE PUSH2 0x44 SWAP1 PUSH1 0x0 SWAP1 PUSH1 0x2 PUSH2 0xA1 JUMP JUMPDEST POP PUSH1 0x40 DUP1 MLOAD DUP1 DUP3 ADD SWAP1 SWAP2 MSTORE PUSH20 0x6B175474E89094C44DA98B954EEDEAC495271D0F DUP2 MSTORE PUSH20 0xA0B86991C6218B36C1D19D4A2E9EB0CE3606EB48 PUSH1 0x20 DUP3 ADD MSTORE PUSH2 0x8E SWAP1 PUSH1 0x1 SWAP1 PUSH1 0x2 PUSH2 0xA1 JUMP JUMPDEST POP CALLVALUE DUP1 ISZERO PUSH2 0x9B JUMPI PUSH1 0x0 DUP1 REVERT JUMPDEST POP PUSH2 0x11B JUMP JUMPDEST DUP3 DUP1 SLOAD DUP3 DUP3 SSTORE SWAP1 PUSH1 0x0 MSTORE PUSH1 0x20 PUSH1 0x0 KECCAK256 SWAP1 DUP2 ADD SWAP3 DUP3 ISZERO PUSH2 0xF6 JUMPI SWAP2 PUSH1 0x20 MUL DUP3 ADD JUMPDEST DUP3 DUP2 GT ISZERO PUSH2 0xF6 JUMPI DUP3 MLOAD DUP3 SLOAD PUSH1 0x1 PUSH1 0x1 PUSH1 0xA0 SHL SUB NOT AND PUSH1 0x1 PUSH1 0x1 PUSH1 0xA0 SHL SUB SWAP1 SWAP2 AND OR DUP3 SSTORE PUSH1 0x20 SWAP1 SWAP3 ADD SWAP2 PUSH1 0x1 SWAP1 SWAP2 ADD SWAP1 PUSH2 0xC1 JUMP JUMPDEST POP PUSH2 0x102 SWAP3 SWAP2 POP PUSH2 0x106 JUMP JUMPDEST POP SWAP1 JUMP JUMPDEST JUMPDEST DUP1 DUP3 GT ISZERO PUSH2 0x102 JUMPI PUSH1 0x0 DUP2 SSTORE PUSH1 0x1 ADD PUSH2 0x107 JUMP JUMPDEST PUSH2 0x6B9 DUP1 PUSH2 0x12A PUSH1 0x0 CODECOPY PUSH1 0x0 RETURN INVALID PUSH1 0x80 PUSH1 0x40 MSTORE CALLVALUE DUP1 ISZERO PUSH2 0x10 JUMPI PUSH1 0x0 DUP1 REVERT JUMPDEST POP PUSH1 0x4 CALLDATASIZE LT PUSH2 0x57 JUMPI PUSH1 0x0 CALLDATALOAD PUSH1 0xE0 SHR DUP1 PUSH4 0x1694505E EQ PUSH2 0x5C JUMPI DUP1 PUSH4 0x24D16C1A EQ PUSH2 0x94 JUMPI DUP1 PUSH4 0x38C6CDD5 EQ PUSH2 0xA7 JUMPI DUP1 PUSH4 0x9B005507 EQ PUSH2 0xC2 JUMPI DUP1 PUSH4 0xF58B911D EQ PUSH2 0xE3 JUMPI JUMPDEST PUSH1 0x0 DUP1 REVERT JUMPDEST PUSH2 0x77 PUSH20 0x7A250D5630B4CF539739DF2C5DACB4C659F2488D DUP2 JUMP JUMPDEST PUSH1 0x40 MLOAD PUSH1 0x1 PUSH1 0x1 PUSH1 0xA0 SHL SUB SWAP1 SWAP2 AND DUP2 MSTORE PUSH1 0x20 ADD JUMPDEST PUSH1 0x40 MLOAD DUP1 SWAP2 SUB SWAP1 RETURN JUMPDEST PUSH2 0x77 PUSH2 0xA2 CALLDATASIZE PUSH1 0x4 PUSH2 0x439 JUMP JUMPDEST PUSH2 0xF6 JUMP JUMPDEST PUSH2 0x77 PUSH20 0xD9E1CE17F2641F24AE83637AB66A2CCA9C378B9F DUP2 JUMP JUMPDEST PUSH2 0xD5 PUSH2 0xD0 CALLDATASIZE PUSH1 0x4 PUSH2 0x4BD JUMP JUMPDEST PUSH2 0x120 JUMP JUMPDEST PUSH1 0x40 MLOAD SWAP1 DUP2 MSTORE PUSH1 0x20 ADD PUSH2 0x8B JUMP JUMPDEST PUSH2 0x77 PUSH2 0xF1 CALLDATASIZE PUSH1 0x4 PUSH2 0x439 JUMP JUMPDEST PUSH2 0x429 JUMP JUMPDEST PUSH1 0x0 DUP2 DUP2 SLOAD DUP2 LT PUSH2 0x106 JUMPI PUSH1 0x0 DUP1 REVERT JUMPDEST PUSH1 0x0 SWAP2 DUP3 MSTORE PUSH1 0x20 SWAP1 SWAP2 KECCAK256 ADD SLOAD PUSH1 0x1 PUSH1 0x1 PUSH1 0xA0 SHL SUB AND SWAP1 POP DUP2 JUMP JUMPDEST PUSH1 0x0 DUP1 PUSH1 0x0 JUMPDEST PUSH1 0x2 DUP2 LT ISZERO PUSH2 0x2B5 JUMPI DUP2 PUSH1 0x0 DUP3 DUP2 SLOAD DUP2 LT PUSH2 0x143 JUMPI PUSH2 0x143 PUSH2 0x569 JUMP JUMPDEST PUSH1 0x0 SWAP2 DUP3 MSTORE PUSH1 0x20 SWAP1 SWAP2 KECCAK256 ADD SLOAD PUSH1 0x40 MLOAD PUSH4 0xD06CA61F PUSH1 0xE0 SHL DUP2 MSTORE PUSH1 0x1 PUSH1 0x1 PUSH1 0xA0 SHL SUB SWAP1 SWAP2 AND SWAP1 PUSH4 0xD06CA61F SWAP1 PUSH2 0x186 SWAP1 PUSH8 0xDE0B6B3A7640000 SWAP1 DUP10 SWAP1 PUSH1 0x4 ADD PUSH2 0x57F JUMP JUMPDEST PUSH1 0x0 PUSH1 0x40 MLOAD DUP1 DUP4 SUB DUP2 DUP7 GAS STATICCALL ISZERO DUP1 ISZERO PUSH2 0x1A3 JUMPI RETURNDATASIZE PUSH1 0x0 DUP1 RETURNDATACOPY RETURNDATASIZE PUSH1 0x0 REVERT JUMPDEST POP POP POP POP PUSH1 0x40 MLOAD RETURNDATASIZE PUSH1 0x0 DUP3 RETURNDATACOPY PUSH1 0x1F RETURNDATASIZE SWAP1 DUP2 ADD PUSH1 0x1F NOT AND DUP3 ADD PUSH1 0x40 MSTORE PUSH2 0x1CB SWAP2 SWAP1 DUP2 ADD SWAP1 PUSH2 0x5D6 JUMP JUMPDEST PUSH1 0x1 DUP2 MLOAD DUP2 LT PUSH2 0x1DD JUMPI PUSH2 0x1DD PUSH2 0x569 JUMP JUMPDEST PUSH1 0x20 MUL PUSH1 0x20 ADD ADD MLOAD GT ISZERO PUSH2 0x2A3 JUMPI PUSH1 0x0 DUP2 DUP2 SLOAD DUP2 LT PUSH2 0x1FE JUMPI PUSH2 0x1FE PUSH2 0x569 JUMP JUMPDEST PUSH1 0x0 SWAP2 DUP3 MSTORE PUSH1 0x20 SWAP1 SWAP2 KECCAK256 ADD SLOAD PUSH1 0x40 MLOAD PUSH4 0xD06CA61F PUSH1 0xE0 SHL DUP2 MSTORE PUSH1 0x1 PUSH1 0x1 PUSH1 0xA0 SHL SUB SWAP1 SWAP2 AND SWAP1 PUSH4 0xD06CA61F SWAP1 PUSH2 0x241 SWAP1 PUSH8 0xDE0B6B3A7640000 SWAP1 DUP9 SWAP1 PUSH1 0x4 ADD PUSH2 0x57F JUMP JUMPDEST PUSH1 0x0 PUSH1 0x40 MLOAD DUP1 DUP4 SUB DUP2 DUP7 GAS STATICCALL ISZERO DUP1 ISZERO PUSH2 0x25E JUMPI RETURNDATASIZE PUSH1 0x0 DUP1 RETURNDATACOPY RETURNDATASIZE PUSH1 0x0 REVERT JUMPDEST POP POP POP POP PUSH1 0x40 MLOAD RETURNDATASIZE PUSH1 0x0 DUP3 RETURNDATACOPY PUSH1 0x1F RETURNDATASIZE SWAP1 DUP2 ADD PUSH1 0x1F NOT AND DUP3 ADD PUSH1 0x40 MSTORE PUSH2 0x286 SWAP2 SWAP1 DUP2 ADD SWAP1 PUSH2 0x5D6 JUMP JUMPDEST PUSH1 0x1 DUP2 MLOAD DUP2 LT PUSH2 0x298 JUMPI PUSH2 0x298 PUSH2 0x569 JUMP JUMPDEST PUSH1 0x20 MUL PUSH1 0x20 ADD ADD MLOAD SWAP2 POP JUMPDEST DUP1 PUSH2 0x2AD DUP2 PUSH2 0x65C JUMP JUMPDEST SWAP2 POP POP PUSH2 0x126 JUMP JUMPDEST POP PUSH1 0x0 DUP1 PUSH1 0x0 DUP2 SLOAD DUP2 LT PUSH2 0x2CB JUMPI PUSH2 0x2CB PUSH2 0x569 JUMP JUMPDEST PUSH1 0x0 SWAP2 DUP3 MSTORE PUSH1 0x20 SWAP1 SWAP2 KECCAK256 ADD SLOAD PUSH1 0x40 MLOAD PUSH4 0xD06CA61F PUSH1 0xE0 SHL DUP2 MSTORE PUSH1 0x1 PUSH1 0x1 PUSH1 0xA0 SHL SUB SWAP1 SWAP2 AND SWAP1 PUSH4 0xD06CA61F SWAP1 PUSH2 0x30E SWAP1 PUSH8 0xDE0B6B3A7640000 SWAP1 DUP9 SWAP1 PUSH1 0x4 ADD PUSH2 0x57F JUMP JUMPDEST PUSH1 0x0 PUSH1 0x40 MLOAD DUP1 DUP4 SUB DUP2 DUP7 GAS STATICCALL ISZERO DUP1 ISZERO PUSH2 0x32B JUMPI RETURNDATASIZE PUSH1 0x0 DUP1 RETURNDATACOPY RETURNDATASIZE PUSH1 0x0 REVERT JUMPDEST POP POP POP POP PUSH1 0x40 MLOAD RETURNDATASIZE PUSH1 0x0 DUP3 RETURNDATACOPY PUSH1 0x1F RETURNDATASIZE SWAP1 DUP2 ADD PUSH1 0x1F NOT AND DUP3 ADD PUSH1 0x40 MSTORE PUSH2 0x353 SWAP2 SWAP1 DUP2 ADD SWAP1 PUSH2 0x5D6 JUMP JUMPDEST PUSH1 0x1 DUP2 MLOAD DUP2 LT PUSH2 0x365 JUMPI PUSH2 0x365 PUSH2 0x569 JUMP JUMPDEST PUSH1 0x20 MUL PUSH1 0x20 ADD ADD MLOAD SWAP1 POP PUSH1 0x0 DUP1 PUSH1 0x1 DUP2 SLOAD DUP2 LT PUSH2 0x384 JUMPI PUSH2 0x384 PUSH2 0x569 JUMP JUMPDEST PUSH1 0x0 SWAP2 DUP3 MSTORE PUSH1 0x20 SWAP1 SWAP2 KECCAK256 ADD SLOAD PUSH1 0x40 MLOAD PUSH4 0xD06CA61F PUSH1 0xE0 SHL DUP2 MSTORE PUSH1 0x1 PUSH1 0x1 PUSH1 0xA0 SHL SUB SWAP1 SWAP2 AND SWAP1 PUSH4 0xD06CA61F SWAP1 PUSH2 0x3C7 SWAP1 PUSH8 0xDE0B6B3A7640000 SWAP1 DUP10 SWAP1 PUSH1 0x4 ADD PUSH2 0x57F JUMP JUMPDEST PUSH1 0x0 PUSH1 0x40 MLOAD DUP1 DUP4 SUB DUP2 DUP7 GAS STATICCALL ISZERO DUP1 ISZERO PUSH2 0x3E4 JUMPI RETURNDATASIZE PUSH1 0x0 DUP1 RETURNDATACOPY RETURNDATASIZE PUSH1 0x0 REVERT JUMPDEST POP POP POP POP PUSH1 0x40 MLOAD RETURNDATASIZE PUSH1 0x0 DUP3 RETURNDATACOPY PUSH1 0x1F RETURNDATASIZE SWAP1 DUP2 ADD PUSH1 0x1F NOT AND DUP3 ADD PUSH1 0x40 MSTORE PUSH2 0x40C SWAP2 SWAP1 DUP2 ADD SWAP1 PUSH2 0x5D6 JUMP JUMPDEST PUSH1 0x1 DUP2 MLOAD DUP2 LT PUSH2 0x41E JUMPI PUSH2 0x41E PUSH2 0x569 JUMP JUMPDEST POP SWAP3 SWAP6 SWAP5 POP POP POP POP POP JUMP JUMPDEST PUSH1 0x1 DUP2 DUP2 SLOAD DUP2 LT PUSH2 0x106 JUMPI PUSH1 0x0 DUP1 REVERT JUMPDEST PUSH1 0x0 PUSH1 0x20 DUP3 DUP5 SUB SLT ISZERO PUSH2 0x44B JUMPI PUSH1 0x0 DUP1 REVERT JUMPDEST POP CALLDATALOAD SWAP2 SWAP1 POP JUMP JUMPDEST PUSH4 0x4E487B71 PUSH1 0xE0 SHL PUSH1 0x0 MSTORE PUSH1 0x41 PUSH1 0x4 MSTORE PUSH1 0x24 PUSH1 0x0 REVERT JUMPDEST PUSH1 0x40 MLOAD PUSH1 0x1F DUP3 ADD PUSH1 0x1F NOT AND DUP2 ADD PUSH8 0xFFFFFFFFFFFFFFFF DUP2 GT DUP3 DUP3 LT OR ISZERO PUSH2 0x491 JUMPI PUSH2 0x491 PUSH2 0x452 JUMP JUMPDEST PUSH1 0x40 MSTORE SWAP2 SWAP1 POP JUMP JUMPDEST PUSH1 0x0 PUSH8 0xFFFFFFFFFFFFFFFF DUP3 GT ISZERO PUSH2 0x4B3 JUMPI PUSH2 0x4B3 PUSH2 0x452 JUMP JUMPDEST POP PUSH1 0x5 SHL PUSH1 0x20 ADD SWAP1 JUMP JUMPDEST PUSH1 0x0 PUSH1 0x20 DUP1 DUP4 DUP6 SUB SLT ISZERO PUSH2 0x4D0 JUMPI PUSH1 0x0 DUP1 REVERT JUMPDEST DUP3 CALLDATALOAD PUSH8 0xFFFFFFFFFFFFFFFF DUP2 GT ISZERO PUSH2 0x4E7 JUMPI PUSH1 0x0 DUP1 REVERT JUMPDEST DUP4 ADD PUSH1 0x1F DUP2 ADD DUP6 SGT PUSH2 0x4F8 JUMPI PUSH1 0x0 DUP1 REVERT JUMPDEST DUP1 CALLDATALOAD PUSH2 0x50B PUSH2 0x506 DUP3 PUSH2 0x499 JUMP JUMPDEST PUSH2 0x468 JUMP JUMPDEST DUP2 DUP2 MSTORE PUSH1 0x5 SWAP2 SWAP1 SWAP2 SHL DUP3 ADD DUP4 ADD SWAP1 DUP4 DUP2 ADD SWAP1 DUP8 DUP4 GT ISZERO PUSH2 0x52A JUMPI PUSH1 0x0 DUP1 REVERT JUMPDEST SWAP3 DUP5 ADD SWAP3 JUMPDEST DUP3 DUP5 LT ISZERO PUSH2 0x55E JUMPI DUP4 CALLDATALOAD PUSH1 0x1 PUSH1 0x1 PUSH1 0xA0 SHL SUB DUP2 AND DUP2 EQ PUSH2 0x54F JUMPI PUSH1 0x0 DUP1 DUP2 REVERT JUMPDEST DUP3 MSTORE SWAP3 DUP5 ADD SWAP3 SWAP1 DUP5 ADD SWAP1 PUSH2 0x52F JUMP JUMPDEST SWAP8 SWAP7 POP POP POP POP POP POP POP JUMP JUMPDEST PUSH4 0x4E487B71 PUSH1 0xE0 SHL PUSH1 0x0 MSTORE PUSH1 0x32 PUSH1 0x4 MSTORE PUSH1 0x24 PUSH1 0x0 REVERT JUMPDEST PUSH1 0x0 PUSH1 0x40 DUP3 ADD DUP5 DUP4 MSTORE PUSH1 0x20 PUSH1 0x40 DUP2 DUP6 ADD MSTORE DUP2 DUP6 MLOAD DUP1 DUP5 MSTORE PUSH1 0x60 DUP7 ADD SWAP2 POP DUP3 DUP8 ADD SWAP4 POP PUSH1 0x0 JUMPDEST DUP2 DUP2 LT ISZERO PUSH2 0x5C9 JUMPI DUP5 MLOAD PUSH1 0x1 PUSH1 0x1 PUSH1 0xA0 SHL SUB AND DUP4 MSTORE SWAP4 DUP4 ADD SWAP4 SWAP2 DUP4 ADD SWAP2 PUSH1 0x1 ADD PUSH2 0x5A4 JUMP JUMPDEST POP SWAP1 SWAP8 SWAP7 POP POP POP POP POP POP POP JUMP JUMPDEST PUSH1 0x0 PUSH1 0x20 DUP1 DUP4 DUP6 SUB SLT ISZERO PUSH2 0x5E9 JUMPI PUSH1 0x0 DUP1 REVERT JUMPDEST DUP3 MLOAD PUSH8 0xFFFFFFFFFFFFFFFF DUP2 GT ISZERO PUSH2 0x600 JUMPI PUSH1 0x0 DUP1 REVERT JUMPDEST DUP4 ADD PUSH1 0x1F DUP2 ADD DUP6 SGT PUSH2 0x611 JUMPI PUSH1 0x0 DUP1 REVERT JUMPDEST DUP1 MLOAD PUSH2 0x61F PUSH2 0x506 DUP3 PUSH2 0x499 JUMP JUMPDEST DUP2 DUP2 MSTORE PUSH1 0x5 SWAP2 SWAP1 SWAP2 SHL DUP3 ADD DUP4 ADD SWAP1 DUP4 DUP2 ADD SWAP1 DUP8 DUP4 GT ISZERO PUSH2 0x63E JUMPI PUSH1 0x0 DUP1 REVERT JUMPDEST SWAP3 DUP5 ADD SWAP3 JUMPDEST DUP3 DUP5 LT ISZERO PUSH2 0x55E JUMPI DUP4 MLOAD DUP3 MSTORE SWAP3 DUP5 ADD SWAP3 SWAP1 DUP5 ADD SWAP1 PUSH2 0x643 JUMP JUMPDEST PUSH1 0x0 PUSH1 0x1 DUP3 ADD PUSH2 0x67C JUMPI PUSH4 0x4E487B71 PUSH1 0xE0 SHL PUSH1 0x0 MSTORE PUSH1 0x11 PUSH1 0x4 MSTORE PUSH1 0x24 PUSH1 0x0 REVERT JUMPDEST POP PUSH1 0x1 ADD SWAP1 JUMP INVALID LOG2 PUSH5 0x6970667358 0x22 SLT KECCAK256 0xE2 LOG1 0x23 0xED JUMPDEST 0x4A 0xEC RETURNDATASIZE ADDMOD 0x28 SWAP10 SMOD 0xD2 0xD9 PC SWAP3 CALLDATASIZE JUMPI 0x2A MSTORE EXTCODECOPY 0xAD SWAP8 0xBE 0xD5 0x4E BYTE ADD KECCAK256 PUSH20 0x100164736F6C6343000812003300000000000000 "
				},
				"gasEstimates": {
					"creation": {
						"codeDepositCost": "344200",
						"executionCost": "infinite",
						"totalCost": "infinite"
					},
					"external": {
						"dex(uint256)": "4603",
						"getPrice(address[])": "infinite",
						"selectors(uint256)": "4669",
						"sushiswapV2Router()": "227",
						"uniswapV2Router()": "183"
					}
				},
				"methodIdentifiers": {
					"dex(uint256)": "24d16c1a",
					"getPrice(address[])": "9b005507",
					"selectors(uint256)": "f58b911d",
					"sushiswapV2Router()": "38c6cdd5",
					"uniswapV2Router()": "1694505e"
				}
			},
			"storageLayout": {
				"storage": [
					{
						"astId": 728,
						"contract": "DEXLogic.sol:PathFinding",
						"label": "dex",
						"offset": 0,
						"slot": "0",
						"type": "t_array(t_address)dyn_storage"
					},
					{
						"astId": 734,
						"contract": "DEXLogic.sol:PathFinding",
						"label": "selectors",
						"offset": 0,
						"slot": "1",
						"type": "t_array(t_address)dyn_storage"
					}
				],
				"types": {
					"t_address": {
						"encoding": "inplace",
						"label": "address",
						"numberOfBytes": "20"
					},
					"t_array(t_address)dyn_storage": {
						"base": "t_address",
						"encoding": "dynamic_array",
						"label": "address[]",
						"numberOfBytes": "32"
					}
				}
			},
			"userdoc": {
				"kind": "user",
				"methods": {},
				"version": 1
			}
		}
	}
}