{
	"data": {
		"bytecode": {
			"linkReferences": {},
			"object": "600080546001600160a01b031990811673c02aaa39b223fe8d0a0e5c4f27ead9083c756cc21790915560018054821673a0b86991c6218b36c1d19d4a2e9eb0ce3606eb4817905560028054821673dac17f958d2ee523a2206206994597c13d831ec7178155600380548316736b175474e89094c44da98b954eedeac495271d0f179055600480549092167364aa3364f17a4d01c6f1751fd97c2bd3d7e7f1d51790915560c0604052737a250d5630b4cf539739df2c5dacb4c659f2488d608090815273d9e1ce17f2641f24ae83637ab66a2cca9c378b9f60a052620000e8916005919062000283565b50604080518082019091526000546001600160a01b0390811682526004541660208201526200011c90600690600262000283565b503480156200012a57600080fd5b5060408051808201909152600080546001600160a01b0390811683526001805490911660208401526007805491820181559091526200017f9160008051602062000f3d83398151915290910190600262000283565b5060408051808201909152600180546001600160a01b039081168352600280549091166020840152600780549283018155600052620001d39260008051602062000f3d833981519152909201919062000283565b5060408051808201909152600280546001600160a01b03908116835260035416602083015260078054600181018255600091909152620002279260008051602062000f3d8339815191529091019162000283565b50604080518082019091526003546001600160a01b039081168252600454166020820152600780546001810182556000919091526200027c9160008051602062000f3d83398151915290910190600262000283565b5062000304565b828054828255906000526020600020908101928215620002db579160200282015b82811115620002db57825182546001600160a01b0319166001600160a01b03909116178255602090920191600190910190620002a4565b50620002e9929150620002ed565b5090565b5b80821115620002e95760008155600101620002ee565b610c2980620003146000396000f3fe608060405234801561001057600080fd5b50600436106100b45760003560e01c806398d5fdca1161007157806398d5fdca14610168578063a6c41fec1461017e578063ad5c464814610191578063af6d1fe4146101a4578063c54e44eb146101b7578063e0bab4c4146101ca57600080fd5b80631694505e146100b957806324d16c1a146100f157806338c6cdd51461010457806346fab9e91461011f57806370b5180d1461013257806389a3027114610155575b600080fd5b6100d4737a250d5630b4cf539739df2c5dacb4c659f2488d81565b6040516001600160a01b0390911681526020015b60405180910390f35b6100d46100ff366004610a3d565b6101dd565b6100d473d9e1ce17f2641f24ae83637ab66a2cca9c378b9f81565b6100d461012d366004610a56565b610207565b61013a61024b565b604080519384526020840192909252908201526060016100e8565b6001546100d4906001600160a01b031681565b61017061088f565b6040519081526020016100e8565b6004546100d4906001600160a01b031681565b6000546100d4906001600160a01b031681565b6100d46101b2366004610a3d565b610a2d565b6002546100d4906001600160a01b031681565b6003546100d4906001600160a01b031681565b600581815481106101ed57600080fd5b6000918252602090912001546001600160a01b0316905081565b6007828154811061021757600080fd5b90600052602060002001818154811061022f57600080fd5b6000918252602090912001546001600160a01b03169150829050565b6000806000806000805b6007548110156104745760005b600554811015610461578160000361035f5760006005828154811061028957610289610a78565b600091825260209091200154600780546001600160a01b039092169163d06ca61f91670de0b6b3a764000091879081106102c5576102c5610a78565b906000526020600020016040518363ffffffff1660e01b81526004016102ec929190610ad7565b600060405180830381865afa158015610309573d6000803e3d6000fd5b505050506040513d6000823e601f3d908101601f191682016040526103319190810190610b0e565b60018151811061034357610343610a78565b6020026020010151905083811115610359578093505b5061044f565b60006005828154811061037457610374610a78565b600091825260209091200154600780546001600160a01b039092169163d06ca61f918791879081106103a8576103a8610a78565b906000526020600020016040518363ffffffff1660e01b81526004016103cf929190610ad7565b600060405180830381865afa1580156103ec573d6000803e3d6000fd5b505050506040513d6000823e601f3d908101601f191682016040526104149190810190610b0e565b60018151811061042657610426610a78565b6020026020010151905083811115610441579293508261044d565b8381111561044d578394505b505b8061045981610bcc565b915050610262565b508061046c81610bcc565b915050610255565b506000600560018154811061048b5761048b610a78565b6000918252602082200154600780546001600160a01b039092169263d06ca61f92670de0b6b3a76400009291906104c4576104c4610a78565b906000526020600020016040518363ffffffff1660e01b81526004016104eb929190610ad7565b600060405180830381865afa158015610508573d6000803e3d6000fd5b505050506040513d6000823e601f3d908101601f191682016040526105309190810190610b0e565b60018151811061054257610542610a78565b602002602001015190506000600560018154811061056257610562610a78565b600091825260209091200154600780546001600160a01b039092169163d06ca61f918591600190811061059757610597610a78565b906000526020600020016040518363ffffffff1660e01b81526004016105be929190610ad7565b600060405180830381865afa1580156105db573d6000803e3d6000fd5b505050506040513d6000823e601f3d908101601f191682016040526106039190810190610b0e565b60018151811061061557610615610a78565b602002602001015190506000600560018154811061063557610635610a78565b600091825260209091200154600780546001600160a01b039092169163d06ca61f918591600290811061066a5761066a610a78565b906000526020600020016040518363ffffffff1660e01b8152600401610691929190610ad7565b600060405180830381865afa1580156106ae573d6000803e3d6000fd5b505050506040513d6000823e601f3d908101601f191682016040526106d69190810190610b0e565b6001815181106106e8576106e8610a78565b602002602001015190506000600560018154811061070857610708610a78565b600091825260209091200154600780546001600160a01b039092169163d06ca61f918591600390811061073d5761073d610a78565b906000526020600020016040518363ffffffff1660e01b8152600401610764929190610ad7565b600060405180830381865afa158015610781573d6000803e3d6000fd5b505050506040513d6000823e601f3d908101601f191682016040526107a99190810190610b0e565b6001815181106107bb576107bb610a78565b60200260200101519050858160056001815481106107db576107db610a78565b60009182526020909120015460405163d06ca61f60e01b81526001600160a01b039091169063d06ca61f9061081f90670de0b6b3a764000090600690600401610ad7565b600060405180830381865afa15801561083c573d6000803e3d6000fd5b505050506040513d6000823e601f3d908101601f191682016040526108649190810190610b0e565b60018151811061087657610876610a78565b6020026020010151985098509850505050505050909192565b60008060005b600654811015610a275781600582815481106108b3576108b3610a78565b60009182526020909120015460405163d06ca61f60e01b81526001600160a01b039091169063d06ca61f906108f790670de0b6b3a764000090600690600401610ad7565b600060405180830381865afa158015610914573d6000803e3d6000fd5b505050506040513d6000823e601f3d908101601f1916820160405261093c9190810190610b0e565b60018151811061094e5761094e610a78565b60200260200101511115610a15576005818154811061096f5761096f610a78565b60009182526020909120015460405163d06ca61f60e01b81526001600160a01b039091169063d06ca61f906109b390670de0b6b3a764000090600690600401610ad7565b600060405180830381865afa1580156109d0573d6000803e3d6000fd5b505050506040513d6000823e601f3d908101601f191682016040526109f89190810190610b0e565b600181518110610a0a57610a0a610a78565b602002602001015191505b80610a1f81610bcc565b915050610895565b50919050565b600681815481106101ed57600080fd5b600060208284031215610a4f57600080fd5b5035919050565b60008060408385031215610a6957600080fd5b50508035926020909101359150565b634e487b7160e01b600052603260045260246000fd5b6000815480845260208085019450836000528060002060005b83811015610acc5781546001600160a01b031687529582019560019182019101610aa7565b509495945050505050565b828152604060208201526000610af06040830184610a8e565b949350505050565b634e487b7160e01b600052604160045260246000fd5b60006020808385031215610b2157600080fd5b825167ffffffffffffffff80821115610b3957600080fd5b818501915085601f830112610b4d57600080fd5b815181811115610b5f57610b5f610af8565b8060051b604051601f19603f83011681018181108582111715610b8457610b84610af8565b604052918252848201925083810185019188831115610ba257600080fd5b938501935b82851015610bc057845184529385019392850192610ba7565b98975050505050505050565b600060018201610bec57634e487b7160e01b600052601160045260246000fd5b506001019056fea26469706673582212208883fcaf07b16621278169abe5605d0e9cb76778ae1dbd0a048106bddcd26e0164736f6c63430008120033a66cc928b5edb82af9bd49922954155ab7b0942694bea4ce44661d9a8736c688",
			"opcodes": "PUSH1 0x0 DUP1 SLOAD PUSH1 0x1 PUSH1 0x1 PUSH1 0xA0 SHL SUB NOT SWAP1 DUP2 AND PUSH20 0xC02AAA39B223FE8D0A0E5C4F27EAD9083C756CC2 OR SWAP1 SWAP2 SSTORE PUSH1 0x1 DUP1 SLOAD DUP3 AND PUSH20 0xA0B86991C6218B36C1D19D4A2E9EB0CE3606EB48 OR SWAP1 SSTORE PUSH1 0x2 DUP1 SLOAD DUP3 AND PUSH20 0xDAC17F958D2EE523A2206206994597C13D831EC7 OR DUP2 SSTORE PUSH1 0x3 DUP1 SLOAD DUP4 AND PUSH20 0x6B175474E89094C44DA98B954EEDEAC495271D0F OR SWAP1 SSTORE PUSH1 0x4 DUP1 SLOAD SWAP1 SWAP3 AND PUSH20 0x64AA3364F17A4D01C6F1751FD97C2BD3D7E7F1D5 OR SWAP1 SWAP2 SSTORE PUSH1 0xC0 PUSH1 0x40 MSTORE PUSH20 0x7A250D5630B4CF539739DF2C5DACB4C659F2488D PUSH1 0x80 SWAP1 DUP2 MSTORE PUSH20 0xD9E1CE17F2641F24AE83637AB66A2CCA9C378B9F PUSH1 0xA0 MSTORE PUSH3 0xE8 SWAP2 PUSH1 0x5 SWAP2 SWAP1 PUSH3 0x283 JUMP JUMPDEST POP PUSH1 0x40 DUP1 MLOAD DUP1 DUP3 ADD SWAP1 SWAP2 MSTORE PUSH1 0x0 SLOAD PUSH1 0x1 PUSH1 0x1 PUSH1 0xA0 SHL SUB SWAP1 DUP2 AND DUP3 MSTORE PUSH1 0x4 SLOAD AND PUSH1 0x20 DUP3 ADD MSTORE PUSH3 0x11C SWAP1 PUSH1 0x6 SWAP1 PUSH1 0x2 PUSH3 0x283 JUMP JUMPDEST POP CALLVALUE DUP1 ISZERO PUSH3 0x12A JUMPI PUSH1 0x0 DUP1 REVERT JUMPDEST POP PUSH1 0x40 DUP1 MLOAD DUP1 DUP3 ADD SWAP1 SWAP2 MSTORE PUSH1 0x0 DUP1 SLOAD PUSH1 0x1 PUSH1 0x1 PUSH1 0xA0 SHL SUB SWAP1 DUP2 AND DUP4 MSTORE PUSH1 0x1 DUP1 SLOAD SWAP1 SWAP2 AND PUSH1 0x20 DUP5 ADD MSTORE PUSH1 0x7 DUP1 SLOAD SWAP2 DUP3 ADD DUP2 SSTORE SWAP1 SWAP2 MSTORE PUSH3 0x17F SWAP2 PUSH1 0x0 DUP1 MLOAD PUSH1 0x20 PUSH3 0xF3D DUP4 CODECOPY DUP2 MLOAD SWAP2 MSTORE SWAP1 SWAP2 ADD SWAP1 PUSH1 0x2 PUSH3 0x283 JUMP JUMPDEST POP PUSH1 0x40 DUP1 MLOAD DUP1 DUP3 ADD SWAP1 SWAP2 MSTORE PUSH1 0x1 DUP1 SLOAD PUSH1 0x1 PUSH1 0x1 PUSH1 0xA0 SHL SUB SWAP1 DUP2 AND DUP4 MSTORE PUSH1 0x2 DUP1 SLOAD SWAP1 SWAP2 AND PUSH1 0x20 DUP5 ADD MSTORE PUSH1 0x7 DUP1 SLOAD SWAP3 DUP4 ADD DUP2 SSTORE PUSH1 0x0 MSTORE PUSH3 0x1D3 SWAP3 PUSH1 0x0 DUP1 MLOAD PUSH1 0x20 PUSH3 0xF3D DUP4 CODECOPY DUP2 MLOAD SWAP2 MSTORE SWAP1 SWAP3 ADD SWAP2 SWAP1 PUSH3 0x283 JUMP JUMPDEST POP PUSH1 0x40 DUP1 MLOAD DUP1 DUP3 ADD SWAP1 SWAP2 MSTORE PUSH1 0x2 DUP1 SLOAD PUSH1 0x1 PUSH1 0x1 PUSH1 0xA0 SHL SUB SWAP1 DUP2 AND DUP4 MSTORE PUSH1 0x3 SLOAD AND PUSH1 0x20 DUP4 ADD MSTORE PUSH1 0x7 DUP1 SLOAD PUSH1 0x1 DUP2 ADD DUP3 SSTORE PUSH1 0x0 SWAP2 SWAP1 SWAP2 MSTORE PUSH3 0x227 SWAP3 PUSH1 0x0 DUP1 MLOAD PUSH1 0x20 PUSH3 0xF3D DUP4 CODECOPY DUP2 MLOAD SWAP2 MSTORE SWAP1 SWAP2 ADD SWAP2 PUSH3 0x283 JUMP JUMPDEST POP PUSH1 0x40 DUP1 MLOAD DUP1 DUP3 ADD SWAP1 SWAP2 MSTORE PUSH1 0x3 SLOAD PUSH1 0x1 PUSH1 0x1 PUSH1 0xA0 SHL SUB SWAP1 DUP2 AND DUP3 MSTORE PUSH1 0x4 SLOAD AND PUSH1 0x20 DUP3 ADD MSTORE PUSH1 0x7 DUP1 SLOAD PUSH1 0x1 DUP2 ADD DUP3 SSTORE PUSH1 0x0 SWAP2 SWAP1 SWAP2 MSTORE PUSH3 0x27C SWAP2 PUSH1 0x0 DUP1 MLOAD PUSH1 0x20 PUSH3 0xF3D DUP4 CODECOPY DUP2 MLOAD SWAP2 MSTORE SWAP1 SWAP2 ADD SWAP1 PUSH1 0x2 PUSH3 0x283 JUMP JUMPDEST POP PUSH3 0x304 JUMP JUMPDEST DUP3 DUP1 SLOAD DUP3 DUP3 SSTORE SWAP1 PUSH1 0x0 MSTORE PUSH1 0x20 PUSH1 0x0 KECCAK256 SWAP1 DUP2 ADD SWAP3 DUP3 ISZERO PUSH3 0x2DB JUMPI SWAP2 PUSH1 0x20 MUL DUP3 ADD JUMPDEST DUP3 DUP2 GT ISZERO PUSH3 0x2DB JUMPI DUP3 MLOAD DUP3 SLOAD PUSH1 0x1 PUSH1 0x1 PUSH1 0xA0 SHL SUB NOT AND PUSH1 0x1 PUSH1 0x1 PUSH1 0xA0 SHL SUB SWAP1 SWAP2 AND OR DUP3 SSTORE PUSH1 0x20 SWAP1 SWAP3 ADD SWAP2 PUSH1 0x1 SWAP1 SWAP2 ADD SWAP1 PUSH3 0x2A4 JUMP JUMPDEST POP PUSH3 0x2E9 SWAP3 SWAP2 POP PUSH3 0x2ED JUMP JUMPDEST POP SWAP1 JUMP JUMPDEST JUMPDEST DUP1 DUP3 GT ISZERO PUSH3 0x2E9 JUMPI PUSH1 0x0 DUP2 SSTORE PUSH1 0x1 ADD PUSH3 0x2EE JUMP JUMPDEST PUSH2 0xC29 DUP1 PUSH3 0x314 PUSH1 0x0 CODECOPY PUSH1 0x0 RETURN INVALID PUSH1 0x80 PUSH1 0x40 MSTORE CALLVALUE DUP1 ISZERO PUSH2 0x10 JUMPI PUSH1 0x0 DUP1 REVERT JUMPDEST POP PUSH1 0x4 CALLDATASIZE LT PUSH2 0xB4 JUMPI PUSH1 0x0 CALLDATALOAD PUSH1 0xE0 SHR DUP1 PUSH4 0x98D5FDCA GT PUSH2 0x71 JUMPI DUP1 PUSH4 0x98D5FDCA EQ PUSH2 0x168 JUMPI DUP1 PUSH4 0xA6C41FEC EQ PUSH2 0x17E JUMPI DUP1 PUSH4 0xAD5C4648 EQ PUSH2 0x191 JUMPI DUP1 PUSH4 0xAF6D1FE4 EQ PUSH2 0x1A4 JUMPI DUP1 PUSH4 0xC54E44EB EQ PUSH2 0x1B7 JUMPI DUP1 PUSH4 0xE0BAB4C4 EQ PUSH2 0x1CA JUMPI PUSH1 0x0 DUP1 REVERT JUMPDEST DUP1 PUSH4 0x1694505E EQ PUSH2 0xB9 JUMPI DUP1 PUSH4 0x24D16C1A EQ PUSH2 0xF1 JUMPI DUP1 PUSH4 0x38C6CDD5 EQ PUSH2 0x104 JUMPI DUP1 PUSH4 0x46FAB9E9 EQ PUSH2 0x11F JUMPI DUP1 PUSH4 0x70B5180D EQ PUSH2 0x132 JUMPI DUP1 PUSH4 0x89A30271 EQ PUSH2 0x155 JUMPI JUMPDEST PUSH1 0x0 DUP1 REVERT JUMPDEST PUSH2 0xD4 PUSH20 0x7A250D5630B4CF539739DF2C5DACB4C659F2488D DUP2 JUMP JUMPDEST PUSH1 0x40 MLOAD PUSH1 0x1 PUSH1 0x1 PUSH1 0xA0 SHL SUB SWAP1 SWAP2 AND DUP2 MSTORE PUSH1 0x20 ADD JUMPDEST PUSH1 0x40 MLOAD DUP1 SWAP2 SUB SWAP1 RETURN JUMPDEST PUSH2 0xD4 PUSH2 0xFF CALLDATASIZE PUSH1 0x4 PUSH2 0xA3D JUMP JUMPDEST PUSH2 0x1DD JUMP JUMPDEST PUSH2 0xD4 PUSH20 0xD9E1CE17F2641F24AE83637AB66A2CCA9C378B9F DUP2 JUMP JUMPDEST PUSH2 0xD4 PUSH2 0x12D CALLDATASIZE PUSH1 0x4 PUSH2 0xA56 JUMP JUMPDEST PUSH2 0x207 JUMP JUMPDEST PUSH2 0x13A PUSH2 0x24B JUMP JUMPDEST PUSH1 0x40 DUP1 MLOAD SWAP4 DUP5 MSTORE PUSH1 0x20 DUP5 ADD SWAP3 SWAP1 SWAP3 MSTORE SWAP1 DUP3 ADD MSTORE PUSH1 0x60 ADD PUSH2 0xE8 JUMP JUMPDEST PUSH1 0x1 SLOAD PUSH2 0xD4 SWAP1 PUSH1 0x1 PUSH1 0x1 PUSH1 0xA0 SHL SUB AND DUP2 JUMP JUMPDEST PUSH2 0x170 PUSH2 0x88F JUMP JUMPDEST PUSH1 0x40 MLOAD SWAP1 DUP2 MSTORE PUSH1 0x20 ADD PUSH2 0xE8 JUMP JUMPDEST PUSH1 0x4 SLOAD PUSH2 0xD4 SWAP1 PUSH1 0x1 PUSH1 0x1 PUSH1 0xA0 SHL SUB AND DUP2 JUMP JUMPDEST PUSH1 0x0 SLOAD PUSH2 0xD4 SWAP1 PUSH1 0x1 PUSH1 0x1 PUSH1 0xA0 SHL SUB AND DUP2 JUMP JUMPDEST PUSH2 0xD4 PUSH2 0x1B2 CALLDATASIZE PUSH1 0x4 PUSH2 0xA3D JUMP JUMPDEST PUSH2 0xA2D JUMP JUMPDEST PUSH1 0x2 SLOAD PUSH2 0xD4 SWAP1 PUSH1 0x1 PUSH1 0x1 PUSH1 0xA0 SHL SUB AND DUP2 JUMP JUMPDEST PUSH1 0x3 SLOAD PUSH2 0xD4 SWAP1 PUSH1 0x1 PUSH1 0x1 PUSH1 0xA0 SHL SUB AND DUP2 JUMP JUMPDEST PUSH1 0x5 DUP2 DUP2 SLOAD DUP2 LT PUSH2 0x1ED JUMPI PUSH1 0x0 DUP1 REVERT JUMPDEST PUSH1 0x0 SWAP2 DUP3 MSTORE PUSH1 0x20 SWAP1 SWAP2 KECCAK256 ADD SLOAD PUSH1 0x1 PUSH1 0x1 PUSH1 0xA0 SHL SUB AND SWAP1 POP DUP2 JUMP JUMPDEST PUSH1 0x7 DUP3 DUP2 SLOAD DUP2 LT PUSH2 0x217 JUMPI PUSH1 0x0 DUP1 REVERT JUMPDEST SWAP1 PUSH1 0x0 MSTORE PUSH1 0x20 PUSH1 0x0 KECCAK256 ADD DUP2 DUP2 SLOAD DUP2 LT PUSH2 0x22F JUMPI PUSH1 0x0 DUP1 REVERT JUMPDEST PUSH1 0x0 SWAP2 DUP3 MSTORE PUSH1 0x20 SWAP1 SWAP2 KECCAK256 ADD SLOAD PUSH1 0x1 PUSH1 0x1 PUSH1 0xA0 SHL SUB AND SWAP2 POP DUP3 SWAP1 POP JUMP JUMPDEST PUSH1 0x0 DUP1 PUSH1 0x0 DUP1 PUSH1 0x0 DUP1 JUMPDEST PUSH1 0x7 SLOAD DUP2 LT ISZERO PUSH2 0x474 JUMPI PUSH1 0x0 JUMPDEST PUSH1 0x5 SLOAD DUP2 LT ISZERO PUSH2 0x461 JUMPI DUP2 PUSH1 0x0 SUB PUSH2 0x35F JUMPI PUSH1 0x0 PUSH1 0x5 DUP3 DUP2 SLOAD DUP2 LT PUSH2 0x289 JUMPI PUSH2 0x289 PUSH2 0xA78 JUMP JUMPDEST PUSH1 0x0 SWAP2 DUP3 MSTORE PUSH1 0x20 SWAP1 SWAP2 KECCAK256 ADD SLOAD PUSH1 0x7 DUP1 SLOAD PUSH1 0x1 PUSH1 0x1 PUSH1 0xA0 SHL SUB SWAP1 SWAP3 AND SWAP2 PUSH4 0xD06CA61F SWAP2 PUSH8 0xDE0B6B3A7640000 SWAP2 DUP8 SWAP1 DUP2 LT PUSH2 0x2C5 JUMPI PUSH2 0x2C5 PUSH2 0xA78 JUMP JUMPDEST SWAP1 PUSH1 0x0 MSTORE PUSH1 0x20 PUSH1 0x0 KECCAK256 ADD PUSH1 0x40 MLOAD DUP4 PUSH4 0xFFFFFFFF AND PUSH1 0xE0 SHL DUP2 MSTORE PUSH1 0x4 ADD PUSH2 0x2EC SWAP3 SWAP2 SWAP1 PUSH2 0xAD7 JUMP JUMPDEST PUSH1 0x0 PUSH1 0x40 MLOAD DUP1 DUP4 SUB DUP2 DUP7 GAS STATICCALL ISZERO DUP1 ISZERO PUSH2 0x309 JUMPI RETURNDATASIZE PUSH1 0x0 DUP1 RETURNDATACOPY RETURNDATASIZE PUSH1 0x0 REVERT JUMPDEST POP POP POP POP PUSH1 0x40 MLOAD RETURNDATASIZE PUSH1 0x0 DUP3 RETURNDATACOPY PUSH1 0x1F RETURNDATASIZE SWAP1 DUP2 ADD PUSH1 0x1F NOT AND DUP3 ADD PUSH1 0x40 MSTORE PUSH2 0x331 SWAP2 SWAP1 DUP2 ADD SWAP1 PUSH2 0xB0E JUMP JUMPDEST PUSH1 0x1 DUP2 MLOAD DUP2 LT PUSH2 0x343 JUMPI PUSH2 0x343 PUSH2 0xA78 JUMP JUMPDEST PUSH1 0x20 MUL PUSH1 0x20 ADD ADD MLOAD SWAP1 POP DUP4 DUP2 GT ISZERO PUSH2 0x359 JUMPI DUP1 SWAP4 POP JUMPDEST POP PUSH2 0x44F JUMP JUMPDEST PUSH1 0x0 PUSH1 0x5 DUP3 DUP2 SLOAD DUP2 LT PUSH2 0x374 JUMPI PUSH2 0x374 PUSH2 0xA78 JUMP JUMPDEST PUSH1 0x0 SWAP2 DUP3 MSTORE PUSH1 0x20 SWAP1 SWAP2 KECCAK256 ADD SLOAD PUSH1 0x7 DUP1 SLOAD PUSH1 0x1 PUSH1 0x1 PUSH1 0xA0 SHL SUB SWAP1 SWAP3 AND SWAP2 PUSH4 0xD06CA61F SWAP2 DUP8 SWAP2 DUP8 SWAP1 DUP2 LT PUSH2 0x3A8 JUMPI PUSH2 0x3A8 PUSH2 0xA78 JUMP JUMPDEST SWAP1 PUSH1 0x0 MSTORE PUSH1 0x20 PUSH1 0x0 KECCAK256 ADD PUSH1 0x40 MLOAD DUP4 PUSH4 0xFFFFFFFF AND PUSH1 0xE0 SHL DUP2 MSTORE PUSH1 0x4 ADD PUSH2 0x3CF SWAP3 SWAP2 SWAP1 PUSH2 0xAD7 JUMP JUMPDEST PUSH1 0x0 PUSH1 0x40 MLOAD DUP1 DUP4 SUB DUP2 DUP7 GAS STATICCALL ISZERO DUP1 ISZERO PUSH2 0x3EC JUMPI RETURNDATASIZE PUSH1 0x0 DUP1 RETURNDATACOPY RETURNDATASIZE PUSH1 0x0 REVERT JUMPDEST POP POP POP POP PUSH1 0x40 MLOAD RETURNDATASIZE PUSH1 0x0 DUP3 RETURNDATACOPY PUSH1 0x1F RETURNDATASIZE SWAP1 DUP2 ADD PUSH1 0x1F NOT AND DUP3 ADD PUSH1 0x40 MSTORE PUSH2 0x414 SWAP2 SWAP1 DUP2 ADD SWAP1 PUSH2 0xB0E JUMP JUMPDEST PUSH1 0x1 DUP2 MLOAD DUP2 LT PUSH2 0x426 JUMPI PUSH2 0x426 PUSH2 0xA78 JUMP JUMPDEST PUSH1 0x20 MUL PUSH1 0x20 ADD ADD MLOAD SWAP1 POP DUP4 DUP2 GT ISZERO PUSH2 0x441 JUMPI SWAP3 SWAP4 POP DUP3 PUSH2 0x44D JUMP JUMPDEST DUP4 DUP2 GT ISZERO PUSH2 0x44D JUMPI DUP4 SWAP5 POP JUMPDEST POP JUMPDEST DUP1 PUSH2 0x459 DUP2 PUSH2 0xBCC JUMP JUMPDEST SWAP2 POP POP PUSH2 0x262 JUMP JUMPDEST POP DUP1 PUSH2 0x46C DUP2 PUSH2 0xBCC JUMP JUMPDEST SWAP2 POP POP PUSH2 0x255 JUMP JUMPDEST POP PUSH1 0x0 PUSH1 0x5 PUSH1 0x1 DUP2 SLOAD DUP2 LT PUSH2 0x48B JUMPI PUSH2 0x48B PUSH2 0xA78 JUMP JUMPDEST PUSH1 0x0 SWAP2 DUP3 MSTORE PUSH1 0x20 DUP3 KECCAK256 ADD SLOAD PUSH1 0x7 DUP1 SLOAD PUSH1 0x1 PUSH1 0x1 PUSH1 0xA0 SHL SUB SWAP1 SWAP3 AND SWAP3 PUSH4 0xD06CA61F SWAP3 PUSH8 0xDE0B6B3A7640000 SWAP3 SWAP2 SWAP1 PUSH2 0x4C4 JUMPI PUSH2 0x4C4 PUSH2 0xA78 JUMP JUMPDEST SWAP1 PUSH1 0x0 MSTORE PUSH1 0x20 PUSH1 0x0 KECCAK256 ADD PUSH1 0x40 MLOAD DUP4 PUSH4 0xFFFFFFFF AND PUSH1 0xE0 SHL DUP2 MSTORE PUSH1 0x4 ADD PUSH2 0x4EB SWAP3 SWAP2 SWAP1 PUSH2 0xAD7 JUMP JUMPDEST PUSH1 0x0 PUSH1 0x40 MLOAD DUP1 DUP4 SUB DUP2 DUP7 GAS STATICCALL ISZERO DUP1 ISZERO PUSH2 0x508 JUMPI RETURNDATASIZE PUSH1 0x0 DUP1 RETURNDATACOPY RETURNDATASIZE PUSH1 0x0 REVERT JUMPDEST POP POP POP POP PUSH1 0x40 MLOAD RETURNDATASIZE PUSH1 0x0 DUP3 RETURNDATACOPY PUSH1 0x1F RETURNDATASIZE SWAP1 DUP2 ADD PUSH1 0x1F NOT AND DUP3 ADD PUSH1 0x40 MSTORE PUSH2 0x530 SWAP2 SWAP1 DUP2 ADD SWAP1 PUSH2 0xB0E JUMP JUMPDEST PUSH1 0x1 DUP2 MLOAD DUP2 LT PUSH2 0x542 JUMPI PUSH2 0x542 PUSH2 0xA78 JUMP JUMPDEST PUSH1 0x20 MUL PUSH1 0x20 ADD ADD MLOAD SWAP1 POP PUSH1 0x0 PUSH1 0x5 PUSH1 0x1 DUP2 SLOAD DUP2 LT PUSH2 0x562 JUMPI PUSH2 0x562 PUSH2 0xA78 JUMP JUMPDEST PUSH1 0x0 SWAP2 DUP3 MSTORE PUSH1 0x20 SWAP1 SWAP2 KECCAK256 ADD SLOAD PUSH1 0x7 DUP1 SLOAD PUSH1 0x1 PUSH1 0x1 PUSH1 0xA0 SHL SUB SWAP1 SWAP3 AND SWAP2 PUSH4 0xD06CA61F SWAP2 DUP6 SWAP2 PUSH1 0x1 SWAP1 DUP2 LT PUSH2 0x597 JUMPI PUSH2 0x597 PUSH2 0xA78 JUMP JUMPDEST SWAP1 PUSH1 0x0 MSTORE PUSH1 0x20 PUSH1 0x0 KECCAK256 ADD PUSH1 0x40 MLOAD DUP4 PUSH4 0xFFFFFFFF AND PUSH1 0xE0 SHL DUP2 MSTORE PUSH1 0x4 ADD PUSH2 0x5BE SWAP3 SWAP2 SWAP1 PUSH2 0xAD7 JUMP JUMPDEST PUSH1 0x0 PUSH1 0x40 MLOAD DUP1 DUP4 SUB DUP2 DUP7 GAS STATICCALL ISZERO DUP1 ISZERO PUSH2 0x5DB JUMPI RETURNDATASIZE PUSH1 0x0 DUP1 RETURNDATACOPY RETURNDATASIZE PUSH1 0x0 REVERT JUMPDEST POP POP POP POP PUSH1 0x40 MLOAD RETURNDATASIZE PUSH1 0x0 DUP3 RETURNDATACOPY PUSH1 0x1F RETURNDATASIZE SWAP1 DUP2 ADD PUSH1 0x1F NOT AND DUP3 ADD PUSH1 0x40 MSTORE PUSH2 0x603 SWAP2 SWAP1 DUP2 ADD SWAP1 PUSH2 0xB0E JUMP JUMPDEST PUSH1 0x1 DUP2 MLOAD DUP2 LT PUSH2 0x615 JUMPI PUSH2 0x615 PUSH2 0xA78 JUMP JUMPDEST PUSH1 0x20 MUL PUSH1 0x20 ADD ADD MLOAD SWAP1 POP PUSH1 0x0 PUSH1 0x5 PUSH1 0x1 DUP2 SLOAD DUP2 LT PUSH2 0x635 JUMPI PUSH2 0x635 PUSH2 0xA78 JUMP JUMPDEST PUSH1 0x0 SWAP2 DUP3 MSTORE PUSH1 0x20 SWAP1 SWAP2 KECCAK256 ADD SLOAD PUSH1 0x7 DUP1 SLOAD PUSH1 0x1 PUSH1 0x1 PUSH1 0xA0 SHL SUB SWAP1 SWAP3 AND SWAP2 PUSH4 0xD06CA61F SWAP2 DUP6 SWAP2 PUSH1 0x2 SWAP1 DUP2 LT PUSH2 0x66A JUMPI PUSH2 0x66A PUSH2 0xA78 JUMP JUMPDEST SWAP1 PUSH1 0x0 MSTORE PUSH1 0x20 PUSH1 0x0 KECCAK256 ADD PUSH1 0x40 MLOAD DUP4 PUSH4 0xFFFFFFFF AND PUSH1 0xE0 SHL DUP2 MSTORE PUSH1 0x4 ADD PUSH2 0x691 SWAP3 SWAP2 SWAP1 PUSH2 0xAD7 JUMP JUMPDEST PUSH1 0x0 PUSH1 0x40 MLOAD DUP1 DUP4 SUB DUP2 DUP7 GAS STATICCALL ISZERO DUP1 ISZERO PUSH2 0x6AE JUMPI RETURNDATASIZE PUSH1 0x0 DUP1 RETURNDATACOPY RETURNDATASIZE PUSH1 0x0 REVERT JUMPDEST POP POP POP POP PUSH1 0x40 MLOAD RETURNDATASIZE PUSH1 0x0 DUP3 RETURNDATACOPY PUSH1 0x1F RETURNDATASIZE SWAP1 DUP2 ADD PUSH1 0x1F NOT AND DUP3 ADD PUSH1 0x40 MSTORE PUSH2 0x6D6 SWAP2 SWAP1 DUP2 ADD SWAP1 PUSH2 0xB0E JUMP JUMPDEST PUSH1 0x1 DUP2 MLOAD DUP2 LT PUSH2 0x6E8 JUMPI PUSH2 0x6E8 PUSH2 0xA78 JUMP JUMPDEST PUSH1 0x20 MUL PUSH1 0x20 ADD ADD MLOAD SWAP1 POP PUSH1 0x0 PUSH1 0x5 PUSH1 0x1 DUP2 SLOAD DUP2 LT PUSH2 0x708 JUMPI PUSH2 0x708 PUSH2 0xA78 JUMP JUMPDEST PUSH1 0x0 SWAP2 DUP3 MSTORE PUSH1 0x20 SWAP1 SWAP2 KECCAK256 ADD SLOAD PUSH1 0x7 DUP1 SLOAD PUSH1 0x1 PUSH1 0x1 PUSH1 0xA0 SHL SUB SWAP1 SWAP3 AND SWAP2 PUSH4 0xD06CA61F SWAP2 DUP6 SWAP2 PUSH1 0x3 SWAP1 DUP2 LT PUSH2 0x73D JUMPI PUSH2 0x73D PUSH2 0xA78 JUMP JUMPDEST SWAP1 PUSH1 0x0 MSTORE PUSH1 0x20 PUSH1 0x0 KECCAK256 ADD PUSH1 0x40 MLOAD DUP4 PUSH4 0xFFFFFFFF AND PUSH1 0xE0 SHL DUP2 MSTORE PUSH1 0x4 ADD PUSH2 0x764 SWAP3 SWAP2 SWAP1 PUSH2 0xAD7 JUMP JUMPDEST PUSH1 0x0 PUSH1 0x40 MLOAD DUP1 DUP4 SUB DUP2 DUP7 GAS STATICCALL ISZERO DUP1 ISZERO PUSH2 0x781 JUMPI RETURNDATASIZE PUSH1 0x0 DUP1 RETURNDATACOPY RETURNDATASIZE PUSH1 0x0 REVERT JUMPDEST POP POP POP POP PUSH1 0x40 MLOAD RETURNDATASIZE PUSH1 0x0 DUP3 RETURNDATACOPY PUSH1 0x1F RETURNDATASIZE SWAP1 DUP2 ADD PUSH1 0x1F NOT AND DUP3 ADD PUSH1 0x40 MSTORE PUSH2 0x7A9 SWAP2 SWAP1 DUP2 ADD SWAP1 PUSH2 0xB0E JUMP JUMPDEST PUSH1 0x1 DUP2 MLOAD DUP2 LT PUSH2 0x7BB JUMPI PUSH2 0x7BB PUSH2 0xA78 JUMP JUMPDEST PUSH1 0x20 MUL PUSH1 0x20 ADD ADD MLOAD SWAP1 POP DUP6 DUP2 PUSH1 0x5 PUSH1 0x1 DUP2 SLOAD DUP2 LT PUSH2 0x7DB JUMPI PUSH2 0x7DB PUSH2 0xA78 JUMP JUMPDEST PUSH1 0x0 SWAP2 DUP3 MSTORE PUSH1 0x20 SWAP1 SWAP2 KECCAK256 ADD SLOAD PUSH1 0x40 MLOAD PUSH4 0xD06CA61F PUSH1 0xE0 SHL DUP2 MSTORE PUSH1 0x1 PUSH1 0x1 PUSH1 0xA0 SHL SUB SWAP1 SWAP2 AND SWAP1 PUSH4 0xD06CA61F SWAP1 PUSH2 0x81F SWAP1 PUSH8 0xDE0B6B3A7640000 SWAP1 PUSH1 0x6 SWAP1 PUSH1 0x4 ADD PUSH2 0xAD7 JUMP JUMPDEST PUSH1 0x0 PUSH1 0x40 MLOAD DUP1 DUP4 SUB DUP2 DUP7 GAS STATICCALL ISZERO DUP1 ISZERO PUSH2 0x83C JUMPI RETURNDATASIZE PUSH1 0x0 DUP1 RETURNDATACOPY RETURNDATASIZE PUSH1 0x0 REVERT JUMPDEST POP POP POP POP PUSH1 0x40 MLOAD RETURNDATASIZE PUSH1 0x0 DUP3 RETURNDATACOPY PUSH1 0x1F RETURNDATASIZE SWAP1 DUP2 ADD PUSH1 0x1F NOT AND DUP3 ADD PUSH1 0x40 MSTORE PUSH2 0x864 SWAP2 SWAP1 DUP2 ADD SWAP1 PUSH2 0xB0E JUMP JUMPDEST PUSH1 0x1 DUP2 MLOAD DUP2 LT PUSH2 0x876 JUMPI PUSH2 0x876 PUSH2 0xA78 JUMP JUMPDEST PUSH1 0x20 MUL PUSH1 0x20 ADD ADD MLOAD SWAP9 POP SWAP9 POP SWAP9 POP POP POP POP POP POP POP SWAP1 SWAP2 SWAP3 JUMP JUMPDEST PUSH1 0x0 DUP1 PUSH1 0x0 JUMPDEST PUSH1 0x6 SLOAD DUP2 LT ISZERO PUSH2 0xA27 JUMPI DUP2 PUSH1 0x5 DUP3 DUP2 SLOAD DUP2 LT PUSH2 0x8B3 JUMPI PUSH2 0x8B3 PUSH2 0xA78 JUMP JUMPDEST PUSH1 0x0 SWAP2 DUP3 MSTORE PUSH1 0x20 SWAP1 SWAP2 KECCAK256 ADD SLOAD PUSH1 0x40 MLOAD PUSH4 0xD06CA61F PUSH1 0xE0 SHL DUP2 MSTORE PUSH1 0x1 PUSH1 0x1 PUSH1 0xA0 SHL SUB SWAP1 SWAP2 AND SWAP1 PUSH4 0xD06CA61F SWAP1 PUSH2 0x8F7 SWAP1 PUSH8 0xDE0B6B3A7640000 SWAP1 PUSH1 0x6 SWAP1 PUSH1 0x4 ADD PUSH2 0xAD7 JUMP JUMPDEST PUSH1 0x0 PUSH1 0x40 MLOAD DUP1 DUP4 SUB DUP2 DUP7 GAS STATICCALL ISZERO DUP1 ISZERO PUSH2 0x914 JUMPI RETURNDATASIZE PUSH1 0x0 DUP1 RETURNDATACOPY RETURNDATASIZE PUSH1 0x0 REVERT JUMPDEST POP POP POP POP PUSH1 0x40 MLOAD RETURNDATASIZE PUSH1 0x0 DUP3 RETURNDATACOPY PUSH1 0x1F RETURNDATASIZE SWAP1 DUP2 ADD PUSH1 0x1F NOT AND DUP3 ADD PUSH1 0x40 MSTORE PUSH2 0x93C SWAP2 SWAP1 DUP2 ADD SWAP1 PUSH2 0xB0E JUMP JUMPDEST PUSH1 0x1 DUP2 MLOAD DUP2 LT PUSH2 0x94E JUMPI PUSH2 0x94E PUSH2 0xA78 JUMP JUMPDEST PUSH1 0x20 MUL PUSH1 0x20 ADD ADD MLOAD GT ISZERO PUSH2 0xA15 JUMPI PUSH1 0x5 DUP2 DUP2 SLOAD DUP2 LT PUSH2 0x96F JUMPI PUSH2 0x96F PUSH2 0xA78 JUMP JUMPDEST PUSH1 0x0 SWAP2 DUP3 MSTORE PUSH1 0x20 SWAP1 SWAP2 KECCAK256 ADD SLOAD PUSH1 0x40 MLOAD PUSH4 0xD06CA61F PUSH1 0xE0 SHL DUP2 MSTORE PUSH1 0x1 PUSH1 0x1 PUSH1 0xA0 SHL SUB SWAP1 SWAP2 AND SWAP1 PUSH4 0xD06CA61F SWAP1 PUSH2 0x9B3 SWAP1 PUSH8 0xDE0B6B3A7640000 SWAP1 PUSH1 0x6 SWAP1 PUSH1 0x4 ADD PUSH2 0xAD7 JUMP JUMPDEST PUSH1 0x0 PUSH1 0x40 MLOAD DUP1 DUP4 SUB DUP2 DUP7 GAS STATICCALL ISZERO DUP1 ISZERO PUSH2 0x9D0 JUMPI RETURNDATASIZE PUSH1 0x0 DUP1 RETURNDATACOPY RETURNDATASIZE PUSH1 0x0 REVERT JUMPDEST POP POP POP POP PUSH1 0x40 MLOAD RETURNDATASIZE PUSH1 0x0 DUP3 RETURNDATACOPY PUSH1 0x1F RETURNDATASIZE SWAP1 DUP2 ADD PUSH1 0x1F NOT AND DUP3 ADD PUSH1 0x40 MSTORE PUSH2 0x9F8 SWAP2 SWAP1 DUP2 ADD SWAP1 PUSH2 0xB0E JUMP JUMPDEST PUSH1 0x1 DUP2 MLOAD DUP2 LT PUSH2 0xA0A JUMPI PUSH2 0xA0A PUSH2 0xA78 JUMP JUMPDEST PUSH1 0x20 MUL PUSH1 0x20 ADD ADD MLOAD SWAP2 POP JUMPDEST DUP1 PUSH2 0xA1F DUP2 PUSH2 0xBCC JUMP JUMPDEST SWAP2 POP POP PUSH2 0x895 JUMP JUMPDEST POP SWAP2 SWAP1 POP JUMP JUMPDEST PUSH1 0x6 DUP2 DUP2 SLOAD DUP2 LT PUSH2 0x1ED JUMPI PUSH1 0x0 DUP1 REVERT JUMPDEST PUSH1 0x0 PUSH1 0x20 DUP3 DUP5 SUB SLT ISZERO PUSH2 0xA4F JUMPI PUSH1 0x0 DUP1 REVERT JUMPDEST POP CALLDATALOAD SWAP2 SWAP1 POP JUMP JUMPDEST PUSH1 0x0 DUP1 PUSH1 0x40 DUP4 DUP6 SUB SLT ISZERO PUSH2 0xA69 JUMPI PUSH1 0x0 DUP1 REVERT JUMPDEST POP POP DUP1 CALLDATALOAD SWAP3 PUSH1 0x20 SWAP1 SWAP2 ADD CALLDATALOAD SWAP2 POP JUMP JUMPDEST PUSH4 0x4E487B71 PUSH1 0xE0 SHL PUSH1 0x0 MSTORE PUSH1 0x32 PUSH1 0x4 MSTORE PUSH1 0x24 PUSH1 0x0 REVERT JUMPDEST PUSH1 0x0 DUP2 SLOAD DUP1 DUP5 MSTORE PUSH1 0x20 DUP1 DUP6 ADD SWAP5 POP DUP4 PUSH1 0x0 MSTORE DUP1 PUSH1 0x0 KECCAK256 PUSH1 0x0 JUMPDEST DUP4 DUP2 LT ISZERO PUSH2 0xACC JUMPI DUP2 SLOAD PUSH1 0x1 PUSH1 0x1 PUSH1 0xA0 SHL SUB AND DUP8 MSTORE SWAP6 DUP3 ADD SWAP6 PUSH1 0x1 SWAP2 DUP3 ADD SWAP2 ADD PUSH2 0xAA7 JUMP JUMPDEST POP SWAP5 SWAP6 SWAP5 POP POP POP POP POP JUMP JUMPDEST DUP3 DUP2 MSTORE PUSH1 0x40 PUSH1 0x20 DUP3 ADD MSTORE PUSH1 0x0 PUSH2 0xAF0 PUSH1 0x40 DUP4 ADD DUP5 PUSH2 0xA8E JUMP JUMPDEST SWAP5 SWAP4 POP POP POP POP JUMP JUMPDEST PUSH4 0x4E487B71 PUSH1 0xE0 SHL PUSH1 0x0 MSTORE PUSH1 0x41 PUSH1 0x4 MSTORE PUSH1 0x24 PUSH1 0x0 REVERT JUMPDEST PUSH1 0x0 PUSH1 0x20 DUP1 DUP4 DUP6 SUB SLT ISZERO PUSH2 0xB21 JUMPI PUSH1 0x0 DUP1 REVERT JUMPDEST DUP3 MLOAD PUSH8 0xFFFFFFFFFFFFFFFF DUP1 DUP3 GT ISZERO PUSH2 0xB39 JUMPI PUSH1 0x0 DUP1 REVERT JUMPDEST DUP2 DUP6 ADD SWAP2 POP DUP6 PUSH1 0x1F DUP4 ADD SLT PUSH2 0xB4D JUMPI PUSH1 0x0 DUP1 REVERT JUMPDEST DUP2 MLOAD DUP2 DUP2 GT ISZERO PUSH2 0xB5F JUMPI PUSH2 0xB5F PUSH2 0xAF8 JUMP JUMPDEST DUP1 PUSH1 0x5 SHL PUSH1 0x40 MLOAD PUSH1 0x1F NOT PUSH1 0x3F DUP4 ADD AND DUP2 ADD DUP2 DUP2 LT DUP6 DUP3 GT OR ISZERO PUSH2 0xB84 JUMPI PUSH2 0xB84 PUSH2 0xAF8 JUMP JUMPDEST PUSH1 0x40 MSTORE SWAP2 DUP3 MSTORE DUP5 DUP3 ADD SWAP3 POP DUP4 DUP2 ADD DUP6 ADD SWAP2 DUP9 DUP4 GT ISZERO PUSH2 0xBA2 JUMPI PUSH1 0x0 DUP1 REVERT JUMPDEST SWAP4 DUP6 ADD SWAP4 JUMPDEST DUP3 DUP6 LT ISZERO PUSH2 0xBC0 JUMPI DUP5 MLOAD DUP5 MSTORE SWAP4 DUP6 ADD SWAP4 SWAP3 DUP6 ADD SWAP3 PUSH2 0xBA7 JUMP JUMPDEST SWAP9 SWAP8 POP POP POP POP POP POP POP POP JUMP JUMPDEST PUSH1 0x0 PUSH1 0x1 DUP3 ADD PUSH2 0xBEC JUMPI PUSH4 0x4E487B71 PUSH1 0xE0 SHL PUSH1 0x0 MSTORE PUSH1 0x11 PUSH1 0x4 MSTORE PUSH1 0x24 PUSH1 0x0 REVERT JUMPDEST POP PUSH1 0x1 ADD SWAP1 JUMP INVALID LOG2 PUSH5 0x6970667358 0x22 SLT KECCAK256 DUP9 DUP4 0xFC 0xAF SMOD 0xB1 PUSH7 0x21278169ABE560 0x5D 0xE SWAP13 0xB7 PUSH8 0x78AE1DBD0A048106 0xBD 0xDC 0xD2 PUSH15 0x164736F6C63430008120033A66CC9 0x28 0xB5 0xED 0xB8 0x2A 0xF9 0xBD 0x49 SWAP3 0x29 SLOAD ISZERO GAS 0xB7 0xB0 SWAP5 0x26 SWAP5 0xBE LOG4 0xCE PREVRANDAO PUSH7 0x1D9A8736C68800 "
		},
		"gasEstimates": {
			"creation": {
				"codeDepositCost": "622600",
				"executionCost": "infinite",
				"totalCost": "infinite"
			},
			"external": {
				"DAI()": "2436",
				"OHM()": "2348",
				"USDC()": "2437",
				"USDT()": "2414",
				"WETH()": "2370",
				"allPath(uint256,uint256)": "6878",
				"dex(uint256)": "4626",
				"getBestPriceWithPaths()": "infinite",
				"getPrice()": "infinite",
				"path(uint256)": "4669",
				"sushiswapV2Router()": "250",
				"uniswapV2Router()": "206"
			}
		},
		"methodIdentifiers": {
			"DAI()": "e0bab4c4",
			"OHM()": "a6c41fec",
			"USDC()": "89a30271",
			"USDT()": "c54e44eb",
			"WETH()": "ad5c4648",
			"allPath(uint256,uint256)": "46fab9e9",
			"dex(uint256)": "24d16c1a",
			"getBestPriceWithPaths()": "70b5180d",
			"getPrice()": "98d5fdca",
			"path(uint256)": "af6d1fe4",
			"sushiswapV2Router()": "38c6cdd5",
			"uniswapV2Router()": "1694505e"
		}
	},
	"abi": [
		{
			"inputs": [],
			"stateMutability": "nonpayable",
			"type": "constructor"
		},
		{
			"inputs": [],
			"name": "DAI",
			"outputs": [
				{
					"internalType": "address",
					"name": "",
					"type": "address"
				}
			],
			"stateMutability": "view",
			"type": "function"
		},
		{
			"inputs": [],
			"name": "OHM",
			"outputs": [
				{
					"internalType": "address",
					"name": "",
					"type": "address"
				}
			],
			"stateMutability": "view",
			"type": "function"
		},
		{
			"inputs": [],
			"name": "USDC",
			"outputs": [
				{
					"internalType": "address",
					"name": "",
					"type": "address"
				}
			],
			"stateMutability": "view",
			"type": "function"
		},
		{
			"inputs": [],
			"name": "USDT",
			"outputs": [
				{
					"internalType": "address",
					"name": "",
					"type": "address"
				}
			],
			"stateMutability": "view",
			"type": "function"
		},
		{
			"inputs": [],
			"name": "WETH",
			"outputs": [
				{
					"internalType": "address",
					"name": "",
					"type": "address"
				}
			],
			"stateMutability": "view",
			"type": "function"
		},
		{
			"inputs": [
				{
					"internalType": "uint256",
					"name": "",
					"type": "uint256"
				},
				{
					"internalType": "uint256",
					"name": "",
					"type": "uint256"
				}
			],
			"name": "allPath",
			"outputs": [
				{
					"internalType": "address",
					"name": "",
					"type": "address"
				}
			],
			"stateMutability": "view",
			"type": "function"
		},
		{
			"inputs": [
				{
					"internalType": "uint256",
					"name": "",
					"type": "uint256"
				}
			],
			"name": "dex",
			"outputs": [
				{
					"internalType": "address",
					"name": "",
					"type": "address"
				}
			],
			"stateMutability": "view",
			"type": "function"
		},
		{
			"inputs": [],
			"name": "getBestPriceWithPaths",
			"outputs": [
				{
					"internalType": "uint256",
					"name": "",
					"type": "uint256"
				},
				{
					"internalType": "uint256",
					"name": "",
					"type": "uint256"
				},
				{
					"internalType": "uint256",
					"name": "",
					"type": "uint256"
				}
			],
			"stateMutability": "view",
			"type": "function"
		},
		{
			"inputs": [],
			"name": "getPrice",
			"outputs": [
				{
					"internalType": "uint256",
					"name": "",
					"type": "uint256"
				}
			],
			"stateMutability": "view",
			"type": "function"
		},
		{
			"inputs": [
				{
					"internalType": "uint256",
					"name": "",
					"type": "uint256"
				}
			],
			"name": "path",
			"outputs": [
				{
					"internalType": "address",
					"name": "",
					"type": "address"
				}
			],
			"stateMutability": "view",
			"type": "function"
		},
		{
			"inputs": [],
			"name": "sushiswapV2Router",
			"outputs": [
				{
					"internalType": "address",
					"name": "",
					"type": "address"
				}
			],
			"stateMutability": "view",
			"type": "function"
		},
		{
			"inputs": [],
			"name": "uniswapV2Router",
			"outputs": [
				{
					"internalType": "address",
					"name": "",
					"type": "address"
				}
			],
			"stateMutability": "view",
			"type": "function"
		}
	]
}