{
	"data": {
		"bytecode": {
			"linkReferences": {},
			"object": "608060405234801561001057600080fd5b50615f8680620000216000396000f3fe608060405234801561001057600080fd5b50600436106100415760003560e01c80631694505e1461004657806338c6cdd5146100785780637f63db5b14610093575b600080fd5b61005b600080516020615f3183398151915281565b6040516001600160a01b0390911681526020015b60405180910390f35b61005b73d9e1ce17f2641f24ae83637ab66a2cca9c378b9f81565b6100a66100a1366004615d63565b6100b3565b60405161006f9190615e0f565b60405163d06ca61f60e01b8152606090600090600080516020615f318339815191529063d06ca61f906100f490670de0b6b3a7640000908790600401615e53565b600060405180830381865afa158015610111573d6000803e3d6000fd5b505050506040513d6000823e601f3d908101601f191682016040526101399190810190615eaa565b60405163d06ca61f60e01b8152909150600080516020615f318339815191529063d06ca61f9061017790670de0b6b3a7640000908790600401615e53565b600060405180830381865afa158015610194573d6000803e3d6000fd5b505050506040513d6000823e601f3d908101601f191682016040526101bc9190810190615eaa565b5060405163d06ca61f60e01b8152600080516020615f318339815191529063d06ca61f906101f890670de0b6b3a7640000908790600401615e53565b600060405180830381865afa158015610215573d6000803e3d6000fd5b505050506040513d6000823e601f3d908101601f1916820160405261023d9190810190615eaa565b5060405163d06ca61f60e01b8152600080516020615f318339815191529063d06ca61f9061027990670de0b6b3a7640000908790600401615e53565b600060405180830381865afa158015610296573d6000803e3d6000fd5b505050506040513d6000823e601f3d908101601f191682016040526102be9190810190615eaa565b5060405163d06ca61f60e01b8152600080516020615f318339815191529063d06ca61f906102fa90670de0b6b3a7640000908790600401615e53565b600060405180830381865afa158015610317573d6000803e3d6000fd5b505050506040513d6000823e601f3d908101601f1916820160405261033f9190810190615eaa565b5060405163d06ca61f60e01b8152600080516020615f318339815191529063d06ca61f9061037b90670de0b6b3a7640000908790600401615e53565b600060405180830381865afa158015610398573d6000803e3d6000fd5b505050506040513d6000823e601f3d908101601f191682016040526103c09190810190615eaa565b5060405163d06ca61f60e01b8152600080516020615f318339815191529063d06ca61f906103fc90670de0b6b3a7640000908790600401615e53565b600060405180830381865afa158015610419573d6000803e3d6000fd5b505050506040513d6000823e601f3d908101601f191682016040526104419190810190615eaa565b5060405163d06ca61f60e01b8152600080516020615f318339815191529063d06ca61f9061047d90670de0b6b3a7640000908790600401615e53565b600060405180830381865afa15801561049a573d6000803e3d6000fd5b505050506040513d6000823e601f3d908101601f191682016040526104c29190810190615eaa565b5060405163d06ca61f60e01b8152600080516020615f318339815191529063d06ca61f906104fe90670de0b6b3a7640000908790600401615e53565b600060405180830381865afa15801561051b573d6000803e3d6000fd5b505050506040513d6000823e601f3d908101601f191682016040526105439190810190615eaa565b5060405163d06ca61f60e01b8152600080516020615f318339815191529063d06ca61f9061057f90670de0b6b3a7640000908790600401615e53565b600060405180830381865afa15801561059c573d6000803e3d6000fd5b505050506040513d6000823e601f3d908101601f191682016040526105c49190810190615eaa565b5060405163d06ca61f60e01b8152600080516020615f318339815191529063d06ca61f9061060090670de0b6b3a7640000908790600401615e53565b600060405180830381865afa15801561061d573d6000803e3d6000fd5b505050506040513d6000823e601f3d908101601f191682016040526106459190810190615eaa565b5060405163d06ca61f60e01b8152600080516020615f318339815191529063d06ca61f9061068190670de0b6b3a7640000908790600401615e53565b600060405180830381865afa15801561069e573d6000803e3d6000fd5b505050506040513d6000823e601f3d908101601f191682016040526106c69190810190615eaa565b5060405163d06ca61f60e01b8152600080516020615f318339815191529063d06ca61f9061070290670de0b6b3a7640000908790600401615e53565b600060405180830381865afa15801561071f573d6000803e3d6000fd5b505050506040513d6000823e601f3d908101601f191682016040526107479190810190615eaa565b5060405163d06ca61f60e01b8152600080516020615f318339815191529063d06ca61f9061078390670de0b6b3a7640000908790600401615e53565b600060405180830381865afa1580156107a0573d6000803e3d6000fd5b505050506040513d6000823e601f3d908101601f191682016040526107c89190810190615eaa565b5060405163d06ca61f60e01b8152600080516020615f318339815191529063d06ca61f9061080490670de0b6b3a7640000908790600401615e53565b600060405180830381865afa158015610821573d6000803e3d6000fd5b505050506040513d6000823e601f3d908101601f191682016040526108499190810190615eaa565b5060405163d06ca61f60e01b8152600080516020615f318339815191529063d06ca61f9061088590670de0b6b3a7640000908790600401615e53565b600060405180830381865afa1580156108a2573d6000803e3d6000fd5b505050506040513d6000823e601f3d908101601f191682016040526108ca9190810190615eaa565b5060405163d06ca61f60e01b8152600080516020615f318339815191529063d06ca61f9061090690670de0b6b3a7640000908790600401615e53565b600060405180830381865afa158015610923573d6000803e3d6000fd5b505050506040513d6000823e601f3d908101601f1916820160405261094b9190810190615eaa565b5060405163d06ca61f60e01b8152600080516020615f318339815191529063d06ca61f9061098790670de0b6b3a7640000908790600401615e53565b600060405180830381865afa1580156109a4573d6000803e3d6000fd5b505050506040513d6000823e601f3d908101601f191682016040526109cc9190810190615eaa565b5060405163d06ca61f60e01b8152600080516020615f318339815191529063d06ca61f90610a0890670de0b6b3a7640000908790600401615e53565b600060405180830381865afa158015610a25573d6000803e3d6000fd5b505050506040513d6000823e601f3d908101601f19168201604052610a4d9190810190615eaa565b5060405163d06ca61f60e01b8152600080516020615f318339815191529063d06ca61f90610a8990670de0b6b3a7640000908790600401615e53565b600060405180830381865afa158015610aa6573d6000803e3d6000fd5b505050506040513d6000823e601f3d908101601f19168201604052610ace9190810190615eaa565b5060405163d06ca61f60e01b8152600080516020615f318339815191529063d06ca61f90610b0a90670de0b6b3a7640000908790600401615e53565b600060405180830381865afa158015610b27573d6000803e3d6000fd5b505050506040513d6000823e601f3d908101601f19168201604052610b4f9190810190615eaa565b5060405163d06ca61f60e01b8152600080516020615f318339815191529063d06ca61f90610b8b90670de0b6b3a7640000908790600401615e53565b600060405180830381865afa158015610ba8573d6000803e3d6000fd5b505050506040513d6000823e601f3d908101601f19168201604052610bd09190810190615eaa565b5060405163d06ca61f60e01b8152600080516020615f318339815191529063d06ca61f90610c0c90670de0b6b3a7640000908790600401615e53565b600060405180830381865afa158015610c29573d6000803e3d6000fd5b505050506040513d6000823e601f3d908101601f19168201604052610c519190810190615eaa565b5060405163d06ca61f60e01b8152600080516020615f318339815191529063d06ca61f90610c8d90670de0b6b3a7640000908790600401615e53565b600060405180830381865afa158015610caa573d6000803e3d6000fd5b505050506040513d6000823e601f3d908101601f19168201604052610cd29190810190615eaa565b5060405163d06ca61f60e01b8152600080516020615f318339815191529063d06ca61f90610d0e90670de0b6b3a7640000908790600401615e53565b600060405180830381865afa158015610d2b573d6000803e3d6000fd5b505050506040513d6000823e601f3d908101601f19168201604052610d539190810190615eaa565b5060405163d06ca61f60e01b8152600080516020615f318339815191529063d06ca61f90610d8f90670de0b6b3a7640000908790600401615e53565b600060405180830381865afa158015610dac573d6000803e3d6000fd5b505050506040513d6000823e601f3d908101601f19168201604052610dd49190810190615eaa565b5060405163d06ca61f60e01b8152600080516020615f318339815191529063d06ca61f90610e1090670de0b6b3a7640000908790600401615e53565b600060405180830381865afa158015610e2d573d6000803e3d6000fd5b505050506040513d6000823e601f3d908101601f19168201604052610e559190810190615eaa565b5060405163d06ca61f60e01b8152600080516020615f318339815191529063d06ca61f90610e9190670de0b6b3a7640000908790600401615e53565b600060405180830381865afa158015610eae573d6000803e3d6000fd5b505050506040513d6000823e601f3d908101601f19168201604052610ed69190810190615eaa565b5060405163d06ca61f60e01b8152600080516020615f318339815191529063d06ca61f90610f1290670de0b6b3a7640000908790600401615e53565b600060405180830381865afa158015610f2f573d6000803e3d6000fd5b505050506040513d6000823e601f3d908101601f19168201604052610f579190810190615eaa565b5060405163d06ca61f60e01b8152600080516020615f318339815191529063d06ca61f90610f9390670de0b6b3a7640000908790600401615e53565b600060405180830381865afa158015610fb0573d6000803e3d6000fd5b505050506040513d6000823e601f3d908101601f19168201604052610fd89190810190615eaa565b5060405163d06ca61f60e01b8152600080516020615f318339815191529063d06ca61f9061101490670de0b6b3a7640000908790600401615e53565b600060405180830381865afa158015611031573d6000803e3d6000fd5b505050506040513d6000823e601f3d908101601f191682016040526110599190810190615eaa565b5060405163d06ca61f60e01b8152600080516020615f318339815191529063d06ca61f9061109590670de0b6b3a7640000908790600401615e53565b600060405180830381865afa1580156110b2573d6000803e3d6000fd5b505050506040513d6000823e601f3d908101601f191682016040526110da9190810190615eaa565b5060405163d06ca61f60e01b8152600080516020615f318339815191529063d06ca61f9061111690670de0b6b3a7640000908790600401615e53565b600060405180830381865afa158015611133573d6000803e3d6000fd5b505050506040513d6000823e601f3d908101601f1916820160405261115b9190810190615eaa565b5060405163d06ca61f60e01b8152600080516020615f318339815191529063d06ca61f9061119790670de0b6b3a7640000908790600401615e53565b600060405180830381865afa1580156111b4573d6000803e3d6000fd5b505050506040513d6000823e601f3d908101601f191682016040526111dc9190810190615eaa565b5060405163d06ca61f60e01b8152600080516020615f318339815191529063d06ca61f9061121890670de0b6b3a7640000908790600401615e53565b600060405180830381865afa158015611235573d6000803e3d6000fd5b505050506040513d6000823e601f3d908101601f1916820160405261125d9190810190615eaa565b5060405163d06ca61f60e01b8152600080516020615f318339815191529063d06ca61f9061129990670de0b6b3a7640000908790600401615e53565b600060405180830381865afa1580156112b6573d6000803e3d6000fd5b505050506040513d6000823e601f3d908101601f191682016040526112de9190810190615eaa565b5060405163d06ca61f60e01b8152600080516020615f318339815191529063d06ca61f9061131a90670de0b6b3a7640000908790600401615e53565b600060405180830381865afa158015611337573d6000803e3d6000fd5b505050506040513d6000823e601f3d908101601f1916820160405261135f9190810190615eaa565b5060405163d06ca61f60e01b8152600080516020615f318339815191529063d06ca61f9061139b90670de0b6b3a7640000908790600401615e53565b600060405180830381865afa1580156113b8573d6000803e3d6000fd5b505050506040513d6000823e601f3d908101601f191682016040526113e09190810190615eaa565b5060405163d06ca61f60e01b8152600080516020615f318339815191529063d06ca61f9061141c90670de0b6b3a7640000908790600401615e53565b600060405180830381865afa158015611439573d6000803e3d6000fd5b505050506040513d6000823e601f3d908101601f191682016040526114619190810190615eaa565b5060405163d06ca61f60e01b8152600080516020615f318339815191529063d06ca61f9061149d90670de0b6b3a7640000908790600401615e53565b600060405180830381865afa1580156114ba573d6000803e3d6000fd5b505050506040513d6000823e601f3d908101601f191682016040526114e29190810190615eaa565b5060405163d06ca61f60e01b8152600080516020615f318339815191529063d06ca61f9061151e90670de0b6b3a7640000908790600401615e53565b600060405180830381865afa15801561153b573d6000803e3d6000fd5b505050506040513d6000823e601f3d908101601f191682016040526115639190810190615eaa565b5060405163d06ca61f60e01b8152600080516020615f318339815191529063d06ca61f9061159f90670de0b6b3a7640000908790600401615e53565b600060405180830381865afa1580156115bc573d6000803e3d6000fd5b505050506040513d6000823e601f3d908101601f191682016040526115e49190810190615eaa565b5060405163d06ca61f60e01b8152600080516020615f318339815191529063d06ca61f9061162090670de0b6b3a7640000908790600401615e53565b600060405180830381865afa15801561163d573d6000803e3d6000fd5b505050506040513d6000823e601f3d908101601f191682016040526116659190810190615eaa565b5060405163d06ca61f60e01b8152600080516020615f318339815191529063d06ca61f906116a190670de0b6b3a7640000908790600401615e53565b600060405180830381865afa1580156116be573d6000803e3d6000fd5b505050506040513d6000823e601f3d908101601f191682016040526116e69190810190615eaa565b5060405163d06ca61f60e01b8152600080516020615f318339815191529063d06ca61f9061172290670de0b6b3a7640000908790600401615e53565b600060405180830381865afa15801561173f573d6000803e3d6000fd5b505050506040513d6000823e601f3d908101601f191682016040526117679190810190615eaa565b5060405163d06ca61f60e01b8152600080516020615f318339815191529063d06ca61f906117a390670de0b6b3a7640000908790600401615e53565b600060405180830381865afa1580156117c0573d6000803e3d6000fd5b505050506040513d6000823e601f3d908101601f191682016040526117e89190810190615eaa565b5060405163d06ca61f60e01b8152600080516020615f318339815191529063d06ca61f9061182490670de0b6b3a7640000908790600401615e53565b600060405180830381865afa158015611841573d6000803e3d6000fd5b505050506040513d6000823e601f3d908101601f191682016040526118699190810190615eaa565b5060405163d06ca61f60e01b8152600080516020615f318339815191529063d06ca61f906118a590670de0b6b3a7640000908790600401615e53565b600060405180830381865afa1580156118c2573d6000803e3d6000fd5b505050506040513d6000823e601f3d908101601f191682016040526118ea9190810190615eaa565b5060405163d06ca61f60e01b8152600080516020615f318339815191529063d06ca61f9061192690670de0b6b3a7640000908790600401615e53565b600060405180830381865afa158015611943573d6000803e3d6000fd5b505050506040513d6000823e601f3d908101601f1916820160405261196b9190810190615eaa565b5060405163d06ca61f60e01b8152600080516020615f318339815191529063d06ca61f906119a790670de0b6b3a7640000908790600401615e53565b600060405180830381865afa1580156119c4573d6000803e3d6000fd5b505050506040513d6000823e601f3d908101601f191682016040526119ec9190810190615eaa565b5060405163d06ca61f60e01b8152600080516020615f318339815191529063d06ca61f90611a2890670de0b6b3a7640000908790600401615e53565b600060405180830381865afa158015611a45573d6000803e3d6000fd5b505050506040513d6000823e601f3d908101601f19168201604052611a6d9190810190615eaa565b5060405163d06ca61f60e01b8152600080516020615f318339815191529063d06ca61f90611aa990670de0b6b3a7640000908790600401615e53565b600060405180830381865afa158015611ac6573d6000803e3d6000fd5b505050506040513d6000823e601f3d908101601f19168201604052611aee9190810190615eaa565b5060405163d06ca61f60e01b8152600080516020615f318339815191529063d06ca61f90611b2a90670de0b6b3a7640000908790600401615e53565b600060405180830381865afa158015611b47573d6000803e3d6000fd5b505050506040513d6000823e601f3d908101601f19168201604052611b6f9190810190615eaa565b5060405163d06ca61f60e01b8152600080516020615f318339815191529063d06ca61f90611bab90670de0b6b3a7640000908790600401615e53565b600060405180830381865afa158015611bc8573d6000803e3d6000fd5b505050506040513d6000823e601f3d908101601f19168201604052611bf09190810190615eaa565b5060405163d06ca61f60e01b8152600080516020615f318339815191529063d06ca61f90611c2c90670de0b6b3a7640000908790600401615e53565b600060405180830381865afa158015611c49573d6000803e3d6000fd5b505050506040513d6000823e601f3d908101601f19168201604052611c719190810190615eaa565b5060405163d06ca61f60e01b8152600080516020615f318339815191529063d06ca61f90611cad90670de0b6b3a7640000908790600401615e53565b600060405180830381865afa158015611cca573d6000803e3d6000fd5b505050506040513d6000823e601f3d908101601f19168201604052611cf29190810190615eaa565b5060405163d06ca61f60e01b8152600080516020615f318339815191529063d06ca61f90611d2e90670de0b6b3a7640000908790600401615e53565b600060405180830381865afa158015611d4b573d6000803e3d6000fd5b505050506040513d6000823e601f3d908101601f19168201604052611d739190810190615eaa565b5060405163d06ca61f60e01b8152600080516020615f318339815191529063d06ca61f90611daf90670de0b6b3a7640000908790600401615e53565b600060405180830381865afa158015611dcc573d6000803e3d6000fd5b505050506040513d6000823e601f3d908101601f19168201604052611df49190810190615eaa565b5060405163d06ca61f60e01b8152600080516020615f318339815191529063d06ca61f90611e3090670de0b6b3a7640000908790600401615e53565b600060405180830381865afa158015611e4d573d6000803e3d6000fd5b505050506040513d6000823e601f3d908101601f19168201604052611e759190810190615eaa565b5060405163d06ca61f60e01b8152600080516020615f318339815191529063d06ca61f90611eb190670de0b6b3a7640000908790600401615e53565b600060405180830381865afa158015611ece573d6000803e3d6000fd5b505050506040513d6000823e601f3d908101601f19168201604052611ef69190810190615eaa565b5060405163d06ca61f60e01b8152600080516020615f318339815191529063d06ca61f90611f3290670de0b6b3a7640000908790600401615e53565b600060405180830381865afa158015611f4f573d6000803e3d6000fd5b505050506040513d6000823e601f3d908101601f19168201604052611f779190810190615eaa565b5060405163d06ca61f60e01b8152600080516020615f318339815191529063d06ca61f90611fb390670de0b6b3a7640000908790600401615e53565b600060405180830381865afa158015611fd0573d6000803e3d6000fd5b505050506040513d6000823e601f3d908101601f19168201604052611ff89190810190615eaa565b5060405163d06ca61f60e01b8152600080516020615f318339815191529063d06ca61f9061203490670de0b6b3a7640000908790600401615e53565b600060405180830381865afa158015612051573d6000803e3d6000fd5b505050506040513d6000823e601f3d908101601f191682016040526120799190810190615eaa565b5060405163d06ca61f60e01b8152600080516020615f318339815191529063d06ca61f906120b590670de0b6b3a7640000908790600401615e53565b600060405180830381865afa1580156120d2573d6000803e3d6000fd5b505050506040513d6000823e601f3d908101601f191682016040526120fa9190810190615eaa565b5060405163d06ca61f60e01b8152600080516020615f318339815191529063d06ca61f9061213690670de0b6b3a7640000908790600401615e53565b600060405180830381865afa158015612153573d6000803e3d6000fd5b505050506040513d6000823e601f3d908101601f1916820160405261217b9190810190615eaa565b5060405163d06ca61f60e01b8152600080516020615f318339815191529063d06ca61f906121b790670de0b6b3a7640000908790600401615e53565b600060405180830381865afa1580156121d4573d6000803e3d6000fd5b505050506040513d6000823e601f3d908101601f191682016040526121fc9190810190615eaa565b5060405163d06ca61f60e01b8152600080516020615f318339815191529063d06ca61f9061223890670de0b6b3a7640000908790600401615e53565b600060405180830381865afa158015612255573d6000803e3d6000fd5b505050506040513d6000823e601f3d908101601f1916820160405261227d9190810190615eaa565b5060405163d06ca61f60e01b8152600080516020615f318339815191529063d06ca61f906122b990670de0b6b3a7640000908790600401615e53565b600060405180830381865afa1580156122d6573d6000803e3d6000fd5b505050506040513d6000823e601f3d908101601f191682016040526122fe9190810190615eaa565b5060405163d06ca61f60e01b8152600080516020615f318339815191529063d06ca61f9061233a90670de0b6b3a7640000908790600401615e53565b600060405180830381865afa158015612357573d6000803e3d6000fd5b505050506040513d6000823e601f3d908101601f1916820160405261237f9190810190615eaa565b5060405163d06ca61f60e01b8152600080516020615f318339815191529063d06ca61f906123bb90670de0b6b3a7640000908790600401615e53565b600060405180830381865afa1580156123d8573d6000803e3d6000fd5b505050506040513d6000823e601f3d908101601f191682016040526124009190810190615eaa565b5060405163d06ca61f60e01b8152600080516020615f318339815191529063d06ca61f9061243c90670de0b6b3a7640000908790600401615e53565b600060405180830381865afa158015612459573d6000803e3d6000fd5b505050506040513d6000823e601f3d908101601f191682016040526124819190810190615eaa565b5060405163d06ca61f60e01b8152600080516020615f318339815191529063d06ca61f906124bd90670de0b6b3a7640000908790600401615e53565b600060405180830381865afa1580156124da573d6000803e3d6000fd5b505050506040513d6000823e601f3d908101601f191682016040526125029190810190615eaa565b5060405163d06ca61f60e01b8152600080516020615f318339815191529063d06ca61f9061253e90670de0b6b3a7640000908790600401615e53565b600060405180830381865afa15801561255b573d6000803e3d6000fd5b505050506040513d6000823e601f3d908101601f191682016040526125839190810190615eaa565b5060405163d06ca61f60e01b8152600080516020615f318339815191529063d06ca61f906125bf90670de0b6b3a7640000908790600401615e53565b600060405180830381865afa1580156125dc573d6000803e3d6000fd5b505050506040513d6000823e601f3d908101601f191682016040526126049190810190615eaa565b5060405163d06ca61f60e01b8152600080516020615f318339815191529063d06ca61f9061264090670de0b6b3a7640000908790600401615e53565b600060405180830381865afa15801561265d573d6000803e3d6000fd5b505050506040513d6000823e601f3d908101601f191682016040526126859190810190615eaa565b5060405163d06ca61f60e01b8152600080516020615f318339815191529063d06ca61f906126c190670de0b6b3a7640000908790600401615e53565b600060405180830381865afa1580156126de573d6000803e3d6000fd5b505050506040513d6000823e601f3d908101601f191682016040526127069190810190615eaa565b5060405163d06ca61f60e01b8152600080516020615f318339815191529063d06ca61f9061274290670de0b6b3a7640000908790600401615e53565b600060405180830381865afa15801561275f573d6000803e3d6000fd5b505050506040513d6000823e601f3d908101601f191682016040526127879190810190615eaa565b5060405163d06ca61f60e01b8152600080516020615f318339815191529063d06ca61f906127c390670de0b6b3a7640000908790600401615e53565b600060405180830381865afa1580156127e0573d6000803e3d6000fd5b505050506040513d6000823e601f3d908101601f191682016040526128089190810190615eaa565b5060405163d06ca61f60e01b8152600080516020615f318339815191529063d06ca61f9061284490670de0b6b3a7640000908790600401615e53565b600060405180830381865afa158015612861573d6000803e3d6000fd5b505050506040513d6000823e601f3d908101601f191682016040526128899190810190615eaa565b5060405163d06ca61f60e01b8152600080516020615f318339815191529063d06ca61f906128c590670de0b6b3a7640000908790600401615e53565b600060405180830381865afa1580156128e2573d6000803e3d6000fd5b505050506040513d6000823e601f3d908101601f1916820160405261290a9190810190615eaa565b5060405163d06ca61f60e01b8152600080516020615f318339815191529063d06ca61f9061294690670de0b6b3a7640000908790600401615e53565b600060405180830381865afa158015612963573d6000803e3d6000fd5b505050506040513d6000823e601f3d908101601f1916820160405261298b9190810190615eaa565b5060405163d06ca61f60e01b8152600080516020615f318339815191529063d06ca61f906129c790670de0b6b3a7640000908790600401615e53565b600060405180830381865afa1580156129e4573d6000803e3d6000fd5b505050506040513d6000823e601f3d908101601f19168201604052612a0c9190810190615eaa565b5060405163d06ca61f60e01b8152600080516020615f318339815191529063d06ca61f90612a4890670de0b6b3a7640000908790600401615e53565b600060405180830381865afa158015612a65573d6000803e3d6000fd5b505050506040513d6000823e601f3d908101601f19168201604052612a8d9190810190615eaa565b5060405163d06ca61f60e01b8152600080516020615f318339815191529063d06ca61f90612ac990670de0b6b3a7640000908790600401615e53565b600060405180830381865afa158015612ae6573d6000803e3d6000fd5b505050506040513d6000823e601f3d908101601f19168201604052612b0e9190810190615eaa565b5060405163d06ca61f60e01b8152600080516020615f318339815191529063d06ca61f90612b4a90670de0b6b3a7640000908790600401615e53565b600060405180830381865afa158015612b67573d6000803e3d6000fd5b505050506040513d6000823e601f3d908101601f19168201604052612b8f9190810190615eaa565b5060405163d06ca61f60e01b8152600080516020615f318339815191529063d06ca61f90612bcb90670de0b6b3a7640000908790600401615e53565b600060405180830381865afa158015612be8573d6000803e3d6000fd5b505050506040513d6000823e601f3d908101601f19168201604052612c109190810190615eaa565b5060405163d06ca61f60e01b8152600080516020615f318339815191529063d06ca61f90612c4c90670de0b6b3a7640000908790600401615e53565b600060405180830381865afa158015612c69573d6000803e3d6000fd5b505050506040513d6000823e601f3d908101601f19168201604052612c919190810190615eaa565b5060405163d06ca61f60e01b8152600080516020615f318339815191529063d06ca61f90612ccd90670de0b6b3a7640000908790600401615e53565b600060405180830381865afa158015612cea573d6000803e3d6000fd5b505050506040513d6000823e601f3d908101601f19168201604052612d129190810190615eaa565b5060405163d06ca61f60e01b8152600080516020615f318339815191529063d06ca61f90612d4e90670de0b6b3a7640000908790600401615e53565b600060405180830381865afa158015612d6b573d6000803e3d6000fd5b505050506040513d6000823e601f3d908101601f19168201604052612d939190810190615eaa565b5060405163d06ca61f60e01b8152600080516020615f318339815191529063d06ca61f90612dcf90670de0b6b3a7640000908790600401615e53565b600060405180830381865afa158015612dec573d6000803e3d6000fd5b505050506040513d6000823e601f3d908101601f19168201604052612e149190810190615eaa565b5060405163d06ca61f60e01b8152600080516020615f318339815191529063d06ca61f90612e5090670de0b6b3a7640000908790600401615e53565b600060405180830381865afa158015612e6d573d6000803e3d6000fd5b505050506040513d6000823e601f3d908101601f19168201604052612e959190810190615eaa565b5060405163d06ca61f60e01b8152600080516020615f318339815191529063d06ca61f90612ed190670de0b6b3a7640000908790600401615e53565b600060405180830381865afa158015612eee573d6000803e3d6000fd5b505050506040513d6000823e601f3d908101601f19168201604052612f169190810190615eaa565b5060405163d06ca61f60e01b8152600080516020615f318339815191529063d06ca61f90612f5290670de0b6b3a7640000908790600401615e53565b600060405180830381865afa158015612f6f573d6000803e3d6000fd5b505050506040513d6000823e601f3d908101601f19168201604052612f979190810190615eaa565b5060405163d06ca61f60e01b8152600080516020615f318339815191529063d06ca61f90612fd390670de0b6b3a7640000908790600401615e53565b600060405180830381865afa158015612ff0573d6000803e3d6000fd5b505050506040513d6000823e601f3d908101601f191682016040526130189190810190615eaa565b5060405163d06ca61f60e01b8152600080516020615f318339815191529063d06ca61f9061305490670de0b6b3a7640000908790600401615e53565b600060405180830381865afa158015613071573d6000803e3d6000fd5b505050506040513d6000823e601f3d908101601f191682016040526130999190810190615eaa565b5060405163d06ca61f60e01b8152600080516020615f318339815191529063d06ca61f906130d590670de0b6b3a7640000908790600401615e53565b600060405180830381865afa1580156130f2573d6000803e3d6000fd5b505050506040513d6000823e601f3d908101601f1916820160405261311a9190810190615eaa565b5060405163d06ca61f60e01b8152600080516020615f318339815191529063d06ca61f9061315690670de0b6b3a7640000908790600401615e53565b600060405180830381865afa158015613173573d6000803e3d6000fd5b505050506040513d6000823e601f3d908101601f1916820160405261319b9190810190615eaa565b5060405163d06ca61f60e01b8152600080516020615f318339815191529063d06ca61f906131d790670de0b6b3a7640000908790600401615e53565b600060405180830381865afa1580156131f4573d6000803e3d6000fd5b505050506040513d6000823e601f3d908101601f1916820160405261321c9190810190615eaa565b5060405163d06ca61f60e01b8152600080516020615f318339815191529063d06ca61f9061325890670de0b6b3a7640000908790600401615e53565b600060405180830381865afa158015613275573d6000803e3d6000fd5b505050506040513d6000823e601f3d908101601f1916820160405261329d9190810190615eaa565b5060405163d06ca61f60e01b8152600080516020615f318339815191529063d06ca61f906132d990670de0b6b3a7640000908790600401615e53565b600060405180830381865afa1580156132f6573d6000803e3d6000fd5b505050506040513d6000823e601f3d908101601f1916820160405261331e9190810190615eaa565b5060405163d06ca61f60e01b8152600080516020615f318339815191529063d06ca61f9061335a90670de0b6b3a7640000908790600401615e53565b600060405180830381865afa158015613377573d6000803e3d6000fd5b505050506040513d6000823e601f3d908101601f1916820160405261339f9190810190615eaa565b5060405163d06ca61f60e01b8152600080516020615f318339815191529063d06ca61f906133db90670de0b6b3a7640000908790600401615e53565b600060405180830381865afa1580156133f8573d6000803e3d6000fd5b505050506040513d6000823e601f3d908101601f191682016040526134209190810190615eaa565b5060405163d06ca61f60e01b8152600080516020615f318339815191529063d06ca61f9061345c90670de0b6b3a7640000908790600401615e53565b600060405180830381865afa158015613479573d6000803e3d6000fd5b505050506040513d6000823e601f3d908101601f191682016040526134a19190810190615eaa565b5060405163d06ca61f60e01b8152600080516020615f318339815191529063d06ca61f906134dd90670de0b6b3a7640000908790600401615e53565b600060405180830381865afa1580156134fa573d6000803e3d6000fd5b505050506040513d6000823e601f3d908101601f191682016040526135229190810190615eaa565b5060405163d06ca61f60e01b8152600080516020615f318339815191529063d06ca61f9061355e90670de0b6b3a7640000908790600401615e53565b600060405180830381865afa15801561357b573d6000803e3d6000fd5b505050506040513d6000823e601f3d908101601f191682016040526135a39190810190615eaa565b5060405163d06ca61f60e01b8152600080516020615f318339815191529063d06ca61f906135df90670de0b6b3a7640000908790600401615e53565b600060405180830381865afa1580156135fc573d6000803e3d6000fd5b505050506040513d6000823e601f3d908101601f191682016040526136249190810190615eaa565b5060405163d06ca61f60e01b8152600080516020615f318339815191529063d06ca61f9061366090670de0b6b3a7640000908790600401615e53565b600060405180830381865afa15801561367d573d6000803e3d6000fd5b505050506040513d6000823e601f3d908101601f191682016040526136a59190810190615eaa565b5060405163d06ca61f60e01b8152600080516020615f318339815191529063d06ca61f906136e190670de0b6b3a7640000908790600401615e53565b600060405180830381865afa1580156136fe573d6000803e3d6000fd5b505050506040513d6000823e601f3d908101601f191682016040526137269190810190615eaa565b5060405163d06ca61f60e01b8152600080516020615f318339815191529063d06ca61f9061376290670de0b6b3a7640000908790600401615e53565b600060405180830381865afa15801561377f573d6000803e3d6000fd5b505050506040513d6000823e601f3d908101601f191682016040526137a79190810190615eaa565b5060405163d06ca61f60e01b8152600080516020615f318339815191529063d06ca61f906137e390670de0b6b3a7640000908790600401615e53565b600060405180830381865afa158015613800573d6000803e3d6000fd5b505050506040513d6000823e601f3d908101601f191682016040526138289190810190615eaa565b5060405163d06ca61f60e01b8152600080516020615f318339815191529063d06ca61f9061386490670de0b6b3a7640000908790600401615e53565b600060405180830381865afa158015613881573d6000803e3d6000fd5b505050506040513d6000823e601f3d908101601f191682016040526138a99190810190615eaa565b5060405163d06ca61f60e01b8152600080516020615f318339815191529063d06ca61f906138e590670de0b6b3a7640000908790600401615e53565b600060405180830381865afa158015613902573d6000803e3d6000fd5b505050506040513d6000823e601f3d908101601f1916820160405261392a9190810190615eaa565b5060405163d06ca61f60e01b8152600080516020615f318339815191529063d06ca61f9061396690670de0b6b3a7640000908790600401615e53565b600060405180830381865afa158015613983573d6000803e3d6000fd5b505050506040513d6000823e601f3d908101601f191682016040526139ab9190810190615eaa565b5060405163d06ca61f60e01b8152600080516020615f318339815191529063d06ca61f906139e790670de0b6b3a7640000908790600401615e53565b600060405180830381865afa158015613a04573d6000803e3d6000fd5b505050506040513d6000823e601f3d908101601f19168201604052613a2c9190810190615eaa565b5060405163d06ca61f60e01b8152600080516020615f318339815191529063d06ca61f90613a6890670de0b6b3a7640000908790600401615e53565b600060405180830381865afa158015613a85573d6000803e3d6000fd5b505050506040513d6000823e601f3d908101601f19168201604052613aad9190810190615eaa565b5060405163d06ca61f60e01b8152600080516020615f318339815191529063d06ca61f90613ae990670de0b6b3a7640000908790600401615e53565b600060405180830381865afa158015613b06573d6000803e3d6000fd5b505050506040513d6000823e601f3d908101601f19168201604052613b2e9190810190615eaa565b5060405163d06ca61f60e01b8152600080516020615f318339815191529063d06ca61f90613b6a90670de0b6b3a7640000908790600401615e53565b600060405180830381865afa158015613b87573d6000803e3d6000fd5b505050506040513d6000823e601f3d908101601f19168201604052613baf9190810190615eaa565b5060405163d06ca61f60e01b8152600080516020615f318339815191529063d06ca61f90613beb90670de0b6b3a7640000908790600401615e53565b600060405180830381865afa158015613c08573d6000803e3d6000fd5b505050506040513d6000823e601f3d908101601f19168201604052613c309190810190615eaa565b5060405163d06ca61f60e01b8152600080516020615f318339815191529063d06ca61f90613c6c90670de0b6b3a7640000908790600401615e53565b600060405180830381865afa158015613c89573d6000803e3d6000fd5b505050506040513d6000823e601f3d908101601f19168201604052613cb19190810190615eaa565b5060405163d06ca61f60e01b8152600080516020615f318339815191529063d06ca61f90613ced90670de0b6b3a7640000908790600401615e53565b600060405180830381865afa158015613d0a573d6000803e3d6000fd5b505050506040513d6000823e601f3d908101601f19168201604052613d329190810190615eaa565b5060405163d06ca61f60e01b8152600080516020615f318339815191529063d06ca61f90613d6e90670de0b6b3a7640000908790600401615e53565b600060405180830381865afa158015613d8b573d6000803e3d6000fd5b505050506040513d6000823e601f3d908101601f19168201604052613db39190810190615eaa565b5060405163d06ca61f60e01b8152600080516020615f318339815191529063d06ca61f90613def90670de0b6b3a7640000908790600401615e53565b600060405180830381865afa158015613e0c573d6000803e3d6000fd5b505050506040513d6000823e601f3d908101601f19168201604052613e349190810190615eaa565b5060405163d06ca61f60e01b8152600080516020615f318339815191529063d06ca61f90613e7090670de0b6b3a7640000908790600401615e53565b600060405180830381865afa158015613e8d573d6000803e3d6000fd5b505050506040513d6000823e601f3d908101601f19168201604052613eb59190810190615eaa565b5060405163d06ca61f60e01b8152600080516020615f318339815191529063d06ca61f90613ef190670de0b6b3a7640000908790600401615e53565b600060405180830381865afa158015613f0e573d6000803e3d6000fd5b505050506040513d6000823e601f3d908101601f19168201604052613f369190810190615eaa565b5060405163d06ca61f60e01b8152600080516020615f318339815191529063d06ca61f90613f7290670de0b6b3a7640000908790600401615e53565b600060405180830381865afa158015613f8f573d6000803e3d6000fd5b505050506040513d6000823e601f3d908101601f19168201604052613fb79190810190615eaa565b5060405163d06ca61f60e01b8152600080516020615f318339815191529063d06ca61f90613ff390670de0b6b3a7640000908790600401615e53565b600060405180830381865afa158015614010573d6000803e3d6000fd5b505050506040513d6000823e601f3d908101601f191682016040526140389190810190615eaa565b5060405163d06ca61f60e01b8152600080516020615f318339815191529063d06ca61f9061407490670de0b6b3a7640000908790600401615e53565b600060405180830381865afa158015614091573d6000803e3d6000fd5b505050506040513d6000823e601f3d908101601f191682016040526140b99190810190615eaa565b5060405163d06ca61f60e01b8152600080516020615f318339815191529063d06ca61f906140f590670de0b6b3a7640000908790600401615e53565b600060405180830381865afa158015614112573d6000803e3d6000fd5b505050506040513d6000823e601f3d908101601f1916820160405261413a9190810190615eaa565b5060405163d06ca61f60e01b8152600080516020615f318339815191529063d06ca61f9061417690670de0b6b3a7640000908790600401615e53565b600060405180830381865afa158015614193573d6000803e3d6000fd5b505050506040513d6000823e601f3d908101601f191682016040526141bb9190810190615eaa565b5060405163d06ca61f60e01b8152600080516020615f318339815191529063d06ca61f906141f790670de0b6b3a7640000908790600401615e53565b600060405180830381865afa158015614214573d6000803e3d6000fd5b505050506040513d6000823e601f3d908101601f1916820160405261423c9190810190615eaa565b5060405163d06ca61f60e01b8152600080516020615f318339815191529063d06ca61f9061427890670de0b6b3a7640000908790600401615e53565b600060405180830381865afa158015614295573d6000803e3d6000fd5b505050506040513d6000823e601f3d908101601f191682016040526142bd9190810190615eaa565b5060405163d06ca61f60e01b8152600080516020615f318339815191529063d06ca61f906142f990670de0b6b3a7640000908790600401615e53565b600060405180830381865afa158015614316573d6000803e3d6000fd5b505050506040513d6000823e601f3d908101601f1916820160405261433e9190810190615eaa565b5060405163d06ca61f60e01b8152600080516020615f318339815191529063d06ca61f9061437a90670de0b6b3a7640000908790600401615e53565b600060405180830381865afa158015614397573d6000803e3d6000fd5b505050506040513d6000823e601f3d908101601f191682016040526143bf9190810190615eaa565b5060405163d06ca61f60e01b8152600080516020615f318339815191529063d06ca61f906143fb90670de0b6b3a7640000908790600401615e53565b600060405180830381865afa158015614418573d6000803e3d6000fd5b505050506040513d6000823e601f3d908101601f191682016040526144409190810190615eaa565b5060405163d06ca61f60e01b8152600080516020615f318339815191529063d06ca61f9061447c90670de0b6b3a7640000908790600401615e53565b600060405180830381865afa158015614499573d6000803e3d6000fd5b505050506040513d6000823e601f3d908101601f191682016040526144c19190810190615eaa565b5060405163d06ca61f60e01b8152600080516020615f318339815191529063d06ca61f906144fd90670de0b6b3a7640000908790600401615e53565b600060405180830381865afa15801561451a573d6000803e3d6000fd5b505050506040513d6000823e601f3d908101601f191682016040526145429190810190615eaa565b5060405163d06ca61f60e01b8152600080516020615f318339815191529063d06ca61f9061457e90670de0b6b3a7640000908790600401615e53565b600060405180830381865afa15801561459b573d6000803e3d6000fd5b505050506040513d6000823e601f3d908101601f191682016040526145c39190810190615eaa565b5060405163d06ca61f60e01b8152600080516020615f318339815191529063d06ca61f906145ff90670de0b6b3a7640000908790600401615e53565b600060405180830381865afa15801561461c573d6000803e3d6000fd5b505050506040513d6000823e601f3d908101601f191682016040526146449190810190615eaa565b5060405163d06ca61f60e01b8152600080516020615f318339815191529063d06ca61f9061468090670de0b6b3a7640000908790600401615e53565b600060405180830381865afa15801561469d573d6000803e3d6000fd5b505050506040513d6000823e601f3d908101601f191682016040526146c59190810190615eaa565b5060405163d06ca61f60e01b8152600080516020615f318339815191529063d06ca61f9061470190670de0b6b3a7640000908790600401615e53565b600060405180830381865afa15801561471e573d6000803e3d6000fd5b505050506040513d6000823e601f3d908101601f191682016040526147469190810190615eaa565b5060405163d06ca61f60e01b8152600080516020615f318339815191529063d06ca61f9061478290670de0b6b3a7640000908790600401615e53565b600060405180830381865afa15801561479f573d6000803e3d6000fd5b505050506040513d6000823e601f3d908101601f191682016040526147c79190810190615eaa565b5060405163d06ca61f60e01b8152600080516020615f318339815191529063d06ca61f9061480390670de0b6b3a7640000908790600401615e53565b600060405180830381865afa158015614820573d6000803e3d6000fd5b505050506040513d6000823e601f3d908101601f191682016040526148489190810190615eaa565b5060405163d06ca61f60e01b8152600080516020615f318339815191529063d06ca61f9061488490670de0b6b3a7640000908790600401615e53565b600060405180830381865afa1580156148a1573d6000803e3d6000fd5b505050506040513d6000823e601f3d908101601f191682016040526148c99190810190615eaa565b5060405163d06ca61f60e01b8152600080516020615f318339815191529063d06ca61f9061490590670de0b6b3a7640000908790600401615e53565b600060405180830381865afa158015614922573d6000803e3d6000fd5b505050506040513d6000823e601f3d908101601f1916820160405261494a9190810190615eaa565b5060405163d06ca61f60e01b8152600080516020615f318339815191529063d06ca61f9061498690670de0b6b3a7640000908790600401615e53565b600060405180830381865afa1580156149a3573d6000803e3d6000fd5b505050506040513d6000823e601f3d908101601f191682016040526149cb9190810190615eaa565b5060405163d06ca61f60e01b8152600080516020615f318339815191529063d06ca61f90614a0790670de0b6b3a7640000908790600401615e53565b600060405180830381865afa158015614a24573d6000803e3d6000fd5b505050506040513d6000823e601f3d908101601f19168201604052614a4c9190810190615eaa565b5060405163d06ca61f60e01b8152600080516020615f318339815191529063d06ca61f90614a8890670de0b6b3a7640000908790600401615e53565b600060405180830381865afa158015614aa5573d6000803e3d6000fd5b505050506040513d6000823e601f3d908101601f19168201604052614acd9190810190615eaa565b5060405163d06ca61f60e01b8152600080516020615f318339815191529063d06ca61f90614b0990670de0b6b3a7640000908790600401615e53565b600060405180830381865afa158015614b26573d6000803e3d6000fd5b505050506040513d6000823e601f3d908101601f19168201604052614b4e9190810190615eaa565b5060405163d06ca61f60e01b8152600080516020615f318339815191529063d06ca61f90614b8a90670de0b6b3a7640000908790600401615e53565b600060405180830381865afa158015614ba7573d6000803e3d6000fd5b505050506040513d6000823e601f3d908101601f19168201604052614bcf9190810190615eaa565b5060405163d06ca61f60e01b8152600080516020615f318339815191529063d06ca61f90614c0b90670de0b6b3a7640000908790600401615e53565b600060405180830381865afa158015614c28573d6000803e3d6000fd5b505050506040513d6000823e601f3d908101601f19168201604052614c509190810190615eaa565b5060405163d06ca61f60e01b8152600080516020615f318339815191529063d06ca61f90614c8c90670de0b6b3a7640000908790600401615e53565b600060405180830381865afa158015614ca9573d6000803e3d6000fd5b505050506040513d6000823e601f3d908101601f19168201604052614cd19190810190615eaa565b5060405163d06ca61f60e01b8152600080516020615f318339815191529063d06ca61f90614d0d90670de0b6b3a7640000908790600401615e53565b600060405180830381865afa158015614d2a573d6000803e3d6000fd5b505050506040513d6000823e601f3d908101601f19168201604052614d529190810190615eaa565b5060405163d06ca61f60e01b8152600080516020615f318339815191529063d06ca61f90614d8e90670de0b6b3a7640000908790600401615e53565b600060405180830381865afa158015614dab573d6000803e3d6000fd5b505050506040513d6000823e601f3d908101601f19168201604052614dd39190810190615eaa565b5060405163d06ca61f60e01b8152600080516020615f318339815191529063d06ca61f90614e0f90670de0b6b3a7640000908790600401615e53565b600060405180830381865afa158015614e2c573d6000803e3d6000fd5b505050506040513d6000823e601f3d908101601f19168201604052614e549190810190615eaa565b5060405163d06ca61f60e01b8152600080516020615f318339815191529063d06ca61f90614e9090670de0b6b3a7640000908790600401615e53565b600060405180830381865afa158015614ead573d6000803e3d6000fd5b505050506040513d6000823e601f3d908101601f19168201604052614ed59190810190615eaa565b5060405163d06ca61f60e01b8152600080516020615f318339815191529063d06ca61f90614f1190670de0b6b3a7640000908790600401615e53565b600060405180830381865afa158015614f2e573d6000803e3d6000fd5b505050506040513d6000823e601f3d908101601f19168201604052614f569190810190615eaa565b5060405163d06ca61f60e01b8152600080516020615f318339815191529063d06ca61f90614f9290670de0b6b3a7640000908790600401615e53565b600060405180830381865afa158015614faf573d6000803e3d6000fd5b505050506040513d6000823e601f3d908101601f19168201604052614fd79190810190615eaa565b5060405163d06ca61f60e01b8152600080516020615f318339815191529063d06ca61f9061501390670de0b6b3a7640000908790600401615e53565b600060405180830381865afa158015615030573d6000803e3d6000fd5b505050506040513d6000823e601f3d908101601f191682016040526150589190810190615eaa565b5060405163d06ca61f60e01b8152600080516020615f318339815191529063d06ca61f9061509490670de0b6b3a7640000908790600401615e53565b600060405180830381865afa1580156150b1573d6000803e3d6000fd5b505050506040513d6000823e601f3d908101601f191682016040526150d99190810190615eaa565b5060405163d06ca61f60e01b8152600080516020615f318339815191529063d06ca61f9061511590670de0b6b3a7640000908790600401615e53565b600060405180830381865afa158015615132573d6000803e3d6000fd5b505050506040513d6000823e601f3d908101601f1916820160405261515a9190810190615eaa565b5060405163d06ca61f60e01b8152600080516020615f318339815191529063d06ca61f9061519690670de0b6b3a7640000908790600401615e53565b600060405180830381865afa1580156151b3573d6000803e3d6000fd5b505050506040513d6000823e601f3d908101601f191682016040526151db9190810190615eaa565b5060405163d06ca61f60e01b8152600080516020615f318339815191529063d06ca61f9061521790670de0b6b3a7640000908790600401615e53565b600060405180830381865afa158015615234573d6000803e3d6000fd5b505050506040513d6000823e601f3d908101601f1916820160405261525c9190810190615eaa565b5060405163d06ca61f60e01b8152600080516020615f318339815191529063d06ca61f9061529890670de0b6b3a7640000908790600401615e53565b600060405180830381865afa1580156152b5573d6000803e3d6000fd5b505050506040513d6000823e601f3d908101601f191682016040526152dd9190810190615eaa565b5060405163d06ca61f60e01b8152600080516020615f318339815191529063d06ca61f9061531990670de0b6b3a7640000908790600401615e53565b600060405180830381865afa158015615336573d6000803e3d6000fd5b505050506040513d6000823e601f3d908101601f1916820160405261535e9190810190615eaa565b5060405163d06ca61f60e01b8152600080516020615f318339815191529063d06ca61f9061539a90670de0b6b3a7640000908790600401615e53565b600060405180830381865afa1580156153b7573d6000803e3d6000fd5b505050506040513d6000823e601f3d908101601f191682016040526153df9190810190615eaa565b5060405163d06ca61f60e01b8152600080516020615f318339815191529063d06ca61f9061541b90670de0b6b3a7640000908790600401615e53565b600060405180830381865afa158015615438573d6000803e3d6000fd5b505050506040513d6000823e601f3d908101601f191682016040526154609190810190615eaa565b5060405163d06ca61f60e01b8152600080516020615f318339815191529063d06ca61f9061549c90670de0b6b3a7640000908790600401615e53565b600060405180830381865afa1580156154b9573d6000803e3d6000fd5b505050506040513d6000823e601f3d908101601f191682016040526154e19190810190615eaa565b5060405163d06ca61f60e01b8152600080516020615f318339815191529063d06ca61f9061551d90670de0b6b3a7640000908790600401615e53565b600060405180830381865afa15801561553a573d6000803e3d6000fd5b505050506040513d6000823e601f3d908101601f191682016040526155629190810190615eaa565b5060405163d06ca61f60e01b8152600080516020615f318339815191529063d06ca61f9061559e90670de0b6b3a7640000908790600401615e53565b600060405180830381865afa1580156155bb573d6000803e3d6000fd5b505050506040513d6000823e601f3d908101601f191682016040526155e39190810190615eaa565b5060405163d06ca61f60e01b8152600080516020615f318339815191529063d06ca61f9061561f90670de0b6b3a7640000908790600401615e53565b600060405180830381865afa15801561563c573d6000803e3d6000fd5b505050506040513d6000823e601f3d908101601f191682016040526156649190810190615eaa565b5060405163d06ca61f60e01b8152600080516020615f318339815191529063d06ca61f906156a090670de0b6b3a7640000908790600401615e53565b600060405180830381865afa1580156156bd573d6000803e3d6000fd5b505050506040513d6000823e601f3d908101601f191682016040526156e59190810190615eaa565b5060405163d06ca61f60e01b8152600080516020615f318339815191529063d06ca61f9061572190670de0b6b3a7640000908790600401615e53565b600060405180830381865afa15801561573e573d6000803e3d6000fd5b505050506040513d6000823e601f3d908101601f191682016040526157669190810190615eaa565b5060405163d06ca61f60e01b8152600080516020615f318339815191529063d06ca61f906157a290670de0b6b3a7640000908790600401615e53565b600060405180830381865afa1580156157bf573d6000803e3d6000fd5b505050506040513d6000823e601f3d908101601f191682016040526157e79190810190615eaa565b5060405163d06ca61f60e01b8152600080516020615f318339815191529063d06ca61f9061582390670de0b6b3a7640000908790600401615e53565b600060405180830381865afa158015615840573d6000803e3d6000fd5b505050506040513d6000823e601f3d908101601f191682016040526158689190810190615eaa565b5060405163d06ca61f60e01b8152600080516020615f318339815191529063d06ca61f906158a490670de0b6b3a7640000908790600401615e53565b600060405180830381865afa1580156158c1573d6000803e3d6000fd5b505050506040513d6000823e601f3d908101601f191682016040526158e99190810190615eaa565b5060405163d06ca61f60e01b8152600080516020615f318339815191529063d06ca61f9061592590670de0b6b3a7640000908790600401615e53565b600060405180830381865afa158015615942573d6000803e3d6000fd5b505050506040513d6000823e601f3d908101601f1916820160405261596a9190810190615eaa565b5060405163d06ca61f60e01b8152600080516020615f318339815191529063d06ca61f906159a690670de0b6b3a7640000908790600401615e53565b600060405180830381865afa1580156159c3573d6000803e3d6000fd5b505050506040513d6000823e601f3d908101601f191682016040526159eb9190810190615eaa565b5060405163d06ca61f60e01b8152600080516020615f318339815191529063d06ca61f90615a2790670de0b6b3a7640000908790600401615e53565b600060405180830381865afa158015615a44573d6000803e3d6000fd5b505050506040513d6000823e601f3d908101601f19168201604052615a6c9190810190615eaa565b5060405163d06ca61f60e01b8152600080516020615f318339815191529063d06ca61f90615aa890670de0b6b3a7640000908790600401615e53565b600060405180830381865afa158015615ac5573d6000803e3d6000fd5b505050506040513d6000823e601f3d908101601f19168201604052615aed9190810190615eaa565b5060405163d06ca61f60e01b8152600080516020615f318339815191529063d06ca61f90615b2990670de0b6b3a7640000908790600401615e53565b600060405180830381865afa158015615b46573d6000803e3d6000fd5b505050506040513d6000823e601f3d908101601f19168201604052615b6e9190810190615eaa565b5060405163d06ca61f60e01b8152600080516020615f318339815191529063d06ca61f90615baa90670de0b6b3a7640000908790600401615e53565b600060405180830381865afa158015615bc7573d6000803e3d6000fd5b505050506040513d6000823e601f3d908101601f19168201604052615bef9190810190615eaa565b5060405163d06ca61f60e01b8152600080516020615f318339815191529063d06ca61f90615c2b90670de0b6b3a7640000908790600401615e53565b600060405180830381865afa158015615c48573d6000803e3d6000fd5b505050506040513d6000823e601f3d908101601f19168201604052615c709190810190615eaa565b5060405163d06ca61f60e01b8152600080516020615f318339815191529063d06ca61f90615cac90670de0b6b3a7640000908790600401615e53565b600060405180830381865afa158015615cc9573d6000803e3d6000fd5b505050506040513d6000823e601f3d908101601f19168201604052615cf19190810190615eaa565b5092915050565b634e487b7160e01b600052604160045260246000fd5b604051601f8201601f1916810167ffffffffffffffff81118282101715615d3757615d37615cf8565b604052919050565b600067ffffffffffffffff821115615d5957615d59615cf8565b5060051b60200190565b60006020808385031215615d7657600080fd5b823567ffffffffffffffff811115615d8d57600080fd5b8301601f81018513615d9e57600080fd5b8035615db1615dac82615d3f565b615d0e565b81815260059190911b82018301908381019087831115615dd057600080fd5b928401925b82841015615e045783356001600160a01b0381168114615df55760008081fd5b82529284019290840190615dd5565b979650505050505050565b6020808252825182820181905260009190848201906040850190845b81811015615e4757835183529284019291840191600101615e2b565b50909695505050505050565b6000604082018483526020604081850152818551808452606086019150828701935060005b81811015615e9d5784516001600160a01b031683529383019391830191600101615e78565b5090979650505050505050565b60006020808385031215615ebd57600080fd5b825167ffffffffffffffff811115615ed457600080fd5b8301601f81018513615ee557600080fd5b8051615ef3615dac82615d3f565b81815260059190911b82018301908381019087831115615f1257600080fd5b928401925b82841015615e0457835182529284019290840190615f1756fe0000000000000000000000007a250d5630b4cf539739df2c5dacb4c659f2488da26469706673582212205358b377708fec3c4ffe45af41370108fec1ae29c540ddeeb05ec951be34234164736f6c63430008120033",
			"opcodes": "PUSH1 0x80 PUSH1 0x40 MSTORE CALLVALUE DUP1 ISZERO PUSH2 0x10 JUMPI PUSH1 0x0 DUP1 REVERT JUMPDEST POP PUSH2 0x5F86 DUP1 PUSH3 0x21 PUSH1 0x0 CODECOPY PUSH1 0x0 RETURN INVALID PUSH1 0x80 PUSH1 0x40 MSTORE CALLVALUE DUP1 ISZERO PUSH2 0x10 JUMPI PUSH1 0x0 DUP1 REVERT JUMPDEST POP PUSH1 0x4 CALLDATASIZE LT PUSH2 0x41 JUMPI PUSH1 0x0 CALLDATALOAD PUSH1 0xE0 SHR DUP1 PUSH4 0x1694505E EQ PUSH2 0x46 JUMPI DUP1 PUSH4 0x38C6CDD5 EQ PUSH2 0x78 JUMPI DUP1 PUSH4 0x7F63DB5B EQ PUSH2 0x93 JUMPI JUMPDEST PUSH1 0x0 DUP1 REVERT JUMPDEST PUSH2 0x5B PUSH1 0x0 DUP1 MLOAD PUSH1 0x20 PUSH2 0x5F31 DUP4 CODECOPY DUP2 MLOAD SWAP2 MSTORE DUP2 JUMP JUMPDEST PUSH1 0x40 MLOAD PUSH1 0x1 PUSH1 0x1 PUSH1 0xA0 SHL SUB SWAP1 SWAP2 AND DUP2 MSTORE PUSH1 0x20 ADD JUMPDEST PUSH1 0x40 MLOAD DUP1 SWAP2 SUB SWAP1 RETURN JUMPDEST PUSH2 0x5B PUSH20 0xD9E1CE17F2641F24AE83637AB66A2CCA9C378B9F DUP2 JUMP JUMPDEST PUSH2 0xA6 PUSH2 0xA1 CALLDATASIZE PUSH1 0x4 PUSH2 0x5D63 JUMP JUMPDEST PUSH2 0xB3 JUMP JUMPDEST PUSH1 0x40 MLOAD PUSH2 0x6F SWAP2 SWAP1 PUSH2 0x5E0F JUMP JUMPDEST PUSH1 0x40 MLOAD PUSH4 0xD06CA61F PUSH1 0xE0 SHL DUP2 MSTORE PUSH1 0x60 SWAP1 PUSH1 0x0 SWAP1 PUSH1 0x0 DUP1 MLOAD PUSH1 0x20 PUSH2 0x5F31 DUP4 CODECOPY DUP2 MLOAD SWAP2 MSTORE SWAP1 PUSH4 0xD06CA61F SWAP1 PUSH2 0xF4 SWAP1 PUSH8 0xDE0B6B3A7640000 SWAP1 DUP8 SWAP1 PUSH1 0x4 ADD PUSH2 0x5E53 JUMP JUMPDEST PUSH1 0x0 PUSH1 0x40 MLOAD DUP1 DUP4 SUB DUP2 DUP7 GAS STATICCALL ISZERO DUP1 ISZERO PUSH2 0x111 JUMPI RETURNDATASIZE PUSH1 0x0 DUP1 RETURNDATACOPY RETURNDATASIZE PUSH1 0x0 REVERT JUMPDEST POP POP POP POP PUSH1 0x40 MLOAD RETURNDATASIZE PUSH1 0x0 DUP3 RETURNDATACOPY PUSH1 0x1F RETURNDATASIZE SWAP1 DUP2 ADD PUSH1 0x1F NOT AND DUP3 ADD PUSH1 0x40 MSTORE PUSH2 0x139 SWAP2 SWAP1 DUP2 ADD SWAP1 PUSH2 0x5EAA JUMP JUMPDEST PUSH1 0x40 MLOAD PUSH4 0xD06CA61F PUSH1 0xE0 SHL DUP2 MSTORE SWAP1 SWAP2 POP PUSH1 0x0 DUP1 MLOAD PUSH1 0x20 PUSH2 0x5F31 DUP4 CODECOPY DUP2 MLOAD SWAP2 MSTORE SWAP1 PUSH4 0xD06CA61F SWAP1 PUSH2 0x177 SWAP1 PUSH8 0xDE0B6B3A7640000 SWAP1 DUP8 SWAP1 PUSH1 0x4 ADD PUSH2 0x5E53 JUMP JUMPDEST PUSH1 0x0 PUSH1 0x40 MLOAD DUP1 DUP4 SUB DUP2 DUP7 GAS STATICCALL ISZERO DUP1 ISZERO PUSH2 0x194 JUMPI RETURNDATASIZE PUSH1 0x0 DUP1 RETURNDATACOPY RETURNDATASIZE PUSH1 0x0 REVERT JUMPDEST POP POP POP POP PUSH1 0x40 MLOAD RETURNDATASIZE PUSH1 0x0 DUP3 RETURNDATACOPY PUSH1 0x1F RETURNDATASIZE SWAP1 DUP2 ADD PUSH1 0x1F NOT AND DUP3 ADD PUSH1 0x40 MSTORE PUSH2 0x1BC SWAP2 SWAP1 DUP2 ADD SWAP1 PUSH2 0x5EAA JUMP JUMPDEST POP PUSH1 0x40 MLOAD PUSH4 0xD06CA61F PUSH1 0xE0 SHL DUP2 MSTORE PUSH1 0x0 DUP1 MLOAD PUSH1 0x20 PUSH2 0x5F31 DUP4 CODECOPY DUP2 MLOAD SWAP2 MSTORE SWAP1 PUSH4 0xD06CA61F SWAP1 PUSH2 0x1F8 SWAP1 PUSH8 0xDE0B6B3A7640000 SWAP1 DUP8 SWAP1 PUSH1 0x4 ADD PUSH2 0x5E53 JUMP JUMPDEST PUSH1 0x0 PUSH1 0x40 MLOAD DUP1 DUP4 SUB DUP2 DUP7 GAS STATICCALL ISZERO DUP1 ISZERO PUSH2 0x215 JUMPI RETURNDATASIZE PUSH1 0x0 DUP1 RETURNDATACOPY RETURNDATASIZE PUSH1 0x0 REVERT JUMPDEST POP POP POP POP PUSH1 0x40 MLOAD RETURNDATASIZE PUSH1 0x0 DUP3 RETURNDATACOPY PUSH1 0x1F RETURNDATASIZE SWAP1 DUP2 ADD PUSH1 0x1F NOT AND DUP3 ADD PUSH1 0x40 MSTORE PUSH2 0x23D SWAP2 SWAP1 DUP2 ADD SWAP1 PUSH2 0x5EAA JUMP JUMPDEST POP PUSH1 0x40 MLOAD PUSH4 0xD06CA61F PUSH1 0xE0 SHL DUP2 MSTORE PUSH1 0x0 DUP1 MLOAD PUSH1 0x20 PUSH2 0x5F31 DUP4 CODECOPY DUP2 MLOAD SWAP2 MSTORE SWAP1 PUSH4 0xD06CA61F SWAP1 PUSH2 0x279 SWAP1 PUSH8 0xDE0B6B3A7640000 SWAP1 DUP8 SWAP1 PUSH1 0x4 ADD PUSH2 0x5E53 JUMP JUMPDEST PUSH1 0x0 PUSH1 0x40 MLOAD DUP1 DUP4 SUB DUP2 DUP7 GAS STATICCALL ISZERO DUP1 ISZERO PUSH2 0x296 JUMPI RETURNDATASIZE PUSH1 0x0 DUP1 RETURNDATACOPY RETURNDATASIZE PUSH1 0x0 REVERT JUMPDEST POP POP POP POP PUSH1 0x40 MLOAD RETURNDATASIZE PUSH1 0x0 DUP3 RETURNDATACOPY PUSH1 0x1F RETURNDATASIZE SWAP1 DUP2 ADD PUSH1 0x1F NOT AND DUP3 ADD PUSH1 0x40 MSTORE PUSH2 0x2BE SWAP2 SWAP1 DUP2 ADD SWAP1 PUSH2 0x5EAA JUMP JUMPDEST POP PUSH1 0x40 MLOAD PUSH4 0xD06CA61F PUSH1 0xE0 SHL DUP2 MSTORE PUSH1 0x0 DUP1 MLOAD PUSH1 0x20 PUSH2 0x5F31 DUP4 CODECOPY DUP2 MLOAD SWAP2 MSTORE SWAP1 PUSH4 0xD06CA61F SWAP1 PUSH2 0x2FA SWAP1 PUSH8 0xDE0B6B3A7640000 SWAP1 DUP8 SWAP1 PUSH1 0x4 ADD PUSH2 0x5E53 JUMP JUMPDEST PUSH1 0x0 PUSH1 0x40 MLOAD DUP1 DUP4 SUB DUP2 DUP7 GAS STATICCALL ISZERO DUP1 ISZERO PUSH2 0x317 JUMPI RETURNDATASIZE PUSH1 0x0 DUP1 RETURNDATACOPY RETURNDATASIZE PUSH1 0x0 REVERT JUMPDEST POP POP POP POP PUSH1 0x40 MLOAD RETURNDATASIZE PUSH1 0x0 DUP3 RETURNDATACOPY PUSH1 0x1F RETURNDATASIZE SWAP1 DUP2 ADD PUSH1 0x1F NOT AND DUP3 ADD PUSH1 0x40 MSTORE PUSH2 0x33F SWAP2 SWAP1 DUP2 ADD SWAP1 PUSH2 0x5EAA JUMP JUMPDEST POP PUSH1 0x40 MLOAD PUSH4 0xD06CA61F PUSH1 0xE0 SHL DUP2 MSTORE PUSH1 0x0 DUP1 MLOAD PUSH1 0x20 PUSH2 0x5F31 DUP4 CODECOPY DUP2 MLOAD SWAP2 MSTORE SWAP1 PUSH4 0xD06CA61F SWAP1 PUSH2 0x37B SWAP1 PUSH8 0xDE0B6B3A7640000 SWAP1 DUP8 SWAP1 PUSH1 0x4 ADD PUSH2 0x5E53 JUMP JUMPDEST PUSH1 0x0 PUSH1 0x40 MLOAD DUP1 DUP4 SUB DUP2 DUP7 GAS STATICCALL ISZERO DUP1 ISZERO PUSH2 0x398 JUMPI RETURNDATASIZE PUSH1 0x0 DUP1 RETURNDATACOPY RETURNDATASIZE PUSH1 0x0 REVERT JUMPDEST POP POP POP POP PUSH1 0x40 MLOAD RETURNDATASIZE PUSH1 0x0 DUP3 RETURNDATACOPY PUSH1 0x1F RETURNDATASIZE SWAP1 DUP2 ADD PUSH1 0x1F NOT AND DUP3 ADD PUSH1 0x40 MSTORE PUSH2 0x3C0 SWAP2 SWAP1 DUP2 ADD SWAP1 PUSH2 0x5EAA JUMP JUMPDEST POP PUSH1 0x40 MLOAD PUSH4 0xD06CA61F PUSH1 0xE0 SHL DUP2 MSTORE PUSH1 0x0 DUP1 MLOAD PUSH1 0x20 PUSH2 0x5F31 DUP4 CODECOPY DUP2 MLOAD SWAP2 MSTORE SWAP1 PUSH4 0xD06CA61F SWAP1 PUSH2 0x3FC SWAP1 PUSH8 0xDE0B6B3A7640000 SWAP1 DUP8 SWAP1 PUSH1 0x4 ADD PUSH2 0x5E53 JUMP JUMPDEST PUSH1 0x0 PUSH1 0x40 MLOAD DUP1 DUP4 SUB DUP2 DUP7 GAS STATICCALL ISZERO DUP1 ISZERO PUSH2 0x419 JUMPI RETURNDATASIZE PUSH1 0x0 DUP1 RETURNDATACOPY RETURNDATASIZE PUSH1 0x0 REVERT JUMPDEST POP POP POP POP PUSH1 0x40 MLOAD RETURNDATASIZE PUSH1 0x0 DUP3 RETURNDATACOPY PUSH1 0x1F RETURNDATASIZE SWAP1 DUP2 ADD PUSH1 0x1F NOT AND DUP3 ADD PUSH1 0x40 MSTORE PUSH2 0x441 SWAP2 SWAP1 DUP2 ADD SWAP1 PUSH2 0x5EAA JUMP JUMPDEST POP PUSH1 0x40 MLOAD PUSH4 0xD06CA61F PUSH1 0xE0 SHL DUP2 MSTORE PUSH1 0x0 DUP1 MLOAD PUSH1 0x20 PUSH2 0x5F31 DUP4 CODECOPY DUP2 MLOAD SWAP2 MSTORE SWAP1 PUSH4 0xD06CA61F SWAP1 PUSH2 0x47D SWAP1 PUSH8 0xDE0B6B3A7640000 SWAP1 DUP8 SWAP1 PUSH1 0x4 ADD PUSH2 0x5E53 JUMP JUMPDEST PUSH1 0x0 PUSH1 0x40 MLOAD DUP1 DUP4 SUB DUP2 DUP7 GAS STATICCALL ISZERO DUP1 ISZERO PUSH2 0x49A JUMPI RETURNDATASIZE PUSH1 0x0 DUP1 RETURNDATACOPY RETURNDATASIZE PUSH1 0x0 REVERT JUMPDEST POP POP POP POP PUSH1 0x40 MLOAD RETURNDATASIZE PUSH1 0x0 DUP3 RETURNDATACOPY PUSH1 0x1F RETURNDATASIZE SWAP1 DUP2 ADD PUSH1 0x1F NOT AND DUP3 ADD PUSH1 0x40 MSTORE PUSH2 0x4C2 SWAP2 SWAP1 DUP2 ADD SWAP1 PUSH2 0x5EAA JUMP JUMPDEST POP PUSH1 0x40 MLOAD PUSH4 0xD06CA61F PUSH1 0xE0 SHL DUP2 MSTORE PUSH1 0x0 DUP1 MLOAD PUSH1 0x20 PUSH2 0x5F31 DUP4 CODECOPY DUP2 MLOAD SWAP2 MSTORE SWAP1 PUSH4 0xD06CA61F SWAP1 PUSH2 0x4FE SWAP1 PUSH8 0xDE0B6B3A7640000 SWAP1 DUP8 SWAP1 PUSH1 0x4 ADD PUSH2 0x5E53 JUMP JUMPDEST PUSH1 0x0 PUSH1 0x40 MLOAD DUP1 DUP4 SUB DUP2 DUP7 GAS STATICCALL ISZERO DUP1 ISZERO PUSH2 0x51B JUMPI RETURNDATASIZE PUSH1 0x0 DUP1 RETURNDATACOPY RETURNDATASIZE PUSH1 0x0 REVERT JUMPDEST POP POP POP POP PUSH1 0x40 MLOAD RETURNDATASIZE PUSH1 0x0 DUP3 RETURNDATACOPY PUSH1 0x1F RETURNDATASIZE SWAP1 DUP2 ADD PUSH1 0x1F NOT AND DUP3 ADD PUSH1 0x40 MSTORE PUSH2 0x543 SWAP2 SWAP1 DUP2 ADD SWAP1 PUSH2 0x5EAA JUMP JUMPDEST POP PUSH1 0x40 MLOAD PUSH4 0xD06CA61F PUSH1 0xE0 SHL DUP2 MSTORE PUSH1 0x0 DUP1 MLOAD PUSH1 0x20 PUSH2 0x5F31 DUP4 CODECOPY DUP2 MLOAD SWAP2 MSTORE SWAP1 PUSH4 0xD06CA61F SWAP1 PUSH2 0x57F SWAP1 PUSH8 0xDE0B6B3A7640000 SWAP1 DUP8 SWAP1 PUSH1 0x4 ADD PUSH2 0x5E53 JUMP JUMPDEST PUSH1 0x0 PUSH1 0x40 MLOAD DUP1 DUP4 SUB DUP2 DUP7 GAS STATICCALL ISZERO DUP1 ISZERO PUSH2 0x59C JUMPI RETURNDATASIZE PUSH1 0x0 DUP1 RETURNDATACOPY RETURNDATASIZE PUSH1 0x0 REVERT JUMPDEST POP POP POP POP PUSH1 0x40 MLOAD RETURNDATASIZE PUSH1 0x0 DUP3 RETURNDATACOPY PUSH1 0x1F RETURNDATASIZE SWAP1 DUP2 ADD PUSH1 0x1F NOT AND DUP3 ADD PUSH1 0x40 MSTORE PUSH2 0x5C4 SWAP2 SWAP1 DUP2 ADD SWAP1 PUSH2 0x5EAA JUMP JUMPDEST POP PUSH1 0x40 MLOAD PUSH4 0xD06CA61F PUSH1 0xE0 SHL DUP2 MSTORE PUSH1 0x0 DUP1 MLOAD PUSH1 0x20 PUSH2 0x5F31 DUP4 CODECOPY DUP2 MLOAD SWAP2 MSTORE SWAP1 PUSH4 0xD06CA61F SWAP1 PUSH2 0x600 SWAP1 PUSH8 0xDE0B6B3A7640000 SWAP1 DUP8 SWAP1 PUSH1 0x4 ADD PUSH2 0x5E53 JUMP JUMPDEST PUSH1 0x0 PUSH1 0x40 MLOAD DUP1 DUP4 SUB DUP2 DUP7 GAS STATICCALL ISZERO DUP1 ISZERO PUSH2 0x61D JUMPI RETURNDATASIZE PUSH1 0x0 DUP1 RETURNDATACOPY RETURNDATASIZE PUSH1 0x0 REVERT JUMPDEST POP POP POP POP PUSH1 0x40 MLOAD RETURNDATASIZE PUSH1 0x0 DUP3 RETURNDATACOPY PUSH1 0x1F RETURNDATASIZE SWAP1 DUP2 ADD PUSH1 0x1F NOT AND DUP3 ADD PUSH1 0x40 MSTORE PUSH2 0x645 SWAP2 SWAP1 DUP2 ADD SWAP1 PUSH2 0x5EAA JUMP JUMPDEST POP PUSH1 0x40 MLOAD PUSH4 0xD06CA61F PUSH1 0xE0 SHL DUP2 MSTORE PUSH1 0x0 DUP1 MLOAD PUSH1 0x20 PUSH2 0x5F31 DUP4 CODECOPY DUP2 MLOAD SWAP2 MSTORE SWAP1 PUSH4 0xD06CA61F SWAP1 PUSH2 0x681 SWAP1 PUSH8 0xDE0B6B3A7640000 SWAP1 DUP8 SWAP1 PUSH1 0x4 ADD PUSH2 0x5E53 JUMP JUMPDEST PUSH1 0x0 PUSH1 0x40 MLOAD DUP1 DUP4 SUB DUP2 DUP7 GAS STATICCALL ISZERO DUP1 ISZERO PUSH2 0x69E JUMPI RETURNDATASIZE PUSH1 0x0 DUP1 RETURNDATACOPY RETURNDATASIZE PUSH1 0x0 REVERT JUMPDEST POP POP POP POP PUSH1 0x40 MLOAD RETURNDATASIZE PUSH1 0x0 DUP3 RETURNDATACOPY PUSH1 0x1F RETURNDATASIZE SWAP1 DUP2 ADD PUSH1 0x1F NOT AND DUP3 ADD PUSH1 0x40 MSTORE PUSH2 0x6C6 SWAP2 SWAP1 DUP2 ADD SWAP1 PUSH2 0x5EAA JUMP JUMPDEST POP PUSH1 0x40 MLOAD PUSH4 0xD06CA61F PUSH1 0xE0 SHL DUP2 MSTORE PUSH1 0x0 DUP1 MLOAD PUSH1 0x20 PUSH2 0x5F31 DUP4 CODECOPY DUP2 MLOAD SWAP2 MSTORE SWAP1 PUSH4 0xD06CA61F SWAP1 PUSH2 0x702 SWAP1 PUSH8 0xDE0B6B3A7640000 SWAP1 DUP8 SWAP1 PUSH1 0x4 ADD PUSH2 0x5E53 JUMP JUMPDEST PUSH1 0x0 PUSH1 0x40 MLOAD DUP1 DUP4 SUB DUP2 DUP7 GAS STATICCALL ISZERO DUP1 ISZERO PUSH2 0x71F JUMPI RETURNDATASIZE PUSH1 0x0 DUP1 RETURNDATACOPY RETURNDATASIZE PUSH1 0x0 REVERT JUMPDEST POP POP POP POP PUSH1 0x40 MLOAD RETURNDATASIZE PUSH1 0x0 DUP3 RETURNDATACOPY PUSH1 0x1F RETURNDATASIZE SWAP1 DUP2 ADD PUSH1 0x1F NOT AND DUP3 ADD PUSH1 0x40 MSTORE PUSH2 0x747 SWAP2 SWAP1 DUP2 ADD SWAP1 PUSH2 0x5EAA JUMP JUMPDEST POP PUSH1 0x40 MLOAD PUSH4 0xD06CA61F PUSH1 0xE0 SHL DUP2 MSTORE PUSH1 0x0 DUP1 MLOAD PUSH1 0x20 PUSH2 0x5F31 DUP4 CODECOPY DUP2 MLOAD SWAP2 MSTORE SWAP1 PUSH4 0xD06CA61F SWAP1 PUSH2 0x783 SWAP1 PUSH8 0xDE0B6B3A7640000 SWAP1 DUP8 SWAP1 PUSH1 0x4 ADD PUSH2 0x5E53 JUMP JUMPDEST PUSH1 0x0 PUSH1 0x40 MLOAD DUP1 DUP4 SUB DUP2 DUP7 GAS STATICCALL ISZERO DUP1 ISZERO PUSH2 0x7A0 JUMPI RETURNDATASIZE PUSH1 0x0 DUP1 RETURNDATACOPY RETURNDATASIZE PUSH1 0x0 REVERT JUMPDEST POP POP POP POP PUSH1 0x40 MLOAD RETURNDATASIZE PUSH1 0x0 DUP3 RETURNDATACOPY PUSH1 0x1F RETURNDATASIZE SWAP1 DUP2 ADD PUSH1 0x1F NOT AND DUP3 ADD PUSH1 0x40 MSTORE PUSH2 0x7C8 SWAP2 SWAP1 DUP2 ADD SWAP1 PUSH2 0x5EAA JUMP JUMPDEST POP PUSH1 0x40 MLOAD PUSH4 0xD06CA61F PUSH1 0xE0 SHL DUP2 MSTORE PUSH1 0x0 DUP1 MLOAD PUSH1 0x20 PUSH2 0x5F31 DUP4 CODECOPY DUP2 MLOAD SWAP2 MSTORE SWAP1 PUSH4 0xD06CA61F SWAP1 PUSH2 0x804 SWAP1 PUSH8 0xDE0B6B3A7640000 SWAP1 DUP8 SWAP1 PUSH1 0x4 ADD PUSH2 0x5E53 JUMP JUMPDEST PUSH1 0x0 PUSH1 0x40 MLOAD DUP1 DUP4 SUB DUP2 DUP7 GAS STATICCALL ISZERO DUP1 ISZERO PUSH2 0x821 JUMPI RETURNDATASIZE PUSH1 0x0 DUP1 RETURNDATACOPY RETURNDATASIZE PUSH1 0x0 REVERT JUMPDEST POP POP POP POP PUSH1 0x40 MLOAD RETURNDATASIZE PUSH1 0x0 DUP3 RETURNDATACOPY PUSH1 0x1F RETURNDATASIZE SWAP1 DUP2 ADD PUSH1 0x1F NOT AND DUP3 ADD PUSH1 0x40 MSTORE PUSH2 0x849 SWAP2 SWAP1 DUP2 ADD SWAP1 PUSH2 0x5EAA JUMP JUMPDEST POP PUSH1 0x40 MLOAD PUSH4 0xD06CA61F PUSH1 0xE0 SHL DUP2 MSTORE PUSH1 0x0 DUP1 MLOAD PUSH1 0x20 PUSH2 0x5F31 DUP4 CODECOPY DUP2 MLOAD SWAP2 MSTORE SWAP1 PUSH4 0xD06CA61F SWAP1 PUSH2 0x885 SWAP1 PUSH8 0xDE0B6B3A7640000 SWAP1 DUP8 SWAP1 PUSH1 0x4 ADD PUSH2 0x5E53 JUMP JUMPDEST PUSH1 0x0 PUSH1 0x40 MLOAD DUP1 DUP4 SUB DUP2 DUP7 GAS STATICCALL ISZERO DUP1 ISZERO PUSH2 0x8A2 JUMPI RETURNDATASIZE PUSH1 0x0 DUP1 RETURNDATACOPY RETURNDATASIZE PUSH1 0x0 REVERT JUMPDEST POP POP POP POP PUSH1 0x40 MLOAD RETURNDATASIZE PUSH1 0x0 DUP3 RETURNDATACOPY PUSH1 0x1F RETURNDATASIZE SWAP1 DUP2 ADD PUSH1 0x1F NOT AND DUP3 ADD PUSH1 0x40 MSTORE PUSH2 0x8CA SWAP2 SWAP1 DUP2 ADD SWAP1 PUSH2 0x5EAA JUMP JUMPDEST POP PUSH1 0x40 MLOAD PUSH4 0xD06CA61F PUSH1 0xE0 SHL DUP2 MSTORE PUSH1 0x0 DUP1 MLOAD PUSH1 0x20 PUSH2 0x5F31 DUP4 CODECOPY DUP2 MLOAD SWAP2 MSTORE SWAP1 PUSH4 0xD06CA61F SWAP1 PUSH2 0x906 SWAP1 PUSH8 0xDE0B6B3A7640000 SWAP1 DUP8 SWAP1 PUSH1 0x4 ADD PUSH2 0x5E53 JUMP JUMPDEST PUSH1 0x0 PUSH1 0x40 MLOAD DUP1 DUP4 SUB DUP2 DUP7 GAS STATICCALL ISZERO DUP1 ISZERO PUSH2 0x923 JUMPI RETURNDATASIZE PUSH1 0x0 DUP1 RETURNDATACOPY RETURNDATASIZE PUSH1 0x0 REVERT JUMPDEST POP POP POP POP PUSH1 0x40 MLOAD RETURNDATASIZE PUSH1 0x0 DUP3 RETURNDATACOPY PUSH1 0x1F RETURNDATASIZE SWAP1 DUP2 ADD PUSH1 0x1F NOT AND DUP3 ADD PUSH1 0x40 MSTORE PUSH2 0x94B SWAP2 SWAP1 DUP2 ADD SWAP1 PUSH2 0x5EAA JUMP JUMPDEST POP PUSH1 0x40 MLOAD PUSH4 0xD06CA61F PUSH1 0xE0 SHL DUP2 MSTORE PUSH1 0x0 DUP1 MLOAD PUSH1 0x20 PUSH2 0x5F31 DUP4 CODECOPY DUP2 MLOAD SWAP2 MSTORE SWAP1 PUSH4 0xD06CA61F SWAP1 PUSH2 0x987 SWAP1 PUSH8 0xDE0B6B3A7640000 SWAP1 DUP8 SWAP1 PUSH1 0x4 ADD PUSH2 0x5E53 JUMP JUMPDEST PUSH1 0x0 PUSH1 0x40 MLOAD DUP1 DUP4 SUB DUP2 DUP7 GAS STATICCALL ISZERO DUP1 ISZERO PUSH2 0x9A4 JUMPI RETURNDATASIZE PUSH1 0x0 DUP1 RETURNDATACOPY RETURNDATASIZE PUSH1 0x0 REVERT JUMPDEST POP POP POP POP PUSH1 0x40 MLOAD RETURNDATASIZE PUSH1 0x0 DUP3 RETURNDATACOPY PUSH1 0x1F RETURNDATASIZE SWAP1 DUP2 ADD PUSH1 0x1F NOT AND DUP3 ADD PUSH1 0x40 MSTORE PUSH2 0x9CC SWAP2 SWAP1 DUP2 ADD SWAP1 PUSH2 0x5EAA JUMP JUMPDEST POP PUSH1 0x40 MLOAD PUSH4 0xD06CA61F PUSH1 0xE0 SHL DUP2 MSTORE PUSH1 0x0 DUP1 MLOAD PUSH1 0x20 PUSH2 0x5F31 DUP4 CODECOPY DUP2 MLOAD SWAP2 MSTORE SWAP1 PUSH4 0xD06CA61F SWAP1 PUSH2 0xA08 SWAP1 PUSH8 0xDE0B6B3A7640000 SWAP1 DUP8 SWAP1 PUSH1 0x4 ADD PUSH2 0x5E53 JUMP JUMPDEST PUSH1 0x0 PUSH1 0x40 MLOAD DUP1 DUP4 SUB DUP2 DUP7 GAS STATICCALL ISZERO DUP1 ISZERO PUSH2 0xA25 JUMPI RETURNDATASIZE PUSH1 0x0 DUP1 RETURNDATACOPY RETURNDATASIZE PUSH1 0x0 REVERT JUMPDEST POP POP POP POP PUSH1 0x40 MLOAD RETURNDATASIZE PUSH1 0x0 DUP3 RETURNDATACOPY PUSH1 0x1F RETURNDATASIZE SWAP1 DUP2 ADD PUSH1 0x1F NOT AND DUP3 ADD PUSH1 0x40 MSTORE PUSH2 0xA4D SWAP2 SWAP1 DUP2 ADD SWAP1 PUSH2 0x5EAA JUMP JUMPDEST POP PUSH1 0x40 MLOAD PUSH4 0xD06CA61F PUSH1 0xE0 SHL DUP2 MSTORE PUSH1 0x0 DUP1 MLOAD PUSH1 0x20 PUSH2 0x5F31 DUP4 CODECOPY DUP2 MLOAD SWAP2 MSTORE SWAP1 PUSH4 0xD06CA61F SWAP1 PUSH2 0xA89 SWAP1 PUSH8 0xDE0B6B3A7640000 SWAP1 DUP8 SWAP1 PUSH1 0x4 ADD PUSH2 0x5E53 JUMP JUMPDEST PUSH1 0x0 PUSH1 0x40 MLOAD DUP1 DUP4 SUB DUP2 DUP7 GAS STATICCALL ISZERO DUP1 ISZERO PUSH2 0xAA6 JUMPI RETURNDATASIZE PUSH1 0x0 DUP1 RETURNDATACOPY RETURNDATASIZE PUSH1 0x0 REVERT JUMPDEST POP POP POP POP PUSH1 0x40 MLOAD RETURNDATASIZE PUSH1 0x0 DUP3 RETURNDATACOPY PUSH1 0x1F RETURNDATASIZE SWAP1 DUP2 ADD PUSH1 0x1F NOT AND DUP3 ADD PUSH1 0x40 MSTORE PUSH2 0xACE SWAP2 SWAP1 DUP2 ADD SWAP1 PUSH2 0x5EAA JUMP JUMPDEST POP PUSH1 0x40 MLOAD PUSH4 0xD06CA61F PUSH1 0xE0 SHL DUP2 MSTORE PUSH1 0x0 DUP1 MLOAD PUSH1 0x20 PUSH2 0x5F31 DUP4 CODECOPY DUP2 MLOAD SWAP2 MSTORE SWAP1 PUSH4 0xD06CA61F SWAP1 PUSH2 0xB0A SWAP1 PUSH8 0xDE0B6B3A7640000 SWAP1 DUP8 SWAP1 PUSH1 0x4 ADD PUSH2 0x5E53 JUMP JUMPDEST PUSH1 0x0 PUSH1 0x40 MLOAD DUP1 DUP4 SUB DUP2 DUP7 GAS STATICCALL ISZERO DUP1 ISZERO PUSH2 0xB27 JUMPI RETURNDATASIZE PUSH1 0x0 DUP1 RETURNDATACOPY RETURNDATASIZE PUSH1 0x0 REVERT JUMPDEST POP POP POP POP PUSH1 0x40 MLOAD RETURNDATASIZE PUSH1 0x0 DUP3 RETURNDATACOPY PUSH1 0x1F RETURNDATASIZE SWAP1 DUP2 ADD PUSH1 0x1F NOT AND DUP3 ADD PUSH1 0x40 MSTORE PUSH2 0xB4F SWAP2 SWAP1 DUP2 ADD SWAP1 PUSH2 0x5EAA JUMP JUMPDEST POP PUSH1 0x40 MLOAD PUSH4 0xD06CA61F PUSH1 0xE0 SHL DUP2 MSTORE PUSH1 0x0 DUP1 MLOAD PUSH1 0x20 PUSH2 0x5F31 DUP4 CODECOPY DUP2 MLOAD SWAP2 MSTORE SWAP1 PUSH4 0xD06CA61F SWAP1 PUSH2 0xB8B SWAP1 PUSH8 0xDE0B6B3A7640000 SWAP1 DUP8 SWAP1 PUSH1 0x4 ADD PUSH2 0x5E53 JUMP JUMPDEST PUSH1 0x0 PUSH1 0x40 MLOAD DUP1 DUP4 SUB DUP2 DUP7 GAS STATICCALL ISZERO DUP1 ISZERO PUSH2 0xBA8 JUMPI RETURNDATASIZE PUSH1 0x0 DUP1 RETURNDATACOPY RETURNDATASIZE PUSH1 0x0 REVERT JUMPDEST POP POP POP POP PUSH1 0x40 MLOAD RETURNDATASIZE PUSH1 0x0 DUP3 RETURNDATACOPY PUSH1 0x1F RETURNDATASIZE SWAP1 DUP2 ADD PUSH1 0x1F NOT AND DUP3 ADD PUSH1 0x40 MSTORE PUSH2 0xBD0 SWAP2 SWAP1 DUP2 ADD SWAP1 PUSH2 0x5EAA JUMP JUMPDEST POP PUSH1 0x40 MLOAD PUSH4 0xD06CA61F PUSH1 0xE0 SHL DUP2 MSTORE PUSH1 0x0 DUP1 MLOAD PUSH1 0x20 PUSH2 0x5F31 DUP4 CODECOPY DUP2 MLOAD SWAP2 MSTORE SWAP1 PUSH4 0xD06CA61F SWAP1 PUSH2 0xC0C SWAP1 PUSH8 0xDE0B6B3A7640000 SWAP1 DUP8 SWAP1 PUSH1 0x4 ADD PUSH2 0x5E53 JUMP JUMPDEST PUSH1 0x0 PUSH1 0x40 MLOAD DUP1 DUP4 SUB DUP2 DUP7 GAS STATICCALL ISZERO DUP1 ISZERO PUSH2 0xC29 JUMPI RETURNDATASIZE PUSH1 0x0 DUP1 RETURNDATACOPY RETURNDATASIZE PUSH1 0x0 REVERT JUMPDEST POP POP POP POP PUSH1 0x40 MLOAD RETURNDATASIZE PUSH1 0x0 DUP3 RETURNDATACOPY PUSH1 0x1F RETURNDATASIZE SWAP1 DUP2 ADD PUSH1 0x1F NOT AND DUP3 ADD PUSH1 0x40 MSTORE PUSH2 0xC51 SWAP2 SWAP1 DUP2 ADD SWAP1 PUSH2 0x5EAA JUMP JUMPDEST POP PUSH1 0x40 MLOAD PUSH4 0xD06CA61F PUSH1 0xE0 SHL DUP2 MSTORE PUSH1 0x0 DUP1 MLOAD PUSH1 0x20 PUSH2 0x5F31 DUP4 CODECOPY DUP2 MLOAD SWAP2 MSTORE SWAP1 PUSH4 0xD06CA61F SWAP1 PUSH2 0xC8D SWAP1 PUSH8 0xDE0B6B3A7640000 SWAP1 DUP8 SWAP1 PUSH1 0x4 ADD PUSH2 0x5E53 JUMP JUMPDEST PUSH1 0x0 PUSH1 0x40 MLOAD DUP1 DUP4 SUB DUP2 DUP7 GAS STATICCALL ISZERO DUP1 ISZERO PUSH2 0xCAA JUMPI RETURNDATASIZE PUSH1 0x0 DUP1 RETURNDATACOPY RETURNDATASIZE PUSH1 0x0 REVERT JUMPDEST POP POP POP POP PUSH1 0x40 MLOAD RETURNDATASIZE PUSH1 0x0 DUP3 RETURNDATACOPY PUSH1 0x1F RETURNDATASIZE SWAP1 DUP2 ADD PUSH1 0x1F NOT AND DUP3 ADD PUSH1 0x40 MSTORE PUSH2 0xCD2 SWAP2 SWAP1 DUP2 ADD SWAP1 PUSH2 0x5EAA JUMP JUMPDEST POP PUSH1 0x40 MLOAD PUSH4 0xD06CA61F PUSH1 0xE0 SHL DUP2 MSTORE PUSH1 0x0 DUP1 MLOAD PUSH1 0x20 PUSH2 0x5F31 DUP4 CODECOPY DUP2 MLOAD SWAP2 MSTORE SWAP1 PUSH4 0xD06CA61F SWAP1 PUSH2 0xD0E SWAP1 PUSH8 0xDE0B6B3A7640000 SWAP1 DUP8 SWAP1 PUSH1 0x4 ADD PUSH2 0x5E53 JUMP JUMPDEST PUSH1 0x0 PUSH1 0x40 MLOAD DUP1 DUP4 SUB DUP2 DUP7 GAS STATICCALL ISZERO DUP1 ISZERO PUSH2 0xD2B JUMPI RETURNDATASIZE PUSH1 0x0 DUP1 RETURNDATACOPY RETURNDATASIZE PUSH1 0x0 REVERT JUMPDEST POP POP POP POP PUSH1 0x40 MLOAD RETURNDATASIZE PUSH1 0x0 DUP3 RETURNDATACOPY PUSH1 0x1F RETURNDATASIZE SWAP1 DUP2 ADD PUSH1 0x1F NOT AND DUP3 ADD PUSH1 0x40 MSTORE PUSH2 0xD53 SWAP2 SWAP1 DUP2 ADD SWAP1 PUSH2 0x5EAA JUMP JUMPDEST POP PUSH1 0x40 MLOAD PUSH4 0xD06CA61F PUSH1 0xE0 SHL DUP2 MSTORE PUSH1 0x0 DUP1 MLOAD PUSH1 0x20 PUSH2 0x5F31 DUP4 CODECOPY DUP2 MLOAD SWAP2 MSTORE SWAP1 PUSH4 0xD06CA61F SWAP1 PUSH2 0xD8F SWAP1 PUSH8 0xDE0B6B3A7640000 SWAP1 DUP8 SWAP1 PUSH1 0x4 ADD PUSH2 0x5E53 JUMP JUMPDEST PUSH1 0x0 PUSH1 0x40 MLOAD DUP1 DUP4 SUB DUP2 DUP7 GAS STATICCALL ISZERO DUP1 ISZERO PUSH2 0xDAC JUMPI RETURNDATASIZE PUSH1 0x0 DUP1 RETURNDATACOPY RETURNDATASIZE PUSH1 0x0 REVERT JUMPDEST POP POP POP POP PUSH1 0x40 MLOAD RETURNDATASIZE PUSH1 0x0 DUP3 RETURNDATACOPY PUSH1 0x1F RETURNDATASIZE SWAP1 DUP2 ADD PUSH1 0x1F NOT AND DUP3 ADD PUSH1 0x40 MSTORE PUSH2 0xDD4 SWAP2 SWAP1 DUP2 ADD SWAP1 PUSH2 0x5EAA JUMP JUMPDEST POP PUSH1 0x40 MLOAD PUSH4 0xD06CA61F PUSH1 0xE0 SHL DUP2 MSTORE PUSH1 0x0 DUP1 MLOAD PUSH1 0x20 PUSH2 0x5F31 DUP4 CODECOPY DUP2 MLOAD SWAP2 MSTORE SWAP1 PUSH4 0xD06CA61F SWAP1 PUSH2 0xE10 SWAP1 PUSH8 0xDE0B6B3A7640000 SWAP1 DUP8 SWAP1 PUSH1 0x4 ADD PUSH2 0x5E53 JUMP JUMPDEST PUSH1 0x0 PUSH1 0x40 MLOAD DUP1 DUP4 SUB DUP2 DUP7 GAS STATICCALL ISZERO DUP1 ISZERO PUSH2 0xE2D JUMPI RETURNDATASIZE PUSH1 0x0 DUP1 RETURNDATACOPY RETURNDATASIZE PUSH1 0x0 REVERT JUMPDEST POP POP POP POP PUSH1 0x40 MLOAD RETURNDATASIZE PUSH1 0x0 DUP3 RETURNDATACOPY PUSH1 0x1F RETURNDATASIZE SWAP1 DUP2 ADD PUSH1 0x1F NOT AND DUP3 ADD PUSH1 0x40 MSTORE PUSH2 0xE55 SWAP2 SWAP1 DUP2 ADD SWAP1 PUSH2 0x5EAA JUMP JUMPDEST POP PUSH1 0x40 MLOAD PUSH4 0xD06CA61F PUSH1 0xE0 SHL DUP2 MSTORE PUSH1 0x0 DUP1 MLOAD PUSH1 0x20 PUSH2 0x5F31 DUP4 CODECOPY DUP2 MLOAD SWAP2 MSTORE SWAP1 PUSH4 0xD06CA61F SWAP1 PUSH2 0xE91 SWAP1 PUSH8 0xDE0B6B3A7640000 SWAP1 DUP8 SWAP1 PUSH1 0x4 ADD PUSH2 0x5E53 JUMP JUMPDEST PUSH1 0x0 PUSH1 0x40 MLOAD DUP1 DUP4 SUB DUP2 DUP7 GAS STATICCALL ISZERO DUP1 ISZERO PUSH2 0xEAE JUMPI RETURNDATASIZE PUSH1 0x0 DUP1 RETURNDATACOPY RETURNDATASIZE PUSH1 0x0 REVERT JUMPDEST POP POP POP POP PUSH1 0x40 MLOAD RETURNDATASIZE PUSH1 0x0 DUP3 RETURNDATACOPY PUSH1 0x1F RETURNDATASIZE SWAP1 DUP2 ADD PUSH1 0x1F NOT AND DUP3 ADD PUSH1 0x40 MSTORE PUSH2 0xED6 SWAP2 SWAP1 DUP2 ADD SWAP1 PUSH2 0x5EAA JUMP JUMPDEST POP PUSH1 0x40 MLOAD PUSH4 0xD06CA61F PUSH1 0xE0 SHL DUP2 MSTORE PUSH1 0x0 DUP1 MLOAD PUSH1 0x20 PUSH2 0x5F31 DUP4 CODECOPY DUP2 MLOAD SWAP2 MSTORE SWAP1 PUSH4 0xD06CA61F SWAP1 PUSH2 0xF12 SWAP1 PUSH8 0xDE0B6B3A7640000 SWAP1 DUP8 SWAP1 PUSH1 0x4 ADD PUSH2 0x5E53 JUMP JUMPDEST PUSH1 0x0 PUSH1 0x40 MLOAD DUP1 DUP4 SUB DUP2 DUP7 GAS STATICCALL ISZERO DUP1 ISZERO PUSH2 0xF2F JUMPI RETURNDATASIZE PUSH1 0x0 DUP1 RETURNDATACOPY RETURNDATASIZE PUSH1 0x0 REVERT JUMPDEST POP POP POP POP PUSH1 0x40 MLOAD RETURNDATASIZE PUSH1 0x0 DUP3 RETURNDATACOPY PUSH1 0x1F RETURNDATASIZE SWAP1 DUP2 ADD PUSH1 0x1F NOT AND DUP3 ADD PUSH1 0x40 MSTORE PUSH2 0xF57 SWAP2 SWAP1 DUP2 ADD SWAP1 PUSH2 0x5EAA JUMP JUMPDEST POP PUSH1 0x40 MLOAD PUSH4 0xD06CA61F PUSH1 0xE0 SHL DUP2 MSTORE PUSH1 0x0 DUP1 MLOAD PUSH1 0x20 PUSH2 0x5F31 DUP4 CODECOPY DUP2 MLOAD SWAP2 MSTORE SWAP1 PUSH4 0xD06CA61F SWAP1 PUSH2 0xF93 SWAP1 PUSH8 0xDE0B6B3A7640000 SWAP1 DUP8 SWAP1 PUSH1 0x4 ADD PUSH2 0x5E53 JUMP JUMPDEST PUSH1 0x0 PUSH1 0x40 MLOAD DUP1 DUP4 SUB DUP2 DUP7 GAS STATICCALL ISZERO DUP1 ISZERO PUSH2 0xFB0 JUMPI RETURNDATASIZE PUSH1 0x0 DUP1 RETURNDATACOPY RETURNDATASIZE PUSH1 0x0 REVERT JUMPDEST POP POP POP POP PUSH1 0x40 MLOAD RETURNDATASIZE PUSH1 0x0 DUP3 RETURNDATACOPY PUSH1 0x1F RETURNDATASIZE SWAP1 DUP2 ADD PUSH1 0x1F NOT AND DUP3 ADD PUSH1 0x40 MSTORE PUSH2 0xFD8 SWAP2 SWAP1 DUP2 ADD SWAP1 PUSH2 0x5EAA JUMP JUMPDEST POP PUSH1 0x40 MLOAD PUSH4 0xD06CA61F PUSH1 0xE0 SHL DUP2 MSTORE PUSH1 0x0 DUP1 MLOAD PUSH1 0x20 PUSH2 0x5F31 DUP4 CODECOPY DUP2 MLOAD SWAP2 MSTORE SWAP1 PUSH4 0xD06CA61F SWAP1 PUSH2 0x1014 SWAP1 PUSH8 0xDE0B6B3A7640000 SWAP1 DUP8 SWAP1 PUSH1 0x4 ADD PUSH2 0x5E53 JUMP JUMPDEST PUSH1 0x0 PUSH1 0x40 MLOAD DUP1 DUP4 SUB DUP2 DUP7 GAS STATICCALL ISZERO DUP1 ISZERO PUSH2 0x1031 JUMPI RETURNDATASIZE PUSH1 0x0 DUP1 RETURNDATACOPY RETURNDATASIZE PUSH1 0x0 REVERT JUMPDEST POP POP POP POP PUSH1 0x40 MLOAD RETURNDATASIZE PUSH1 0x0 DUP3 RETURNDATACOPY PUSH1 0x1F RETURNDATASIZE SWAP1 DUP2 ADD PUSH1 0x1F NOT AND DUP3 ADD PUSH1 0x40 MSTORE PUSH2 0x1059 SWAP2 SWAP1 DUP2 ADD SWAP1 PUSH2 0x5EAA JUMP JUMPDEST POP PUSH1 0x40 MLOAD PUSH4 0xD06CA61F PUSH1 0xE0 SHL DUP2 MSTORE PUSH1 0x0 DUP1 MLOAD PUSH1 0x20 PUSH2 0x5F31 DUP4 CODECOPY DUP2 MLOAD SWAP2 MSTORE SWAP1 PUSH4 0xD06CA61F SWAP1 PUSH2 0x1095 SWAP1 PUSH8 0xDE0B6B3A7640000 SWAP1 DUP8 SWAP1 PUSH1 0x4 ADD PUSH2 0x5E53 JUMP JUMPDEST PUSH1 0x0 PUSH1 0x40 MLOAD DUP1 DUP4 SUB DUP2 DUP7 GAS STATICCALL ISZERO DUP1 ISZERO PUSH2 0x10B2 JUMPI RETURNDATASIZE PUSH1 0x0 DUP1 RETURNDATACOPY RETURNDATASIZE PUSH1 0x0 REVERT JUMPDEST POP POP POP POP PUSH1 0x40 MLOAD RETURNDATASIZE PUSH1 0x0 DUP3 RETURNDATACOPY PUSH1 0x1F RETURNDATASIZE SWAP1 DUP2 ADD PUSH1 0x1F NOT AND DUP3 ADD PUSH1 0x40 MSTORE PUSH2 0x10DA SWAP2 SWAP1 DUP2 ADD SWAP1 PUSH2 0x5EAA JUMP JUMPDEST POP PUSH1 0x40 MLOAD PUSH4 0xD06CA61F PUSH1 0xE0 SHL DUP2 MSTORE PUSH1 0x0 DUP1 MLOAD PUSH1 0x20 PUSH2 0x5F31 DUP4 CODECOPY DUP2 MLOAD SWAP2 MSTORE SWAP1 PUSH4 0xD06CA61F SWAP1 PUSH2 0x1116 SWAP1 PUSH8 0xDE0B6B3A7640000 SWAP1 DUP8 SWAP1 PUSH1 0x4 ADD PUSH2 0x5E53 JUMP JUMPDEST PUSH1 0x0 PUSH1 0x40 MLOAD DUP1 DUP4 SUB DUP2 DUP7 GAS STATICCALL ISZERO DUP1 ISZERO PUSH2 0x1133 JUMPI RETURNDATASIZE PUSH1 0x0 DUP1 RETURNDATACOPY RETURNDATASIZE PUSH1 0x0 REVERT JUMPDEST POP POP POP POP PUSH1 0x40 MLOAD RETURNDATASIZE PUSH1 0x0 DUP3 RETURNDATACOPY PUSH1 0x1F RETURNDATASIZE SWAP1 DUP2 ADD PUSH1 0x1F NOT AND DUP3 ADD PUSH1 0x40 MSTORE PUSH2 0x115B SWAP2 SWAP1 DUP2 ADD SWAP1 PUSH2 0x5EAA JUMP JUMPDEST POP PUSH1 0x40 MLOAD PUSH4 0xD06CA61F PUSH1 0xE0 SHL DUP2 MSTORE PUSH1 0x0 DUP1 MLOAD PUSH1 0x20 PUSH2 0x5F31 DUP4 CODECOPY DUP2 MLOAD SWAP2 MSTORE SWAP1 PUSH4 0xD06CA61F SWAP1 PUSH2 0x1197 SWAP1 PUSH8 0xDE0B6B3A7640000 SWAP1 DUP8 SWAP1 PUSH1 0x4 ADD PUSH2 0x5E53 JUMP JUMPDEST PUSH1 0x0 PUSH1 0x40 MLOAD DUP1 DUP4 SUB DUP2 DUP7 GAS STATICCALL ISZERO DUP1 ISZERO PUSH2 0x11B4 JUMPI RETURNDATASIZE PUSH1 0x0 DUP1 RETURNDATACOPY RETURNDATASIZE PUSH1 0x0 REVERT JUMPDEST POP POP POP POP PUSH1 0x40 MLOAD RETURNDATASIZE PUSH1 0x0 DUP3 RETURNDATACOPY PUSH1 0x1F RETURNDATASIZE SWAP1 DUP2 ADD PUSH1 0x1F NOT AND DUP3 ADD PUSH1 0x40 MSTORE PUSH2 0x11DC SWAP2 SWAP1 DUP2 ADD SWAP1 PUSH2 0x5EAA JUMP JUMPDEST POP PUSH1 0x40 MLOAD PUSH4 0xD06CA61F PUSH1 0xE0 SHL DUP2 MSTORE PUSH1 0x0 DUP1 MLOAD PUSH1 0x20 PUSH2 0x5F31 DUP4 CODECOPY DUP2 MLOAD SWAP2 MSTORE SWAP1 PUSH4 0xD06CA61F SWAP1 PUSH2 0x1218 SWAP1 PUSH8 0xDE0B6B3A7640000 SWAP1 DUP8 SWAP1 PUSH1 0x4 ADD PUSH2 0x5E53 JUMP JUMPDEST PUSH1 0x0 PUSH1 0x40 MLOAD DUP1 DUP4 SUB DUP2 DUP7 GAS STATICCALL ISZERO DUP1 ISZERO PUSH2 0x1235 JUMPI RETURNDATASIZE PUSH1 0x0 DUP1 RETURNDATACOPY RETURNDATASIZE PUSH1 0x0 REVERT JUMPDEST POP POP POP POP PUSH1 0x40 MLOAD RETURNDATASIZE PUSH1 0x0 DUP3 RETURNDATACOPY PUSH1 0x1F RETURNDATASIZE SWAP1 DUP2 ADD PUSH1 0x1F NOT AND DUP3 ADD PUSH1 0x40 MSTORE PUSH2 0x125D SWAP2 SWAP1 DUP2 ADD SWAP1 PUSH2 0x5EAA JUMP JUMPDEST POP PUSH1 0x40 MLOAD PUSH4 0xD06CA61F PUSH1 0xE0 SHL DUP2 MSTORE PUSH1 0x0 DUP1 MLOAD PUSH1 0x20 PUSH2 0x5F31 DUP4 CODECOPY DUP2 MLOAD SWAP2 MSTORE SWAP1 PUSH4 0xD06CA61F SWAP1 PUSH2 0x1299 SWAP1 PUSH8 0xDE0B6B3A7640000 SWAP1 DUP8 SWAP1 PUSH1 0x4 ADD PUSH2 0x5E53 JUMP JUMPDEST PUSH1 0x0 PUSH1 0x40 MLOAD DUP1 DUP4 SUB DUP2 DUP7 GAS STATICCALL ISZERO DUP1 ISZERO PUSH2 0x12B6 JUMPI RETURNDATASIZE PUSH1 0x0 DUP1 RETURNDATACOPY RETURNDATASIZE PUSH1 0x0 REVERT JUMPDEST POP POP POP POP PUSH1 0x40 MLOAD RETURNDATASIZE PUSH1 0x0 DUP3 RETURNDATACOPY PUSH1 0x1F RETURNDATASIZE SWAP1 DUP2 ADD PUSH1 0x1F NOT AND DUP3 ADD PUSH1 0x40 MSTORE PUSH2 0x12DE SWAP2 SWAP1 DUP2 ADD SWAP1 PUSH2 0x5EAA JUMP JUMPDEST POP PUSH1 0x40 MLOAD PUSH4 0xD06CA61F PUSH1 0xE0 SHL DUP2 MSTORE PUSH1 0x0 DUP1 MLOAD PUSH1 0x20 PUSH2 0x5F31 DUP4 CODECOPY DUP2 MLOAD SWAP2 MSTORE SWAP1 PUSH4 0xD06CA61F SWAP1 PUSH2 0x131A SWAP1 PUSH8 0xDE0B6B3A7640000 SWAP1 DUP8 SWAP1 PUSH1 0x4 ADD PUSH2 0x5E53 JUMP JUMPDEST PUSH1 0x0 PUSH1 0x40 MLOAD DUP1 DUP4 SUB DUP2 DUP7 GAS STATICCALL ISZERO DUP1 ISZERO PUSH2 0x1337 JUMPI RETURNDATASIZE PUSH1 0x0 DUP1 RETURNDATACOPY RETURNDATASIZE PUSH1 0x0 REVERT JUMPDEST POP POP POP POP PUSH1 0x40 MLOAD RETURNDATASIZE PUSH1 0x0 DUP3 RETURNDATACOPY PUSH1 0x1F RETURNDATASIZE SWAP1 DUP2 ADD PUSH1 0x1F NOT AND DUP3 ADD PUSH1 0x40 MSTORE PUSH2 0x135F SWAP2 SWAP1 DUP2 ADD SWAP1 PUSH2 0x5EAA JUMP JUMPDEST POP PUSH1 0x40 MLOAD PUSH4 0xD06CA61F PUSH1 0xE0 SHL DUP2 MSTORE PUSH1 0x0 DUP1 MLOAD PUSH1 0x20 PUSH2 0x5F31 DUP4 CODECOPY DUP2 MLOAD SWAP2 MSTORE SWAP1 PUSH4 0xD06CA61F SWAP1 PUSH2 0x139B SWAP1 PUSH8 0xDE0B6B3A7640000 SWAP1 DUP8 SWAP1 PUSH1 0x4 ADD PUSH2 0x5E53 JUMP JUMPDEST PUSH1 0x0 PUSH1 0x40 MLOAD DUP1 DUP4 SUB DUP2 DUP7 GAS STATICCALL ISZERO DUP1 ISZERO PUSH2 0x13B8 JUMPI RETURNDATASIZE PUSH1 0x0 DUP1 RETURNDATACOPY RETURNDATASIZE PUSH1 0x0 REVERT JUMPDEST POP POP POP POP PUSH1 0x40 MLOAD RETURNDATASIZE PUSH1 0x0 DUP3 RETURNDATACOPY PUSH1 0x1F RETURNDATASIZE SWAP1 DUP2 ADD PUSH1 0x1F NOT AND DUP3 ADD PUSH1 0x40 MSTORE PUSH2 0x13E0 SWAP2 SWAP1 DUP2 ADD SWAP1 PUSH2 0x5EAA JUMP JUMPDEST POP PUSH1 0x40 MLOAD PUSH4 0xD06CA61F PUSH1 0xE0 SHL DUP2 MSTORE PUSH1 0x0 DUP1 MLOAD PUSH1 0x20 PUSH2 0x5F31 DUP4 CODECOPY DUP2 MLOAD SWAP2 MSTORE SWAP1 PUSH4 0xD06CA61F SWAP1 PUSH2 0x141C SWAP1 PUSH8 0xDE0B6B3A7640000 SWAP1 DUP8 SWAP1 PUSH1 0x4 ADD PUSH2 0x5E53 JUMP JUMPDEST PUSH1 0x0 PUSH1 0x40 MLOAD DUP1 DUP4 SUB DUP2 DUP7 GAS STATICCALL ISZERO DUP1 ISZERO PUSH2 0x1439 JUMPI RETURNDATASIZE PUSH1 0x0 DUP1 RETURNDATACOPY RETURNDATASIZE PUSH1 0x0 REVERT JUMPDEST POP POP POP POP PUSH1 0x40 MLOAD RETURNDATASIZE PUSH1 0x0 DUP3 RETURNDATACOPY PUSH1 0x1F RETURNDATASIZE SWAP1 DUP2 ADD PUSH1 0x1F NOT AND DUP3 ADD PUSH1 0x40 MSTORE PUSH2 0x1461 SWAP2 SWAP1 DUP2 ADD SWAP1 PUSH2 0x5EAA JUMP JUMPDEST POP PUSH1 0x40 MLOAD PUSH4 0xD06CA61F PUSH1 0xE0 SHL DUP2 MSTORE PUSH1 0x0 DUP1 MLOAD PUSH1 0x20 PUSH2 0x5F31 DUP4 CODECOPY DUP2 MLOAD SWAP2 MSTORE SWAP1 PUSH4 0xD06CA61F SWAP1 PUSH2 0x149D SWAP1 PUSH8 0xDE0B6B3A7640000 SWAP1 DUP8 SWAP1 PUSH1 0x4 ADD PUSH2 0x5E53 JUMP JUMPDEST PUSH1 0x0 PUSH1 0x40 MLOAD DUP1 DUP4 SUB DUP2 DUP7 GAS STATICCALL ISZERO DUP1 ISZERO PUSH2 0x14BA JUMPI RETURNDATASIZE PUSH1 0x0 DUP1 RETURNDATACOPY RETURNDATASIZE PUSH1 0x0 REVERT JUMPDEST POP POP POP POP PUSH1 0x40 MLOAD RETURNDATASIZE PUSH1 0x0 DUP3 RETURNDATACOPY PUSH1 0x1F RETURNDATASIZE SWAP1 DUP2 ADD PUSH1 0x1F NOT AND DUP3 ADD PUSH1 0x40 MSTORE PUSH2 0x14E2 SWAP2 SWAP1 DUP2 ADD SWAP1 PUSH2 0x5EAA JUMP JUMPDEST POP PUSH1 0x40 MLOAD PUSH4 0xD06CA61F PUSH1 0xE0 SHL DUP2 MSTORE PUSH1 0x0 DUP1 MLOAD PUSH1 0x20 PUSH2 0x5F31 DUP4 CODECOPY DUP2 MLOAD SWAP2 MSTORE SWAP1 PUSH4 0xD06CA61F SWAP1 PUSH2 0x151E SWAP1 PUSH8 0xDE0B6B3A7640000 SWAP1 DUP8 SWAP1 PUSH1 0x4 ADD PUSH2 0x5E53 JUMP JUMPDEST PUSH1 0x0 PUSH1 0x40 MLOAD DUP1 DUP4 SUB DUP2 DUP7 GAS STATICCALL ISZERO DUP1 ISZERO PUSH2 0x153B JUMPI RETURNDATASIZE PUSH1 0x0 DUP1 RETURNDATACOPY RETURNDATASIZE PUSH1 0x0 REVERT JUMPDEST POP POP POP POP PUSH1 0x40 MLOAD RETURNDATASIZE PUSH1 0x0 DUP3 RETURNDATACOPY PUSH1 0x1F RETURNDATASIZE SWAP1 DUP2 ADD PUSH1 0x1F NOT AND DUP3 ADD PUSH1 0x40 MSTORE PUSH2 0x1563 SWAP2 SWAP1 DUP2 ADD SWAP1 PUSH2 0x5EAA JUMP JUMPDEST POP PUSH1 0x40 MLOAD PUSH4 0xD06CA61F PUSH1 0xE0 SHL DUP2 MSTORE PUSH1 0x0 DUP1 MLOAD PUSH1 0x20 PUSH2 0x5F31 DUP4 CODECOPY DUP2 MLOAD SWAP2 MSTORE SWAP1 PUSH4 0xD06CA61F SWAP1 PUSH2 0x159F SWAP1 PUSH8 0xDE0B6B3A7640000 SWAP1 DUP8 SWAP1 PUSH1 0x4 ADD PUSH2 0x5E53 JUMP JUMPDEST PUSH1 0x0 PUSH1 0x40 MLOAD DUP1 DUP4 SUB DUP2 DUP7 GAS STATICCALL ISZERO DUP1 ISZERO PUSH2 0x15BC JUMPI RETURNDATASIZE PUSH1 0x0 DUP1 RETURNDATACOPY RETURNDATASIZE PUSH1 0x0 REVERT JUMPDEST POP POP POP POP PUSH1 0x40 MLOAD RETURNDATASIZE PUSH1 0x0 DUP3 RETURNDATACOPY PUSH1 0x1F RETURNDATASIZE SWAP1 DUP2 ADD PUSH1 0x1F NOT AND DUP3 ADD PUSH1 0x40 MSTORE PUSH2 0x15E4 SWAP2 SWAP1 DUP2 ADD SWAP1 PUSH2 0x5EAA JUMP JUMPDEST POP PUSH1 0x40 MLOAD PUSH4 0xD06CA61F PUSH1 0xE0 SHL DUP2 MSTORE PUSH1 0x0 DUP1 MLOAD PUSH1 0x20 PUSH2 0x5F31 DUP4 CODECOPY DUP2 MLOAD SWAP2 MSTORE SWAP1 PUSH4 0xD06CA61F SWAP1 PUSH2 0x1620 SWAP1 PUSH8 0xDE0B6B3A7640000 SWAP1 DUP8 SWAP1 PUSH1 0x4 ADD PUSH2 0x5E53 JUMP JUMPDEST PUSH1 0x0 PUSH1 0x40 MLOAD DUP1 DUP4 SUB DUP2 DUP7 GAS STATICCALL ISZERO DUP1 ISZERO PUSH2 0x163D JUMPI RETURNDATASIZE PUSH1 0x0 DUP1 RETURNDATACOPY RETURNDATASIZE PUSH1 0x0 REVERT JUMPDEST POP POP POP POP PUSH1 0x40 MLOAD RETURNDATASIZE PUSH1 0x0 DUP3 RETURNDATACOPY PUSH1 0x1F RETURNDATASIZE SWAP1 DUP2 ADD PUSH1 0x1F NOT AND DUP3 ADD PUSH1 0x40 MSTORE PUSH2 0x1665 SWAP2 SWAP1 DUP2 ADD SWAP1 PUSH2 0x5EAA JUMP JUMPDEST POP PUSH1 0x40 MLOAD PUSH4 0xD06CA61F PUSH1 0xE0 SHL DUP2 MSTORE PUSH1 0x0 DUP1 MLOAD PUSH1 0x20 PUSH2 0x5F31 DUP4 CODECOPY DUP2 MLOAD SWAP2 MSTORE SWAP1 PUSH4 0xD06CA61F SWAP1 PUSH2 0x16A1 SWAP1 PUSH8 0xDE0B6B3A7640000 SWAP1 DUP8 SWAP1 PUSH1 0x4 ADD PUSH2 0x5E53 JUMP JUMPDEST PUSH1 0x0 PUSH1 0x40 MLOAD DUP1 DUP4 SUB DUP2 DUP7 GAS STATICCALL ISZERO DUP1 ISZERO PUSH2 0x16BE JUMPI RETURNDATASIZE PUSH1 0x0 DUP1 RETURNDATACOPY RETURNDATASIZE PUSH1 0x0 REVERT JUMPDEST POP POP POP POP PUSH1 0x40 MLOAD RETURNDATASIZE PUSH1 0x0 DUP3 RETURNDATACOPY PUSH1 0x1F RETURNDATASIZE SWAP1 DUP2 ADD PUSH1 0x1F NOT AND DUP3 ADD PUSH1 0x40 MSTORE PUSH2 0x16E6 SWAP2 SWAP1 DUP2 ADD SWAP1 PUSH2 0x5EAA JUMP JUMPDEST POP PUSH1 0x40 MLOAD PUSH4 0xD06CA61F PUSH1 0xE0 SHL DUP2 MSTORE PUSH1 0x0 DUP1 MLOAD PUSH1 0x20 PUSH2 0x5F31 DUP4 CODECOPY DUP2 MLOAD SWAP2 MSTORE SWAP1 PUSH4 0xD06CA61F SWAP1 PUSH2 0x1722 SWAP1 PUSH8 0xDE0B6B3A7640000 SWAP1 DUP8 SWAP1 PUSH1 0x4 ADD PUSH2 0x5E53 JUMP JUMPDEST PUSH1 0x0 PUSH1 0x40 MLOAD DUP1 DUP4 SUB DUP2 DUP7 GAS STATICCALL ISZERO DUP1 ISZERO PUSH2 0x173F JUMPI RETURNDATASIZE PUSH1 0x0 DUP1 RETURNDATACOPY RETURNDATASIZE PUSH1 0x0 REVERT JUMPDEST POP POP POP POP PUSH1 0x40 MLOAD RETURNDATASIZE PUSH1 0x0 DUP3 RETURNDATACOPY PUSH1 0x1F RETURNDATASIZE SWAP1 DUP2 ADD PUSH1 0x1F NOT AND DUP3 ADD PUSH1 0x40 MSTORE PUSH2 0x1767 SWAP2 SWAP1 DUP2 ADD SWAP1 PUSH2 0x5EAA JUMP JUMPDEST POP PUSH1 0x40 MLOAD PUSH4 0xD06CA61F PUSH1 0xE0 SHL DUP2 MSTORE PUSH1 0x0 DUP1 MLOAD PUSH1 0x20 PUSH2 0x5F31 DUP4 CODECOPY DUP2 MLOAD SWAP2 MSTORE SWAP1 PUSH4 0xD06CA61F SWAP1 PUSH2 0x17A3 SWAP1 PUSH8 0xDE0B6B3A7640000 SWAP1 DUP8 SWAP1 PUSH1 0x4 ADD PUSH2 0x5E53 JUMP JUMPDEST PUSH1 0x0 PUSH1 0x40 MLOAD DUP1 DUP4 SUB DUP2 DUP7 GAS STATICCALL ISZERO DUP1 ISZERO PUSH2 0x17C0 JUMPI RETURNDATASIZE PUSH1 0x0 DUP1 RETURNDATACOPY RETURNDATASIZE PUSH1 0x0 REVERT JUMPDEST POP POP POP POP PUSH1 0x40 MLOAD RETURNDATASIZE PUSH1 0x0 DUP3 RETURNDATACOPY PUSH1 0x1F RETURNDATASIZE SWAP1 DUP2 ADD PUSH1 0x1F NOT AND DUP3 ADD PUSH1 0x40 MSTORE PUSH2 0x17E8 SWAP2 SWAP1 DUP2 ADD SWAP1 PUSH2 0x5EAA JUMP JUMPDEST POP PUSH1 0x40 MLOAD PUSH4 0xD06CA61F PUSH1 0xE0 SHL DUP2 MSTORE PUSH1 0x0 DUP1 MLOAD PUSH1 0x20 PUSH2 0x5F31 DUP4 CODECOPY DUP2 MLOAD SWAP2 MSTORE SWAP1 PUSH4 0xD06CA61F SWAP1 PUSH2 0x1824 SWAP1 PUSH8 0xDE0B6B3A7640000 SWAP1 DUP8 SWAP1 PUSH1 0x4 ADD PUSH2 0x5E53 JUMP JUMPDEST PUSH1 0x0 PUSH1 0x40 MLOAD DUP1 DUP4 SUB DUP2 DUP7 GAS STATICCALL ISZERO DUP1 ISZERO PUSH2 0x1841 JUMPI RETURNDATASIZE PUSH1 0x0 DUP1 RETURNDATACOPY RETURNDATASIZE PUSH1 0x0 REVERT JUMPDEST POP POP POP POP PUSH1 0x40 MLOAD RETURNDATASIZE PUSH1 0x0 DUP3 RETURNDATACOPY PUSH1 0x1F RETURNDATASIZE SWAP1 DUP2 ADD PUSH1 0x1F NOT AND DUP3 ADD PUSH1 0x40 MSTORE PUSH2 0x1869 SWAP2 SWAP1 DUP2 ADD SWAP1 PUSH2 0x5EAA JUMP JUMPDEST POP PUSH1 0x40 MLOAD PUSH4 0xD06CA61F PUSH1 0xE0 SHL DUP2 MSTORE PUSH1 0x0 DUP1 MLOAD PUSH1 0x20 PUSH2 0x5F31 DUP4 CODECOPY DUP2 MLOAD SWAP2 MSTORE SWAP1 PUSH4 0xD06CA61F SWAP1 PUSH2 0x18A5 SWAP1 PUSH8 0xDE0B6B3A7640000 SWAP1 DUP8 SWAP1 PUSH1 0x4 ADD PUSH2 0x5E53 JUMP JUMPDEST PUSH1 0x0 PUSH1 0x40 MLOAD DUP1 DUP4 SUB DUP2 DUP7 GAS STATICCALL ISZERO DUP1 ISZERO PUSH2 0x18C2 JUMPI RETURNDATASIZE PUSH1 0x0 DUP1 RETURNDATACOPY RETURNDATASIZE PUSH1 0x0 REVERT JUMPDEST POP POP POP POP PUSH1 0x40 MLOAD RETURNDATASIZE PUSH1 0x0 DUP3 RETURNDATACOPY PUSH1 0x1F RETURNDATASIZE SWAP1 DUP2 ADD PUSH1 0x1F NOT AND DUP3 ADD PUSH1 0x40 MSTORE PUSH2 0x18EA SWAP2 SWAP1 DUP2 ADD SWAP1 PUSH2 0x5EAA JUMP JUMPDEST POP PUSH1 0x40 MLOAD PUSH4 0xD06CA61F PUSH1 0xE0 SHL DUP2 MSTORE PUSH1 0x0 DUP1 MLOAD PUSH1 0x20 PUSH2 0x5F31 DUP4 CODECOPY DUP2 MLOAD SWAP2 MSTORE SWAP1 PUSH4 0xD06CA61F SWAP1 PUSH2 0x1926 SWAP1 PUSH8 0xDE0B6B3A7640000 SWAP1 DUP8 SWAP1 PUSH1 0x4 ADD PUSH2 0x5E53 JUMP JUMPDEST PUSH1 0x0 PUSH1 0x40 MLOAD DUP1 DUP4 SUB DUP2 DUP7 GAS STATICCALL ISZERO DUP1 ISZERO PUSH2 0x1943 JUMPI RETURNDATASIZE PUSH1 0x0 DUP1 RETURNDATACOPY RETURNDATASIZE PUSH1 0x0 REVERT JUMPDEST POP POP POP POP PUSH1 0x40 MLOAD RETURNDATASIZE PUSH1 0x0 DUP3 RETURNDATACOPY PUSH1 0x1F RETURNDATASIZE SWAP1 DUP2 ADD PUSH1 0x1F NOT AND DUP3 ADD PUSH1 0x40 MSTORE PUSH2 0x196B SWAP2 SWAP1 DUP2 ADD SWAP1 PUSH2 0x5EAA JUMP JUMPDEST POP PUSH1 0x40 MLOAD PUSH4 0xD06CA61F PUSH1 0xE0 SHL DUP2 MSTORE PUSH1 0x0 DUP1 MLOAD PUSH1 0x20 PUSH2 0x5F31 DUP4 CODECOPY DUP2 MLOAD SWAP2 MSTORE SWAP1 PUSH4 0xD06CA61F SWAP1 PUSH2 0x19A7 SWAP1 PUSH8 0xDE0B6B3A7640000 SWAP1 DUP8 SWAP1 PUSH1 0x4 ADD PUSH2 0x5E53 JUMP JUMPDEST PUSH1 0x0 PUSH1 0x40 MLOAD DUP1 DUP4 SUB DUP2 DUP7 GAS STATICCALL ISZERO DUP1 ISZERO PUSH2 0x19C4 JUMPI RETURNDATASIZE PUSH1 0x0 DUP1 RETURNDATACOPY RETURNDATASIZE PUSH1 0x0 REVERT JUMPDEST POP POP POP POP PUSH1 0x40 MLOAD RETURNDATASIZE PUSH1 0x0 DUP3 RETURNDATACOPY PUSH1 0x1F RETURNDATASIZE SWAP1 DUP2 ADD PUSH1 0x1F NOT AND DUP3 ADD PUSH1 0x40 MSTORE PUSH2 0x19EC SWAP2 SWAP1 DUP2 ADD SWAP1 PUSH2 0x5EAA JUMP JUMPDEST POP PUSH1 0x40 MLOAD PUSH4 0xD06CA61F PUSH1 0xE0 SHL DUP2 MSTORE PUSH1 0x0 DUP1 MLOAD PUSH1 0x20 PUSH2 0x5F31 DUP4 CODECOPY DUP2 MLOAD SWAP2 MSTORE SWAP1 PUSH4 0xD06CA61F SWAP1 PUSH2 0x1A28 SWAP1 PUSH8 0xDE0B6B3A7640000 SWAP1 DUP8 SWAP1 PUSH1 0x4 ADD PUSH2 0x5E53 JUMP JUMPDEST PUSH1 0x0 PUSH1 0x40 MLOAD DUP1 DUP4 SUB DUP2 DUP7 GAS STATICCALL ISZERO DUP1 ISZERO PUSH2 0x1A45 JUMPI RETURNDATASIZE PUSH1 0x0 DUP1 RETURNDATACOPY RETURNDATASIZE PUSH1 0x0 REVERT JUMPDEST POP POP POP POP PUSH1 0x40 MLOAD RETURNDATASIZE PUSH1 0x0 DUP3 RETURNDATACOPY PUSH1 0x1F RETURNDATASIZE SWAP1 DUP2 ADD PUSH1 0x1F NOT AND DUP3 ADD PUSH1 0x40 MSTORE PUSH2 0x1A6D SWAP2 SWAP1 DUP2 ADD SWAP1 PUSH2 0x5EAA JUMP JUMPDEST POP PUSH1 0x40 MLOAD PUSH4 0xD06CA61F PUSH1 0xE0 SHL DUP2 MSTORE PUSH1 0x0 DUP1 MLOAD PUSH1 0x20 PUSH2 0x5F31 DUP4 CODECOPY DUP2 MLOAD SWAP2 MSTORE SWAP1 PUSH4 0xD06CA61F SWAP1 PUSH2 0x1AA9 SWAP1 PUSH8 0xDE0B6B3A7640000 SWAP1 DUP8 SWAP1 PUSH1 0x4 ADD PUSH2 0x5E53 JUMP JUMPDEST PUSH1 0x0 PUSH1 0x40 MLOAD DUP1 DUP4 SUB DUP2 DUP7 GAS STATICCALL ISZERO DUP1 ISZERO PUSH2 0x1AC6 JUMPI RETURNDATASIZE PUSH1 0x0 DUP1 RETURNDATACOPY RETURNDATASIZE PUSH1 0x0 REVERT JUMPDEST POP POP POP POP PUSH1 0x40 MLOAD RETURNDATASIZE PUSH1 0x0 DUP3 RETURNDATACOPY PUSH1 0x1F RETURNDATASIZE SWAP1 DUP2 ADD PUSH1 0x1F NOT AND DUP3 ADD PUSH1 0x40 MSTORE PUSH2 0x1AEE SWAP2 SWAP1 DUP2 ADD SWAP1 PUSH2 0x5EAA JUMP JUMPDEST POP PUSH1 0x40 MLOAD PUSH4 0xD06CA61F PUSH1 0xE0 SHL DUP2 MSTORE PUSH1 0x0 DUP1 MLOAD PUSH1 0x20 PUSH2 0x5F31 DUP4 CODECOPY DUP2 MLOAD SWAP2 MSTORE SWAP1 PUSH4 0xD06CA61F SWAP1 PUSH2 0x1B2A SWAP1 PUSH8 0xDE0B6B3A7640000 SWAP1 DUP8 SWAP1 PUSH1 0x4 ADD PUSH2 0x5E53 JUMP JUMPDEST PUSH1 0x0 PUSH1 0x40 MLOAD DUP1 DUP4 SUB DUP2 DUP7 GAS STATICCALL ISZERO DUP1 ISZERO PUSH2 0x1B47 JUMPI RETURNDATASIZE PUSH1 0x0 DUP1 RETURNDATACOPY RETURNDATASIZE PUSH1 0x0 REVERT JUMPDEST POP POP POP POP PUSH1 0x40 MLOAD RETURNDATASIZE PUSH1 0x0 DUP3 RETURNDATACOPY PUSH1 0x1F RETURNDATASIZE SWAP1 DUP2 ADD PUSH1 0x1F NOT AND DUP3 ADD PUSH1 0x40 MSTORE PUSH2 0x1B6F SWAP2 SWAP1 DUP2 ADD SWAP1 PUSH2 0x5EAA JUMP JUMPDEST POP PUSH1 0x40 MLOAD PUSH4 0xD06CA61F PUSH1 0xE0 SHL DUP2 MSTORE PUSH1 0x0 DUP1 MLOAD PUSH1 0x20 PUSH2 0x5F31 DUP4 CODECOPY DUP2 MLOAD SWAP2 MSTORE SWAP1 PUSH4 0xD06CA61F SWAP1 PUSH2 0x1BAB SWAP1 PUSH8 0xDE0B6B3A7640000 SWAP1 DUP8 SWAP1 PUSH1 0x4 ADD PUSH2 0x5E53 JUMP JUMPDEST PUSH1 0x0 PUSH1 0x40 MLOAD DUP1 DUP4 SUB DUP2 DUP7 GAS STATICCALL ISZERO DUP1 ISZERO PUSH2 0x1BC8 JUMPI RETURNDATASIZE PUSH1 0x0 DUP1 RETURNDATACOPY RETURNDATASIZE PUSH1 0x0 REVERT JUMPDEST POP POP POP POP PUSH1 0x40 MLOAD RETURNDATASIZE PUSH1 0x0 DUP3 RETURNDATACOPY PUSH1 0x1F RETURNDATASIZE SWAP1 DUP2 ADD PUSH1 0x1F NOT AND DUP3 ADD PUSH1 0x40 MSTORE PUSH2 0x1BF0 SWAP2 SWAP1 DUP2 ADD SWAP1 PUSH2 0x5EAA JUMP JUMPDEST POP PUSH1 0x40 MLOAD PUSH4 0xD06CA61F PUSH1 0xE0 SHL DUP2 MSTORE PUSH1 0x0 DUP1 MLOAD PUSH1 0x20 PUSH2 0x5F31 DUP4 CODECOPY DUP2 MLOAD SWAP2 MSTORE SWAP1 PUSH4 0xD06CA61F SWAP1 PUSH2 0x1C2C SWAP1 PUSH8 0xDE0B6B3A7640000 SWAP1 DUP8 SWAP1 PUSH1 0x4 ADD PUSH2 0x5E53 JUMP JUMPDEST PUSH1 0x0 PUSH1 0x40 MLOAD DUP1 DUP4 SUB DUP2 DUP7 GAS STATICCALL ISZERO DUP1 ISZERO PUSH2 0x1C49 JUMPI RETURNDATASIZE PUSH1 0x0 DUP1 RETURNDATACOPY RETURNDATASIZE PUSH1 0x0 REVERT JUMPDEST POP POP POP POP PUSH1 0x40 MLOAD RETURNDATASIZE PUSH1 0x0 DUP3 RETURNDATACOPY PUSH1 0x1F RETURNDATASIZE SWAP1 DUP2 ADD PUSH1 0x1F NOT AND DUP3 ADD PUSH1 0x40 MSTORE PUSH2 0x1C71 SWAP2 SWAP1 DUP2 ADD SWAP1 PUSH2 0x5EAA JUMP JUMPDEST POP PUSH1 0x40 MLOAD PUSH4 0xD06CA61F PUSH1 0xE0 SHL DUP2 MSTORE PUSH1 0x0 DUP1 MLOAD PUSH1 0x20 PUSH2 0x5F31 DUP4 CODECOPY DUP2 MLOAD SWAP2 MSTORE SWAP1 PUSH4 0xD06CA61F SWAP1 PUSH2 0x1CAD SWAP1 PUSH8 0xDE0B6B3A7640000 SWAP1 DUP8 SWAP1 PUSH1 0x4 ADD PUSH2 0x5E53 JUMP JUMPDEST PUSH1 0x0 PUSH1 0x40 MLOAD DUP1 DUP4 SUB DUP2 DUP7 GAS STATICCALL ISZERO DUP1 ISZERO PUSH2 0x1CCA JUMPI RETURNDATASIZE PUSH1 0x0 DUP1 RETURNDATACOPY RETURNDATASIZE PUSH1 0x0 REVERT JUMPDEST POP POP POP POP PUSH1 0x40 MLOAD RETURNDATASIZE PUSH1 0x0 DUP3 RETURNDATACOPY PUSH1 0x1F RETURNDATASIZE SWAP1 DUP2 ADD PUSH1 0x1F NOT AND DUP3 ADD PUSH1 0x40 MSTORE PUSH2 0x1CF2 SWAP2 SWAP1 DUP2 ADD SWAP1 PUSH2 0x5EAA JUMP JUMPDEST POP PUSH1 0x40 MLOAD PUSH4 0xD06CA61F PUSH1 0xE0 SHL DUP2 MSTORE PUSH1 0x0 DUP1 MLOAD PUSH1 0x20 PUSH2 0x5F31 DUP4 CODECOPY DUP2 MLOAD SWAP2 MSTORE SWAP1 PUSH4 0xD06CA61F SWAP1 PUSH2 0x1D2E SWAP1 PUSH8 0xDE0B6B3A7640000 SWAP1 DUP8 SWAP1 PUSH1 0x4 ADD PUSH2 0x5E53 JUMP JUMPDEST PUSH1 0x0 PUSH1 0x40 MLOAD DUP1 DUP4 SUB DUP2 DUP7 GAS STATICCALL ISZERO DUP1 ISZERO PUSH2 0x1D4B JUMPI RETURNDATASIZE PUSH1 0x0 DUP1 RETURNDATACOPY RETURNDATASIZE PUSH1 0x0 REVERT JUMPDEST POP POP POP POP PUSH1 0x40 MLOAD RETURNDATASIZE PUSH1 0x0 DUP3 RETURNDATACOPY PUSH1 0x1F RETURNDATASIZE SWAP1 DUP2 ADD PUSH1 0x1F NOT AND DUP3 ADD PUSH1 0x40 MSTORE PUSH2 0x1D73 SWAP2 SWAP1 DUP2 ADD SWAP1 PUSH2 0x5EAA JUMP JUMPDEST POP PUSH1 0x40 MLOAD PUSH4 0xD06CA61F PUSH1 0xE0 SHL DUP2 MSTORE PUSH1 0x0 DUP1 MLOAD PUSH1 0x20 PUSH2 0x5F31 DUP4 CODECOPY DUP2 MLOAD SWAP2 MSTORE SWAP1 PUSH4 0xD06CA61F SWAP1 PUSH2 0x1DAF SWAP1 PUSH8 0xDE0B6B3A7640000 SWAP1 DUP8 SWAP1 PUSH1 0x4 ADD PUSH2 0x5E53 JUMP JUMPDEST PUSH1 0x0 PUSH1 0x40 MLOAD DUP1 DUP4 SUB DUP2 DUP7 GAS STATICCALL ISZERO DUP1 ISZERO PUSH2 0x1DCC JUMPI RETURNDATASIZE PUSH1 0x0 DUP1 RETURNDATACOPY RETURNDATASIZE PUSH1 0x0 REVERT JUMPDEST POP POP POP POP PUSH1 0x40 MLOAD RETURNDATASIZE PUSH1 0x0 DUP3 RETURNDATACOPY PUSH1 0x1F RETURNDATASIZE SWAP1 DUP2 ADD PUSH1 0x1F NOT AND DUP3 ADD PUSH1 0x40 MSTORE PUSH2 0x1DF4 SWAP2 SWAP1 DUP2 ADD SWAP1 PUSH2 0x5EAA JUMP JUMPDEST POP PUSH1 0x40 MLOAD PUSH4 0xD06CA61F PUSH1 0xE0 SHL DUP2 MSTORE PUSH1 0x0 DUP1 MLOAD PUSH1 0x20 PUSH2 0x5F31 DUP4 CODECOPY DUP2 MLOAD SWAP2 MSTORE SWAP1 PUSH4 0xD06CA61F SWAP1 PUSH2 0x1E30 SWAP1 PUSH8 0xDE0B6B3A7640000 SWAP1 DUP8 SWAP1 PUSH1 0x4 ADD PUSH2 0x5E53 JUMP JUMPDEST PUSH1 0x0 PUSH1 0x40 MLOAD DUP1 DUP4 SUB DUP2 DUP7 GAS STATICCALL ISZERO DUP1 ISZERO PUSH2 0x1E4D JUMPI RETURNDATASIZE PUSH1 0x0 DUP1 RETURNDATACOPY RETURNDATASIZE PUSH1 0x0 REVERT JUMPDEST POP POP POP POP PUSH1 0x40 MLOAD RETURNDATASIZE PUSH1 0x0 DUP3 RETURNDATACOPY PUSH1 0x1F RETURNDATASIZE SWAP1 DUP2 ADD PUSH1 0x1F NOT AND DUP3 ADD PUSH1 0x40 MSTORE PUSH2 0x1E75 SWAP2 SWAP1 DUP2 ADD SWAP1 PUSH2 0x5EAA JUMP JUMPDEST POP PUSH1 0x40 MLOAD PUSH4 0xD06CA61F PUSH1 0xE0 SHL DUP2 MSTORE PUSH1 0x0 DUP1 MLOAD PUSH1 0x20 PUSH2 0x5F31 DUP4 CODECOPY DUP2 MLOAD SWAP2 MSTORE SWAP1 PUSH4 0xD06CA61F SWAP1 PUSH2 0x1EB1 SWAP1 PUSH8 0xDE0B6B3A7640000 SWAP1 DUP8 SWAP1 PUSH1 0x4 ADD PUSH2 0x5E53 JUMP JUMPDEST PUSH1 0x0 PUSH1 0x40 MLOAD DUP1 DUP4 SUB DUP2 DUP7 GAS STATICCALL ISZERO DUP1 ISZERO PUSH2 0x1ECE JUMPI RETURNDATASIZE PUSH1 0x0 DUP1 RETURNDATACOPY RETURNDATASIZE PUSH1 0x0 REVERT JUMPDEST POP POP POP POP PUSH1 0x40 MLOAD RETURNDATASIZE PUSH1 0x0 DUP3 RETURNDATACOPY PUSH1 0x1F RETURNDATASIZE SWAP1 DUP2 ADD PUSH1 0x1F NOT AND DUP3 ADD PUSH1 0x40 MSTORE PUSH2 0x1EF6 SWAP2 SWAP1 DUP2 ADD SWAP1 PUSH2 0x5EAA JUMP JUMPDEST POP PUSH1 0x40 MLOAD PUSH4 0xD06CA61F PUSH1 0xE0 SHL DUP2 MSTORE PUSH1 0x0 DUP1 MLOAD PUSH1 0x20 PUSH2 0x5F31 DUP4 CODECOPY DUP2 MLOAD SWAP2 MSTORE SWAP1 PUSH4 0xD06CA61F SWAP1 PUSH2 0x1F32 SWAP1 PUSH8 0xDE0B6B3A7640000 SWAP1 DUP8 SWAP1 PUSH1 0x4 ADD PUSH2 0x5E53 JUMP JUMPDEST PUSH1 0x0 PUSH1 0x40 MLOAD DUP1 DUP4 SUB DUP2 DUP7 GAS STATICCALL ISZERO DUP1 ISZERO PUSH2 0x1F4F JUMPI RETURNDATASIZE PUSH1 0x0 DUP1 RETURNDATACOPY RETURNDATASIZE PUSH1 0x0 REVERT JUMPDEST POP POP POP POP PUSH1 0x40 MLOAD RETURNDATASIZE PUSH1 0x0 DUP3 RETURNDATACOPY PUSH1 0x1F RETURNDATASIZE SWAP1 DUP2 ADD PUSH1 0x1F NOT AND DUP3 ADD PUSH1 0x40 MSTORE PUSH2 0x1F77 SWAP2 SWAP1 DUP2 ADD SWAP1 PUSH2 0x5EAA JUMP JUMPDEST POP PUSH1 0x40 MLOAD PUSH4 0xD06CA61F PUSH1 0xE0 SHL DUP2 MSTORE PUSH1 0x0 DUP1 MLOAD PUSH1 0x20 PUSH2 0x5F31 DUP4 CODECOPY DUP2 MLOAD SWAP2 MSTORE SWAP1 PUSH4 0xD06CA61F SWAP1 PUSH2 0x1FB3 SWAP1 PUSH8 0xDE0B6B3A7640000 SWAP1 DUP8 SWAP1 PUSH1 0x4 ADD PUSH2 0x5E53 JUMP JUMPDEST PUSH1 0x0 PUSH1 0x40 MLOAD DUP1 DUP4 SUB DUP2 DUP7 GAS STATICCALL ISZERO DUP1 ISZERO PUSH2 0x1FD0 JUMPI RETURNDATASIZE PUSH1 0x0 DUP1 RETURNDATACOPY RETURNDATASIZE PUSH1 0x0 REVERT JUMPDEST POP POP POP POP PUSH1 0x40 MLOAD RETURNDATASIZE PUSH1 0x0 DUP3 RETURNDATACOPY PUSH1 0x1F RETURNDATASIZE SWAP1 DUP2 ADD PUSH1 0x1F NOT AND DUP3 ADD PUSH1 0x40 MSTORE PUSH2 0x1FF8 SWAP2 SWAP1 DUP2 ADD SWAP1 PUSH2 0x5EAA JUMP JUMPDEST POP PUSH1 0x40 MLOAD PUSH4 0xD06CA61F PUSH1 0xE0 SHL DUP2 MSTORE PUSH1 0x0 DUP1 MLOAD PUSH1 0x20 PUSH2 0x5F31 DUP4 CODECOPY DUP2 MLOAD SWAP2 MSTORE SWAP1 PUSH4 0xD06CA61F SWAP1 PUSH2 0x2034 SWAP1 PUSH8 0xDE0B6B3A7640000 SWAP1 DUP8 SWAP1 PUSH1 0x4 ADD PUSH2 0x5E53 JUMP JUMPDEST PUSH1 0x0 PUSH1 0x40 MLOAD DUP1 DUP4 SUB DUP2 DUP7 GAS STATICCALL ISZERO DUP1 ISZERO PUSH2 0x2051 JUMPI RETURNDATASIZE PUSH1 0x0 DUP1 RETURNDATACOPY RETURNDATASIZE PUSH1 0x0 REVERT JUMPDEST POP POP POP POP PUSH1 0x40 MLOAD RETURNDATASIZE PUSH1 0x0 DUP3 RETURNDATACOPY PUSH1 0x1F RETURNDATASIZE SWAP1 DUP2 ADD PUSH1 0x1F NOT AND DUP3 ADD PUSH1 0x40 MSTORE PUSH2 0x2079 SWAP2 SWAP1 DUP2 ADD SWAP1 PUSH2 0x5EAA JUMP JUMPDEST POP PUSH1 0x40 MLOAD PUSH4 0xD06CA61F PUSH1 0xE0 SHL DUP2 MSTORE PUSH1 0x0 DUP1 MLOAD PUSH1 0x20 PUSH2 0x5F31 DUP4 CODECOPY DUP2 MLOAD SWAP2 MSTORE SWAP1 PUSH4 0xD06CA61F SWAP1 PUSH2 0x20B5 SWAP1 PUSH8 0xDE0B6B3A7640000 SWAP1 DUP8 SWAP1 PUSH1 0x4 ADD PUSH2 0x5E53 JUMP JUMPDEST PUSH1 0x0 PUSH1 0x40 MLOAD DUP1 DUP4 SUB DUP2 DUP7 GAS STATICCALL ISZERO DUP1 ISZERO PUSH2 0x20D2 JUMPI RETURNDATASIZE PUSH1 0x0 DUP1 RETURNDATACOPY RETURNDATASIZE PUSH1 0x0 REVERT JUMPDEST POP POP POP POP PUSH1 0x40 MLOAD RETURNDATASIZE PUSH1 0x0 DUP3 RETURNDATACOPY PUSH1 0x1F RETURNDATASIZE SWAP1 DUP2 ADD PUSH1 0x1F NOT AND DUP3 ADD PUSH1 0x40 MSTORE PUSH2 0x20FA SWAP2 SWAP1 DUP2 ADD SWAP1 PUSH2 0x5EAA JUMP JUMPDEST POP PUSH1 0x40 MLOAD PUSH4 0xD06CA61F PUSH1 0xE0 SHL DUP2 MSTORE PUSH1 0x0 DUP1 MLOAD PUSH1 0x20 PUSH2 0x5F31 DUP4 CODECOPY DUP2 MLOAD SWAP2 MSTORE SWAP1 PUSH4 0xD06CA61F SWAP1 PUSH2 0x2136 SWAP1 PUSH8 0xDE0B6B3A7640000 SWAP1 DUP8 SWAP1 PUSH1 0x4 ADD PUSH2 0x5E53 JUMP JUMPDEST PUSH1 0x0 PUSH1 0x40 MLOAD DUP1 DUP4 SUB DUP2 DUP7 GAS STATICCALL ISZERO DUP1 ISZERO PUSH2 0x2153 JUMPI RETURNDATASIZE PUSH1 0x0 DUP1 RETURNDATACOPY RETURNDATASIZE PUSH1 0x0 REVERT JUMPDEST POP POP POP POP PUSH1 0x40 MLOAD RETURNDATASIZE PUSH1 0x0 DUP3 RETURNDATACOPY PUSH1 0x1F RETURNDATASIZE SWAP1 DUP2 ADD PUSH1 0x1F NOT AND DUP3 ADD PUSH1 0x40 MSTORE PUSH2 0x217B SWAP2 SWAP1 DUP2 ADD SWAP1 PUSH2 0x5EAA JUMP JUMPDEST POP PUSH1 0x40 MLOAD PUSH4 0xD06CA61F PUSH1 0xE0 SHL DUP2 MSTORE PUSH1 0x0 DUP1 MLOAD PUSH1 0x20 PUSH2 0x5F31 DUP4 CODECOPY DUP2 MLOAD SWAP2 MSTORE SWAP1 PUSH4 0xD06CA61F SWAP1 PUSH2 0x21B7 SWAP1 PUSH8 0xDE0B6B3A7640000 SWAP1 DUP8 SWAP1 PUSH1 0x4 ADD PUSH2 0x5E53 JUMP JUMPDEST PUSH1 0x0 PUSH1 0x40 MLOAD DUP1 DUP4 SUB DUP2 DUP7 GAS STATICCALL ISZERO DUP1 ISZERO PUSH2 0x21D4 JUMPI RETURNDATASIZE PUSH1 0x0 DUP1 RETURNDATACOPY RETURNDATASIZE PUSH1 0x0 REVERT JUMPDEST POP POP POP POP PUSH1 0x40 MLOAD RETURNDATASIZE PUSH1 0x0 DUP3 RETURNDATACOPY PUSH1 0x1F RETURNDATASIZE SWAP1 DUP2 ADD PUSH1 0x1F NOT AND DUP3 ADD PUSH1 0x40 MSTORE PUSH2 0x21FC SWAP2 SWAP1 DUP2 ADD SWAP1 PUSH2 0x5EAA JUMP JUMPDEST POP PUSH1 0x40 MLOAD PUSH4 0xD06CA61F PUSH1 0xE0 SHL DUP2 MSTORE PUSH1 0x0 DUP1 MLOAD PUSH1 0x20 PUSH2 0x5F31 DUP4 CODECOPY DUP2 MLOAD SWAP2 MSTORE SWAP1 PUSH4 0xD06CA61F SWAP1 PUSH2 0x2238 SWAP1 PUSH8 0xDE0B6B3A7640000 SWAP1 DUP8 SWAP1 PUSH1 0x4 ADD PUSH2 0x5E53 JUMP JUMPDEST PUSH1 0x0 PUSH1 0x40 MLOAD DUP1 DUP4 SUB DUP2 DUP7 GAS STATICCALL ISZERO DUP1 ISZERO PUSH2 0x2255 JUMPI RETURNDATASIZE PUSH1 0x0 DUP1 RETURNDATACOPY RETURNDATASIZE PUSH1 0x0 REVERT JUMPDEST POP POP POP POP PUSH1 0x40 MLOAD RETURNDATASIZE PUSH1 0x0 DUP3 RETURNDATACOPY PUSH1 0x1F RETURNDATASIZE SWAP1 DUP2 ADD PUSH1 0x1F NOT AND DUP3 ADD PUSH1 0x40 MSTORE PUSH2 0x227D SWAP2 SWAP1 DUP2 ADD SWAP1 PUSH2 0x5EAA JUMP JUMPDEST POP PUSH1 0x40 MLOAD PUSH4 0xD06CA61F PUSH1 0xE0 SHL DUP2 MSTORE PUSH1 0x0 DUP1 MLOAD PUSH1 0x20 PUSH2 0x5F31 DUP4 CODECOPY DUP2 MLOAD SWAP2 MSTORE SWAP1 PUSH4 0xD06CA61F SWAP1 PUSH2 0x22B9 SWAP1 PUSH8 0xDE0B6B3A7640000 SWAP1 DUP8 SWAP1 PUSH1 0x4 ADD PUSH2 0x5E53 JUMP JUMPDEST PUSH1 0x0 PUSH1 0x40 MLOAD DUP1 DUP4 SUB DUP2 DUP7 GAS STATICCALL ISZERO DUP1 ISZERO PUSH2 0x22D6 JUMPI RETURNDATASIZE PUSH1 0x0 DUP1 RETURNDATACOPY RETURNDATASIZE PUSH1 0x0 REVERT JUMPDEST POP POP POP POP PUSH1 0x40 MLOAD RETURNDATASIZE PUSH1 0x0 DUP3 RETURNDATACOPY PUSH1 0x1F RETURNDATASIZE SWAP1 DUP2 ADD PUSH1 0x1F NOT AND DUP3 ADD PUSH1 0x40 MSTORE PUSH2 0x22FE SWAP2 SWAP1 DUP2 ADD SWAP1 PUSH2 0x5EAA JUMP JUMPDEST POP PUSH1 0x40 MLOAD PUSH4 0xD06CA61F PUSH1 0xE0 SHL DUP2 MSTORE PUSH1 0x0 DUP1 MLOAD PUSH1 0x20 PUSH2 0x5F31 DUP4 CODECOPY DUP2 MLOAD SWAP2 MSTORE SWAP1 PUSH4 0xD06CA61F SWAP1 PUSH2 0x233A SWAP1 PUSH8 0xDE0B6B3A7640000 SWAP1 DUP8 SWAP1 PUSH1 0x4 ADD PUSH2 0x5E53 JUMP JUMPDEST PUSH1 0x0 PUSH1 0x40 MLOAD DUP1 DUP4 SUB DUP2 DUP7 GAS STATICCALL ISZERO DUP1 ISZERO PUSH2 0x2357 JUMPI RETURNDATASIZE PUSH1 0x0 DUP1 RETURNDATACOPY RETURNDATASIZE PUSH1 0x0 REVERT JUMPDEST POP POP POP POP PUSH1 0x40 MLOAD RETURNDATASIZE PUSH1 0x0 DUP3 RETURNDATACOPY PUSH1 0x1F RETURNDATASIZE SWAP1 DUP2 ADD PUSH1 0x1F NOT AND DUP3 ADD PUSH1 0x40 MSTORE PUSH2 0x237F SWAP2 SWAP1 DUP2 ADD SWAP1 PUSH2 0x5EAA JUMP JUMPDEST POP PUSH1 0x40 MLOAD PUSH4 0xD06CA61F PUSH1 0xE0 SHL DUP2 MSTORE PUSH1 0x0 DUP1 MLOAD PUSH1 0x20 PUSH2 0x5F31 DUP4 CODECOPY DUP2 MLOAD SWAP2 MSTORE SWAP1 PUSH4 0xD06CA61F SWAP1 PUSH2 0x23BB SWAP1 PUSH8 0xDE0B6B3A7640000 SWAP1 DUP8 SWAP1 PUSH1 0x4 ADD PUSH2 0x5E53 JUMP JUMPDEST PUSH1 0x0 PUSH1 0x40 MLOAD DUP1 DUP4 SUB DUP2 DUP7 GAS STATICCALL ISZERO DUP1 ISZERO PUSH2 0x23D8 JUMPI RETURNDATASIZE PUSH1 0x0 DUP1 RETURNDATACOPY RETURNDATASIZE PUSH1 0x0 REVERT JUMPDEST POP POP POP POP PUSH1 0x40 MLOAD RETURNDATASIZE PUSH1 0x0 DUP3 RETURNDATACOPY PUSH1 0x1F RETURNDATASIZE SWAP1 DUP2 ADD PUSH1 0x1F NOT AND DUP3 ADD PUSH1 0x40 MSTORE PUSH2 0x2400 SWAP2 SWAP1 DUP2 ADD SWAP1 PUSH2 0x5EAA JUMP JUMPDEST POP PUSH1 0x40 MLOAD PUSH4 0xD06CA61F PUSH1 0xE0 SHL DUP2 MSTORE PUSH1 0x0 DUP1 MLOAD PUSH1 0x20 PUSH2 0x5F31 DUP4 CODECOPY DUP2 MLOAD SWAP2 MSTORE SWAP1 PUSH4 0xD06CA61F SWAP1 PUSH2 0x243C SWAP1 PUSH8 0xDE0B6B3A7640000 SWAP1 DUP8 SWAP1 PUSH1 0x4 ADD PUSH2 0x5E53 JUMP JUMPDEST PUSH1 0x0 PUSH1 0x40 MLOAD DUP1 DUP4 SUB DUP2 DUP7 GAS STATICCALL ISZERO DUP1 ISZERO PUSH2 0x2459 JUMPI RETURNDATASIZE PUSH1 0x0 DUP1 RETURNDATACOPY RETURNDATASIZE PUSH1 0x0 REVERT JUMPDEST POP POP POP POP PUSH1 0x40 MLOAD RETURNDATASIZE PUSH1 0x0 DUP3 RETURNDATACOPY PUSH1 0x1F RETURNDATASIZE SWAP1 DUP2 ADD PUSH1 0x1F NOT AND DUP3 ADD PUSH1 0x40 MSTORE PUSH2 0x2481 SWAP2 SWAP1 DUP2 ADD SWAP1 PUSH2 0x5EAA JUMP JUMPDEST POP PUSH1 0x40 MLOAD PUSH4 0xD06CA61F PUSH1 0xE0 SHL DUP2 MSTORE PUSH1 0x0 DUP1 MLOAD PUSH1 0x20 PUSH2 0x5F31 DUP4 CODECOPY DUP2 MLOAD SWAP2 MSTORE SWAP1 PUSH4 0xD06CA61F SWAP1 PUSH2 0x24BD SWAP1 PUSH8 0xDE0B6B3A7640000 SWAP1 DUP8 SWAP1 PUSH1 0x4 ADD PUSH2 0x5E53 JUMP JUMPDEST PUSH1 0x0 PUSH1 0x40 MLOAD DUP1 DUP4 SUB DUP2 DUP7 GAS STATICCALL ISZERO DUP1 ISZERO PUSH2 0x24DA JUMPI RETURNDATASIZE PUSH1 0x0 DUP1 RETURNDATACOPY RETURNDATASIZE PUSH1 0x0 REVERT JUMPDEST POP POP POP POP PUSH1 0x40 MLOAD RETURNDATASIZE PUSH1 0x0 DUP3 RETURNDATACOPY PUSH1 0x1F RETURNDATASIZE SWAP1 DUP2 ADD PUSH1 0x1F NOT AND DUP3 ADD PUSH1 0x40 MSTORE PUSH2 0x2502 SWAP2 SWAP1 DUP2 ADD SWAP1 PUSH2 0x5EAA JUMP JUMPDEST POP PUSH1 0x40 MLOAD PUSH4 0xD06CA61F PUSH1 0xE0 SHL DUP2 MSTORE PUSH1 0x0 DUP1 MLOAD PUSH1 0x20 PUSH2 0x5F31 DUP4 CODECOPY DUP2 MLOAD SWAP2 MSTORE SWAP1 PUSH4 0xD06CA61F SWAP1 PUSH2 0x253E SWAP1 PUSH8 0xDE0B6B3A7640000 SWAP1 DUP8 SWAP1 PUSH1 0x4 ADD PUSH2 0x5E53 JUMP JUMPDEST PUSH1 0x0 PUSH1 0x40 MLOAD DUP1 DUP4 SUB DUP2 DUP7 GAS STATICCALL ISZERO DUP1 ISZERO PUSH2 0x255B JUMPI RETURNDATASIZE PUSH1 0x0 DUP1 RETURNDATACOPY RETURNDATASIZE PUSH1 0x0 REVERT JUMPDEST POP POP POP POP PUSH1 0x40 MLOAD RETURNDATASIZE PUSH1 0x0 DUP3 RETURNDATACOPY PUSH1 0x1F RETURNDATASIZE SWAP1 DUP2 ADD PUSH1 0x1F NOT AND DUP3 ADD PUSH1 0x40 MSTORE PUSH2 0x2583 SWAP2 SWAP1 DUP2 ADD SWAP1 PUSH2 0x5EAA JUMP JUMPDEST POP PUSH1 0x40 MLOAD PUSH4 0xD06CA61F PUSH1 0xE0 SHL DUP2 MSTORE PUSH1 0x0 DUP1 MLOAD PUSH1 0x20 PUSH2 0x5F31 DUP4 CODECOPY DUP2 MLOAD SWAP2 MSTORE SWAP1 PUSH4 0xD06CA61F SWAP1 PUSH2 0x25BF SWAP1 PUSH8 0xDE0B6B3A7640000 SWAP1 DUP8 SWAP1 PUSH1 0x4 ADD PUSH2 0x5E53 JUMP JUMPDEST PUSH1 0x0 PUSH1 0x40 MLOAD DUP1 DUP4 SUB DUP2 DUP7 GAS STATICCALL ISZERO DUP1 ISZERO PUSH2 0x25DC JUMPI RETURNDATASIZE PUSH1 0x0 DUP1 RETURNDATACOPY RETURNDATASIZE PUSH1 0x0 REVERT JUMPDEST POP POP POP POP PUSH1 0x40 MLOAD RETURNDATASIZE PUSH1 0x0 DUP3 RETURNDATACOPY PUSH1 0x1F RETURNDATASIZE SWAP1 DUP2 ADD PUSH1 0x1F NOT AND DUP3 ADD PUSH1 0x40 MSTORE PUSH2 0x2604 SWAP2 SWAP1 DUP2 ADD SWAP1 PUSH2 0x5EAA JUMP JUMPDEST POP PUSH1 0x40 MLOAD PUSH4 0xD06CA61F PUSH1 0xE0 SHL DUP2 MSTORE PUSH1 0x0 DUP1 MLOAD PUSH1 0x20 PUSH2 0x5F31 DUP4 CODECOPY DUP2 MLOAD SWAP2 MSTORE SWAP1 PUSH4 0xD06CA61F SWAP1 PUSH2 0x2640 SWAP1 PUSH8 0xDE0B6B3A7640000 SWAP1 DUP8 SWAP1 PUSH1 0x4 ADD PUSH2 0x5E53 JUMP JUMPDEST PUSH1 0x0 PUSH1 0x40 MLOAD DUP1 DUP4 SUB DUP2 DUP7 GAS STATICCALL ISZERO DUP1 ISZERO PUSH2 0x265D JUMPI RETURNDATASIZE PUSH1 0x0 DUP1 RETURNDATACOPY RETURNDATASIZE PUSH1 0x0 REVERT JUMPDEST POP POP POP POP PUSH1 0x40 MLOAD RETURNDATASIZE PUSH1 0x0 DUP3 RETURNDATACOPY PUSH1 0x1F RETURNDATASIZE SWAP1 DUP2 ADD PUSH1 0x1F NOT AND DUP3 ADD PUSH1 0x40 MSTORE PUSH2 0x2685 SWAP2 SWAP1 DUP2 ADD SWAP1 PUSH2 0x5EAA JUMP JUMPDEST POP PUSH1 0x40 MLOAD PUSH4 0xD06CA61F PUSH1 0xE0 SHL DUP2 MSTORE PUSH1 0x0 DUP1 MLOAD PUSH1 0x20 PUSH2 0x5F31 DUP4 CODECOPY DUP2 MLOAD SWAP2 MSTORE SWAP1 PUSH4 0xD06CA61F SWAP1 PUSH2 0x26C1 SWAP1 PUSH8 0xDE0B6B3A7640000 SWAP1 DUP8 SWAP1 PUSH1 0x4 ADD PUSH2 0x5E53 JUMP JUMPDEST PUSH1 0x0 PUSH1 0x40 MLOAD DUP1 DUP4 SUB DUP2 DUP7 GAS STATICCALL ISZERO DUP1 ISZERO PUSH2 0x26DE JUMPI RETURNDATASIZE PUSH1 0x0 DUP1 RETURNDATACOPY RETURNDATASIZE PUSH1 0x0 REVERT JUMPDEST POP POP POP POP PUSH1 0x40 MLOAD RETURNDATASIZE PUSH1 0x0 DUP3 RETURNDATACOPY PUSH1 0x1F RETURNDATASIZE SWAP1 DUP2 ADD PUSH1 0x1F NOT AND DUP3 ADD PUSH1 0x40 MSTORE PUSH2 0x2706 SWAP2 SWAP1 DUP2 ADD SWAP1 PUSH2 0x5EAA JUMP JUMPDEST POP PUSH1 0x40 MLOAD PUSH4 0xD06CA61F PUSH1 0xE0 SHL DUP2 MSTORE PUSH1 0x0 DUP1 MLOAD PUSH1 0x20 PUSH2 0x5F31 DUP4 CODECOPY DUP2 MLOAD SWAP2 MSTORE SWAP1 PUSH4 0xD06CA61F SWAP1 PUSH2 0x2742 SWAP1 PUSH8 0xDE0B6B3A7640000 SWAP1 DUP8 SWAP1 PUSH1 0x4 ADD PUSH2 0x5E53 JUMP JUMPDEST PUSH1 0x0 PUSH1 0x40 MLOAD DUP1 DUP4 SUB DUP2 DUP7 GAS STATICCALL ISZERO DUP1 ISZERO PUSH2 0x275F JUMPI RETURNDATASIZE PUSH1 0x0 DUP1 RETURNDATACOPY RETURNDATASIZE PUSH1 0x0 REVERT JUMPDEST POP POP POP POP PUSH1 0x40 MLOAD RETURNDATASIZE PUSH1 0x0 DUP3 RETURNDATACOPY PUSH1 0x1F RETURNDATASIZE SWAP1 DUP2 ADD PUSH1 0x1F NOT AND DUP3 ADD PUSH1 0x40 MSTORE PUSH2 0x2787 SWAP2 SWAP1 DUP2 ADD SWAP1 PUSH2 0x5EAA JUMP JUMPDEST POP PUSH1 0x40 MLOAD PUSH4 0xD06CA61F PUSH1 0xE0 SHL DUP2 MSTORE PUSH1 0x0 DUP1 MLOAD PUSH1 0x20 PUSH2 0x5F31 DUP4 CODECOPY DUP2 MLOAD SWAP2 MSTORE SWAP1 PUSH4 0xD06CA61F SWAP1 PUSH2 0x27C3 SWAP1 PUSH8 0xDE0B6B3A7640000 SWAP1 DUP8 SWAP1 PUSH1 0x4 ADD PUSH2 0x5E53 JUMP JUMPDEST PUSH1 0x0 PUSH1 0x40 MLOAD DUP1 DUP4 SUB DUP2 DUP7 GAS STATICCALL ISZERO DUP1 ISZERO PUSH2 0x27E0 JUMPI RETURNDATASIZE PUSH1 0x0 DUP1 RETURNDATACOPY RETURNDATASIZE PUSH1 0x0 REVERT JUMPDEST POP POP POP POP PUSH1 0x40 MLOAD RETURNDATASIZE PUSH1 0x0 DUP3 RETURNDATACOPY PUSH1 0x1F RETURNDATASIZE SWAP1 DUP2 ADD PUSH1 0x1F NOT AND DUP3 ADD PUSH1 0x40 MSTORE PUSH2 0x2808 SWAP2 SWAP1 DUP2 ADD SWAP1 PUSH2 0x5EAA JUMP JUMPDEST POP PUSH1 0x40 MLOAD PUSH4 0xD06CA61F PUSH1 0xE0 SHL DUP2 MSTORE PUSH1 0x0 DUP1 MLOAD PUSH1 0x20 PUSH2 0x5F31 DUP4 CODECOPY DUP2 MLOAD SWAP2 MSTORE SWAP1 PUSH4 0xD06CA61F SWAP1 PUSH2 0x2844 SWAP1 PUSH8 0xDE0B6B3A7640000 SWAP1 DUP8 SWAP1 PUSH1 0x4 ADD PUSH2 0x5E53 JUMP JUMPDEST PUSH1 0x0 PUSH1 0x40 MLOAD DUP1 DUP4 SUB DUP2 DUP7 GAS STATICCALL ISZERO DUP1 ISZERO PUSH2 0x2861 JUMPI RETURNDATASIZE PUSH1 0x0 DUP1 RETURNDATACOPY RETURNDATASIZE PUSH1 0x0 REVERT JUMPDEST POP POP POP POP PUSH1 0x40 MLOAD RETURNDATASIZE PUSH1 0x0 DUP3 RETURNDATACOPY PUSH1 0x1F RETURNDATASIZE SWAP1 DUP2 ADD PUSH1 0x1F NOT AND DUP3 ADD PUSH1 0x40 MSTORE PUSH2 0x2889 SWAP2 SWAP1 DUP2 ADD SWAP1 PUSH2 0x5EAA JUMP JUMPDEST POP PUSH1 0x40 MLOAD PUSH4 0xD06CA61F PUSH1 0xE0 SHL DUP2 MSTORE PUSH1 0x0 DUP1 MLOAD PUSH1 0x20 PUSH2 0x5F31 DUP4 CODECOPY DUP2 MLOAD SWAP2 MSTORE SWAP1 PUSH4 0xD06CA61F SWAP1 PUSH2 0x28C5 SWAP1 PUSH8 0xDE0B6B3A7640000 SWAP1 DUP8 SWAP1 PUSH1 0x4 ADD PUSH2 0x5E53 JUMP JUMPDEST PUSH1 0x0 PUSH1 0x40 MLOAD DUP1 DUP4 SUB DUP2 DUP7 GAS STATICCALL ISZERO DUP1 ISZERO PUSH2 0x28E2 JUMPI RETURNDATASIZE PUSH1 0x0 DUP1 RETURNDATACOPY RETURNDATASIZE PUSH1 0x0 REVERT JUMPDEST POP POP POP POP PUSH1 0x40 MLOAD RETURNDATASIZE PUSH1 0x0 DUP3 RETURNDATACOPY PUSH1 0x1F RETURNDATASIZE SWAP1 DUP2 ADD PUSH1 0x1F NOT AND DUP3 ADD PUSH1 0x40 MSTORE PUSH2 0x290A SWAP2 SWAP1 DUP2 ADD SWAP1 PUSH2 0x5EAA JUMP JUMPDEST POP PUSH1 0x40 MLOAD PUSH4 0xD06CA61F PUSH1 0xE0 SHL DUP2 MSTORE PUSH1 0x0 DUP1 MLOAD PUSH1 0x20 PUSH2 0x5F31 DUP4 CODECOPY DUP2 MLOAD SWAP2 MSTORE SWAP1 PUSH4 0xD06CA61F SWAP1 PUSH2 0x2946 SWAP1 PUSH8 0xDE0B6B3A7640000 SWAP1 DUP8 SWAP1 PUSH1 0x4 ADD PUSH2 0x5E53 JUMP JUMPDEST PUSH1 0x0 PUSH1 0x40 MLOAD DUP1 DUP4 SUB DUP2 DUP7 GAS STATICCALL ISZERO DUP1 ISZERO PUSH2 0x2963 JUMPI RETURNDATASIZE PUSH1 0x0 DUP1 RETURNDATACOPY RETURNDATASIZE PUSH1 0x0 REVERT JUMPDEST POP POP POP POP PUSH1 0x40 MLOAD RETURNDATASIZE PUSH1 0x0 DUP3 RETURNDATACOPY PUSH1 0x1F RETURNDATASIZE SWAP1 DUP2 ADD PUSH1 0x1F NOT AND DUP3 ADD PUSH1 0x40 MSTORE PUSH2 0x298B SWAP2 SWAP1 DUP2 ADD SWAP1 PUSH2 0x5EAA JUMP JUMPDEST POP PUSH1 0x40 MLOAD PUSH4 0xD06CA61F PUSH1 0xE0 SHL DUP2 MSTORE PUSH1 0x0 DUP1 MLOAD PUSH1 0x20 PUSH2 0x5F31 DUP4 CODECOPY DUP2 MLOAD SWAP2 MSTORE SWAP1 PUSH4 0xD06CA61F SWAP1 PUSH2 0x29C7 SWAP1 PUSH8 0xDE0B6B3A7640000 SWAP1 DUP8 SWAP1 PUSH1 0x4 ADD PUSH2 0x5E53 JUMP JUMPDEST PUSH1 0x0 PUSH1 0x40 MLOAD DUP1 DUP4 SUB DUP2 DUP7 GAS STATICCALL ISZERO DUP1 ISZERO PUSH2 0x29E4 JUMPI RETURNDATASIZE PUSH1 0x0 DUP1 RETURNDATACOPY RETURNDATASIZE PUSH1 0x0 REVERT JUMPDEST POP POP POP POP PUSH1 0x40 MLOAD RETURNDATASIZE PUSH1 0x0 DUP3 RETURNDATACOPY PUSH1 0x1F RETURNDATASIZE SWAP1 DUP2 ADD PUSH1 0x1F NOT AND DUP3 ADD PUSH1 0x40 MSTORE PUSH2 0x2A0C SWAP2 SWAP1 DUP2 ADD SWAP1 PUSH2 0x5EAA JUMP JUMPDEST POP PUSH1 0x40 MLOAD PUSH4 0xD06CA61F PUSH1 0xE0 SHL DUP2 MSTORE PUSH1 0x0 DUP1 MLOAD PUSH1 0x20 PUSH2 0x5F31 DUP4 CODECOPY DUP2 MLOAD SWAP2 MSTORE SWAP1 PUSH4 0xD06CA61F SWAP1 PUSH2 0x2A48 SWAP1 PUSH8 0xDE0B6B3A7640000 SWAP1 DUP8 SWAP1 PUSH1 0x4 ADD PUSH2 0x5E53 JUMP JUMPDEST PUSH1 0x0 PUSH1 0x40 MLOAD DUP1 DUP4 SUB DUP2 DUP7 GAS STATICCALL ISZERO DUP1 ISZERO PUSH2 0x2A65 JUMPI RETURNDATASIZE PUSH1 0x0 DUP1 RETURNDATACOPY RETURNDATASIZE PUSH1 0x0 REVERT JUMPDEST POP POP POP POP PUSH1 0x40 MLOAD RETURNDATASIZE PUSH1 0x0 DUP3 RETURNDATACOPY PUSH1 0x1F RETURNDATASIZE SWAP1 DUP2 ADD PUSH1 0x1F NOT AND DUP3 ADD PUSH1 0x40 MSTORE PUSH2 0x2A8D SWAP2 SWAP1 DUP2 ADD SWAP1 PUSH2 0x5EAA JUMP JUMPDEST POP PUSH1 0x40 MLOAD PUSH4 0xD06CA61F PUSH1 0xE0 SHL DUP2 MSTORE PUSH1 0x0 DUP1 MLOAD PUSH1 0x20 PUSH2 0x5F31 DUP4 CODECOPY DUP2 MLOAD SWAP2 MSTORE SWAP1 PUSH4 0xD06CA61F SWAP1 PUSH2 0x2AC9 SWAP1 PUSH8 0xDE0B6B3A7640000 SWAP1 DUP8 SWAP1 PUSH1 0x4 ADD PUSH2 0x5E53 JUMP JUMPDEST PUSH1 0x0 PUSH1 0x40 MLOAD DUP1 DUP4 SUB DUP2 DUP7 GAS STATICCALL ISZERO DUP1 ISZERO PUSH2 0x2AE6 JUMPI RETURNDATASIZE PUSH1 0x0 DUP1 RETURNDATACOPY RETURNDATASIZE PUSH1 0x0 REVERT JUMPDEST POP POP POP POP PUSH1 0x40 MLOAD RETURNDATASIZE PUSH1 0x0 DUP3 RETURNDATACOPY PUSH1 0x1F RETURNDATASIZE SWAP1 DUP2 ADD PUSH1 0x1F NOT AND DUP3 ADD PUSH1 0x40 MSTORE PUSH2 0x2B0E SWAP2 SWAP1 DUP2 ADD SWAP1 PUSH2 0x5EAA JUMP JUMPDEST POP PUSH1 0x40 MLOAD PUSH4 0xD06CA61F PUSH1 0xE0 SHL DUP2 MSTORE PUSH1 0x0 DUP1 MLOAD PUSH1 0x20 PUSH2 0x5F31 DUP4 CODECOPY DUP2 MLOAD SWAP2 MSTORE SWAP1 PUSH4 0xD06CA61F SWAP1 PUSH2 0x2B4A SWAP1 PUSH8 0xDE0B6B3A7640000 SWAP1 DUP8 SWAP1 PUSH1 0x4 ADD PUSH2 0x5E53 JUMP JUMPDEST PUSH1 0x0 PUSH1 0x40 MLOAD DUP1 DUP4 SUB DUP2 DUP7 GAS STATICCALL ISZERO DUP1 ISZERO PUSH2 0x2B67 JUMPI RETURNDATASIZE PUSH1 0x0 DUP1 RETURNDATACOPY RETURNDATASIZE PUSH1 0x0 REVERT JUMPDEST POP POP POP POP PUSH1 0x40 MLOAD RETURNDATASIZE PUSH1 0x0 DUP3 RETURNDATACOPY PUSH1 0x1F RETURNDATASIZE SWAP1 DUP2 ADD PUSH1 0x1F NOT AND DUP3 ADD PUSH1 0x40 MSTORE PUSH2 0x2B8F SWAP2 SWAP1 DUP2 ADD SWAP1 PUSH2 0x5EAA JUMP JUMPDEST POP PUSH1 0x40 MLOAD PUSH4 0xD06CA61F PUSH1 0xE0 SHL DUP2 MSTORE PUSH1 0x0 DUP1 MLOAD PUSH1 0x20 PUSH2 0x5F31 DUP4 CODECOPY DUP2 MLOAD SWAP2 MSTORE SWAP1 PUSH4 0xD06CA61F SWAP1 PUSH2 0x2BCB SWAP1 PUSH8 0xDE0B6B3A7640000 SWAP1 DUP8 SWAP1 PUSH1 0x4 ADD PUSH2 0x5E53 JUMP JUMPDEST PUSH1 0x0 PUSH1 0x40 MLOAD DUP1 DUP4 SUB DUP2 DUP7 GAS STATICCALL ISZERO DUP1 ISZERO PUSH2 0x2BE8 JUMPI RETURNDATASIZE PUSH1 0x0 DUP1 RETURNDATACOPY RETURNDATASIZE PUSH1 0x0 REVERT JUMPDEST POP POP POP POP PUSH1 0x40 MLOAD RETURNDATASIZE PUSH1 0x0 DUP3 RETURNDATACOPY PUSH1 0x1F RETURNDATASIZE SWAP1 DUP2 ADD PUSH1 0x1F NOT AND DUP3 ADD PUSH1 0x40 MSTORE PUSH2 0x2C10 SWAP2 SWAP1 DUP2 ADD SWAP1 PUSH2 0x5EAA JUMP JUMPDEST POP PUSH1 0x40 MLOAD PUSH4 0xD06CA61F PUSH1 0xE0 SHL DUP2 MSTORE PUSH1 0x0 DUP1 MLOAD PUSH1 0x20 PUSH2 0x5F31 DUP4 CODECOPY DUP2 MLOAD SWAP2 MSTORE SWAP1 PUSH4 0xD06CA61F SWAP1 PUSH2 0x2C4C SWAP1 PUSH8 0xDE0B6B3A7640000 SWAP1 DUP8 SWAP1 PUSH1 0x4 ADD PUSH2 0x5E53 JUMP JUMPDEST PUSH1 0x0 PUSH1 0x40 MLOAD DUP1 DUP4 SUB DUP2 DUP7 GAS STATICCALL ISZERO DUP1 ISZERO PUSH2 0x2C69 JUMPI RETURNDATASIZE PUSH1 0x0 DUP1 RETURNDATACOPY RETURNDATASIZE PUSH1 0x0 REVERT JUMPDEST POP POP POP POP PUSH1 0x40 MLOAD RETURNDATASIZE PUSH1 0x0 DUP3 RETURNDATACOPY PUSH1 0x1F RETURNDATASIZE SWAP1 DUP2 ADD PUSH1 0x1F NOT AND DUP3 ADD PUSH1 0x40 MSTORE PUSH2 0x2C91 SWAP2 SWAP1 DUP2 ADD SWAP1 PUSH2 0x5EAA JUMP JUMPDEST POP PUSH1 0x40 MLOAD PUSH4 0xD06CA61F PUSH1 0xE0 SHL DUP2 MSTORE PUSH1 0x0 DUP1 MLOAD PUSH1 0x20 PUSH2 0x5F31 DUP4 CODECOPY DUP2 MLOAD SWAP2 MSTORE SWAP1 PUSH4 0xD06CA61F SWAP1 PUSH2 0x2CCD SWAP1 PUSH8 0xDE0B6B3A7640000 SWAP1 DUP8 SWAP1 PUSH1 0x4 ADD PUSH2 0x5E53 JUMP JUMPDEST PUSH1 0x0 PUSH1 0x40 MLOAD DUP1 DUP4 SUB DUP2 DUP7 GAS STATICCALL ISZERO DUP1 ISZERO PUSH2 0x2CEA JUMPI RETURNDATASIZE PUSH1 0x0 DUP1 RETURNDATACOPY RETURNDATASIZE PUSH1 0x0 REVERT JUMPDEST POP POP POP POP PUSH1 0x40 MLOAD RETURNDATASIZE PUSH1 0x0 DUP3 RETURNDATACOPY PUSH1 0x1F RETURNDATASIZE SWAP1 DUP2 ADD PUSH1 0x1F NOT AND DUP3 ADD PUSH1 0x40 MSTORE PUSH2 0x2D12 SWAP2 SWAP1 DUP2 ADD SWAP1 PUSH2 0x5EAA JUMP JUMPDEST POP PUSH1 0x40 MLOAD PUSH4 0xD06CA61F PUSH1 0xE0 SHL DUP2 MSTORE PUSH1 0x0 DUP1 MLOAD PUSH1 0x20 PUSH2 0x5F31 DUP4 CODECOPY DUP2 MLOAD SWAP2 MSTORE SWAP1 PUSH4 0xD06CA61F SWAP1 PUSH2 0x2D4E SWAP1 PUSH8 0xDE0B6B3A7640000 SWAP1 DUP8 SWAP1 PUSH1 0x4 ADD PUSH2 0x5E53 JUMP JUMPDEST PUSH1 0x0 PUSH1 0x40 MLOAD DUP1 DUP4 SUB DUP2 DUP7 GAS STATICCALL ISZERO DUP1 ISZERO PUSH2 0x2D6B JUMPI RETURNDATASIZE PUSH1 0x0 DUP1 RETURNDATACOPY RETURNDATASIZE PUSH1 0x0 REVERT JUMPDEST POP POP POP POP PUSH1 0x40 MLOAD RETURNDATASIZE PUSH1 0x0 DUP3 RETURNDATACOPY PUSH1 0x1F RETURNDATASIZE SWAP1 DUP2 ADD PUSH1 0x1F NOT AND DUP3 ADD PUSH1 0x40 MSTORE PUSH2 0x2D93 SWAP2 SWAP1 DUP2 ADD SWAP1 PUSH2 0x5EAA JUMP JUMPDEST POP PUSH1 0x40 MLOAD PUSH4 0xD06CA61F PUSH1 0xE0 SHL DUP2 MSTORE PUSH1 0x0 DUP1 MLOAD PUSH1 0x20 PUSH2 0x5F31 DUP4 CODECOPY DUP2 MLOAD SWAP2 MSTORE SWAP1 PUSH4 0xD06CA61F SWAP1 PUSH2 0x2DCF SWAP1 PUSH8 0xDE0B6B3A7640000 SWAP1 DUP8 SWAP1 PUSH1 0x4 ADD PUSH2 0x5E53 JUMP JUMPDEST PUSH1 0x0 PUSH1 0x40 MLOAD DUP1 DUP4 SUB DUP2 DUP7 GAS STATICCALL ISZERO DUP1 ISZERO PUSH2 0x2DEC JUMPI RETURNDATASIZE PUSH1 0x0 DUP1 RETURNDATACOPY RETURNDATASIZE PUSH1 0x0 REVERT JUMPDEST POP POP POP POP PUSH1 0x40 MLOAD RETURNDATASIZE PUSH1 0x0 DUP3 RETURNDATACOPY PUSH1 0x1F RETURNDATASIZE SWAP1 DUP2 ADD PUSH1 0x1F NOT AND DUP3 ADD PUSH1 0x40 MSTORE PUSH2 0x2E14 SWAP2 SWAP1 DUP2 ADD SWAP1 PUSH2 0x5EAA JUMP JUMPDEST POP PUSH1 0x40 MLOAD PUSH4 0xD06CA61F PUSH1 0xE0 SHL DUP2 MSTORE PUSH1 0x0 DUP1 MLOAD PUSH1 0x20 PUSH2 0x5F31 DUP4 CODECOPY DUP2 MLOAD SWAP2 MSTORE SWAP1 PUSH4 0xD06CA61F SWAP1 PUSH2 0x2E50 SWAP1 PUSH8 0xDE0B6B3A7640000 SWAP1 DUP8 SWAP1 PUSH1 0x4 ADD PUSH2 0x5E53 JUMP JUMPDEST PUSH1 0x0 PUSH1 0x40 MLOAD DUP1 DUP4 SUB DUP2 DUP7 GAS STATICCALL ISZERO DUP1 ISZERO PUSH2 0x2E6D JUMPI RETURNDATASIZE PUSH1 0x0 DUP1 RETURNDATACOPY RETURNDATASIZE PUSH1 0x0 REVERT JUMPDEST POP POP POP POP PUSH1 0x40 MLOAD RETURNDATASIZE PUSH1 0x0 DUP3 RETURNDATACOPY PUSH1 0x1F RETURNDATASIZE SWAP1 DUP2 ADD PUSH1 0x1F NOT AND DUP3 ADD PUSH1 0x40 MSTORE PUSH2 0x2E95 SWAP2 SWAP1 DUP2 ADD SWAP1 PUSH2 0x5EAA JUMP JUMPDEST POP PUSH1 0x40 MLOAD PUSH4 0xD06CA61F PUSH1 0xE0 SHL DUP2 MSTORE PUSH1 0x0 DUP1 MLOAD PUSH1 0x20 PUSH2 0x5F31 DUP4 CODECOPY DUP2 MLOAD SWAP2 MSTORE SWAP1 PUSH4 0xD06CA61F SWAP1 PUSH2 0x2ED1 SWAP1 PUSH8 0xDE0B6B3A7640000 SWAP1 DUP8 SWAP1 PUSH1 0x4 ADD PUSH2 0x5E53 JUMP JUMPDEST PUSH1 0x0 PUSH1 0x40 MLOAD DUP1 DUP4 SUB DUP2 DUP7 GAS STATICCALL ISZERO DUP1 ISZERO PUSH2 0x2EEE JUMPI RETURNDATASIZE PUSH1 0x0 DUP1 RETURNDATACOPY RETURNDATASIZE PUSH1 0x0 REVERT JUMPDEST POP POP POP POP PUSH1 0x40 MLOAD RETURNDATASIZE PUSH1 0x0 DUP3 RETURNDATACOPY PUSH1 0x1F RETURNDATASIZE SWAP1 DUP2 ADD PUSH1 0x1F NOT AND DUP3 ADD PUSH1 0x40 MSTORE PUSH2 0x2F16 SWAP2 SWAP1 DUP2 ADD SWAP1 PUSH2 0x5EAA JUMP JUMPDEST POP PUSH1 0x40 MLOAD PUSH4 0xD06CA61F PUSH1 0xE0 SHL DUP2 MSTORE PUSH1 0x0 DUP1 MLOAD PUSH1 0x20 PUSH2 0x5F31 DUP4 CODECOPY DUP2 MLOAD SWAP2 MSTORE SWAP1 PUSH4 0xD06CA61F SWAP1 PUSH2 0x2F52 SWAP1 PUSH8 0xDE0B6B3A7640000 SWAP1 DUP8 SWAP1 PUSH1 0x4 ADD PUSH2 0x5E53 JUMP JUMPDEST PUSH1 0x0 PUSH1 0x40 MLOAD DUP1 DUP4 SUB DUP2 DUP7 GAS STATICCALL ISZERO DUP1 ISZERO PUSH2 0x2F6F JUMPI RETURNDATASIZE PUSH1 0x0 DUP1 RETURNDATACOPY RETURNDATASIZE PUSH1 0x0 REVERT JUMPDEST POP POP POP POP PUSH1 0x40 MLOAD RETURNDATASIZE PUSH1 0x0 DUP3 RETURNDATACOPY PUSH1 0x1F RETURNDATASIZE SWAP1 DUP2 ADD PUSH1 0x1F NOT AND DUP3 ADD PUSH1 0x40 MSTORE PUSH2 0x2F97 SWAP2 SWAP1 DUP2 ADD SWAP1 PUSH2 0x5EAA JUMP JUMPDEST POP PUSH1 0x40 MLOAD PUSH4 0xD06CA61F PUSH1 0xE0 SHL DUP2 MSTORE PUSH1 0x0 DUP1 MLOAD PUSH1 0x20 PUSH2 0x5F31 DUP4 CODECOPY DUP2 MLOAD SWAP2 MSTORE SWAP1 PUSH4 0xD06CA61F SWAP1 PUSH2 0x2FD3 SWAP1 PUSH8 0xDE0B6B3A7640000 SWAP1 DUP8 SWAP1 PUSH1 0x4 ADD PUSH2 0x5E53 JUMP JUMPDEST PUSH1 0x0 PUSH1 0x40 MLOAD DUP1 DUP4 SUB DUP2 DUP7 GAS STATICCALL ISZERO DUP1 ISZERO PUSH2 0x2FF0 JUMPI RETURNDATASIZE PUSH1 0x0 DUP1 RETURNDATACOPY RETURNDATASIZE PUSH1 0x0 REVERT JUMPDEST POP POP POP POP PUSH1 0x40 MLOAD RETURNDATASIZE PUSH1 0x0 DUP3 RETURNDATACOPY PUSH1 0x1F RETURNDATASIZE SWAP1 DUP2 ADD PUSH1 0x1F NOT AND DUP3 ADD PUSH1 0x40 MSTORE PUSH2 0x3018 SWAP2 SWAP1 DUP2 ADD SWAP1 PUSH2 0x5EAA JUMP JUMPDEST POP PUSH1 0x40 MLOAD PUSH4 0xD06CA61F PUSH1 0xE0 SHL DUP2 MSTORE PUSH1 0x0 DUP1 MLOAD PUSH1 0x20 PUSH2 0x5F31 DUP4 CODECOPY DUP2 MLOAD SWAP2 MSTORE SWAP1 PUSH4 0xD06CA61F SWAP1 PUSH2 0x3054 SWAP1 PUSH8 0xDE0B6B3A7640000 SWAP1 DUP8 SWAP1 PUSH1 0x4 ADD PUSH2 0x5E53 JUMP JUMPDEST PUSH1 0x0 PUSH1 0x40 MLOAD DUP1 DUP4 SUB DUP2 DUP7 GAS STATICCALL ISZERO DUP1 ISZERO PUSH2 0x3071 JUMPI RETURNDATASIZE PUSH1 0x0 DUP1 RETURNDATACOPY RETURNDATASIZE PUSH1 0x0 REVERT JUMPDEST POP POP POP POP PUSH1 0x40 MLOAD RETURNDATASIZE PUSH1 0x0 DUP3 RETURNDATACOPY PUSH1 0x1F RETURNDATASIZE SWAP1 DUP2 ADD PUSH1 0x1F NOT AND DUP3 ADD PUSH1 0x40 MSTORE PUSH2 0x3099 SWAP2 SWAP1 DUP2 ADD SWAP1 PUSH2 0x5EAA JUMP JUMPDEST POP PUSH1 0x40 MLOAD PUSH4 0xD06CA61F PUSH1 0xE0 SHL DUP2 MSTORE PUSH1 0x0 DUP1 MLOAD PUSH1 0x20 PUSH2 0x5F31 DUP4 CODECOPY DUP2 MLOAD SWAP2 MSTORE SWAP1 PUSH4 0xD06CA61F SWAP1 PUSH2 0x30D5 SWAP1 PUSH8 0xDE0B6B3A7640000 SWAP1 DUP8 SWAP1 PUSH1 0x4 ADD PUSH2 0x5E53 JUMP JUMPDEST PUSH1 0x0 PUSH1 0x40 MLOAD DUP1 DUP4 SUB DUP2 DUP7 GAS STATICCALL ISZERO DUP1 ISZERO PUSH2 0x30F2 JUMPI RETURNDATASIZE PUSH1 0x0 DUP1 RETURNDATACOPY RETURNDATASIZE PUSH1 0x0 REVERT JUMPDEST POP POP POP POP PUSH1 0x40 MLOAD RETURNDATASIZE PUSH1 0x0 DUP3 RETURNDATACOPY PUSH1 0x1F RETURNDATASIZE SWAP1 DUP2 ADD PUSH1 0x1F NOT AND DUP3 ADD PUSH1 0x40 MSTORE PUSH2 0x311A SWAP2 SWAP1 DUP2 ADD SWAP1 PUSH2 0x5EAA JUMP JUMPDEST POP PUSH1 0x40 MLOAD PUSH4 0xD06CA61F PUSH1 0xE0 SHL DUP2 MSTORE PUSH1 0x0 DUP1 MLOAD PUSH1 0x20 PUSH2 0x5F31 DUP4 CODECOPY DUP2 MLOAD SWAP2 MSTORE SWAP1 PUSH4 0xD06CA61F SWAP1 PUSH2 0x3156 SWAP1 PUSH8 0xDE0B6B3A7640000 SWAP1 DUP8 SWAP1 PUSH1 0x4 ADD PUSH2 0x5E53 JUMP JUMPDEST PUSH1 0x0 PUSH1 0x40 MLOAD DUP1 DUP4 SUB DUP2 DUP7 GAS STATICCALL ISZERO DUP1 ISZERO PUSH2 0x3173 JUMPI RETURNDATASIZE PUSH1 0x0 DUP1 RETURNDATACOPY RETURNDATASIZE PUSH1 0x0 REVERT JUMPDEST POP POP POP POP PUSH1 0x40 MLOAD RETURNDATASIZE PUSH1 0x0 DUP3 RETURNDATACOPY PUSH1 0x1F RETURNDATASIZE SWAP1 DUP2 ADD PUSH1 0x1F NOT AND DUP3 ADD PUSH1 0x40 MSTORE PUSH2 0x319B SWAP2 SWAP1 DUP2 ADD SWAP1 PUSH2 0x5EAA JUMP JUMPDEST POP PUSH1 0x40 MLOAD PUSH4 0xD06CA61F PUSH1 0xE0 SHL DUP2 MSTORE PUSH1 0x0 DUP1 MLOAD PUSH1 0x20 PUSH2 0x5F31 DUP4 CODECOPY DUP2 MLOAD SWAP2 MSTORE SWAP1 PUSH4 0xD06CA61F SWAP1 PUSH2 0x31D7 SWAP1 PUSH8 0xDE0B6B3A7640000 SWAP1 DUP8 SWAP1 PUSH1 0x4 ADD PUSH2 0x5E53 JUMP JUMPDEST PUSH1 0x0 PUSH1 0x40 MLOAD DUP1 DUP4 SUB DUP2 DUP7 GAS STATICCALL ISZERO DUP1 ISZERO PUSH2 0x31F4 JUMPI RETURNDATASIZE PUSH1 0x0 DUP1 RETURNDATACOPY RETURNDATASIZE PUSH1 0x0 REVERT JUMPDEST POP POP POP POP PUSH1 0x40 MLOAD RETURNDATASIZE PUSH1 0x0 DUP3 RETURNDATACOPY PUSH1 0x1F RETURNDATASIZE SWAP1 DUP2 ADD PUSH1 0x1F NOT AND DUP3 ADD PUSH1 0x40 MSTORE PUSH2 0x321C SWAP2 SWAP1 DUP2 ADD SWAP1 PUSH2 0x5EAA JUMP JUMPDEST POP PUSH1 0x40 MLOAD PUSH4 0xD06CA61F PUSH1 0xE0 SHL DUP2 MSTORE PUSH1 0x0 DUP1 MLOAD PUSH1 0x20 PUSH2 0x5F31 DUP4 CODECOPY DUP2 MLOAD SWAP2 MSTORE SWAP1 PUSH4 0xD06CA61F SWAP1 PUSH2 0x3258 SWAP1 PUSH8 0xDE0B6B3A7640000 SWAP1 DUP8 SWAP1 PUSH1 0x4 ADD PUSH2 0x5E53 JUMP JUMPDEST PUSH1 0x0 PUSH1 0x40 MLOAD DUP1 DUP4 SUB DUP2 DUP7 GAS STATICCALL ISZERO DUP1 ISZERO PUSH2 0x3275 JUMPI RETURNDATASIZE PUSH1 0x0 DUP1 RETURNDATACOPY RETURNDATASIZE PUSH1 0x0 REVERT JUMPDEST POP POP POP POP PUSH1 0x40 MLOAD RETURNDATASIZE PUSH1 0x0 DUP3 RETURNDATACOPY PUSH1 0x1F RETURNDATASIZE SWAP1 DUP2 ADD PUSH1 0x1F NOT AND DUP3 ADD PUSH1 0x40 MSTORE PUSH2 0x329D SWAP2 SWAP1 DUP2 ADD SWAP1 PUSH2 0x5EAA JUMP JUMPDEST POP PUSH1 0x40 MLOAD PUSH4 0xD06CA61F PUSH1 0xE0 SHL DUP2 MSTORE PUSH1 0x0 DUP1 MLOAD PUSH1 0x20 PUSH2 0x5F31 DUP4 CODECOPY DUP2 MLOAD SWAP2 MSTORE SWAP1 PUSH4 0xD06CA61F SWAP1 PUSH2 0x32D9 SWAP1 PUSH8 0xDE0B6B3A7640000 SWAP1 DUP8 SWAP1 PUSH1 0x4 ADD PUSH2 0x5E53 JUMP JUMPDEST PUSH1 0x0 PUSH1 0x40 MLOAD DUP1 DUP4 SUB DUP2 DUP7 GAS STATICCALL ISZERO DUP1 ISZERO PUSH2 0x32F6 JUMPI RETURNDATASIZE PUSH1 0x0 DUP1 RETURNDATACOPY RETURNDATASIZE PUSH1 0x0 REVERT JUMPDEST POP POP POP POP PUSH1 0x40 MLOAD RETURNDATASIZE PUSH1 0x0 DUP3 RETURNDATACOPY PUSH1 0x1F RETURNDATASIZE SWAP1 DUP2 ADD PUSH1 0x1F NOT AND DUP3 ADD PUSH1 0x40 MSTORE PUSH2 0x331E SWAP2 SWAP1 DUP2 ADD SWAP1 PUSH2 0x5EAA JUMP JUMPDEST POP PUSH1 0x40 MLOAD PUSH4 0xD06CA61F PUSH1 0xE0 SHL DUP2 MSTORE PUSH1 0x0 DUP1 MLOAD PUSH1 0x20 PUSH2 0x5F31 DUP4 CODECOPY DUP2 MLOAD SWAP2 MSTORE SWAP1 PUSH4 0xD06CA61F SWAP1 PUSH2 0x335A SWAP1 PUSH8 0xDE0B6B3A7640000 SWAP1 DUP8 SWAP1 PUSH1 0x4 ADD PUSH2 0x5E53 JUMP JUMPDEST PUSH1 0x0 PUSH1 0x40 MLOAD DUP1 DUP4 SUB DUP2 DUP7 GAS STATICCALL ISZERO DUP1 ISZERO PUSH2 0x3377 JUMPI RETURNDATASIZE PUSH1 0x0 DUP1 RETURNDATACOPY RETURNDATASIZE PUSH1 0x0 REVERT JUMPDEST POP POP POP POP PUSH1 0x40 MLOAD RETURNDATASIZE PUSH1 0x0 DUP3 RETURNDATACOPY PUSH1 0x1F RETURNDATASIZE SWAP1 DUP2 ADD PUSH1 0x1F NOT AND DUP3 ADD PUSH1 0x40 MSTORE PUSH2 0x339F SWAP2 SWAP1 DUP2 ADD SWAP1 PUSH2 0x5EAA JUMP JUMPDEST POP PUSH1 0x40 MLOAD PUSH4 0xD06CA61F PUSH1 0xE0 SHL DUP2 MSTORE PUSH1 0x0 DUP1 MLOAD PUSH1 0x20 PUSH2 0x5F31 DUP4 CODECOPY DUP2 MLOAD SWAP2 MSTORE SWAP1 PUSH4 0xD06CA61F SWAP1 PUSH2 0x33DB SWAP1 PUSH8 0xDE0B6B3A7640000 SWAP1 DUP8 SWAP1 PUSH1 0x4 ADD PUSH2 0x5E53 JUMP JUMPDEST PUSH1 0x0 PUSH1 0x40 MLOAD DUP1 DUP4 SUB DUP2 DUP7 GAS STATICCALL ISZERO DUP1 ISZERO PUSH2 0x33F8 JUMPI RETURNDATASIZE PUSH1 0x0 DUP1 RETURNDATACOPY RETURNDATASIZE PUSH1 0x0 REVERT JUMPDEST POP POP POP POP PUSH1 0x40 MLOAD RETURNDATASIZE PUSH1 0x0 DUP3 RETURNDATACOPY PUSH1 0x1F RETURNDATASIZE SWAP1 DUP2 ADD PUSH1 0x1F NOT AND DUP3 ADD PUSH1 0x40 MSTORE PUSH2 0x3420 SWAP2 SWAP1 DUP2 ADD SWAP1 PUSH2 0x5EAA JUMP JUMPDEST POP PUSH1 0x40 MLOAD PUSH4 0xD06CA61F PUSH1 0xE0 SHL DUP2 MSTORE PUSH1 0x0 DUP1 MLOAD PUSH1 0x20 PUSH2 0x5F31 DUP4 CODECOPY DUP2 MLOAD SWAP2 MSTORE SWAP1 PUSH4 0xD06CA61F SWAP1 PUSH2 0x345C SWAP1 PUSH8 0xDE0B6B3A7640000 SWAP1 DUP8 SWAP1 PUSH1 0x4 ADD PUSH2 0x5E53 JUMP JUMPDEST PUSH1 0x0 PUSH1 0x40 MLOAD DUP1 DUP4 SUB DUP2 DUP7 GAS STATICCALL ISZERO DUP1 ISZERO PUSH2 0x3479 JUMPI RETURNDATASIZE PUSH1 0x0 DUP1 RETURNDATACOPY RETURNDATASIZE PUSH1 0x0 REVERT JUMPDEST POP POP POP POP PUSH1 0x40 MLOAD RETURNDATASIZE PUSH1 0x0 DUP3 RETURNDATACOPY PUSH1 0x1F RETURNDATASIZE SWAP1 DUP2 ADD PUSH1 0x1F NOT AND DUP3 ADD PUSH1 0x40 MSTORE PUSH2 0x34A1 SWAP2 SWAP1 DUP2 ADD SWAP1 PUSH2 0x5EAA JUMP JUMPDEST POP PUSH1 0x40 MLOAD PUSH4 0xD06CA61F PUSH1 0xE0 SHL DUP2 MSTORE PUSH1 0x0 DUP1 MLOAD PUSH1 0x20 PUSH2 0x5F31 DUP4 CODECOPY DUP2 MLOAD SWAP2 MSTORE SWAP1 PUSH4 0xD06CA61F SWAP1 PUSH2 0x34DD SWAP1 PUSH8 0xDE0B6B3A7640000 SWAP1 DUP8 SWAP1 PUSH1 0x4 ADD PUSH2 0x5E53 JUMP JUMPDEST PUSH1 0x0 PUSH1 0x40 MLOAD DUP1 DUP4 SUB DUP2 DUP7 GAS STATICCALL ISZERO DUP1 ISZERO PUSH2 0x34FA JUMPI RETURNDATASIZE PUSH1 0x0 DUP1 RETURNDATACOPY RETURNDATASIZE PUSH1 0x0 REVERT JUMPDEST POP POP POP POP PUSH1 0x40 MLOAD RETURNDATASIZE PUSH1 0x0 DUP3 RETURNDATACOPY PUSH1 0x1F RETURNDATASIZE SWAP1 DUP2 ADD PUSH1 0x1F NOT AND DUP3 ADD PUSH1 0x40 MSTORE PUSH2 0x3522 SWAP2 SWAP1 DUP2 ADD SWAP1 PUSH2 0x5EAA JUMP JUMPDEST POP PUSH1 0x40 MLOAD PUSH4 0xD06CA61F PUSH1 0xE0 SHL DUP2 MSTORE PUSH1 0x0 DUP1 MLOAD PUSH1 0x20 PUSH2 0x5F31 DUP4 CODECOPY DUP2 MLOAD SWAP2 MSTORE SWAP1 PUSH4 0xD06CA61F SWAP1 PUSH2 0x355E SWAP1 PUSH8 0xDE0B6B3A7640000 SWAP1 DUP8 SWAP1 PUSH1 0x4 ADD PUSH2 0x5E53 JUMP JUMPDEST PUSH1 0x0 PUSH1 0x40 MLOAD DUP1 DUP4 SUB DUP2 DUP7 GAS STATICCALL ISZERO DUP1 ISZERO PUSH2 0x357B JUMPI RETURNDATASIZE PUSH1 0x0 DUP1 RETURNDATACOPY RETURNDATASIZE PUSH1 0x0 REVERT JUMPDEST POP POP POP POP PUSH1 0x40 MLOAD RETURNDATASIZE PUSH1 0x0 DUP3 RETURNDATACOPY PUSH1 0x1F RETURNDATASIZE SWAP1 DUP2 ADD PUSH1 0x1F NOT AND DUP3 ADD PUSH1 0x40 MSTORE PUSH2 0x35A3 SWAP2 SWAP1 DUP2 ADD SWAP1 PUSH2 0x5EAA JUMP JUMPDEST POP PUSH1 0x40 MLOAD PUSH4 0xD06CA61F PUSH1 0xE0 SHL DUP2 MSTORE PUSH1 0x0 DUP1 MLOAD PUSH1 0x20 PUSH2 0x5F31 DUP4 CODECOPY DUP2 MLOAD SWAP2 MSTORE SWAP1 PUSH4 0xD06CA61F SWAP1 PUSH2 0x35DF SWAP1 PUSH8 0xDE0B6B3A7640000 SWAP1 DUP8 SWAP1 PUSH1 0x4 ADD PUSH2 0x5E53 JUMP JUMPDEST PUSH1 0x0 PUSH1 0x40 MLOAD DUP1 DUP4 SUB DUP2 DUP7 GAS STATICCALL ISZERO DUP1 ISZERO PUSH2 0x35FC JUMPI RETURNDATASIZE PUSH1 0x0 DUP1 RETURNDATACOPY RETURNDATASIZE PUSH1 0x0 REVERT JUMPDEST POP POP POP POP PUSH1 0x40 MLOAD RETURNDATASIZE PUSH1 0x0 DUP3 RETURNDATACOPY PUSH1 0x1F RETURNDATASIZE SWAP1 DUP2 ADD PUSH1 0x1F NOT AND DUP3 ADD PUSH1 0x40 MSTORE PUSH2 0x3624 SWAP2 SWAP1 DUP2 ADD SWAP1 PUSH2 0x5EAA JUMP JUMPDEST POP PUSH1 0x40 MLOAD PUSH4 0xD06CA61F PUSH1 0xE0 SHL DUP2 MSTORE PUSH1 0x0 DUP1 MLOAD PUSH1 0x20 PUSH2 0x5F31 DUP4 CODECOPY DUP2 MLOAD SWAP2 MSTORE SWAP1 PUSH4 0xD06CA61F SWAP1 PUSH2 0x3660 SWAP1 PUSH8 0xDE0B6B3A7640000 SWAP1 DUP8 SWAP1 PUSH1 0x4 ADD PUSH2 0x5E53 JUMP JUMPDEST PUSH1 0x0 PUSH1 0x40 MLOAD DUP1 DUP4 SUB DUP2 DUP7 GAS STATICCALL ISZERO DUP1 ISZERO PUSH2 0x367D JUMPI RETURNDATASIZE PUSH1 0x0 DUP1 RETURNDATACOPY RETURNDATASIZE PUSH1 0x0 REVERT JUMPDEST POP POP POP POP PUSH1 0x40 MLOAD RETURNDATASIZE PUSH1 0x0 DUP3 RETURNDATACOPY PUSH1 0x1F RETURNDATASIZE SWAP1 DUP2 ADD PUSH1 0x1F NOT AND DUP3 ADD PUSH1 0x40 MSTORE PUSH2 0x36A5 SWAP2 SWAP1 DUP2 ADD SWAP1 PUSH2 0x5EAA JUMP JUMPDEST POP PUSH1 0x40 MLOAD PUSH4 0xD06CA61F PUSH1 0xE0 SHL DUP2 MSTORE PUSH1 0x0 DUP1 MLOAD PUSH1 0x20 PUSH2 0x5F31 DUP4 CODECOPY DUP2 MLOAD SWAP2 MSTORE SWAP1 PUSH4 0xD06CA61F SWAP1 PUSH2 0x36E1 SWAP1 PUSH8 0xDE0B6B3A7640000 SWAP1 DUP8 SWAP1 PUSH1 0x4 ADD PUSH2 0x5E53 JUMP JUMPDEST PUSH1 0x0 PUSH1 0x40 MLOAD DUP1 DUP4 SUB DUP2 DUP7 GAS STATICCALL ISZERO DUP1 ISZERO PUSH2 0x36FE JUMPI RETURNDATASIZE PUSH1 0x0 DUP1 RETURNDATACOPY RETURNDATASIZE PUSH1 0x0 REVERT JUMPDEST POP POP POP POP PUSH1 0x40 MLOAD RETURNDATASIZE PUSH1 0x0 DUP3 RETURNDATACOPY PUSH1 0x1F RETURNDATASIZE SWAP1 DUP2 ADD PUSH1 0x1F NOT AND DUP3 ADD PUSH1 0x40 MSTORE PUSH2 0x3726 SWAP2 SWAP1 DUP2 ADD SWAP1 PUSH2 0x5EAA JUMP JUMPDEST POP PUSH1 0x40 MLOAD PUSH4 0xD06CA61F PUSH1 0xE0 SHL DUP2 MSTORE PUSH1 0x0 DUP1 MLOAD PUSH1 0x20 PUSH2 0x5F31 DUP4 CODECOPY DUP2 MLOAD SWAP2 MSTORE SWAP1 PUSH4 0xD06CA61F SWAP1 PUSH2 0x3762 SWAP1 PUSH8 0xDE0B6B3A7640000 SWAP1 DUP8 SWAP1 PUSH1 0x4 ADD PUSH2 0x5E53 JUMP JUMPDEST PUSH1 0x0 PUSH1 0x40 MLOAD DUP1 DUP4 SUB DUP2 DUP7 GAS STATICCALL ISZERO DUP1 ISZERO PUSH2 0x377F JUMPI RETURNDATASIZE PUSH1 0x0 DUP1 RETURNDATACOPY RETURNDATASIZE PUSH1 0x0 REVERT JUMPDEST POP POP POP POP PUSH1 0x40 MLOAD RETURNDATASIZE PUSH1 0x0 DUP3 RETURNDATACOPY PUSH1 0x1F RETURNDATASIZE SWAP1 DUP2 ADD PUSH1 0x1F NOT AND DUP3 ADD PUSH1 0x40 MSTORE PUSH2 0x37A7 SWAP2 SWAP1 DUP2 ADD SWAP1 PUSH2 0x5EAA JUMP JUMPDEST POP PUSH1 0x40 MLOAD PUSH4 0xD06CA61F PUSH1 0xE0 SHL DUP2 MSTORE PUSH1 0x0 DUP1 MLOAD PUSH1 0x20 PUSH2 0x5F31 DUP4 CODECOPY DUP2 MLOAD SWAP2 MSTORE SWAP1 PUSH4 0xD06CA61F SWAP1 PUSH2 0x37E3 SWAP1 PUSH8 0xDE0B6B3A7640000 SWAP1 DUP8 SWAP1 PUSH1 0x4 ADD PUSH2 0x5E53 JUMP JUMPDEST PUSH1 0x0 PUSH1 0x40 MLOAD DUP1 DUP4 SUB DUP2 DUP7 GAS STATICCALL ISZERO DUP1 ISZERO PUSH2 0x3800 JUMPI RETURNDATASIZE PUSH1 0x0 DUP1 RETURNDATACOPY RETURNDATASIZE PUSH1 0x0 REVERT JUMPDEST POP POP POP POP PUSH1 0x40 MLOAD RETURNDATASIZE PUSH1 0x0 DUP3 RETURNDATACOPY PUSH1 0x1F RETURNDATASIZE SWAP1 DUP2 ADD PUSH1 0x1F NOT AND DUP3 ADD PUSH1 0x40 MSTORE PUSH2 0x3828 SWAP2 SWAP1 DUP2 ADD SWAP1 PUSH2 0x5EAA JUMP JUMPDEST POP PUSH1 0x40 MLOAD PUSH4 0xD06CA61F PUSH1 0xE0 SHL DUP2 MSTORE PUSH1 0x0 DUP1 MLOAD PUSH1 0x20 PUSH2 0x5F31 DUP4 CODECOPY DUP2 MLOAD SWAP2 MSTORE SWAP1 PUSH4 0xD06CA61F SWAP1 PUSH2 0x3864 SWAP1 PUSH8 0xDE0B6B3A7640000 SWAP1 DUP8 SWAP1 PUSH1 0x4 ADD PUSH2 0x5E53 JUMP JUMPDEST PUSH1 0x0 PUSH1 0x40 MLOAD DUP1 DUP4 SUB DUP2 DUP7 GAS STATICCALL ISZERO DUP1 ISZERO PUSH2 0x3881 JUMPI RETURNDATASIZE PUSH1 0x0 DUP1 RETURNDATACOPY RETURNDATASIZE PUSH1 0x0 REVERT JUMPDEST POP POP POP POP PUSH1 0x40 MLOAD RETURNDATASIZE PUSH1 0x0 DUP3 RETURNDATACOPY PUSH1 0x1F RETURNDATASIZE SWAP1 DUP2 ADD PUSH1 0x1F NOT AND DUP3 ADD PUSH1 0x40 MSTORE PUSH2 0x38A9 SWAP2 SWAP1 DUP2 ADD SWAP1 PUSH2 0x5EAA JUMP JUMPDEST POP PUSH1 0x40 MLOAD PUSH4 0xD06CA61F PUSH1 0xE0 SHL DUP2 MSTORE PUSH1 0x0 DUP1 MLOAD PUSH1 0x20 PUSH2 0x5F31 DUP4 CODECOPY DUP2 MLOAD SWAP2 MSTORE SWAP1 PUSH4 0xD06CA61F SWAP1 PUSH2 0x38E5 SWAP1 PUSH8 0xDE0B6B3A7640000 SWAP1 DUP8 SWAP1 PUSH1 0x4 ADD PUSH2 0x5E53 JUMP JUMPDEST PUSH1 0x0 PUSH1 0x40 MLOAD DUP1 DUP4 SUB DUP2 DUP7 GAS STATICCALL ISZERO DUP1 ISZERO PUSH2 0x3902 JUMPI RETURNDATASIZE PUSH1 0x0 DUP1 RETURNDATACOPY RETURNDATASIZE PUSH1 0x0 REVERT JUMPDEST POP POP POP POP PUSH1 0x40 MLOAD RETURNDATASIZE PUSH1 0x0 DUP3 RETURNDATACOPY PUSH1 0x1F RETURNDATASIZE SWAP1 DUP2 ADD PUSH1 0x1F NOT AND DUP3 ADD PUSH1 0x40 MSTORE PUSH2 0x392A SWAP2 SWAP1 DUP2 ADD SWAP1 PUSH2 0x5EAA JUMP JUMPDEST POP PUSH1 0x40 MLOAD PUSH4 0xD06CA61F PUSH1 0xE0 SHL DUP2 MSTORE PUSH1 0x0 DUP1 MLOAD PUSH1 0x20 PUSH2 0x5F31 DUP4 CODECOPY DUP2 MLOAD SWAP2 MSTORE SWAP1 PUSH4 0xD06CA61F SWAP1 PUSH2 0x3966 SWAP1 PUSH8 0xDE0B6B3A7640000 SWAP1 DUP8 SWAP1 PUSH1 0x4 ADD PUSH2 0x5E53 JUMP JUMPDEST PUSH1 0x0 PUSH1 0x40 MLOAD DUP1 DUP4 SUB DUP2 DUP7 GAS STATICCALL ISZERO DUP1 ISZERO PUSH2 0x3983 JUMPI RETURNDATASIZE PUSH1 0x0 DUP1 RETURNDATACOPY RETURNDATASIZE PUSH1 0x0 REVERT JUMPDEST POP POP POP POP PUSH1 0x40 MLOAD RETURNDATASIZE PUSH1 0x0 DUP3 RETURNDATACOPY PUSH1 0x1F RETURNDATASIZE SWAP1 DUP2 ADD PUSH1 0x1F NOT AND DUP3 ADD PUSH1 0x40 MSTORE PUSH2 0x39AB SWAP2 SWAP1 DUP2 ADD SWAP1 PUSH2 0x5EAA JUMP JUMPDEST POP PUSH1 0x40 MLOAD PUSH4 0xD06CA61F PUSH1 0xE0 SHL DUP2 MSTORE PUSH1 0x0 DUP1 MLOAD PUSH1 0x20 PUSH2 0x5F31 DUP4 CODECOPY DUP2 MLOAD SWAP2 MSTORE SWAP1 PUSH4 0xD06CA61F SWAP1 PUSH2 0x39E7 SWAP1 PUSH8 0xDE0B6B3A7640000 SWAP1 DUP8 SWAP1 PUSH1 0x4 ADD PUSH2 0x5E53 JUMP JUMPDEST PUSH1 0x0 PUSH1 0x40 MLOAD DUP1 DUP4 SUB DUP2 DUP7 GAS STATICCALL ISZERO DUP1 ISZERO PUSH2 0x3A04 JUMPI RETURNDATASIZE PUSH1 0x0 DUP1 RETURNDATACOPY RETURNDATASIZE PUSH1 0x0 REVERT JUMPDEST POP POP POP POP PUSH1 0x40 MLOAD RETURNDATASIZE PUSH1 0x0 DUP3 RETURNDATACOPY PUSH1 0x1F RETURNDATASIZE SWAP1 DUP2 ADD PUSH1 0x1F NOT AND DUP3 ADD PUSH1 0x40 MSTORE PUSH2 0x3A2C SWAP2 SWAP1 DUP2 ADD SWAP1 PUSH2 0x5EAA JUMP JUMPDEST POP PUSH1 0x40 MLOAD PUSH4 0xD06CA61F PUSH1 0xE0 SHL DUP2 MSTORE PUSH1 0x0 DUP1 MLOAD PUSH1 0x20 PUSH2 0x5F31 DUP4 CODECOPY DUP2 MLOAD SWAP2 MSTORE SWAP1 PUSH4 0xD06CA61F SWAP1 PUSH2 0x3A68 SWAP1 PUSH8 0xDE0B6B3A7640000 SWAP1 DUP8 SWAP1 PUSH1 0x4 ADD PUSH2 0x5E53 JUMP JUMPDEST PUSH1 0x0 PUSH1 0x40 MLOAD DUP1 DUP4 SUB DUP2 DUP7 GAS STATICCALL ISZERO DUP1 ISZERO PUSH2 0x3A85 JUMPI RETURNDATASIZE PUSH1 0x0 DUP1 RETURNDATACOPY RETURNDATASIZE PUSH1 0x0 REVERT JUMPDEST POP POP POP POP PUSH1 0x40 MLOAD RETURNDATASIZE PUSH1 0x0 DUP3 RETURNDATACOPY PUSH1 0x1F RETURNDATASIZE SWAP1 DUP2 ADD PUSH1 0x1F NOT AND DUP3 ADD PUSH1 0x40 MSTORE PUSH2 0x3AAD SWAP2 SWAP1 DUP2 ADD SWAP1 PUSH2 0x5EAA JUMP JUMPDEST POP PUSH1 0x40 MLOAD PUSH4 0xD06CA61F PUSH1 0xE0 SHL DUP2 MSTORE PUSH1 0x0 DUP1 MLOAD PUSH1 0x20 PUSH2 0x5F31 DUP4 CODECOPY DUP2 MLOAD SWAP2 MSTORE SWAP1 PUSH4 0xD06CA61F SWAP1 PUSH2 0x3AE9 SWAP1 PUSH8 0xDE0B6B3A7640000 SWAP1 DUP8 SWAP1 PUSH1 0x4 ADD PUSH2 0x5E53 JUMP JUMPDEST PUSH1 0x0 PUSH1 0x40 MLOAD DUP1 DUP4 SUB DUP2 DUP7 GAS STATICCALL ISZERO DUP1 ISZERO PUSH2 0x3B06 JUMPI RETURNDATASIZE PUSH1 0x0 DUP1 RETURNDATACOPY RETURNDATASIZE PUSH1 0x0 REVERT JUMPDEST POP POP POP POP PUSH1 0x40 MLOAD RETURNDATASIZE PUSH1 0x0 DUP3 RETURNDATACOPY PUSH1 0x1F RETURNDATASIZE SWAP1 DUP2 ADD PUSH1 0x1F NOT AND DUP3 ADD PUSH1 0x40 MSTORE PUSH2 0x3B2E SWAP2 SWAP1 DUP2 ADD SWAP1 PUSH2 0x5EAA JUMP JUMPDEST POP PUSH1 0x40 MLOAD PUSH4 0xD06CA61F PUSH1 0xE0 SHL DUP2 MSTORE PUSH1 0x0 DUP1 MLOAD PUSH1 0x20 PUSH2 0x5F31 DUP4 CODECOPY DUP2 MLOAD SWAP2 MSTORE SWAP1 PUSH4 0xD06CA61F SWAP1 PUSH2 0x3B6A SWAP1 PUSH8 0xDE0B6B3A7640000 SWAP1 DUP8 SWAP1 PUSH1 0x4 ADD PUSH2 0x5E53 JUMP JUMPDEST PUSH1 0x0 PUSH1 0x40 MLOAD DUP1 DUP4 SUB DUP2 DUP7 GAS STATICCALL ISZERO DUP1 ISZERO PUSH2 0x3B87 JUMPI RETURNDATASIZE PUSH1 0x0 DUP1 RETURNDATACOPY RETURNDATASIZE PUSH1 0x0 REVERT JUMPDEST POP POP POP POP PUSH1 0x40 MLOAD RETURNDATASIZE PUSH1 0x0 DUP3 RETURNDATACOPY PUSH1 0x1F RETURNDATASIZE SWAP1 DUP2 ADD PUSH1 0x1F NOT AND DUP3 ADD PUSH1 0x40 MSTORE PUSH2 0x3BAF SWAP2 SWAP1 DUP2 ADD SWAP1 PUSH2 0x5EAA JUMP JUMPDEST POP PUSH1 0x40 MLOAD PUSH4 0xD06CA61F PUSH1 0xE0 SHL DUP2 MSTORE PUSH1 0x0 DUP1 MLOAD PUSH1 0x20 PUSH2 0x5F31 DUP4 CODECOPY DUP2 MLOAD SWAP2 MSTORE SWAP1 PUSH4 0xD06CA61F SWAP1 PUSH2 0x3BEB SWAP1 PUSH8 0xDE0B6B3A7640000 SWAP1 DUP8 SWAP1 PUSH1 0x4 ADD PUSH2 0x5E53 JUMP JUMPDEST PUSH1 0x0 PUSH1 0x40 MLOAD DUP1 DUP4 SUB DUP2 DUP7 GAS STATICCALL ISZERO DUP1 ISZERO PUSH2 0x3C08 JUMPI RETURNDATASIZE PUSH1 0x0 DUP1 RETURNDATACOPY RETURNDATASIZE PUSH1 0x0 REVERT JUMPDEST POP POP POP POP PUSH1 0x40 MLOAD RETURNDATASIZE PUSH1 0x0 DUP3 RETURNDATACOPY PUSH1 0x1F RETURNDATASIZE SWAP1 DUP2 ADD PUSH1 0x1F NOT AND DUP3 ADD PUSH1 0x40 MSTORE PUSH2 0x3C30 SWAP2 SWAP1 DUP2 ADD SWAP1 PUSH2 0x5EAA JUMP JUMPDEST POP PUSH1 0x40 MLOAD PUSH4 0xD06CA61F PUSH1 0xE0 SHL DUP2 MSTORE PUSH1 0x0 DUP1 MLOAD PUSH1 0x20 PUSH2 0x5F31 DUP4 CODECOPY DUP2 MLOAD SWAP2 MSTORE SWAP1 PUSH4 0xD06CA61F SWAP1 PUSH2 0x3C6C SWAP1 PUSH8 0xDE0B6B3A7640000 SWAP1 DUP8 SWAP1 PUSH1 0x4 ADD PUSH2 0x5E53 JUMP JUMPDEST PUSH1 0x0 PUSH1 0x40 MLOAD DUP1 DUP4 SUB DUP2 DUP7 GAS STATICCALL ISZERO DUP1 ISZERO PUSH2 0x3C89 JUMPI RETURNDATASIZE PUSH1 0x0 DUP1 RETURNDATACOPY RETURNDATASIZE PUSH1 0x0 REVERT JUMPDEST POP POP POP POP PUSH1 0x40 MLOAD RETURNDATASIZE PUSH1 0x0 DUP3 RETURNDATACOPY PUSH1 0x1F RETURNDATASIZE SWAP1 DUP2 ADD PUSH1 0x1F NOT AND DUP3 ADD PUSH1 0x40 MSTORE PUSH2 0x3CB1 SWAP2 SWAP1 DUP2 ADD SWAP1 PUSH2 0x5EAA JUMP JUMPDEST POP PUSH1 0x40 MLOAD PUSH4 0xD06CA61F PUSH1 0xE0 SHL DUP2 MSTORE PUSH1 0x0 DUP1 MLOAD PUSH1 0x20 PUSH2 0x5F31 DUP4 CODECOPY DUP2 MLOAD SWAP2 MSTORE SWAP1 PUSH4 0xD06CA61F SWAP1 PUSH2 0x3CED SWAP1 PUSH8 0xDE0B6B3A7640000 SWAP1 DUP8 SWAP1 PUSH1 0x4 ADD PUSH2 0x5E53 JUMP JUMPDEST PUSH1 0x0 PUSH1 0x40 MLOAD DUP1 DUP4 SUB DUP2 DUP7 GAS STATICCALL ISZERO DUP1 ISZERO PUSH2 0x3D0A JUMPI RETURNDATASIZE PUSH1 0x0 DUP1 RETURNDATACOPY RETURNDATASIZE PUSH1 0x0 REVERT JUMPDEST POP POP POP POP PUSH1 0x40 MLOAD RETURNDATASIZE PUSH1 0x0 DUP3 RETURNDATACOPY PUSH1 0x1F RETURNDATASIZE SWAP1 DUP2 ADD PUSH1 0x1F NOT AND DUP3 ADD PUSH1 0x40 MSTORE PUSH2 0x3D32 SWAP2 SWAP1 DUP2 ADD SWAP1 PUSH2 0x5EAA JUMP JUMPDEST POP PUSH1 0x40 MLOAD PUSH4 0xD06CA61F PUSH1 0xE0 SHL DUP2 MSTORE PUSH1 0x0 DUP1 MLOAD PUSH1 0x20 PUSH2 0x5F31 DUP4 CODECOPY DUP2 MLOAD SWAP2 MSTORE SWAP1 PUSH4 0xD06CA61F SWAP1 PUSH2 0x3D6E SWAP1 PUSH8 0xDE0B6B3A7640000 SWAP1 DUP8 SWAP1 PUSH1 0x4 ADD PUSH2 0x5E53 JUMP JUMPDEST PUSH1 0x0 PUSH1 0x40 MLOAD DUP1 DUP4 SUB DUP2 DUP7 GAS STATICCALL ISZERO DUP1 ISZERO PUSH2 0x3D8B JUMPI RETURNDATASIZE PUSH1 0x0 DUP1 RETURNDATACOPY RETURNDATASIZE PUSH1 0x0 REVERT JUMPDEST POP POP POP POP PUSH1 0x40 MLOAD RETURNDATASIZE PUSH1 0x0 DUP3 RETURNDATACOPY PUSH1 0x1F RETURNDATASIZE SWAP1 DUP2 ADD PUSH1 0x1F NOT AND DUP3 ADD PUSH1 0x40 MSTORE PUSH2 0x3DB3 SWAP2 SWAP1 DUP2 ADD SWAP1 PUSH2 0x5EAA JUMP JUMPDEST POP PUSH1 0x40 MLOAD PUSH4 0xD06CA61F PUSH1 0xE0 SHL DUP2 MSTORE PUSH1 0x0 DUP1 MLOAD PUSH1 0x20 PUSH2 0x5F31 DUP4 CODECOPY DUP2 MLOAD SWAP2 MSTORE SWAP1 PUSH4 0xD06CA61F SWAP1 PUSH2 0x3DEF SWAP1 PUSH8 0xDE0B6B3A7640000 SWAP1 DUP8 SWAP1 PUSH1 0x4 ADD PUSH2 0x5E53 JUMP JUMPDEST PUSH1 0x0 PUSH1 0x40 MLOAD DUP1 DUP4 SUB DUP2 DUP7 GAS STATICCALL ISZERO DUP1 ISZERO PUSH2 0x3E0C JUMPI RETURNDATASIZE PUSH1 0x0 DUP1 RETURNDATACOPY RETURNDATASIZE PUSH1 0x0 REVERT JUMPDEST POP POP POP POP PUSH1 0x40 MLOAD RETURNDATASIZE PUSH1 0x0 DUP3 RETURNDATACOPY PUSH1 0x1F RETURNDATASIZE SWAP1 DUP2 ADD PUSH1 0x1F NOT AND DUP3 ADD PUSH1 0x40 MSTORE PUSH2 0x3E34 SWAP2 SWAP1 DUP2 ADD SWAP1 PUSH2 0x5EAA JUMP JUMPDEST POP PUSH1 0x40 MLOAD PUSH4 0xD06CA61F PUSH1 0xE0 SHL DUP2 MSTORE PUSH1 0x0 DUP1 MLOAD PUSH1 0x20 PUSH2 0x5F31 DUP4 CODECOPY DUP2 MLOAD SWAP2 MSTORE SWAP1 PUSH4 0xD06CA61F SWAP1 PUSH2 0x3E70 SWAP1 PUSH8 0xDE0B6B3A7640000 SWAP1 DUP8 SWAP1 PUSH1 0x4 ADD PUSH2 0x5E53 JUMP JUMPDEST PUSH1 0x0 PUSH1 0x40 MLOAD DUP1 DUP4 SUB DUP2 DUP7 GAS STATICCALL ISZERO DUP1 ISZERO PUSH2 0x3E8D JUMPI RETURNDATASIZE PUSH1 0x0 DUP1 RETURNDATACOPY RETURNDATASIZE PUSH1 0x0 REVERT JUMPDEST POP POP POP POP PUSH1 0x40 MLOAD RETURNDATASIZE PUSH1 0x0 DUP3 RETURNDATACOPY PUSH1 0x1F RETURNDATASIZE SWAP1 DUP2 ADD PUSH1 0x1F NOT AND DUP3 ADD PUSH1 0x40 MSTORE PUSH2 0x3EB5 SWAP2 SWAP1 DUP2 ADD SWAP1 PUSH2 0x5EAA JUMP JUMPDEST POP PUSH1 0x40 MLOAD PUSH4 0xD06CA61F PUSH1 0xE0 SHL DUP2 MSTORE PUSH1 0x0 DUP1 MLOAD PUSH1 0x20 PUSH2 0x5F31 DUP4 CODECOPY DUP2 MLOAD SWAP2 MSTORE SWAP1 PUSH4 0xD06CA61F SWAP1 PUSH2 0x3EF1 SWAP1 PUSH8 0xDE0B6B3A7640000 SWAP1 DUP8 SWAP1 PUSH1 0x4 ADD PUSH2 0x5E53 JUMP JUMPDEST PUSH1 0x0 PUSH1 0x40 MLOAD DUP1 DUP4 SUB DUP2 DUP7 GAS STATICCALL ISZERO DUP1 ISZERO PUSH2 0x3F0E JUMPI RETURNDATASIZE PUSH1 0x0 DUP1 RETURNDATACOPY RETURNDATASIZE PUSH1 0x0 REVERT JUMPDEST POP POP POP POP PUSH1 0x40 MLOAD RETURNDATASIZE PUSH1 0x0 DUP3 RETURNDATACOPY PUSH1 0x1F RETURNDATASIZE SWAP1 DUP2 ADD PUSH1 0x1F NOT AND DUP3 ADD PUSH1 0x40 MSTORE PUSH2 0x3F36 SWAP2 SWAP1 DUP2 ADD SWAP1 PUSH2 0x5EAA JUMP JUMPDEST POP PUSH1 0x40 MLOAD PUSH4 0xD06CA61F PUSH1 0xE0 SHL DUP2 MSTORE PUSH1 0x0 DUP1 MLOAD PUSH1 0x20 PUSH2 0x5F31 DUP4 CODECOPY DUP2 MLOAD SWAP2 MSTORE SWAP1 PUSH4 0xD06CA61F SWAP1 PUSH2 0x3F72 SWAP1 PUSH8 0xDE0B6B3A7640000 SWAP1 DUP8 SWAP1 PUSH1 0x4 ADD PUSH2 0x5E53 JUMP JUMPDEST PUSH1 0x0 PUSH1 0x40 MLOAD DUP1 DUP4 SUB DUP2 DUP7 GAS STATICCALL ISZERO DUP1 ISZERO PUSH2 0x3F8F JUMPI RETURNDATASIZE PUSH1 0x0 DUP1 RETURNDATACOPY RETURNDATASIZE PUSH1 0x0 REVERT JUMPDEST POP POP POP POP PUSH1 0x40 MLOAD RETURNDATASIZE PUSH1 0x0 DUP3 RETURNDATACOPY PUSH1 0x1F RETURNDATASIZE SWAP1 DUP2 ADD PUSH1 0x1F NOT AND DUP3 ADD PUSH1 0x40 MSTORE PUSH2 0x3FB7 SWAP2 SWAP1 DUP2 ADD SWAP1 PUSH2 0x5EAA JUMP JUMPDEST POP PUSH1 0x40 MLOAD PUSH4 0xD06CA61F PUSH1 0xE0 SHL DUP2 MSTORE PUSH1 0x0 DUP1 MLOAD PUSH1 0x20 PUSH2 0x5F31 DUP4 CODECOPY DUP2 MLOAD SWAP2 MSTORE SWAP1 PUSH4 0xD06CA61F SWAP1 PUSH2 0x3FF3 SWAP1 PUSH8 0xDE0B6B3A7640000 SWAP1 DUP8 SWAP1 PUSH1 0x4 ADD PUSH2 0x5E53 JUMP JUMPDEST PUSH1 0x0 PUSH1 0x40 MLOAD DUP1 DUP4 SUB DUP2 DUP7 GAS STATICCALL ISZERO DUP1 ISZERO PUSH2 0x4010 JUMPI RETURNDATASIZE PUSH1 0x0 DUP1 RETURNDATACOPY RETURNDATASIZE PUSH1 0x0 REVERT JUMPDEST POP POP POP POP PUSH1 0x40 MLOAD RETURNDATASIZE PUSH1 0x0 DUP3 RETURNDATACOPY PUSH1 0x1F RETURNDATASIZE SWAP1 DUP2 ADD PUSH1 0x1F NOT AND DUP3 ADD PUSH1 0x40 MSTORE PUSH2 0x4038 SWAP2 SWAP1 DUP2 ADD SWAP1 PUSH2 0x5EAA JUMP JUMPDEST POP PUSH1 0x40 MLOAD PUSH4 0xD06CA61F PUSH1 0xE0 SHL DUP2 MSTORE PUSH1 0x0 DUP1 MLOAD PUSH1 0x20 PUSH2 0x5F31 DUP4 CODECOPY DUP2 MLOAD SWAP2 MSTORE SWAP1 PUSH4 0xD06CA61F SWAP1 PUSH2 0x4074 SWAP1 PUSH8 0xDE0B6B3A7640000 SWAP1 DUP8 SWAP1 PUSH1 0x4 ADD PUSH2 0x5E53 JUMP JUMPDEST PUSH1 0x0 PUSH1 0x40 MLOAD DUP1 DUP4 SUB DUP2 DUP7 GAS STATICCALL ISZERO DUP1 ISZERO PUSH2 0x4091 JUMPI RETURNDATASIZE PUSH1 0x0 DUP1 RETURNDATACOPY RETURNDATASIZE PUSH1 0x0 REVERT JUMPDEST POP POP POP POP PUSH1 0x40 MLOAD RETURNDATASIZE PUSH1 0x0 DUP3 RETURNDATACOPY PUSH1 0x1F RETURNDATASIZE SWAP1 DUP2 ADD PUSH1 0x1F NOT AND DUP3 ADD PUSH1 0x40 MSTORE PUSH2 0x40B9 SWAP2 SWAP1 DUP2 ADD SWAP1 PUSH2 0x5EAA JUMP JUMPDEST POP PUSH1 0x40 MLOAD PUSH4 0xD06CA61F PUSH1 0xE0 SHL DUP2 MSTORE PUSH1 0x0 DUP1 MLOAD PUSH1 0x20 PUSH2 0x5F31 DUP4 CODECOPY DUP2 MLOAD SWAP2 MSTORE SWAP1 PUSH4 0xD06CA61F SWAP1 PUSH2 0x40F5 SWAP1 PUSH8 0xDE0B6B3A7640000 SWAP1 DUP8 SWAP1 PUSH1 0x4 ADD PUSH2 0x5E53 JUMP JUMPDEST PUSH1 0x0 PUSH1 0x40 MLOAD DUP1 DUP4 SUB DUP2 DUP7 GAS STATICCALL ISZERO DUP1 ISZERO PUSH2 0x4112 JUMPI RETURNDATASIZE PUSH1 0x0 DUP1 RETURNDATACOPY RETURNDATASIZE PUSH1 0x0 REVERT JUMPDEST POP POP POP POP PUSH1 0x40 MLOAD RETURNDATASIZE PUSH1 0x0 DUP3 RETURNDATACOPY PUSH1 0x1F RETURNDATASIZE SWAP1 DUP2 ADD PUSH1 0x1F NOT AND DUP3 ADD PUSH1 0x40 MSTORE PUSH2 0x413A SWAP2 SWAP1 DUP2 ADD SWAP1 PUSH2 0x5EAA JUMP JUMPDEST POP PUSH1 0x40 MLOAD PUSH4 0xD06CA61F PUSH1 0xE0 SHL DUP2 MSTORE PUSH1 0x0 DUP1 MLOAD PUSH1 0x20 PUSH2 0x5F31 DUP4 CODECOPY DUP2 MLOAD SWAP2 MSTORE SWAP1 PUSH4 0xD06CA61F SWAP1 PUSH2 0x4176 SWAP1 PUSH8 0xDE0B6B3A7640000 SWAP1 DUP8 SWAP1 PUSH1 0x4 ADD PUSH2 0x5E53 JUMP JUMPDEST PUSH1 0x0 PUSH1 0x40 MLOAD DUP1 DUP4 SUB DUP2 DUP7 GAS STATICCALL ISZERO DUP1 ISZERO PUSH2 0x4193 JUMPI RETURNDATASIZE PUSH1 0x0 DUP1 RETURNDATACOPY RETURNDATASIZE PUSH1 0x0 REVERT JUMPDEST POP POP POP POP PUSH1 0x40 MLOAD RETURNDATASIZE PUSH1 0x0 DUP3 RETURNDATACOPY PUSH1 0x1F RETURNDATASIZE SWAP1 DUP2 ADD PUSH1 0x1F NOT AND DUP3 ADD PUSH1 0x40 MSTORE PUSH2 0x41BB SWAP2 SWAP1 DUP2 ADD SWAP1 PUSH2 0x5EAA JUMP JUMPDEST POP PUSH1 0x40 MLOAD PUSH4 0xD06CA61F PUSH1 0xE0 SHL DUP2 MSTORE PUSH1 0x0 DUP1 MLOAD PUSH1 0x20 PUSH2 0x5F31 DUP4 CODECOPY DUP2 MLOAD SWAP2 MSTORE SWAP1 PUSH4 0xD06CA61F SWAP1 PUSH2 0x41F7 SWAP1 PUSH8 0xDE0B6B3A7640000 SWAP1 DUP8 SWAP1 PUSH1 0x4 ADD PUSH2 0x5E53 JUMP JUMPDEST PUSH1 0x0 PUSH1 0x40 MLOAD DUP1 DUP4 SUB DUP2 DUP7 GAS STATICCALL ISZERO DUP1 ISZERO PUSH2 0x4214 JUMPI RETURNDATASIZE PUSH1 0x0 DUP1 RETURNDATACOPY RETURNDATASIZE PUSH1 0x0 REVERT JUMPDEST POP POP POP POP PUSH1 0x40 MLOAD RETURNDATASIZE PUSH1 0x0 DUP3 RETURNDATACOPY PUSH1 0x1F RETURNDATASIZE SWAP1 DUP2 ADD PUSH1 0x1F NOT AND DUP3 ADD PUSH1 0x40 MSTORE PUSH2 0x423C SWAP2 SWAP1 DUP2 ADD SWAP1 PUSH2 0x5EAA JUMP JUMPDEST POP PUSH1 0x40 MLOAD PUSH4 0xD06CA61F PUSH1 0xE0 SHL DUP2 MSTORE PUSH1 0x0 DUP1 MLOAD PUSH1 0x20 PUSH2 0x5F31 DUP4 CODECOPY DUP2 MLOAD SWAP2 MSTORE SWAP1 PUSH4 0xD06CA61F SWAP1 PUSH2 0x4278 SWAP1 PUSH8 0xDE0B6B3A7640000 SWAP1 DUP8 SWAP1 PUSH1 0x4 ADD PUSH2 0x5E53 JUMP JUMPDEST PUSH1 0x0 PUSH1 0x40 MLOAD DUP1 DUP4 SUB DUP2 DUP7 GAS STATICCALL ISZERO DUP1 ISZERO PUSH2 0x4295 JUMPI RETURNDATASIZE PUSH1 0x0 DUP1 RETURNDATACOPY RETURNDATASIZE PUSH1 0x0 REVERT JUMPDEST POP POP POP POP PUSH1 0x40 MLOAD RETURNDATASIZE PUSH1 0x0 DUP3 RETURNDATACOPY PUSH1 0x1F RETURNDATASIZE SWAP1 DUP2 ADD PUSH1 0x1F NOT AND DUP3 ADD PUSH1 0x40 MSTORE PUSH2 0x42BD SWAP2 SWAP1 DUP2 ADD SWAP1 PUSH2 0x5EAA JUMP JUMPDEST POP PUSH1 0x40 MLOAD PUSH4 0xD06CA61F PUSH1 0xE0 SHL DUP2 MSTORE PUSH1 0x0 DUP1 MLOAD PUSH1 0x20 PUSH2 0x5F31 DUP4 CODECOPY DUP2 MLOAD SWAP2 MSTORE SWAP1 PUSH4 0xD06CA61F SWAP1 PUSH2 0x42F9 SWAP1 PUSH8 0xDE0B6B3A7640000 SWAP1 DUP8 SWAP1 PUSH1 0x4 ADD PUSH2 0x5E53 JUMP JUMPDEST PUSH1 0x0 PUSH1 0x40 MLOAD DUP1 DUP4 SUB DUP2 DUP7 GAS STATICCALL ISZERO DUP1 ISZERO PUSH2 0x4316 JUMPI RETURNDATASIZE PUSH1 0x0 DUP1 RETURNDATACOPY RETURNDATASIZE PUSH1 0x0 REVERT JUMPDEST POP POP POP POP PUSH1 0x40 MLOAD RETURNDATASIZE PUSH1 0x0 DUP3 RETURNDATACOPY PUSH1 0x1F RETURNDATASIZE SWAP1 DUP2 ADD PUSH1 0x1F NOT AND DUP3 ADD PUSH1 0x40 MSTORE PUSH2 0x433E SWAP2 SWAP1 DUP2 ADD SWAP1 PUSH2 0x5EAA JUMP JUMPDEST POP PUSH1 0x40 MLOAD PUSH4 0xD06CA61F PUSH1 0xE0 SHL DUP2 MSTORE PUSH1 0x0 DUP1 MLOAD PUSH1 0x20 PUSH2 0x5F31 DUP4 CODECOPY DUP2 MLOAD SWAP2 MSTORE SWAP1 PUSH4 0xD06CA61F SWAP1 PUSH2 0x437A SWAP1 PUSH8 0xDE0B6B3A7640000 SWAP1 DUP8 SWAP1 PUSH1 0x4 ADD PUSH2 0x5E53 JUMP JUMPDEST PUSH1 0x0 PUSH1 0x40 MLOAD DUP1 DUP4 SUB DUP2 DUP7 GAS STATICCALL ISZERO DUP1 ISZERO PUSH2 0x4397 JUMPI RETURNDATASIZE PUSH1 0x0 DUP1 RETURNDATACOPY RETURNDATASIZE PUSH1 0x0 REVERT JUMPDEST POP POP POP POP PUSH1 0x40 MLOAD RETURNDATASIZE PUSH1 0x0 DUP3 RETURNDATACOPY PUSH1 0x1F RETURNDATASIZE SWAP1 DUP2 ADD PUSH1 0x1F NOT AND DUP3 ADD PUSH1 0x40 MSTORE PUSH2 0x43BF SWAP2 SWAP1 DUP2 ADD SWAP1 PUSH2 0x5EAA JUMP JUMPDEST POP PUSH1 0x40 MLOAD PUSH4 0xD06CA61F PUSH1 0xE0 SHL DUP2 MSTORE PUSH1 0x0 DUP1 MLOAD PUSH1 0x20 PUSH2 0x5F31 DUP4 CODECOPY DUP2 MLOAD SWAP2 MSTORE SWAP1 PUSH4 0xD06CA61F SWAP1 PUSH2 0x43FB SWAP1 PUSH8 0xDE0B6B3A7640000 SWAP1 DUP8 SWAP1 PUSH1 0x4 ADD PUSH2 0x5E53 JUMP JUMPDEST PUSH1 0x0 PUSH1 0x40 MLOAD DUP1 DUP4 SUB DUP2 DUP7 GAS STATICCALL ISZERO DUP1 ISZERO PUSH2 0x4418 JUMPI RETURNDATASIZE PUSH1 0x0 DUP1 RETURNDATACOPY RETURNDATASIZE PUSH1 0x0 REVERT JUMPDEST POP POP POP POP PUSH1 0x40 MLOAD RETURNDATASIZE PUSH1 0x0 DUP3 RETURNDATACOPY PUSH1 0x1F RETURNDATASIZE SWAP1 DUP2 ADD PUSH1 0x1F NOT AND DUP3 ADD PUSH1 0x40 MSTORE PUSH2 0x4440 SWAP2 SWAP1 DUP2 ADD SWAP1 PUSH2 0x5EAA JUMP JUMPDEST POP PUSH1 0x40 MLOAD PUSH4 0xD06CA61F PUSH1 0xE0 SHL DUP2 MSTORE PUSH1 0x0 DUP1 MLOAD PUSH1 0x20 PUSH2 0x5F31 DUP4 CODECOPY DUP2 MLOAD SWAP2 MSTORE SWAP1 PUSH4 0xD06CA61F SWAP1 PUSH2 0x447C SWAP1 PUSH8 0xDE0B6B3A7640000 SWAP1 DUP8 SWAP1 PUSH1 0x4 ADD PUSH2 0x5E53 JUMP JUMPDEST PUSH1 0x0 PUSH1 0x40 MLOAD DUP1 DUP4 SUB DUP2 DUP7 GAS STATICCALL ISZERO DUP1 ISZERO PUSH2 0x4499 JUMPI RETURNDATASIZE PUSH1 0x0 DUP1 RETURNDATACOPY RETURNDATASIZE PUSH1 0x0 REVERT JUMPDEST POP POP POP POP PUSH1 0x40 MLOAD RETURNDATASIZE PUSH1 0x0 DUP3 RETURNDATACOPY PUSH1 0x1F RETURNDATASIZE SWAP1 DUP2 ADD PUSH1 0x1F NOT AND DUP3 ADD PUSH1 0x40 MSTORE PUSH2 0x44C1 SWAP2 SWAP1 DUP2 ADD SWAP1 PUSH2 0x5EAA JUMP JUMPDEST POP PUSH1 0x40 MLOAD PUSH4 0xD06CA61F PUSH1 0xE0 SHL DUP2 MSTORE PUSH1 0x0 DUP1 MLOAD PUSH1 0x20 PUSH2 0x5F31 DUP4 CODECOPY DUP2 MLOAD SWAP2 MSTORE SWAP1 PUSH4 0xD06CA61F SWAP1 PUSH2 0x44FD SWAP1 PUSH8 0xDE0B6B3A7640000 SWAP1 DUP8 SWAP1 PUSH1 0x4 ADD PUSH2 0x5E53 JUMP JUMPDEST PUSH1 0x0 PUSH1 0x40 MLOAD DUP1 DUP4 SUB DUP2 DUP7 GAS STATICCALL ISZERO DUP1 ISZERO PUSH2 0x451A JUMPI RETURNDATASIZE PUSH1 0x0 DUP1 RETURNDATACOPY RETURNDATASIZE PUSH1 0x0 REVERT JUMPDEST POP POP POP POP PUSH1 0x40 MLOAD RETURNDATASIZE PUSH1 0x0 DUP3 RETURNDATACOPY PUSH1 0x1F RETURNDATASIZE SWAP1 DUP2 ADD PUSH1 0x1F NOT AND DUP3 ADD PUSH1 0x40 MSTORE PUSH2 0x4542 SWAP2 SWAP1 DUP2 ADD SWAP1 PUSH2 0x5EAA JUMP JUMPDEST POP PUSH1 0x40 MLOAD PUSH4 0xD06CA61F PUSH1 0xE0 SHL DUP2 MSTORE PUSH1 0x0 DUP1 MLOAD PUSH1 0x20 PUSH2 0x5F31 DUP4 CODECOPY DUP2 MLOAD SWAP2 MSTORE SWAP1 PUSH4 0xD06CA61F SWAP1 PUSH2 0x457E SWAP1 PUSH8 0xDE0B6B3A7640000 SWAP1 DUP8 SWAP1 PUSH1 0x4 ADD PUSH2 0x5E53 JUMP JUMPDEST PUSH1 0x0 PUSH1 0x40 MLOAD DUP1 DUP4 SUB DUP2 DUP7 GAS STATICCALL ISZERO DUP1 ISZERO PUSH2 0x459B JUMPI RETURNDATASIZE PUSH1 0x0 DUP1 RETURNDATACOPY RETURNDATASIZE PUSH1 0x0 REVERT JUMPDEST POP POP POP POP PUSH1 0x40 MLOAD RETURNDATASIZE PUSH1 0x0 DUP3 RETURNDATACOPY PUSH1 0x1F RETURNDATASIZE SWAP1 DUP2 ADD PUSH1 0x1F NOT AND DUP3 ADD PUSH1 0x40 MSTORE PUSH2 0x45C3 SWAP2 SWAP1 DUP2 ADD SWAP1 PUSH2 0x5EAA JUMP JUMPDEST POP PUSH1 0x40 MLOAD PUSH4 0xD06CA61F PUSH1 0xE0 SHL DUP2 MSTORE PUSH1 0x0 DUP1 MLOAD PUSH1 0x20 PUSH2 0x5F31 DUP4 CODECOPY DUP2 MLOAD SWAP2 MSTORE SWAP1 PUSH4 0xD06CA61F SWAP1 PUSH2 0x45FF SWAP1 PUSH8 0xDE0B6B3A7640000 SWAP1 DUP8 SWAP1 PUSH1 0x4 ADD PUSH2 0x5E53 JUMP JUMPDEST PUSH1 0x0 PUSH1 0x40 MLOAD DUP1 DUP4 SUB DUP2 DUP7 GAS STATICCALL ISZERO DUP1 ISZERO PUSH2 0x461C JUMPI RETURNDATASIZE PUSH1 0x0 DUP1 RETURNDATACOPY RETURNDATASIZE PUSH1 0x0 REVERT JUMPDEST POP POP POP POP PUSH1 0x40 MLOAD RETURNDATASIZE PUSH1 0x0 DUP3 RETURNDATACOPY PUSH1 0x1F RETURNDATASIZE SWAP1 DUP2 ADD PUSH1 0x1F NOT AND DUP3 ADD PUSH1 0x40 MSTORE PUSH2 0x4644 SWAP2 SWAP1 DUP2 ADD SWAP1 PUSH2 0x5EAA JUMP JUMPDEST POP PUSH1 0x40 MLOAD PUSH4 0xD06CA61F PUSH1 0xE0 SHL DUP2 MSTORE PUSH1 0x0 DUP1 MLOAD PUSH1 0x20 PUSH2 0x5F31 DUP4 CODECOPY DUP2 MLOAD SWAP2 MSTORE SWAP1 PUSH4 0xD06CA61F SWAP1 PUSH2 0x4680 SWAP1 PUSH8 0xDE0B6B3A7640000 SWAP1 DUP8 SWAP1 PUSH1 0x4 ADD PUSH2 0x5E53 JUMP JUMPDEST PUSH1 0x0 PUSH1 0x40 MLOAD DUP1 DUP4 SUB DUP2 DUP7 GAS STATICCALL ISZERO DUP1 ISZERO PUSH2 0x469D JUMPI RETURNDATASIZE PUSH1 0x0 DUP1 RETURNDATACOPY RETURNDATASIZE PUSH1 0x0 REVERT JUMPDEST POP POP POP POP PUSH1 0x40 MLOAD RETURNDATASIZE PUSH1 0x0 DUP3 RETURNDATACOPY PUSH1 0x1F RETURNDATASIZE SWAP1 DUP2 ADD PUSH1 0x1F NOT AND DUP3 ADD PUSH1 0x40 MSTORE PUSH2 0x46C5 SWAP2 SWAP1 DUP2 ADD SWAP1 PUSH2 0x5EAA JUMP JUMPDEST POP PUSH1 0x40 MLOAD PUSH4 0xD06CA61F PUSH1 0xE0 SHL DUP2 MSTORE PUSH1 0x0 DUP1 MLOAD PUSH1 0x20 PUSH2 0x5F31 DUP4 CODECOPY DUP2 MLOAD SWAP2 MSTORE SWAP1 PUSH4 0xD06CA61F SWAP1 PUSH2 0x4701 SWAP1 PUSH8 0xDE0B6B3A7640000 SWAP1 DUP8 SWAP1 PUSH1 0x4 ADD PUSH2 0x5E53 JUMP JUMPDEST PUSH1 0x0 PUSH1 0x40 MLOAD DUP1 DUP4 SUB DUP2 DUP7 GAS STATICCALL ISZERO DUP1 ISZERO PUSH2 0x471E JUMPI RETURNDATASIZE PUSH1 0x0 DUP1 RETURNDATACOPY RETURNDATASIZE PUSH1 0x0 REVERT JUMPDEST POP POP POP POP PUSH1 0x40 MLOAD RETURNDATASIZE PUSH1 0x0 DUP3 RETURNDATACOPY PUSH1 0x1F RETURNDATASIZE SWAP1 DUP2 ADD PUSH1 0x1F NOT AND DUP3 ADD PUSH1 0x40 MSTORE PUSH2 0x4746 SWAP2 SWAP1 DUP2 ADD SWAP1 PUSH2 0x5EAA JUMP JUMPDEST POP PUSH1 0x40 MLOAD PUSH4 0xD06CA61F PUSH1 0xE0 SHL DUP2 MSTORE PUSH1 0x0 DUP1 MLOAD PUSH1 0x20 PUSH2 0x5F31 DUP4 CODECOPY DUP2 MLOAD SWAP2 MSTORE SWAP1 PUSH4 0xD06CA61F SWAP1 PUSH2 0x4782 SWAP1 PUSH8 0xDE0B6B3A7640000 SWAP1 DUP8 SWAP1 PUSH1 0x4 ADD PUSH2 0x5E53 JUMP JUMPDEST PUSH1 0x0 PUSH1 0x40 MLOAD DUP1 DUP4 SUB DUP2 DUP7 GAS STATICCALL ISZERO DUP1 ISZERO PUSH2 0x479F JUMPI RETURNDATASIZE PUSH1 0x0 DUP1 RETURNDATACOPY RETURNDATASIZE PUSH1 0x0 REVERT JUMPDEST POP POP POP POP PUSH1 0x40 MLOAD RETURNDATASIZE PUSH1 0x0 DUP3 RETURNDATACOPY PUSH1 0x1F RETURNDATASIZE SWAP1 DUP2 ADD PUSH1 0x1F NOT AND DUP3 ADD PUSH1 0x40 MSTORE PUSH2 0x47C7 SWAP2 SWAP1 DUP2 ADD SWAP1 PUSH2 0x5EAA JUMP JUMPDEST POP PUSH1 0x40 MLOAD PUSH4 0xD06CA61F PUSH1 0xE0 SHL DUP2 MSTORE PUSH1 0x0 DUP1 MLOAD PUSH1 0x20 PUSH2 0x5F31 DUP4 CODECOPY DUP2 MLOAD SWAP2 MSTORE SWAP1 PUSH4 0xD06CA61F SWAP1 PUSH2 0x4803 SWAP1 PUSH8 0xDE0B6B3A7640000 SWAP1 DUP8 SWAP1 PUSH1 0x4 ADD PUSH2 0x5E53 JUMP JUMPDEST PUSH1 0x0 PUSH1 0x40 MLOAD DUP1 DUP4 SUB DUP2 DUP7 GAS STATICCALL ISZERO DUP1 ISZERO PUSH2 0x4820 JUMPI RETURNDATASIZE PUSH1 0x0 DUP1 RETURNDATACOPY RETURNDATASIZE PUSH1 0x0 REVERT JUMPDEST POP POP POP POP PUSH1 0x40 MLOAD RETURNDATASIZE PUSH1 0x0 DUP3 RETURNDATACOPY PUSH1 0x1F RETURNDATASIZE SWAP1 DUP2 ADD PUSH1 0x1F NOT AND DUP3 ADD PUSH1 0x40 MSTORE PUSH2 0x4848 SWAP2 SWAP1 DUP2 ADD SWAP1 PUSH2 0x5EAA JUMP JUMPDEST POP PUSH1 0x40 MLOAD PUSH4 0xD06CA61F PUSH1 0xE0 SHL DUP2 MSTORE PUSH1 0x0 DUP1 MLOAD PUSH1 0x20 PUSH2 0x5F31 DUP4 CODECOPY DUP2 MLOAD SWAP2 MSTORE SWAP1 PUSH4 0xD06CA61F SWAP1 PUSH2 0x4884 SWAP1 PUSH8 0xDE0B6B3A7640000 SWAP1 DUP8 SWAP1 PUSH1 0x4 ADD PUSH2 0x5E53 JUMP JUMPDEST PUSH1 0x0 PUSH1 0x40 MLOAD DUP1 DUP4 SUB DUP2 DUP7 GAS STATICCALL ISZERO DUP1 ISZERO PUSH2 0x48A1 JUMPI RETURNDATASIZE PUSH1 0x0 DUP1 RETURNDATACOPY RETURNDATASIZE PUSH1 0x0 REVERT JUMPDEST POP POP POP POP PUSH1 0x40 MLOAD RETURNDATASIZE PUSH1 0x0 DUP3 RETURNDATACOPY PUSH1 0x1F RETURNDATASIZE SWAP1 DUP2 ADD PUSH1 0x1F NOT AND DUP3 ADD PUSH1 0x40 MSTORE PUSH2 0x48C9 SWAP2 SWAP1 DUP2 ADD SWAP1 PUSH2 0x5EAA JUMP JUMPDEST POP PUSH1 0x40 MLOAD PUSH4 0xD06CA61F PUSH1 0xE0 SHL DUP2 MSTORE PUSH1 0x0 DUP1 MLOAD PUSH1 0x20 PUSH2 0x5F31 DUP4 CODECOPY DUP2 MLOAD SWAP2 MSTORE SWAP1 PUSH4 0xD06CA61F SWAP1 PUSH2 0x4905 SWAP1 PUSH8 0xDE0B6B3A7640000 SWAP1 DUP8 SWAP1 PUSH1 0x4 ADD PUSH2 0x5E53 JUMP JUMPDEST PUSH1 0x0 PUSH1 0x40 MLOAD DUP1 DUP4 SUB DUP2 DUP7 GAS STATICCALL ISZERO DUP1 ISZERO PUSH2 0x4922 JUMPI RETURNDATASIZE PUSH1 0x0 DUP1 RETURNDATACOPY RETURNDATASIZE PUSH1 0x0 REVERT JUMPDEST POP POP POP POP PUSH1 0x40 MLOAD RETURNDATASIZE PUSH1 0x0 DUP3 RETURNDATACOPY PUSH1 0x1F RETURNDATASIZE SWAP1 DUP2 ADD PUSH1 0x1F NOT AND DUP3 ADD PUSH1 0x40 MSTORE PUSH2 0x494A SWAP2 SWAP1 DUP2 ADD SWAP1 PUSH2 0x5EAA JUMP JUMPDEST POP PUSH1 0x40 MLOAD PUSH4 0xD06CA61F PUSH1 0xE0 SHL DUP2 MSTORE PUSH1 0x0 DUP1 MLOAD PUSH1 0x20 PUSH2 0x5F31 DUP4 CODECOPY DUP2 MLOAD SWAP2 MSTORE SWAP1 PUSH4 0xD06CA61F SWAP1 PUSH2 0x4986 SWAP1 PUSH8 0xDE0B6B3A7640000 SWAP1 DUP8 SWAP1 PUSH1 0x4 ADD PUSH2 0x5E53 JUMP JUMPDEST PUSH1 0x0 PUSH1 0x40 MLOAD DUP1 DUP4 SUB DUP2 DUP7 GAS STATICCALL ISZERO DUP1 ISZERO PUSH2 0x49A3 JUMPI RETURNDATASIZE PUSH1 0x0 DUP1 RETURNDATACOPY RETURNDATASIZE PUSH1 0x0 REVERT JUMPDEST POP POP POP POP PUSH1 0x40 MLOAD RETURNDATASIZE PUSH1 0x0 DUP3 RETURNDATACOPY PUSH1 0x1F RETURNDATASIZE SWAP1 DUP2 ADD PUSH1 0x1F NOT AND DUP3 ADD PUSH1 0x40 MSTORE PUSH2 0x49CB SWAP2 SWAP1 DUP2 ADD SWAP1 PUSH2 0x5EAA JUMP JUMPDEST POP PUSH1 0x40 MLOAD PUSH4 0xD06CA61F PUSH1 0xE0 SHL DUP2 MSTORE PUSH1 0x0 DUP1 MLOAD PUSH1 0x20 PUSH2 0x5F31 DUP4 CODECOPY DUP2 MLOAD SWAP2 MSTORE SWAP1 PUSH4 0xD06CA61F SWAP1 PUSH2 0x4A07 SWAP1 PUSH8 0xDE0B6B3A7640000 SWAP1 DUP8 SWAP1 PUSH1 0x4 ADD PUSH2 0x5E53 JUMP JUMPDEST PUSH1 0x0 PUSH1 0x40 MLOAD DUP1 DUP4 SUB DUP2 DUP7 GAS STATICCALL ISZERO DUP1 ISZERO PUSH2 0x4A24 JUMPI RETURNDATASIZE PUSH1 0x0 DUP1 RETURNDATACOPY RETURNDATASIZE PUSH1 0x0 REVERT JUMPDEST POP POP POP POP PUSH1 0x40 MLOAD RETURNDATASIZE PUSH1 0x0 DUP3 RETURNDATACOPY PUSH1 0x1F RETURNDATASIZE SWAP1 DUP2 ADD PUSH1 0x1F NOT AND DUP3 ADD PUSH1 0x40 MSTORE PUSH2 0x4A4C SWAP2 SWAP1 DUP2 ADD SWAP1 PUSH2 0x5EAA JUMP JUMPDEST POP PUSH1 0x40 MLOAD PUSH4 0xD06CA61F PUSH1 0xE0 SHL DUP2 MSTORE PUSH1 0x0 DUP1 MLOAD PUSH1 0x20 PUSH2 0x5F31 DUP4 CODECOPY DUP2 MLOAD SWAP2 MSTORE SWAP1 PUSH4 0xD06CA61F SWAP1 PUSH2 0x4A88 SWAP1 PUSH8 0xDE0B6B3A7640000 SWAP1 DUP8 SWAP1 PUSH1 0x4 ADD PUSH2 0x5E53 JUMP JUMPDEST PUSH1 0x0 PUSH1 0x40 MLOAD DUP1 DUP4 SUB DUP2 DUP7 GAS STATICCALL ISZERO DUP1 ISZERO PUSH2 0x4AA5 JUMPI RETURNDATASIZE PUSH1 0x0 DUP1 RETURNDATACOPY RETURNDATASIZE PUSH1 0x0 REVERT JUMPDEST POP POP POP POP PUSH1 0x40 MLOAD RETURNDATASIZE PUSH1 0x0 DUP3 RETURNDATACOPY PUSH1 0x1F RETURNDATASIZE SWAP1 DUP2 ADD PUSH1 0x1F NOT AND DUP3 ADD PUSH1 0x40 MSTORE PUSH2 0x4ACD SWAP2 SWAP1 DUP2 ADD SWAP1 PUSH2 0x5EAA JUMP JUMPDEST POP PUSH1 0x40 MLOAD PUSH4 0xD06CA61F PUSH1 0xE0 SHL DUP2 MSTORE PUSH1 0x0 DUP1 MLOAD PUSH1 0x20 PUSH2 0x5F31 DUP4 CODECOPY DUP2 MLOAD SWAP2 MSTORE SWAP1 PUSH4 0xD06CA61F SWAP1 PUSH2 0x4B09 SWAP1 PUSH8 0xDE0B6B3A7640000 SWAP1 DUP8 SWAP1 PUSH1 0x4 ADD PUSH2 0x5E53 JUMP JUMPDEST PUSH1 0x0 PUSH1 0x40 MLOAD DUP1 DUP4 SUB DUP2 DUP7 GAS STATICCALL ISZERO DUP1 ISZERO PUSH2 0x4B26 JUMPI RETURNDATASIZE PUSH1 0x0 DUP1 RETURNDATACOPY RETURNDATASIZE PUSH1 0x0 REVERT JUMPDEST POP POP POP POP PUSH1 0x40 MLOAD RETURNDATASIZE PUSH1 0x0 DUP3 RETURNDATACOPY PUSH1 0x1F RETURNDATASIZE SWAP1 DUP2 ADD PUSH1 0x1F NOT AND DUP3 ADD PUSH1 0x40 MSTORE PUSH2 0x4B4E SWAP2 SWAP1 DUP2 ADD SWAP1 PUSH2 0x5EAA JUMP JUMPDEST POP PUSH1 0x40 MLOAD PUSH4 0xD06CA61F PUSH1 0xE0 SHL DUP2 MSTORE PUSH1 0x0 DUP1 MLOAD PUSH1 0x20 PUSH2 0x5F31 DUP4 CODECOPY DUP2 MLOAD SWAP2 MSTORE SWAP1 PUSH4 0xD06CA61F SWAP1 PUSH2 0x4B8A SWAP1 PUSH8 0xDE0B6B3A7640000 SWAP1 DUP8 SWAP1 PUSH1 0x4 ADD PUSH2 0x5E53 JUMP JUMPDEST PUSH1 0x0 PUSH1 0x40 MLOAD DUP1 DUP4 SUB DUP2 DUP7 GAS STATICCALL ISZERO DUP1 ISZERO PUSH2 0x4BA7 JUMPI RETURNDATASIZE PUSH1 0x0 DUP1 RETURNDATACOPY RETURNDATASIZE PUSH1 0x0 REVERT JUMPDEST POP POP POP POP PUSH1 0x40 MLOAD RETURNDATASIZE PUSH1 0x0 DUP3 RETURNDATACOPY PUSH1 0x1F RETURNDATASIZE SWAP1 DUP2 ADD PUSH1 0x1F NOT AND DUP3 ADD PUSH1 0x40 MSTORE PUSH2 0x4BCF SWAP2 SWAP1 DUP2 ADD SWAP1 PUSH2 0x5EAA JUMP JUMPDEST POP PUSH1 0x40 MLOAD PUSH4 0xD06CA61F PUSH1 0xE0 SHL DUP2 MSTORE PUSH1 0x0 DUP1 MLOAD PUSH1 0x20 PUSH2 0x5F31 DUP4 CODECOPY DUP2 MLOAD SWAP2 MSTORE SWAP1 PUSH4 0xD06CA61F SWAP1 PUSH2 0x4C0B SWAP1 PUSH8 0xDE0B6B3A7640000 SWAP1 DUP8 SWAP1 PUSH1 0x4 ADD PUSH2 0x5E53 JUMP JUMPDEST PUSH1 0x0 PUSH1 0x40 MLOAD DUP1 DUP4 SUB DUP2 DUP7 GAS STATICCALL ISZERO DUP1 ISZERO PUSH2 0x4C28 JUMPI RETURNDATASIZE PUSH1 0x0 DUP1 RETURNDATACOPY RETURNDATASIZE PUSH1 0x0 REVERT JUMPDEST POP POP POP POP PUSH1 0x40 MLOAD RETURNDATASIZE PUSH1 0x0 DUP3 RETURNDATACOPY PUSH1 0x1F RETURNDATASIZE SWAP1 DUP2 ADD PUSH1 0x1F NOT AND DUP3 ADD PUSH1 0x40 MSTORE PUSH2 0x4C50 SWAP2 SWAP1 DUP2 ADD SWAP1 PUSH2 0x5EAA JUMP JUMPDEST POP PUSH1 0x40 MLOAD PUSH4 0xD06CA61F PUSH1 0xE0 SHL DUP2 MSTORE PUSH1 0x0 DUP1 MLOAD PUSH1 0x20 PUSH2 0x5F31 DUP4 CODECOPY DUP2 MLOAD SWAP2 MSTORE SWAP1 PUSH4 0xD06CA61F SWAP1 PUSH2 0x4C8C SWAP1 PUSH8 0xDE0B6B3A7640000 SWAP1 DUP8 SWAP1 PUSH1 0x4 ADD PUSH2 0x5E53 JUMP JUMPDEST PUSH1 0x0 PUSH1 0x40 MLOAD DUP1 DUP4 SUB DUP2 DUP7 GAS STATICCALL ISZERO DUP1 ISZERO PUSH2 0x4CA9 JUMPI RETURNDATASIZE PUSH1 0x0 DUP1 RETURNDATACOPY RETURNDATASIZE PUSH1 0x0 REVERT JUMPDEST POP POP POP POP PUSH1 0x40 MLOAD RETURNDATASIZE PUSH1 0x0 DUP3 RETURNDATACOPY PUSH1 0x1F RETURNDATASIZE SWAP1 DUP2 ADD PUSH1 0x1F NOT AND DUP3 ADD PUSH1 0x40 MSTORE PUSH2 0x4CD1 SWAP2 SWAP1 DUP2 ADD SWAP1 PUSH2 0x5EAA JUMP JUMPDEST POP PUSH1 0x40 MLOAD PUSH4 0xD06CA61F PUSH1 0xE0 SHL DUP2 MSTORE PUSH1 0x0 DUP1 MLOAD PUSH1 0x20 PUSH2 0x5F31 DUP4 CODECOPY DUP2 MLOAD SWAP2 MSTORE SWAP1 PUSH4 0xD06CA61F SWAP1 PUSH2 0x4D0D SWAP1 PUSH8 0xDE0B6B3A7640000 SWAP1 DUP8 SWAP1 PUSH1 0x4 ADD PUSH2 0x5E53 JUMP JUMPDEST PUSH1 0x0 PUSH1 0x40 MLOAD DUP1 DUP4 SUB DUP2 DUP7 GAS STATICCALL ISZERO DUP1 ISZERO PUSH2 0x4D2A JUMPI RETURNDATASIZE PUSH1 0x0 DUP1 RETURNDATACOPY RETURNDATASIZE PUSH1 0x0 REVERT JUMPDEST POP POP POP POP PUSH1 0x40 MLOAD RETURNDATASIZE PUSH1 0x0 DUP3 RETURNDATACOPY PUSH1 0x1F RETURNDATASIZE SWAP1 DUP2 ADD PUSH1 0x1F NOT AND DUP3 ADD PUSH1 0x40 MSTORE PUSH2 0x4D52 SWAP2 SWAP1 DUP2 ADD SWAP1 PUSH2 0x5EAA JUMP JUMPDEST POP PUSH1 0x40 MLOAD PUSH4 0xD06CA61F PUSH1 0xE0 SHL DUP2 MSTORE PUSH1 0x0 DUP1 MLOAD PUSH1 0x20 PUSH2 0x5F31 DUP4 CODECOPY DUP2 MLOAD SWAP2 MSTORE SWAP1 PUSH4 0xD06CA61F SWAP1 PUSH2 0x4D8E SWAP1 PUSH8 0xDE0B6B3A7640000 SWAP1 DUP8 SWAP1 PUSH1 0x4 ADD PUSH2 0x5E53 JUMP JUMPDEST PUSH1 0x0 PUSH1 0x40 MLOAD DUP1 DUP4 SUB DUP2 DUP7 GAS STATICCALL ISZERO DUP1 ISZERO PUSH2 0x4DAB JUMPI RETURNDATASIZE PUSH1 0x0 DUP1 RETURNDATACOPY RETURNDATASIZE PUSH1 0x0 REVERT JUMPDEST POP POP POP POP PUSH1 0x40 MLOAD RETURNDATASIZE PUSH1 0x0 DUP3 RETURNDATACOPY PUSH1 0x1F RETURNDATASIZE SWAP1 DUP2 ADD PUSH1 0x1F NOT AND DUP3 ADD PUSH1 0x40 MSTORE PUSH2 0x4DD3 SWAP2 SWAP1 DUP2 ADD SWAP1 PUSH2 0x5EAA JUMP JUMPDEST POP PUSH1 0x40 MLOAD PUSH4 0xD06CA61F PUSH1 0xE0 SHL DUP2 MSTORE PUSH1 0x0 DUP1 MLOAD PUSH1 0x20 PUSH2 0x5F31 DUP4 CODECOPY DUP2 MLOAD SWAP2 MSTORE SWAP1 PUSH4 0xD06CA61F SWAP1 PUSH2 0x4E0F SWAP1 PUSH8 0xDE0B6B3A7640000 SWAP1 DUP8 SWAP1 PUSH1 0x4 ADD PUSH2 0x5E53 JUMP JUMPDEST PUSH1 0x0 PUSH1 0x40 MLOAD DUP1 DUP4 SUB DUP2 DUP7 GAS STATICCALL ISZERO DUP1 ISZERO PUSH2 0x4E2C JUMPI RETURNDATASIZE PUSH1 0x0 DUP1 RETURNDATACOPY RETURNDATASIZE PUSH1 0x0 REVERT JUMPDEST POP POP POP POP PUSH1 0x40 MLOAD RETURNDATASIZE PUSH1 0x0 DUP3 RETURNDATACOPY PUSH1 0x1F RETURNDATASIZE SWAP1 DUP2 ADD PUSH1 0x1F NOT AND DUP3 ADD PUSH1 0x40 MSTORE PUSH2 0x4E54 SWAP2 SWAP1 DUP2 ADD SWAP1 PUSH2 0x5EAA JUMP JUMPDEST POP PUSH1 0x40 MLOAD PUSH4 0xD06CA61F PUSH1 0xE0 SHL DUP2 MSTORE PUSH1 0x0 DUP1 MLOAD PUSH1 0x20 PUSH2 0x5F31 DUP4 CODECOPY DUP2 MLOAD SWAP2 MSTORE SWAP1 PUSH4 0xD06CA61F SWAP1 PUSH2 0x4E90 SWAP1 PUSH8 0xDE0B6B3A7640000 SWAP1 DUP8 SWAP1 PUSH1 0x4 ADD PUSH2 0x5E53 JUMP JUMPDEST PUSH1 0x0 PUSH1 0x40 MLOAD DUP1 DUP4 SUB DUP2 DUP7 GAS STATICCALL ISZERO DUP1 ISZERO PUSH2 0x4EAD JUMPI RETURNDATASIZE PUSH1 0x0 DUP1 RETURNDATACOPY RETURNDATASIZE PUSH1 0x0 REVERT JUMPDEST POP POP POP POP PUSH1 0x40 MLOAD RETURNDATASIZE PUSH1 0x0 DUP3 RETURNDATACOPY PUSH1 0x1F RETURNDATASIZE SWAP1 DUP2 ADD PUSH1 0x1F NOT AND DUP3 ADD PUSH1 0x40 MSTORE PUSH2 0x4ED5 SWAP2 SWAP1 DUP2 ADD SWAP1 PUSH2 0x5EAA JUMP JUMPDEST POP PUSH1 0x40 MLOAD PUSH4 0xD06CA61F PUSH1 0xE0 SHL DUP2 MSTORE PUSH1 0x0 DUP1 MLOAD PUSH1 0x20 PUSH2 0x5F31 DUP4 CODECOPY DUP2 MLOAD SWAP2 MSTORE SWAP1 PUSH4 0xD06CA61F SWAP1 PUSH2 0x4F11 SWAP1 PUSH8 0xDE0B6B3A7640000 SWAP1 DUP8 SWAP1 PUSH1 0x4 ADD PUSH2 0x5E53 JUMP JUMPDEST PUSH1 0x0 PUSH1 0x40 MLOAD DUP1 DUP4 SUB DUP2 DUP7 GAS STATICCALL ISZERO DUP1 ISZERO PUSH2 0x4F2E JUMPI RETURNDATASIZE PUSH1 0x0 DUP1 RETURNDATACOPY RETURNDATASIZE PUSH1 0x0 REVERT JUMPDEST POP POP POP POP PUSH1 0x40 MLOAD RETURNDATASIZE PUSH1 0x0 DUP3 RETURNDATACOPY PUSH1 0x1F RETURNDATASIZE SWAP1 DUP2 ADD PUSH1 0x1F NOT AND DUP3 ADD PUSH1 0x40 MSTORE PUSH2 0x4F56 SWAP2 SWAP1 DUP2 ADD SWAP1 PUSH2 0x5EAA JUMP JUMPDEST POP PUSH1 0x40 MLOAD PUSH4 0xD06CA61F PUSH1 0xE0 SHL DUP2 MSTORE PUSH1 0x0 DUP1 MLOAD PUSH1 0x20 PUSH2 0x5F31 DUP4 CODECOPY DUP2 MLOAD SWAP2 MSTORE SWAP1 PUSH4 0xD06CA61F SWAP1 PUSH2 0x4F92 SWAP1 PUSH8 0xDE0B6B3A7640000 SWAP1 DUP8 SWAP1 PUSH1 0x4 ADD PUSH2 0x5E53 JUMP JUMPDEST PUSH1 0x0 PUSH1 0x40 MLOAD DUP1 DUP4 SUB DUP2 DUP7 GAS STATICCALL ISZERO DUP1 ISZERO PUSH2 0x4FAF JUMPI RETURNDATASIZE PUSH1 0x0 DUP1 RETURNDATACOPY RETURNDATASIZE PUSH1 0x0 REVERT JUMPDEST POP POP POP POP PUSH1 0x40 MLOAD RETURNDATASIZE PUSH1 0x0 DUP3 RETURNDATACOPY PUSH1 0x1F RETURNDATASIZE SWAP1 DUP2 ADD PUSH1 0x1F NOT AND DUP3 ADD PUSH1 0x40 MSTORE PUSH2 0x4FD7 SWAP2 SWAP1 DUP2 ADD SWAP1 PUSH2 0x5EAA JUMP JUMPDEST POP PUSH1 0x40 MLOAD PUSH4 0xD06CA61F PUSH1 0xE0 SHL DUP2 MSTORE PUSH1 0x0 DUP1 MLOAD PUSH1 0x20 PUSH2 0x5F31 DUP4 CODECOPY DUP2 MLOAD SWAP2 MSTORE SWAP1 PUSH4 0xD06CA61F SWAP1 PUSH2 0x5013 SWAP1 PUSH8 0xDE0B6B3A7640000 SWAP1 DUP8 SWAP1 PUSH1 0x4 ADD PUSH2 0x5E53 JUMP JUMPDEST PUSH1 0x0 PUSH1 0x40 MLOAD DUP1 DUP4 SUB DUP2 DUP7 GAS STATICCALL ISZERO DUP1 ISZERO PUSH2 0x5030 JUMPI RETURNDATASIZE PUSH1 0x0 DUP1 RETURNDATACOPY RETURNDATASIZE PUSH1 0x0 REVERT JUMPDEST POP POP POP POP PUSH1 0x40 MLOAD RETURNDATASIZE PUSH1 0x0 DUP3 RETURNDATACOPY PUSH1 0x1F RETURNDATASIZE SWAP1 DUP2 ADD PUSH1 0x1F NOT AND DUP3 ADD PUSH1 0x40 MSTORE PUSH2 0x5058 SWAP2 SWAP1 DUP2 ADD SWAP1 PUSH2 0x5EAA JUMP JUMPDEST POP PUSH1 0x40 MLOAD PUSH4 0xD06CA61F PUSH1 0xE0 SHL DUP2 MSTORE PUSH1 0x0 DUP1 MLOAD PUSH1 0x20 PUSH2 0x5F31 DUP4 CODECOPY DUP2 MLOAD SWAP2 MSTORE SWAP1 PUSH4 0xD06CA61F SWAP1 PUSH2 0x5094 SWAP1 PUSH8 0xDE0B6B3A7640000 SWAP1 DUP8 SWAP1 PUSH1 0x4 ADD PUSH2 0x5E53 JUMP JUMPDEST PUSH1 0x0 PUSH1 0x40 MLOAD DUP1 DUP4 SUB DUP2 DUP7 GAS STATICCALL ISZERO DUP1 ISZERO PUSH2 0x50B1 JUMPI RETURNDATASIZE PUSH1 0x0 DUP1 RETURNDATACOPY RETURNDATASIZE PUSH1 0x0 REVERT JUMPDEST POP POP POP POP PUSH1 0x40 MLOAD RETURNDATASIZE PUSH1 0x0 DUP3 RETURNDATACOPY PUSH1 0x1F RETURNDATASIZE SWAP1 DUP2 ADD PUSH1 0x1F NOT AND DUP3 ADD PUSH1 0x40 MSTORE PUSH2 0x50D9 SWAP2 SWAP1 DUP2 ADD SWAP1 PUSH2 0x5EAA JUMP JUMPDEST POP PUSH1 0x40 MLOAD PUSH4 0xD06CA61F PUSH1 0xE0 SHL DUP2 MSTORE PUSH1 0x0 DUP1 MLOAD PUSH1 0x20 PUSH2 0x5F31 DUP4 CODECOPY DUP2 MLOAD SWAP2 MSTORE SWAP1 PUSH4 0xD06CA61F SWAP1 PUSH2 0x5115 SWAP1 PUSH8 0xDE0B6B3A7640000 SWAP1 DUP8 SWAP1 PUSH1 0x4 ADD PUSH2 0x5E53 JUMP JUMPDEST PUSH1 0x0 PUSH1 0x40 MLOAD DUP1 DUP4 SUB DUP2 DUP7 GAS STATICCALL ISZERO DUP1 ISZERO PUSH2 0x5132 JUMPI RETURNDATASIZE PUSH1 0x0 DUP1 RETURNDATACOPY RETURNDATASIZE PUSH1 0x0 REVERT JUMPDEST POP POP POP POP PUSH1 0x40 MLOAD RETURNDATASIZE PUSH1 0x0 DUP3 RETURNDATACOPY PUSH1 0x1F RETURNDATASIZE SWAP1 DUP2 ADD PUSH1 0x1F NOT AND DUP3 ADD PUSH1 0x40 MSTORE PUSH2 0x515A SWAP2 SWAP1 DUP2 ADD SWAP1 PUSH2 0x5EAA JUMP JUMPDEST POP PUSH1 0x40 MLOAD PUSH4 0xD06CA61F PUSH1 0xE0 SHL DUP2 MSTORE PUSH1 0x0 DUP1 MLOAD PUSH1 0x20 PUSH2 0x5F31 DUP4 CODECOPY DUP2 MLOAD SWAP2 MSTORE SWAP1 PUSH4 0xD06CA61F SWAP1 PUSH2 0x5196 SWAP1 PUSH8 0xDE0B6B3A7640000 SWAP1 DUP8 SWAP1 PUSH1 0x4 ADD PUSH2 0x5E53 JUMP JUMPDEST PUSH1 0x0 PUSH1 0x40 MLOAD DUP1 DUP4 SUB DUP2 DUP7 GAS STATICCALL ISZERO DUP1 ISZERO PUSH2 0x51B3 JUMPI RETURNDATASIZE PUSH1 0x0 DUP1 RETURNDATACOPY RETURNDATASIZE PUSH1 0x0 REVERT JUMPDEST POP POP POP POP PUSH1 0x40 MLOAD RETURNDATASIZE PUSH1 0x0 DUP3 RETURNDATACOPY PUSH1 0x1F RETURNDATASIZE SWAP1 DUP2 ADD PUSH1 0x1F NOT AND DUP3 ADD PUSH1 0x40 MSTORE PUSH2 0x51DB SWAP2 SWAP1 DUP2 ADD SWAP1 PUSH2 0x5EAA JUMP JUMPDEST POP PUSH1 0x40 MLOAD PUSH4 0xD06CA61F PUSH1 0xE0 SHL DUP2 MSTORE PUSH1 0x0 DUP1 MLOAD PUSH1 0x20 PUSH2 0x5F31 DUP4 CODECOPY DUP2 MLOAD SWAP2 MSTORE SWAP1 PUSH4 0xD06CA61F SWAP1 PUSH2 0x5217 SWAP1 PUSH8 0xDE0B6B3A7640000 SWAP1 DUP8 SWAP1 PUSH1 0x4 ADD PUSH2 0x5E53 JUMP JUMPDEST PUSH1 0x0 PUSH1 0x40 MLOAD DUP1 DUP4 SUB DUP2 DUP7 GAS STATICCALL ISZERO DUP1 ISZERO PUSH2 0x5234 JUMPI RETURNDATASIZE PUSH1 0x0 DUP1 RETURNDATACOPY RETURNDATASIZE PUSH1 0x0 REVERT JUMPDEST POP POP POP POP PUSH1 0x40 MLOAD RETURNDATASIZE PUSH1 0x0 DUP3 RETURNDATACOPY PUSH1 0x1F RETURNDATASIZE SWAP1 DUP2 ADD PUSH1 0x1F NOT AND DUP3 ADD PUSH1 0x40 MSTORE PUSH2 0x525C SWAP2 SWAP1 DUP2 ADD SWAP1 PUSH2 0x5EAA JUMP JUMPDEST POP PUSH1 0x40 MLOAD PUSH4 0xD06CA61F PUSH1 0xE0 SHL DUP2 MSTORE PUSH1 0x0 DUP1 MLOAD PUSH1 0x20 PUSH2 0x5F31 DUP4 CODECOPY DUP2 MLOAD SWAP2 MSTORE SWAP1 PUSH4 0xD06CA61F SWAP1 PUSH2 0x5298 SWAP1 PUSH8 0xDE0B6B3A7640000 SWAP1 DUP8 SWAP1 PUSH1 0x4 ADD PUSH2 0x5E53 JUMP JUMPDEST PUSH1 0x0 PUSH1 0x40 MLOAD DUP1 DUP4 SUB DUP2 DUP7 GAS STATICCALL ISZERO DUP1 ISZERO PUSH2 0x52B5 JUMPI RETURNDATASIZE PUSH1 0x0 DUP1 RETURNDATACOPY RETURNDATASIZE PUSH1 0x0 REVERT JUMPDEST POP POP POP POP PUSH1 0x40 MLOAD RETURNDATASIZE PUSH1 0x0 DUP3 RETURNDATACOPY PUSH1 0x1F RETURNDATASIZE SWAP1 DUP2 ADD PUSH1 0x1F NOT AND DUP3 ADD PUSH1 0x40 MSTORE PUSH2 0x52DD SWAP2 SWAP1 DUP2 ADD SWAP1 PUSH2 0x5EAA JUMP JUMPDEST POP PUSH1 0x40 MLOAD PUSH4 0xD06CA61F PUSH1 0xE0 SHL DUP2 MSTORE PUSH1 0x0 DUP1 MLOAD PUSH1 0x20 PUSH2 0x5F31 DUP4 CODECOPY DUP2 MLOAD SWAP2 MSTORE SWAP1 PUSH4 0xD06CA61F SWAP1 PUSH2 0x5319 SWAP1 PUSH8 0xDE0B6B3A7640000 SWAP1 DUP8 SWAP1 PUSH1 0x4 ADD PUSH2 0x5E53 JUMP JUMPDEST PUSH1 0x0 PUSH1 0x40 MLOAD DUP1 DUP4 SUB DUP2 DUP7 GAS STATICCALL ISZERO DUP1 ISZERO PUSH2 0x5336 JUMPI RETURNDATASIZE PUSH1 0x0 DUP1 RETURNDATACOPY RETURNDATASIZE PUSH1 0x0 REVERT JUMPDEST POP POP POP POP PUSH1 0x40 MLOAD RETURNDATASIZE PUSH1 0x0 DUP3 RETURNDATACOPY PUSH1 0x1F RETURNDATASIZE SWAP1 DUP2 ADD PUSH1 0x1F NOT AND DUP3 ADD PUSH1 0x40 MSTORE PUSH2 0x535E SWAP2 SWAP1 DUP2 ADD SWAP1 PUSH2 0x5EAA JUMP JUMPDEST POP PUSH1 0x40 MLOAD PUSH4 0xD06CA61F PUSH1 0xE0 SHL DUP2 MSTORE PUSH1 0x0 DUP1 MLOAD PUSH1 0x20 PUSH2 0x5F31 DUP4 CODECOPY DUP2 MLOAD SWAP2 MSTORE SWAP1 PUSH4 0xD06CA61F SWAP1 PUSH2 0x539A SWAP1 PUSH8 0xDE0B6B3A7640000 SWAP1 DUP8 SWAP1 PUSH1 0x4 ADD PUSH2 0x5E53 JUMP JUMPDEST PUSH1 0x0 PUSH1 0x40 MLOAD DUP1 DUP4 SUB DUP2 DUP7 GAS STATICCALL ISZERO DUP1 ISZERO PUSH2 0x53B7 JUMPI RETURNDATASIZE PUSH1 0x0 DUP1 RETURNDATACOPY RETURNDATASIZE PUSH1 0x0 REVERT JUMPDEST POP POP POP POP PUSH1 0x40 MLOAD RETURNDATASIZE PUSH1 0x0 DUP3 RETURNDATACOPY PUSH1 0x1F RETURNDATASIZE SWAP1 DUP2 ADD PUSH1 0x1F NOT AND DUP3 ADD PUSH1 0x40 MSTORE PUSH2 0x53DF SWAP2 SWAP1 DUP2 ADD SWAP1 PUSH2 0x5EAA JUMP JUMPDEST POP PUSH1 0x40 MLOAD PUSH4 0xD06CA61F PUSH1 0xE0 SHL DUP2 MSTORE PUSH1 0x0 DUP1 MLOAD PUSH1 0x20 PUSH2 0x5F31 DUP4 CODECOPY DUP2 MLOAD SWAP2 MSTORE SWAP1 PUSH4 0xD06CA61F SWAP1 PUSH2 0x541B SWAP1 PUSH8 0xDE0B6B3A7640000 SWAP1 DUP8 SWAP1 PUSH1 0x4 ADD PUSH2 0x5E53 JUMP JUMPDEST PUSH1 0x0 PUSH1 0x40 MLOAD DUP1 DUP4 SUB DUP2 DUP7 GAS STATICCALL ISZERO DUP1 ISZERO PUSH2 0x5438 JUMPI RETURNDATASIZE PUSH1 0x0 DUP1 RETURNDATACOPY RETURNDATASIZE PUSH1 0x0 REVERT JUMPDEST POP POP POP POP PUSH1 0x40 MLOAD RETURNDATASIZE PUSH1 0x0 DUP3 RETURNDATACOPY PUSH1 0x1F RETURNDATASIZE SWAP1 DUP2 ADD PUSH1 0x1F NOT AND DUP3 ADD PUSH1 0x40 MSTORE PUSH2 0x5460 SWAP2 SWAP1 DUP2 ADD SWAP1 PUSH2 0x5EAA JUMP JUMPDEST POP PUSH1 0x40 MLOAD PUSH4 0xD06CA61F PUSH1 0xE0 SHL DUP2 MSTORE PUSH1 0x0 DUP1 MLOAD PUSH1 0x20 PUSH2 0x5F31 DUP4 CODECOPY DUP2 MLOAD SWAP2 MSTORE SWAP1 PUSH4 0xD06CA61F SWAP1 PUSH2 0x549C SWAP1 PUSH8 0xDE0B6B3A7640000 SWAP1 DUP8 SWAP1 PUSH1 0x4 ADD PUSH2 0x5E53 JUMP JUMPDEST PUSH1 0x0 PUSH1 0x40 MLOAD DUP1 DUP4 SUB DUP2 DUP7 GAS STATICCALL ISZERO DUP1 ISZERO PUSH2 0x54B9 JUMPI RETURNDATASIZE PUSH1 0x0 DUP1 RETURNDATACOPY RETURNDATASIZE PUSH1 0x0 REVERT JUMPDEST POP POP POP POP PUSH1 0x40 MLOAD RETURNDATASIZE PUSH1 0x0 DUP3 RETURNDATACOPY PUSH1 0x1F RETURNDATASIZE SWAP1 DUP2 ADD PUSH1 0x1F NOT AND DUP3 ADD PUSH1 0x40 MSTORE PUSH2 0x54E1 SWAP2 SWAP1 DUP2 ADD SWAP1 PUSH2 0x5EAA JUMP JUMPDEST POP PUSH1 0x40 MLOAD PUSH4 0xD06CA61F PUSH1 0xE0 SHL DUP2 MSTORE PUSH1 0x0 DUP1 MLOAD PUSH1 0x20 PUSH2 0x5F31 DUP4 CODECOPY DUP2 MLOAD SWAP2 MSTORE SWAP1 PUSH4 0xD06CA61F SWAP1 PUSH2 0x551D SWAP1 PUSH8 0xDE0B6B3A7640000 SWAP1 DUP8 SWAP1 PUSH1 0x4 ADD PUSH2 0x5E53 JUMP JUMPDEST PUSH1 0x0 PUSH1 0x40 MLOAD DUP1 DUP4 SUB DUP2 DUP7 GAS STATICCALL ISZERO DUP1 ISZERO PUSH2 0x553A JUMPI RETURNDATASIZE PUSH1 0x0 DUP1 RETURNDATACOPY RETURNDATASIZE PUSH1 0x0 REVERT JUMPDEST POP POP POP POP PUSH1 0x40 MLOAD RETURNDATASIZE PUSH1 0x0 DUP3 RETURNDATACOPY PUSH1 0x1F RETURNDATASIZE SWAP1 DUP2 ADD PUSH1 0x1F NOT AND DUP3 ADD PUSH1 0x40 MSTORE PUSH2 0x5562 SWAP2 SWAP1 DUP2 ADD SWAP1 PUSH2 0x5EAA JUMP JUMPDEST POP PUSH1 0x40 MLOAD PUSH4 0xD06CA61F PUSH1 0xE0 SHL DUP2 MSTORE PUSH1 0x0 DUP1 MLOAD PUSH1 0x20 PUSH2 0x5F31 DUP4 CODECOPY DUP2 MLOAD SWAP2 MSTORE SWAP1 PUSH4 0xD06CA61F SWAP1 PUSH2 0x559E SWAP1 PUSH8 0xDE0B6B3A7640000 SWAP1 DUP8 SWAP1 PUSH1 0x4 ADD PUSH2 0x5E53 JUMP JUMPDEST PUSH1 0x0 PUSH1 0x40 MLOAD DUP1 DUP4 SUB DUP2 DUP7 GAS STATICCALL ISZERO DUP1 ISZERO PUSH2 0x55BB JUMPI RETURNDATASIZE PUSH1 0x0 DUP1 RETURNDATACOPY RETURNDATASIZE PUSH1 0x0 REVERT JUMPDEST POP POP POP POP PUSH1 0x40 MLOAD RETURNDATASIZE PUSH1 0x0 DUP3 RETURNDATACOPY PUSH1 0x1F RETURNDATASIZE SWAP1 DUP2 ADD PUSH1 0x1F NOT AND DUP3 ADD PUSH1 0x40 MSTORE PUSH2 0x55E3 SWAP2 SWAP1 DUP2 ADD SWAP1 PUSH2 0x5EAA JUMP JUMPDEST POP PUSH1 0x40 MLOAD PUSH4 0xD06CA61F PUSH1 0xE0 SHL DUP2 MSTORE PUSH1 0x0 DUP1 MLOAD PUSH1 0x20 PUSH2 0x5F31 DUP4 CODECOPY DUP2 MLOAD SWAP2 MSTORE SWAP1 PUSH4 0xD06CA61F SWAP1 PUSH2 0x561F SWAP1 PUSH8 0xDE0B6B3A7640000 SWAP1 DUP8 SWAP1 PUSH1 0x4 ADD PUSH2 0x5E53 JUMP JUMPDEST PUSH1 0x0 PUSH1 0x40 MLOAD DUP1 DUP4 SUB DUP2 DUP7 GAS STATICCALL ISZERO DUP1 ISZERO PUSH2 0x563C JUMPI RETURNDATASIZE PUSH1 0x0 DUP1 RETURNDATACOPY RETURNDATASIZE PUSH1 0x0 REVERT JUMPDEST POP POP POP POP PUSH1 0x40 MLOAD RETURNDATASIZE PUSH1 0x0 DUP3 RETURNDATACOPY PUSH1 0x1F RETURNDATASIZE SWAP1 DUP2 ADD PUSH1 0x1F NOT AND DUP3 ADD PUSH1 0x40 MSTORE PUSH2 0x5664 SWAP2 SWAP1 DUP2 ADD SWAP1 PUSH2 0x5EAA JUMP JUMPDEST POP PUSH1 0x40 MLOAD PUSH4 0xD06CA61F PUSH1 0xE0 SHL DUP2 MSTORE PUSH1 0x0 DUP1 MLOAD PUSH1 0x20 PUSH2 0x5F31 DUP4 CODECOPY DUP2 MLOAD SWAP2 MSTORE SWAP1 PUSH4 0xD06CA61F SWAP1 PUSH2 0x56A0 SWAP1 PUSH8 0xDE0B6B3A7640000 SWAP1 DUP8 SWAP1 PUSH1 0x4 ADD PUSH2 0x5E53 JUMP JUMPDEST PUSH1 0x0 PUSH1 0x40 MLOAD DUP1 DUP4 SUB DUP2 DUP7 GAS STATICCALL ISZERO DUP1 ISZERO PUSH2 0x56BD JUMPI RETURNDATASIZE PUSH1 0x0 DUP1 RETURNDATACOPY RETURNDATASIZE PUSH1 0x0 REVERT JUMPDEST POP POP POP POP PUSH1 0x40 MLOAD RETURNDATASIZE PUSH1 0x0 DUP3 RETURNDATACOPY PUSH1 0x1F RETURNDATASIZE SWAP1 DUP2 ADD PUSH1 0x1F NOT AND DUP3 ADD PUSH1 0x40 MSTORE PUSH2 0x56E5 SWAP2 SWAP1 DUP2 ADD SWAP1 PUSH2 0x5EAA JUMP JUMPDEST POP PUSH1 0x40 MLOAD PUSH4 0xD06CA61F PUSH1 0xE0 SHL DUP2 MSTORE PUSH1 0x0 DUP1 MLOAD PUSH1 0x20 PUSH2 0x5F31 DUP4 CODECOPY DUP2 MLOAD SWAP2 MSTORE SWAP1 PUSH4 0xD06CA61F SWAP1 PUSH2 0x5721 SWAP1 PUSH8 0xDE0B6B3A7640000 SWAP1 DUP8 SWAP1 PUSH1 0x4 ADD PUSH2 0x5E53 JUMP JUMPDEST PUSH1 0x0 PUSH1 0x40 MLOAD DUP1 DUP4 SUB DUP2 DUP7 GAS STATICCALL ISZERO DUP1 ISZERO PUSH2 0x573E JUMPI RETURNDATASIZE PUSH1 0x0 DUP1 RETURNDATACOPY RETURNDATASIZE PUSH1 0x0 REVERT JUMPDEST POP POP POP POP PUSH1 0x40 MLOAD RETURNDATASIZE PUSH1 0x0 DUP3 RETURNDATACOPY PUSH1 0x1F RETURNDATASIZE SWAP1 DUP2 ADD PUSH1 0x1F NOT AND DUP3 ADD PUSH1 0x40 MSTORE PUSH2 0x5766 SWAP2 SWAP1 DUP2 ADD SWAP1 PUSH2 0x5EAA JUMP JUMPDEST POP PUSH1 0x40 MLOAD PUSH4 0xD06CA61F PUSH1 0xE0 SHL DUP2 MSTORE PUSH1 0x0 DUP1 MLOAD PUSH1 0x20 PUSH2 0x5F31 DUP4 CODECOPY DUP2 MLOAD SWAP2 MSTORE SWAP1 PUSH4 0xD06CA61F SWAP1 PUSH2 0x57A2 SWAP1 PUSH8 0xDE0B6B3A7640000 SWAP1 DUP8 SWAP1 PUSH1 0x4 ADD PUSH2 0x5E53 JUMP JUMPDEST PUSH1 0x0 PUSH1 0x40 MLOAD DUP1 DUP4 SUB DUP2 DUP7 GAS STATICCALL ISZERO DUP1 ISZERO PUSH2 0x57BF JUMPI RETURNDATASIZE PUSH1 0x0 DUP1 RETURNDATACOPY RETURNDATASIZE PUSH1 0x0 REVERT JUMPDEST POP POP POP POP PUSH1 0x40 MLOAD RETURNDATASIZE PUSH1 0x0 DUP3 RETURNDATACOPY PUSH1 0x1F RETURNDATASIZE SWAP1 DUP2 ADD PUSH1 0x1F NOT AND DUP3 ADD PUSH1 0x40 MSTORE PUSH2 0x57E7 SWAP2 SWAP1 DUP2 ADD SWAP1 PUSH2 0x5EAA JUMP JUMPDEST POP PUSH1 0x40 MLOAD PUSH4 0xD06CA61F PUSH1 0xE0 SHL DUP2 MSTORE PUSH1 0x0 DUP1 MLOAD PUSH1 0x20 PUSH2 0x5F31 DUP4 CODECOPY DUP2 MLOAD SWAP2 MSTORE SWAP1 PUSH4 0xD06CA61F SWAP1 PUSH2 0x5823 SWAP1 PUSH8 0xDE0B6B3A7640000 SWAP1 DUP8 SWAP1 PUSH1 0x4 ADD PUSH2 0x5E53 JUMP JUMPDEST PUSH1 0x0 PUSH1 0x40 MLOAD DUP1 DUP4 SUB DUP2 DUP7 GAS STATICCALL ISZERO DUP1 ISZERO PUSH2 0x5840 JUMPI RETURNDATASIZE PUSH1 0x0 DUP1 RETURNDATACOPY RETURNDATASIZE PUSH1 0x0 REVERT JUMPDEST POP POP POP POP PUSH1 0x40 MLOAD RETURNDATASIZE PUSH1 0x0 DUP3 RETURNDATACOPY PUSH1 0x1F RETURNDATASIZE SWAP1 DUP2 ADD PUSH1 0x1F NOT AND DUP3 ADD PUSH1 0x40 MSTORE PUSH2 0x5868 SWAP2 SWAP1 DUP2 ADD SWAP1 PUSH2 0x5EAA JUMP JUMPDEST POP PUSH1 0x40 MLOAD PUSH4 0xD06CA61F PUSH1 0xE0 SHL DUP2 MSTORE PUSH1 0x0 DUP1 MLOAD PUSH1 0x20 PUSH2 0x5F31 DUP4 CODECOPY DUP2 MLOAD SWAP2 MSTORE SWAP1 PUSH4 0xD06CA61F SWAP1 PUSH2 0x58A4 SWAP1 PUSH8 0xDE0B6B3A7640000 SWAP1 DUP8 SWAP1 PUSH1 0x4 ADD PUSH2 0x5E53 JUMP JUMPDEST PUSH1 0x0 PUSH1 0x40 MLOAD DUP1 DUP4 SUB DUP2 DUP7 GAS STATICCALL ISZERO DUP1 ISZERO PUSH2 0x58C1 JUMPI RETURNDATASIZE PUSH1 0x0 DUP1 RETURNDATACOPY RETURNDATASIZE PUSH1 0x0 REVERT JUMPDEST POP POP POP POP PUSH1 0x40 MLOAD RETURNDATASIZE PUSH1 0x0 DUP3 RETURNDATACOPY PUSH1 0x1F RETURNDATASIZE SWAP1 DUP2 ADD PUSH1 0x1F NOT AND DUP3 ADD PUSH1 0x40 MSTORE PUSH2 0x58E9 SWAP2 SWAP1 DUP2 ADD SWAP1 PUSH2 0x5EAA JUMP JUMPDEST POP PUSH1 0x40 MLOAD PUSH4 0xD06CA61F PUSH1 0xE0 SHL DUP2 MSTORE PUSH1 0x0 DUP1 MLOAD PUSH1 0x20 PUSH2 0x5F31 DUP4 CODECOPY DUP2 MLOAD SWAP2 MSTORE SWAP1 PUSH4 0xD06CA61F SWAP1 PUSH2 0x5925 SWAP1 PUSH8 0xDE0B6B3A7640000 SWAP1 DUP8 SWAP1 PUSH1 0x4 ADD PUSH2 0x5E53 JUMP JUMPDEST PUSH1 0x0 PUSH1 0x40 MLOAD DUP1 DUP4 SUB DUP2 DUP7 GAS STATICCALL ISZERO DUP1 ISZERO PUSH2 0x5942 JUMPI RETURNDATASIZE PUSH1 0x0 DUP1 RETURNDATACOPY RETURNDATASIZE PUSH1 0x0 REVERT JUMPDEST POP POP POP POP PUSH1 0x40 MLOAD RETURNDATASIZE PUSH1 0x0 DUP3 RETURNDATACOPY PUSH1 0x1F RETURNDATASIZE SWAP1 DUP2 ADD PUSH1 0x1F NOT AND DUP3 ADD PUSH1 0x40 MSTORE PUSH2 0x596A SWAP2 SWAP1 DUP2 ADD SWAP1 PUSH2 0x5EAA JUMP JUMPDEST POP PUSH1 0x40 MLOAD PUSH4 0xD06CA61F PUSH1 0xE0 SHL DUP2 MSTORE PUSH1 0x0 DUP1 MLOAD PUSH1 0x20 PUSH2 0x5F31 DUP4 CODECOPY DUP2 MLOAD SWAP2 MSTORE SWAP1 PUSH4 0xD06CA61F SWAP1 PUSH2 0x59A6 SWAP1 PUSH8 0xDE0B6B3A7640000 SWAP1 DUP8 SWAP1 PUSH1 0x4 ADD PUSH2 0x5E53 JUMP JUMPDEST PUSH1 0x0 PUSH1 0x40 MLOAD DUP1 DUP4 SUB DUP2 DUP7 GAS STATICCALL ISZERO DUP1 ISZERO PUSH2 0x59C3 JUMPI RETURNDATASIZE PUSH1 0x0 DUP1 RETURNDATACOPY RETURNDATASIZE PUSH1 0x0 REVERT JUMPDEST POP POP POP POP PUSH1 0x40 MLOAD RETURNDATASIZE PUSH1 0x0 DUP3 RETURNDATACOPY PUSH1 0x1F RETURNDATASIZE SWAP1 DUP2 ADD PUSH1 0x1F NOT AND DUP3 ADD PUSH1 0x40 MSTORE PUSH2 0x59EB SWAP2 SWAP1 DUP2 ADD SWAP1 PUSH2 0x5EAA JUMP JUMPDEST POP PUSH1 0x40 MLOAD PUSH4 0xD06CA61F PUSH1 0xE0 SHL DUP2 MSTORE PUSH1 0x0 DUP1 MLOAD PUSH1 0x20 PUSH2 0x5F31 DUP4 CODECOPY DUP2 MLOAD SWAP2 MSTORE SWAP1 PUSH4 0xD06CA61F SWAP1 PUSH2 0x5A27 SWAP1 PUSH8 0xDE0B6B3A7640000 SWAP1 DUP8 SWAP1 PUSH1 0x4 ADD PUSH2 0x5E53 JUMP JUMPDEST PUSH1 0x0 PUSH1 0x40 MLOAD DUP1 DUP4 SUB DUP2 DUP7 GAS STATICCALL ISZERO DUP1 ISZERO PUSH2 0x5A44 JUMPI RETURNDATASIZE PUSH1 0x0 DUP1 RETURNDATACOPY RETURNDATASIZE PUSH1 0x0 REVERT JUMPDEST POP POP POP POP PUSH1 0x40 MLOAD RETURNDATASIZE PUSH1 0x0 DUP3 RETURNDATACOPY PUSH1 0x1F RETURNDATASIZE SWAP1 DUP2 ADD PUSH1 0x1F NOT AND DUP3 ADD PUSH1 0x40 MSTORE PUSH2 0x5A6C SWAP2 SWAP1 DUP2 ADD SWAP1 PUSH2 0x5EAA JUMP JUMPDEST POP PUSH1 0x40 MLOAD PUSH4 0xD06CA61F PUSH1 0xE0 SHL DUP2 MSTORE PUSH1 0x0 DUP1 MLOAD PUSH1 0x20 PUSH2 0x5F31 DUP4 CODECOPY DUP2 MLOAD SWAP2 MSTORE SWAP1 PUSH4 0xD06CA61F SWAP1 PUSH2 0x5AA8 SWAP1 PUSH8 0xDE0B6B3A7640000 SWAP1 DUP8 SWAP1 PUSH1 0x4 ADD PUSH2 0x5E53 JUMP JUMPDEST PUSH1 0x0 PUSH1 0x40 MLOAD DUP1 DUP4 SUB DUP2 DUP7 GAS STATICCALL ISZERO DUP1 ISZERO PUSH2 0x5AC5 JUMPI RETURNDATASIZE PUSH1 0x0 DUP1 RETURNDATACOPY RETURNDATASIZE PUSH1 0x0 REVERT JUMPDEST POP POP POP POP PUSH1 0x40 MLOAD RETURNDATASIZE PUSH1 0x0 DUP3 RETURNDATACOPY PUSH1 0x1F RETURNDATASIZE SWAP1 DUP2 ADD PUSH1 0x1F NOT AND DUP3 ADD PUSH1 0x40 MSTORE PUSH2 0x5AED SWAP2 SWAP1 DUP2 ADD SWAP1 PUSH2 0x5EAA JUMP JUMPDEST POP PUSH1 0x40 MLOAD PUSH4 0xD06CA61F PUSH1 0xE0 SHL DUP2 MSTORE PUSH1 0x0 DUP1 MLOAD PUSH1 0x20 PUSH2 0x5F31 DUP4 CODECOPY DUP2 MLOAD SWAP2 MSTORE SWAP1 PUSH4 0xD06CA61F SWAP1 PUSH2 0x5B29 SWAP1 PUSH8 0xDE0B6B3A7640000 SWAP1 DUP8 SWAP1 PUSH1 0x4 ADD PUSH2 0x5E53 JUMP JUMPDEST PUSH1 0x0 PUSH1 0x40 MLOAD DUP1 DUP4 SUB DUP2 DUP7 GAS STATICCALL ISZERO DUP1 ISZERO PUSH2 0x5B46 JUMPI RETURNDATASIZE PUSH1 0x0 DUP1 RETURNDATACOPY RETURNDATASIZE PUSH1 0x0 REVERT JUMPDEST POP POP POP POP PUSH1 0x40 MLOAD RETURNDATASIZE PUSH1 0x0 DUP3 RETURNDATACOPY PUSH1 0x1F RETURNDATASIZE SWAP1 DUP2 ADD PUSH1 0x1F NOT AND DUP3 ADD PUSH1 0x40 MSTORE PUSH2 0x5B6E SWAP2 SWAP1 DUP2 ADD SWAP1 PUSH2 0x5EAA JUMP JUMPDEST POP PUSH1 0x40 MLOAD PUSH4 0xD06CA61F PUSH1 0xE0 SHL DUP2 MSTORE PUSH1 0x0 DUP1 MLOAD PUSH1 0x20 PUSH2 0x5F31 DUP4 CODECOPY DUP2 MLOAD SWAP2 MSTORE SWAP1 PUSH4 0xD06CA61F SWAP1 PUSH2 0x5BAA SWAP1 PUSH8 0xDE0B6B3A7640000 SWAP1 DUP8 SWAP1 PUSH1 0x4 ADD PUSH2 0x5E53 JUMP JUMPDEST PUSH1 0x0 PUSH1 0x40 MLOAD DUP1 DUP4 SUB DUP2 DUP7 GAS STATICCALL ISZERO DUP1 ISZERO PUSH2 0x5BC7 JUMPI RETURNDATASIZE PUSH1 0x0 DUP1 RETURNDATACOPY RETURNDATASIZE PUSH1 0x0 REVERT JUMPDEST POP POP POP POP PUSH1 0x40 MLOAD RETURNDATASIZE PUSH1 0x0 DUP3 RETURNDATACOPY PUSH1 0x1F RETURNDATASIZE SWAP1 DUP2 ADD PUSH1 0x1F NOT AND DUP3 ADD PUSH1 0x40 MSTORE PUSH2 0x5BEF SWAP2 SWAP1 DUP2 ADD SWAP1 PUSH2 0x5EAA JUMP JUMPDEST POP PUSH1 0x40 MLOAD PUSH4 0xD06CA61F PUSH1 0xE0 SHL DUP2 MSTORE PUSH1 0x0 DUP1 MLOAD PUSH1 0x20 PUSH2 0x5F31 DUP4 CODECOPY DUP2 MLOAD SWAP2 MSTORE SWAP1 PUSH4 0xD06CA61F SWAP1 PUSH2 0x5C2B SWAP1 PUSH8 0xDE0B6B3A7640000 SWAP1 DUP8 SWAP1 PUSH1 0x4 ADD PUSH2 0x5E53 JUMP JUMPDEST PUSH1 0x0 PUSH1 0x40 MLOAD DUP1 DUP4 SUB DUP2 DUP7 GAS STATICCALL ISZERO DUP1 ISZERO PUSH2 0x5C48 JUMPI RETURNDATASIZE PUSH1 0x0 DUP1 RETURNDATACOPY RETURNDATASIZE PUSH1 0x0 REVERT JUMPDEST POP POP POP POP PUSH1 0x40 MLOAD RETURNDATASIZE PUSH1 0x0 DUP3 RETURNDATACOPY PUSH1 0x1F RETURNDATASIZE SWAP1 DUP2 ADD PUSH1 0x1F NOT AND DUP3 ADD PUSH1 0x40 MSTORE PUSH2 0x5C70 SWAP2 SWAP1 DUP2 ADD SWAP1 PUSH2 0x5EAA JUMP JUMPDEST POP PUSH1 0x40 MLOAD PUSH4 0xD06CA61F PUSH1 0xE0 SHL DUP2 MSTORE PUSH1 0x0 DUP1 MLOAD PUSH1 0x20 PUSH2 0x5F31 DUP4 CODECOPY DUP2 MLOAD SWAP2 MSTORE SWAP1 PUSH4 0xD06CA61F SWAP1 PUSH2 0x5CAC SWAP1 PUSH8 0xDE0B6B3A7640000 SWAP1 DUP8 SWAP1 PUSH1 0x4 ADD PUSH2 0x5E53 JUMP JUMPDEST PUSH1 0x0 PUSH1 0x40 MLOAD DUP1 DUP4 SUB DUP2 DUP7 GAS STATICCALL ISZERO DUP1 ISZERO PUSH2 0x5CC9 JUMPI RETURNDATASIZE PUSH1 0x0 DUP1 RETURNDATACOPY RETURNDATASIZE PUSH1 0x0 REVERT JUMPDEST POP POP POP POP PUSH1 0x40 MLOAD RETURNDATASIZE PUSH1 0x0 DUP3 RETURNDATACOPY PUSH1 0x1F RETURNDATASIZE SWAP1 DUP2 ADD PUSH1 0x1F NOT AND DUP3 ADD PUSH1 0x40 MSTORE PUSH2 0x5CF1 SWAP2 SWAP1 DUP2 ADD SWAP1 PUSH2 0x5EAA JUMP JUMPDEST POP SWAP3 SWAP2 POP POP JUMP JUMPDEST PUSH4 0x4E487B71 PUSH1 0xE0 SHL PUSH1 0x0 MSTORE PUSH1 0x41 PUSH1 0x4 MSTORE PUSH1 0x24 PUSH1 0x0 REVERT JUMPDEST PUSH1 0x40 MLOAD PUSH1 0x1F DUP3 ADD PUSH1 0x1F NOT AND DUP2 ADD PUSH8 0xFFFFFFFFFFFFFFFF DUP2 GT DUP3 DUP3 LT OR ISZERO PUSH2 0x5D37 JUMPI PUSH2 0x5D37 PUSH2 0x5CF8 JUMP JUMPDEST PUSH1 0x40 MSTORE SWAP2 SWAP1 POP JUMP JUMPDEST PUSH1 0x0 PUSH8 0xFFFFFFFFFFFFFFFF DUP3 GT ISZERO PUSH2 0x5D59 JUMPI PUSH2 0x5D59 PUSH2 0x5CF8 JUMP JUMPDEST POP PUSH1 0x5 SHL PUSH1 0x20 ADD SWAP1 JUMP JUMPDEST PUSH1 0x0 PUSH1 0x20 DUP1 DUP4 DUP6 SUB SLT ISZERO PUSH2 0x5D76 JUMPI PUSH1 0x0 DUP1 REVERT JUMPDEST DUP3 CALLDATALOAD PUSH8 0xFFFFFFFFFFFFFFFF DUP2 GT ISZERO PUSH2 0x5D8D JUMPI PUSH1 0x0 DUP1 REVERT JUMPDEST DUP4 ADD PUSH1 0x1F DUP2 ADD DUP6 SGT PUSH2 0x5D9E JUMPI PUSH1 0x0 DUP1 REVERT JUMPDEST DUP1 CALLDATALOAD PUSH2 0x5DB1 PUSH2 0x5DAC DUP3 PUSH2 0x5D3F JUMP JUMPDEST PUSH2 0x5D0E JUMP JUMPDEST DUP2 DUP2 MSTORE PUSH1 0x5 SWAP2 SWAP1 SWAP2 SHL DUP3 ADD DUP4 ADD SWAP1 DUP4 DUP2 ADD SWAP1 DUP8 DUP4 GT ISZERO PUSH2 0x5DD0 JUMPI PUSH1 0x0 DUP1 REVERT JUMPDEST SWAP3 DUP5 ADD SWAP3 JUMPDEST DUP3 DUP5 LT ISZERO PUSH2 0x5E04 JUMPI DUP4 CALLDATALOAD PUSH1 0x1 PUSH1 0x1 PUSH1 0xA0 SHL SUB DUP2 AND DUP2 EQ PUSH2 0x5DF5 JUMPI PUSH1 0x0 DUP1 DUP2 REVERT JUMPDEST DUP3 MSTORE SWAP3 DUP5 ADD SWAP3 SWAP1 DUP5 ADD SWAP1 PUSH2 0x5DD5 JUMP JUMPDEST SWAP8 SWAP7 POP POP POP POP POP POP POP JUMP JUMPDEST PUSH1 0x20 DUP1 DUP3 MSTORE DUP3 MLOAD DUP3 DUP3 ADD DUP2 SWAP1 MSTORE PUSH1 0x0 SWAP2 SWAP1 DUP5 DUP3 ADD SWAP1 PUSH1 0x40 DUP6 ADD SWAP1 DUP5 JUMPDEST DUP2 DUP2 LT ISZERO PUSH2 0x5E47 JUMPI DUP4 MLOAD DUP4 MSTORE SWAP3 DUP5 ADD SWAP3 SWAP2 DUP5 ADD SWAP2 PUSH1 0x1 ADD PUSH2 0x5E2B JUMP JUMPDEST POP SWAP1 SWAP7 SWAP6 POP POP POP POP POP POP JUMP JUMPDEST PUSH1 0x0 PUSH1 0x40 DUP3 ADD DUP5 DUP4 MSTORE PUSH1 0x20 PUSH1 0x40 DUP2 DUP6 ADD MSTORE DUP2 DUP6 MLOAD DUP1 DUP5 MSTORE PUSH1 0x60 DUP7 ADD SWAP2 POP DUP3 DUP8 ADD SWAP4 POP PUSH1 0x0 JUMPDEST DUP2 DUP2 LT ISZERO PUSH2 0x5E9D JUMPI DUP5 MLOAD PUSH1 0x1 PUSH1 0x1 PUSH1 0xA0 SHL SUB AND DUP4 MSTORE SWAP4 DUP4 ADD SWAP4 SWAP2 DUP4 ADD SWAP2 PUSH1 0x1 ADD PUSH2 0x5E78 JUMP JUMPDEST POP SWAP1 SWAP8 SWAP7 POP POP POP POP POP POP POP JUMP JUMPDEST PUSH1 0x0 PUSH1 0x20 DUP1 DUP4 DUP6 SUB SLT ISZERO PUSH2 0x5EBD JUMPI PUSH1 0x0 DUP1 REVERT JUMPDEST DUP3 MLOAD PUSH8 0xFFFFFFFFFFFFFFFF DUP2 GT ISZERO PUSH2 0x5ED4 JUMPI PUSH1 0x0 DUP1 REVERT JUMPDEST DUP4 ADD PUSH1 0x1F DUP2 ADD DUP6 SGT PUSH2 0x5EE5 JUMPI PUSH1 0x0 DUP1 REVERT JUMPDEST DUP1 MLOAD PUSH2 0x5EF3 PUSH2 0x5DAC DUP3 PUSH2 0x5D3F JUMP JUMPDEST DUP2 DUP2 MSTORE PUSH1 0x5 SWAP2 SWAP1 SWAP2 SHL DUP3 ADD DUP4 ADD SWAP1 DUP4 DUP2 ADD SWAP1 DUP8 DUP4 GT ISZERO PUSH2 0x5F12 JUMPI PUSH1 0x0 DUP1 REVERT JUMPDEST SWAP3 DUP5 ADD SWAP3 JUMPDEST DUP3 DUP5 LT ISZERO PUSH2 0x5E04 JUMPI DUP4 MLOAD DUP3 MSTORE SWAP3 DUP5 ADD SWAP3 SWAP1 DUP5 ADD SWAP1 PUSH2 0x5F17 JUMP INVALID STOP STOP STOP STOP STOP STOP STOP STOP STOP STOP STOP STOP PUSH27 0x250D5630B4CF539739DF2C5DACB4C659F2488DA264697066735822 SLT KECCAK256 MSTORE8 PC 0xB3 PUSH24 0x708FEC3C4FFE45AF41370108FEC1AE29C540DDEEB05EC951 0xBE CALLVALUE 0x23 COINBASE PUSH5 0x736F6C6343 STOP ADDMOD SLT STOP CALLER "
		},
		"gasEstimates": {
			"creation": {
				"codeDepositCost": "4890800",
				"executionCost": "5784",
				"totalCost": "4896584"
			},
			"external": {
				"getDEXAmountOut(address[])": "infinite",
				"sushiswapV2Router()": "205",
				"uniswapV2Router()": "infinite"
			}
		},
		"methodIdentifiers": {
			"getDEXAmountOut(address[])": "7f63db5b",
			"sushiswapV2Router()": "38c6cdd5",
			"uniswapV2Router()": "1694505e"
		}
	},
	"abi": [
		{
			"inputs": [
				{
					"internalType": "address[]",
					"name": "path",
					"type": "address[]"
				}
			],
			"name": "getDEXAmountOut",
			"outputs": [
				{
					"internalType": "uint256[]",
					"name": "",
					"type": "uint256[]"
				}
			],
			"stateMutability": "view",
			"type": "function"
		},
		{
			"inputs": [],
			"name": "sushiswapV2Router",
			"outputs": [
				{
					"internalType": "address",
					"name": "",
					"type": "address"
				}
			],
			"stateMutability": "view",
			"type": "function"
		},
		{
			"inputs": [],
			"name": "uniswapV2Router",
			"outputs": [
				{
					"internalType": "address",
					"name": "",
					"type": "address"
				}
			],
			"stateMutability": "view",
			"type": "function"
		}
	]
}